{
  "_format": "hh-sol-artifact-1",
  "contractName": "PositionMigrator",
  "sourceName": "contracts/V2Migration/PositionMigrator.sol",
  "abi": [
    {
      "anonymous": false,
      "inputs": [
        {
          "indexed": false,
          "internalType": "contract IDCAHub",
          "name": "sourceHub",
          "type": "address"
        },
        {
          "indexed": false,
          "internalType": "uint256",
          "name": "sourcePositionId",
          "type": "uint256"
        },
        {
          "indexed": false,
          "internalType": "contract IDCAHub",
          "name": "targetHub",
          "type": "address"
        },
        {
          "indexed": false,
          "internalType": "uint256",
          "name": "targetPositionId",
          "type": "uint256"
        }
      ],
      "name": "Migrated",
      "type": "event"
    },
    {
      "inputs": [
        {
          "internalType": "contract IDCAHub",
          "name": "_sourceHub",
          "type": "address"
        },
        {
          "internalType": "uint256",
          "name": "_positionId",
          "type": "uint256"
        },
        {
          "components": [
            {
              "components": [
                {
                  "internalType": "address",
                  "name": "operator",
                  "type": "address"
                },
                {
                  "internalType": "enum IDCAPermissionManager.Permission[]",
                  "name": "permissions",
                  "type": "uint8[]"
                }
              ],
              "internalType": "struct IDCAPermissionManager.PermissionSet[]",
              "name": "permissions",
              "type": "tuple[]"
            },
            {
              "internalType": "uint256",
              "name": "deadline",
              "type": "uint256"
            },
            {
              "internalType": "uint8",
              "name": "v",
              "type": "uint8"
            },
            {
              "internalType": "bytes32",
              "name": "r",
              "type": "bytes32"
            },
            {
              "internalType": "bytes32",
              "name": "s",
              "type": "bytes32"
            }
          ],
          "internalType": "struct PositionMigrator.Signature",
          "name": "_signature",
          "type": "tuple"
        },
        {
          "internalType": "contract IDCAHub",
          "name": "_targetHub",
          "type": "address"
        }
      ],
      "name": "migrate",
      "outputs": [],
      "stateMutability": "nonpayable",
      "type": "function"
    }
  ],
  "bytecode": "0x608060405234801561001057600080fd5b50610b5d806100206000396000f3fe608060405234801561001057600080fd5b506004361061002b5760003560e01c80636cf2bd1314610030575b600080fd5b61004361003e36600461054a565b610045565b005b60008473ffffffffffffffffffffffffffffffffffffffff1663cc7a20496040518163ffffffff1660e01b8152600401602060405180830381865afa158015610092573d6000803e3d6000fd5b505050506040513d601f19601f820116820180604052508101906100b691906105bb565b6040517f6352211e0000000000000000000000000000000000000000000000000000000081526004810186905290915060009073ffffffffffffffffffffffffffffffffffffffff831690636352211e90602401602060405180830381865afa158015610127573d6000803e3d6000fd5b505050506040513d601f19601f8201168201806040525081019061014b91906105bb565b6040517f5b6fd01d0000000000000000000000000000000000000000000000000000000081526004810187905290915060009073ffffffffffffffffffffffffffffffffffffffff881690635b6fd01d9060240161010060405180830381865afa1580156101bd573d6000803e3d6000fd5b505050506040513d601f19601f820116820180604052508101906101e19190610651565b905073ffffffffffffffffffffffffffffffffffffffff8316634faa3883610209878061072f565b8960208a013561021f60608c0160408d0161079e565b8b606001358c608001356040518863ffffffff1660e01b815260040161024b9796959493929190610803565b600060405180830381600087803b15801561026557600080fd5b505af1158015610279573d6000803e3d6000fd5b50506040517f72ada4c50000000000000000000000000000000000000000000000000000000081526004810189905230602482015273ffffffffffffffffffffffffffffffffffffffff8581166044830152600093508a1691506372ada4c59060640160408051808303816000875af11580156102fa573d6000803e3d6000fd5b505050506040513d601f19601f8201168201806040525081019061031e91906109ab565b5082516040517f095ea7b300000000000000000000000000000000000000000000000000000000815273ffffffffffffffffffffffffffffffffffffffff88811660048301526024820184905292935091169063095ea7b3906044016020604051808303816000875af1158015610399573d6000803e3d6000fd5b505050506040513d601f19601f820116820180604052508101906103bd91906109cf565b5060008573ffffffffffffffffffffffffffffffffffffffff16636b29e1bd84600001518560200151858760a0015188604001518a600067ffffffffffffffff81111561040c5761040c6105df565b60405190808252806020026020018201604052801561045257816020015b60408051808201909152600081526060602082015281526020019060019003908161042a5790505b506040518863ffffffff1660e01b815260040161047597969594939291906109f1565b6020604051808303816000875af1158015610494573d6000803e3d6000fd5b505050506040513d601f19601f820116820180604052508101906104b89190610b0e565b6040805173ffffffffffffffffffffffffffffffffffffffff8c81168252602082018c90528916818301526060810183905290519192507fa1b67f2558eee3c6664dc7d0d4869842e9676f4c48226e28a5c0cdfe453028d3919081900360800190a1505050505050505050565b73ffffffffffffffffffffffffffffffffffffffff8116811461054757600080fd5b50565b6000806000806080858703121561056057600080fd5b843561056b81610525565b935060208501359250604085013567ffffffffffffffff81111561058e57600080fd5b850160a081880312156105a057600080fd5b915060608501356105b081610525565b939692955090935050565b6000602082840312156105cd57600080fd5b81516105d881610525565b9392505050565b7f4e487b7100000000000000000000000000000000000000000000000000000000600052604160045260246000fd5b805161061981610525565b919050565b805163ffffffff8116811461061957600080fd5b80516effffffffffffffffffffffffffffff8116811461061957600080fd5b600061010080838503121561066557600080fd5b6040519081019067ffffffffffffffff821181831017156106af577f4e487b7100000000000000000000000000000000000000000000000000000000600052604160045260246000fd5b816040526106bc8461060e565b81526106ca6020850161060e565b60208201526106db6040850161061e565b60408201526106ec6060850161061e565b60608201526080840151608082015261070760a0850161061e565b60a082015260c084015160c082015261072260e08501610632565b60e0820152949350505050565b60008083357fffffffffffffffffffffffffffffffffffffffffffffffffffffffffffffffe184360301811261076457600080fd5b83018035915067ffffffffffffffff82111561077f57600080fd5b6020019150600581901b360382131561079757600080fd5b9250929050565b6000602082840312156107b057600080fd5b813560ff811681146105d857600080fd5b6000600482106107fa577f4e487b7100000000000000000000000000000000000000000000000000000000600052602160045260246000fd5b50815260200190565b60c080825281018790526000600560e0808401908a831b8501018b845b8c811015610973577fffffffffffffffffffffffffffffffffffffffffffffffffffffffffffffff2087840301845281357fffffffffffffffffffffffffffffffffffffffffffffffffffffffffffffffc18f360301811261088157600080fd5b8e016040848101823561089381610525565b73ffffffffffffffffffffffffffffffffffffffff168652602083810135368590037fffffffffffffffffffffffffffffffffffffffffffffffffffffffffffffffe10181126108e257600080fd5b8401803567ffffffffffffffff8111156108fb57600080fd5b808b1b360386131561090c57600080fd5b888301949094529183905260608701935081810192600092905b8084101561095b57843591506004821061093f57600080fd5b61094986836107c1565b95508285019450600184019350610926565b50509687019692955050509190910190600101610820565b5050809350505050866020830152856040830152610996606083018660ff169052565b608082019390935260a0015295945050505050565b600080604083850312156109be57600080fd5b505080516020909101519092909150565b6000602082840312156109e157600080fd5b815180151581146105d857600080fd5b600060e0820173ffffffffffffffffffffffffffffffffffffffff808b1684526020818b168186015260408a81870152606063ffffffff808c1682890152808b1660808901525083891660a088015260e060c088015284885180875261010096508689019150868160051b8a01019650848a016000805b83811015610af5578b8a037fffffffffffffffffffffffffffffffffffffffffffffffffffffffffffffff00018552825180518a168b52880151888b018890528051888c01819052908901908390888d01905b80831015610ae057610ace8285516107c1565b91508b84019350600183019250610abb565b509b5050509387019391870191600101610a68565b5050505050505050508091505098975050505050505050565b600060208284031215610b2057600080fd5b505191905056fea264697066735822122008da6fd7cfbcd13ab4bc66d1cd60c6054969fd5aa559c8035ee570ef85be18c464736f6c634300080d0033",
  "linkReferences": {},
  "deployedLinkReferences": {}
}