{
  "_format": "hh-sol-artifact-1",
  "contractName": "DCAHubCompanion",
  "sourceName": "contracts/DCAHubCompanion/DCAHubCompanion.sol",
  "abi": [
    {
      "inputs": [
        {
          "internalType": "contract IDCAHub",
          "name": "_hub",
          "type": "address"
        },
        {
          "internalType": "contract IWrappedProtocolToken",
          "name": "_wToken",
          "type": "address"
        },
        {
          "internalType": "address",
          "name": "_governor",
          "type": "address"
        }
      ],
      "stateMutability": "nonpayable",
      "type": "constructor"
    },
    {
      "inputs": [],
      "name": "InvalidMask",
      "type": "error"
    },
    {
      "inputs": [],
      "name": "InvalidTokenApprovalParams",
      "type": "error"
    },
    {
      "inputs": [],
      "name": "InvalidTokens",
      "type": "error"
    },
    {
      "inputs": [],
      "name": "UnauthorizedCaller",
      "type": "error"
    },
    {
      "inputs": [],
      "name": "ZeroAddress",
      "type": "error"
    },
    {
      "anonymous": false,
      "inputs": [
        {
          "indexed": false,
          "internalType": "address",
          "name": "_to",
          "type": "address"
        },
        {
          "indexed": false,
          "internalType": "address",
          "name": "token",
          "type": "address"
        },
        {
          "indexed": false,
          "internalType": "uint256",
          "name": "amount",
          "type": "uint256"
        }
      ],
      "name": "DustSent",
      "type": "event"
    },
    {
      "anonymous": false,
      "inputs": [],
      "name": "PendingGovernorAccepted",
      "type": "event"
    },
    {
      "anonymous": false,
      "inputs": [
        {
          "indexed": false,
          "internalType": "address",
          "name": "_pendingGovernor",
          "type": "address"
        }
      ],
      "name": "PendingGovernorSet",
      "type": "event"
    },
    {
      "anonymous": false,
      "inputs": [
        {
          "indexed": false,
          "internalType": "address[]",
          "name": "addresses",
          "type": "address[]"
        },
        {
          "indexed": false,
          "internalType": "bool[]",
          "name": "hasIssue",
          "type": "bool[]"
        }
      ],
      "name": "TokenWithApprovalIssuesSet",
      "type": "event"
    },
    {
      "inputs": [],
      "name": "PROTOCOL_TOKEN",
      "outputs": [
        {
          "internalType": "address",
          "name": "",
          "type": "address"
        }
      ],
      "stateMutability": "view",
      "type": "function"
    },
    {
      "inputs": [],
      "name": "acceptPendingGovernor",
      "outputs": [],
      "stateMutability": "nonpayable",
      "type": "function"
    },
    {
      "inputs": [],
      "name": "approveWTokenForHub",
      "outputs": [],
      "stateMutability": "nonpayable",
      "type": "function"
    },
    {
      "inputs": [
        {
          "internalType": "address",
          "name": "_from",
          "type": "address"
        },
        {
          "internalType": "address",
          "name": "_to",
          "type": "address"
        },
        {
          "internalType": "uint256",
          "name": "_amount",
          "type": "uint256"
        },
        {
          "internalType": "uint32",
          "name": "_amountOfSwaps",
          "type": "uint32"
        },
        {
          "internalType": "uint32",
          "name": "_swapInterval",
          "type": "uint32"
        },
        {
          "internalType": "address",
          "name": "_owner",
          "type": "address"
        },
        {
          "components": [
            {
              "internalType": "address",
              "name": "operator",
              "type": "address"
            },
            {
              "internalType": "enum IDCAPermissionManager.Permission[]",
              "name": "permissions",
              "type": "uint8[]"
            }
          ],
          "internalType": "struct IDCAPermissionManager.PermissionSet[]",
          "name": "_permissions",
          "type": "tuple[]"
        },
        {
          "internalType": "bytes",
          "name": "_miscellaneous",
          "type": "bytes"
        },
        {
          "internalType": "bool",
          "name": "_transferFromCaller",
          "type": "bool"
        }
      ],
      "name": "depositProxy",
      "outputs": [
        {
          "internalType": "uint256",
          "name": "_positionId",
          "type": "uint256"
        }
      ],
      "stateMutability": "payable",
      "type": "function"
    },
    {
      "inputs": [
        {
          "internalType": "address",
          "name": "_from",
          "type": "address"
        },
        {
          "internalType": "address",
          "name": "_to",
          "type": "address"
        },
        {
          "internalType": "uint256",
          "name": "_amount",
          "type": "uint256"
        },
        {
          "internalType": "uint32",
          "name": "_amountOfSwaps",
          "type": "uint32"
        },
        {
          "internalType": "uint32",
          "name": "_swapInterval",
          "type": "uint32"
        },
        {
          "internalType": "address",
          "name": "_owner",
          "type": "address"
        },
        {
          "components": [
            {
              "internalType": "address",
              "name": "operator",
              "type": "address"
            },
            {
              "internalType": "enum IDCAPermissionManager.Permission[]",
              "name": "permissions",
              "type": "uint8[]"
            }
          ],
          "internalType": "struct IDCAPermissionManager.PermissionSet[]",
          "name": "_permissions",
          "type": "tuple[]"
        },
        {
          "internalType": "bytes",
          "name": "_miscellaneous",
          "type": "bytes"
        }
      ],
      "name": "depositUsingProtocolToken",
      "outputs": [
        {
          "internalType": "uint256",
          "name": "_positionId",
          "type": "uint256"
        }
      ],
      "stateMutability": "payable",
      "type": "function"
    },
    {
      "inputs": [
        {
          "components": [
            {
              "internalType": "address",
              "name": "tokenA",
              "type": "address"
            },
            {
              "internalType": "address",
              "name": "tokenB",
              "type": "address"
            }
          ],
          "internalType": "struct Pair[]",
          "name": "_pairs",
          "type": "tuple[]"
        }
      ],
      "name": "getNextSwapInfo",
      "outputs": [
        {
          "components": [
            {
              "components": [
                {
                  "internalType": "address",
                  "name": "token",
                  "type": "address"
                },
                {
                  "internalType": "uint256",
                  "name": "reward",
                  "type": "uint256"
                },
                {
                  "internalType": "uint256",
                  "name": "toProvide",
                  "type": "uint256"
                },
                {
                  "internalType": "uint256",
                  "name": "platformFee",
                  "type": "uint256"
                }
              ],
              "internalType": "struct IDCAHubSwapHandler.TokenInSwap[]",
              "name": "tokens",
              "type": "tuple[]"
            },
            {
              "components": [
                {
                  "internalType": "address",
                  "name": "tokenA",
                  "type": "address"
                },
                {
                  "internalType": "address",
                  "name": "tokenB",
                  "type": "address"
                },
                {
                  "internalType": "uint256",
                  "name": "ratioAToB",
                  "type": "uint256"
                },
                {
                  "internalType": "uint256",
                  "name": "ratioBToA",
                  "type": "uint256"
                },
                {
                  "internalType": "bytes1",
                  "name": "intervalsInSwap",
                  "type": "bytes1"
                }
              ],
              "internalType": "struct IDCAHubSwapHandler.PairInSwap[]",
              "name": "pairs",
              "type": "tuple[]"
            }
          ],
          "internalType": "struct IDCAHubSwapHandler.SwapInfo",
          "name": "",
          "type": "tuple"
        }
      ],
      "stateMutability": "view",
      "type": "function"
    },
    {
      "inputs": [],
      "name": "governor",
      "outputs": [
        {
          "internalType": "address",
          "name": "",
          "type": "address"
        }
      ],
      "stateMutability": "view",
      "type": "function"
    },
    {
      "inputs": [],
      "name": "hub",
      "outputs": [
        {
          "internalType": "contract IDCAHub",
          "name": "",
          "type": "address"
        }
      ],
      "stateMutability": "view",
      "type": "function"
    },
    {
      "inputs": [
        {
          "internalType": "uint256",
          "name": "_positionId",
          "type": "uint256"
        },
        {
          "internalType": "uint256",
          "name": "_amount",
          "type": "uint256"
        },
        {
          "internalType": "uint32",
          "name": "_newSwaps",
          "type": "uint32"
        },
        {
          "internalType": "bool",
          "name": "_transferFromCaller",
          "type": "bool"
        }
      ],
      "name": "increasePositionProxy",
      "outputs": [],
      "stateMutability": "payable",
      "type": "function"
    },
    {
      "inputs": [
        {
          "internalType": "uint256",
          "name": "_positionId",
          "type": "uint256"
        },
        {
          "internalType": "uint256",
          "name": "_amount",
          "type": "uint256"
        },
        {
          "internalType": "uint32",
          "name": "_newSwaps",
          "type": "uint32"
        }
      ],
      "name": "increasePositionUsingProtocolToken",
      "outputs": [],
      "stateMutability": "payable",
      "type": "function"
    },
    {
      "inputs": [
        {
          "internalType": "address",
          "name": "_account",
          "type": "address"
        }
      ],
      "name": "isGovernor",
      "outputs": [
        {
          "internalType": "bool",
          "name": "_isGovernor",
          "type": "bool"
        }
      ],
      "stateMutability": "view",
      "type": "function"
    },
    {
      "inputs": [
        {
          "internalType": "address",
          "name": "_account",
          "type": "address"
        }
      ],
      "name": "isPendingGovernor",
      "outputs": [
        {
          "internalType": "bool",
          "name": "_isPendingGovernor",
          "type": "bool"
        }
      ],
      "stateMutability": "view",
      "type": "function"
    },
    {
      "inputs": [
        {
          "internalType": "bytes[]",
          "name": "data",
          "type": "bytes[]"
        }
      ],
      "name": "multicall",
      "outputs": [
        {
          "internalType": "bytes[]",
          "name": "results",
          "type": "bytes[]"
        }
      ],
      "stateMutability": "payable",
      "type": "function"
    },
    {
      "inputs": [],
      "name": "pendingGovernor",
      "outputs": [
        {
          "internalType": "address",
          "name": "",
          "type": "address"
        }
      ],
      "stateMutability": "view",
      "type": "function"
    },
    {
      "inputs": [],
      "name": "permissionManager",
      "outputs": [
        {
          "internalType": "contract IDCAPermissionManager",
          "name": "",
          "type": "address"
        }
      ],
      "stateMutability": "view",
      "type": "function"
    },
    {
      "inputs": [
        {
          "components": [
            {
              "internalType": "address",
              "name": "operator",
              "type": "address"
            },
            {
              "internalType": "enum IDCAPermissionManager.Permission[]",
              "name": "permissions",
              "type": "uint8[]"
            }
          ],
          "internalType": "struct IDCAPermissionManager.PermissionSet[]",
          "name": "_permissions",
          "type": "tuple[]"
        },
        {
          "internalType": "uint256",
          "name": "_tokenId",
          "type": "uint256"
        },
        {
          "internalType": "uint256",
          "name": "_deadline",
          "type": "uint256"
        },
        {
          "internalType": "uint8",
          "name": "_v",
          "type": "uint8"
        },
        {
          "internalType": "bytes32",
          "name": "_r",
          "type": "bytes32"
        },
        {
          "internalType": "bytes32",
          "name": "_s",
          "type": "bytes32"
        }
      ],
      "name": "permissionPermitProxy",
      "outputs": [],
      "stateMutability": "payable",
      "type": "function"
    },
    {
      "inputs": [
        {
          "internalType": "uint256",
          "name": "_positionId",
          "type": "uint256"
        },
        {
          "internalType": "uint256",
          "name": "_amount",
          "type": "uint256"
        },
        {
          "internalType": "uint32",
          "name": "_newSwaps",
          "type": "uint32"
        },
        {
          "internalType": "address",
          "name": "_recipient",
          "type": "address"
        }
      ],
      "name": "reducePositionProxy",
      "outputs": [],
      "stateMutability": "payable",
      "type": "function"
    },
    {
      "inputs": [
        {
          "internalType": "uint256",
          "name": "_positionId",
          "type": "uint256"
        },
        {
          "internalType": "uint256",
          "name": "_amount",
          "type": "uint256"
        },
        {
          "internalType": "uint32",
          "name": "_newSwaps",
          "type": "uint32"
        },
        {
          "internalType": "address payable",
          "name": "_recipient",
          "type": "address"
        }
      ],
      "name": "reducePositionUsingProtocolToken",
      "outputs": [],
      "stateMutability": "payable",
      "type": "function"
    },
    {
      "inputs": [
        {
          "components": [
            {
              "internalType": "address",
              "name": "tokenA",
              "type": "address"
            },
            {
              "internalType": "address",
              "name": "tokenB",
              "type": "address"
            }
          ],
          "internalType": "struct Pair[]",
          "name": "_pairs",
          "type": "tuple[]"
        }
      ],
      "name": "secondsUntilNextSwap",
      "outputs": [
        {
          "internalType": "uint256[]",
          "name": "",
          "type": "uint256[]"
        }
      ],
      "stateMutability": "view",
      "type": "function"
    },
    {
      "inputs": [
        {
          "internalType": "address",
          "name": "_to",
          "type": "address"
        },
        {
          "internalType": "address",
          "name": "_token",
          "type": "address"
        },
        {
          "internalType": "uint256",
          "name": "_amount",
          "type": "uint256"
        }
      ],
      "name": "sendDust",
      "outputs": [],
      "stateMutability": "nonpayable",
      "type": "function"
    },
    {
      "inputs": [
        {
          "internalType": "address",
          "name": "__pendingGovernor",
          "type": "address"
        }
      ],
      "name": "setPendingGovernor",
      "outputs": [],
      "stateMutability": "nonpayable",
      "type": "function"
    },
    {
      "inputs": [
        {
          "internalType": "address[]",
          "name": "_addresses",
          "type": "address[]"
        },
        {
          "internalType": "bool[]",
          "name": "_hasIssue",
          "type": "bool[]"
        }
      ],
      "name": "setTokensWithApprovalIssues",
      "outputs": [],
      "stateMutability": "nonpayable",
      "type": "function"
    },
    {
      "inputs": [
        {
          "internalType": "uint256",
          "name": "_positionId",
          "type": "uint256"
        },
        {
          "internalType": "address",
          "name": "_recipientUnswapped",
          "type": "address"
        },
        {
          "internalType": "address",
          "name": "_recipientSwapped",
          "type": "address"
        }
      ],
      "name": "terminateProxy",
      "outputs": [
        {
          "internalType": "uint256",
          "name": "_unswapped",
          "type": "uint256"
        },
        {
          "internalType": "uint256",
          "name": "_swapped",
          "type": "uint256"
        }
      ],
      "stateMutability": "payable",
      "type": "function"
    },
    {
      "inputs": [
        {
          "internalType": "uint256",
          "name": "_positionId",
          "type": "uint256"
        },
        {
          "internalType": "address payable",
          "name": "_recipientUnswapped",
          "type": "address"
        },
        {
          "internalType": "address",
          "name": "_recipientSwapped",
          "type": "address"
        }
      ],
      "name": "terminateUsingProtocolTokenAsFrom",
      "outputs": [
        {
          "internalType": "uint256",
          "name": "_unswapped",
          "type": "uint256"
        },
        {
          "internalType": "uint256",
          "name": "_swapped",
          "type": "uint256"
        }
      ],
      "stateMutability": "payable",
      "type": "function"
    },
    {
      "inputs": [
        {
          "internalType": "uint256",
          "name": "_positionId",
          "type": "uint256"
        },
        {
          "internalType": "address",
          "name": "_recipientUnswapped",
          "type": "address"
        },
        {
          "internalType": "address payable",
          "name": "_recipientSwapped",
          "type": "address"
        }
      ],
      "name": "terminateUsingProtocolTokenAsTo",
      "outputs": [
        {
          "internalType": "uint256",
          "name": "_unswapped",
          "type": "uint256"
        },
        {
          "internalType": "uint256",
          "name": "_swapped",
          "type": "uint256"
        }
      ],
      "stateMutability": "payable",
      "type": "function"
    },
    {
      "inputs": [
        {
          "internalType": "address",
          "name": "",
          "type": "address"
        }
      ],
      "name": "tokenHasApprovalIssue",
      "outputs": [
        {
          "internalType": "bool",
          "name": "",
          "type": "bool"
        }
      ],
      "stateMutability": "view",
      "type": "function"
    },
    {
      "inputs": [],
      "name": "wToken",
      "outputs": [
        {
          "internalType": "contract IWrappedProtocolToken",
          "name": "",
          "type": "address"
        }
      ],
      "stateMutability": "view",
      "type": "function"
    },
    {
      "inputs": [
        {
          "components": [
            {
              "internalType": "address",
              "name": "token",
              "type": "address"
            },
            {
              "internalType": "uint256[]",
              "name": "positionIds",
              "type": "uint256[]"
            }
          ],
          "internalType": "struct IDCAHubPositionHandler.PositionSet[]",
          "name": "_positions",
          "type": "tuple[]"
        },
        {
          "internalType": "address",
          "name": "_recipient",
          "type": "address"
        }
      ],
      "name": "withdrawSwappedManyProxy",
      "outputs": [
        {
          "internalType": "uint256[]",
          "name": "_withdrawn",
          "type": "uint256[]"
        }
      ],
      "stateMutability": "payable",
      "type": "function"
    },
    {
      "inputs": [
        {
          "internalType": "uint256[]",
          "name": "_positionIds",
          "type": "uint256[]"
        },
        {
          "internalType": "address payable",
          "name": "_recipient",
          "type": "address"
        }
      ],
      "name": "withdrawSwappedManyUsingProtocolToken",
      "outputs": [
        {
          "internalType": "uint256",
          "name": "_swapped",
          "type": "uint256"
        }
      ],
      "stateMutability": "payable",
      "type": "function"
    },
    {
      "inputs": [
        {
          "internalType": "uint256",
          "name": "_positionId",
          "type": "uint256"
        },
        {
          "internalType": "address",
          "name": "_recipient",
          "type": "address"
        }
      ],
      "name": "withdrawSwappedProxy",
      "outputs": [
        {
          "internalType": "uint256",
          "name": "_swapped",
          "type": "uint256"
        }
      ],
      "stateMutability": "payable",
      "type": "function"
    },
    {
      "inputs": [
        {
          "internalType": "uint256",
          "name": "_positionId",
          "type": "uint256"
        },
        {
          "internalType": "address payable",
          "name": "_recipient",
          "type": "address"
        }
      ],
      "name": "withdrawSwappedUsingProtocolToken",
      "outputs": [
        {
          "internalType": "uint256",
          "name": "_swapped",
          "type": "uint256"
        }
      ],
      "stateMutability": "payable",
      "type": "function"
    },
    {
      "stateMutability": "payable",
      "type": "receive"
    }
  ],
  "bytecode": "0x60e06040523480156200001157600080fd5b50604051620051983803806200519883398101604081905262000034916200021d565b82836001600160a01b031663cc7a20496040518163ffffffff1660e01b8152600401602060405180830381865afa15801562000074573d6000803e3d6000fd5b505050506040513d601f19601f820116820180604052508101906200009a919062000271565b8383806001600160a01b038116620000f85760405162461bcd60e51b815260206004820152601860248201527f476f7665726e61626c653a207a65726f20616464726573730000000000000000604482015260640160405180910390fd5b600080546001600160a01b0319166001600160a01b03928316179055841615806200012a57506001600160a01b038316155b806200013d57506001600160a01b038216155b156200015c5760405163d92e233d60e01b815260040160405180910390fd5b506001600160a01b03928316608052821660c0521660a0526200017e62000187565b505050620002bc565b60c05160805160405163095ea7b360e01b81526001600160a01b039182166004820152600019602482015291169063095ea7b3906044016020604051808303816000875af1158015620001de573d6000803e3d6000fd5b505050506040513d601f19601f8201168201806040525081019062000204919062000298565b50565b6001600160a01b03811681146200020457600080fd5b6000806000606084860312156200023357600080fd5b8351620002408162000207565b6020850151909350620002538162000207565b6040850151909250620002668162000207565b809150509250925092565b6000602082840312156200028457600080fd5b8151620002918162000207565b9392505050565b600060208284031215620002ab57600080fd5b815180151581146200029157600080fd5b60805160a05160c051614de8620003b0600039600081816102670152818161099c01528181610a770152818161123d01528181611aad01528181611c330152611dba015260008181610477015281816111770152611b4a01526000818161035c0152818161062b0152818161077e015281816108420152818161096f01528181610a4a01528181610d4701528181610e0101528181610ee901528181610fa401528181611025015281816112ed015281816113f4015281816114af0152818161159e0152818161166c0152818161172d015281816117fe015281816119c501528181611a7d01526122cf0152614de86000f3fe6080604052600436106101dc5760003560e01c8063a2c346ec11610102578063df08aed511610095578063f0261ac411610064578063f0261ac41461057b578063f235757f1461058e578063f50b098e146105ae578063fe62b620146105c157600080fd5b8063df08aed5146104d2578063e3056a3414610501578063e43581b81461051f578063e581a3be1461054e57600080fd5b8063cc7a2049116100d1578063cc7a204914610465578063cc944c2e14610499578063d6d2d0b7146104ac578063d7752a0c146104bf57600080fd5b8063a2c346ec146103f2578063ac9650d81461041f578063b715b93d1461043f578063c95cb3871461045257600080fd5b806328c756b01161017a5780633e9820f1116101495780633e9820f114610391578063479e8fac146103a4578063535af430146103b7578063585cc6a5146103ca57600080fd5b806328c756b01461030a5780632db8c1291461032a578063365a86fc1461034a57806337be507e1461037e57600080fd5b80630c340a24116101b65780630c340a24146102a157806313f6986d146102bf57806318b5769c146102d65780631cd701f1146102e957600080fd5b8063065f957d146101e85780630a12aa481461022d5780630babd8641461025557600080fd5b366101e357005b600080fd5b3480156101f457600080fd5b50610218610203366004613643565b60026020526000908152604090205460ff1681565b60405190151581526020015b60405180910390f35b61024061023b366004613660565b6105d6565b60408051928352602083019190915201610224565b34801561026157600080fd5b506102897f000000000000000000000000000000000000000000000000000000000000000081565b6040516001600160a01b039091168152602001610224565b3480156102ad57600080fd5b506000546001600160a01b0316610289565b3480156102cb57600080fd5b506102d46106b0565b005b6102d46102e43660046136d8565b61073f565b6102fc6102f73660046137b0565b6108b0565b604051908152602001610224565b34801561031657600080fd5b506102d461032536600461388a565b610b03565b34801561033657600080fd5b506102d46103453660046138f6565b610c8f565b34801561035657600080fd5b506102897f000000000000000000000000000000000000000000000000000000000000000081565b6102fc61038c366004613937565b610cf9565b6102fc61039f366004613937565b610dbd565b6102d46103b2366004613967565b610e8a565b6102406103c5366004613660565b610f4d565b3480156103d657600080fd5b5061028973eeeeeeeeeeeeeeeeeeeeeeeeeeeeeeeeeeeeeeee81565b3480156103fe57600080fd5b5061041261040d3660046139a6565b61101e565b6040516102249190613a1b565b61043261042d366004613a5f565b611052565b6040516102249190613af9565b6102d461044d366004613b79565b611147565b6102fc610460366004613bfc565b6111b8565b34801561047157600080fd5b506102897f000000000000000000000000000000000000000000000000000000000000000081565b6102fc6104a7366004613c48565b6113b2565b6102d46104ba366004613967565b611549565b6102d46104cd366004613d32565b611614565b3480156104de57600080fd5b506102186104ed366004613643565b6001546001600160a01b0391821691161490565b34801561050d57600080fd5b506001546001600160a01b0316610289565b34801561052b57600080fd5b5061021861053a366004613643565b6000546001600160a01b0391821691161490565b34801561055a57600080fd5b5061056e6105693660046139a6565b6116d7565b6040516102249190613df3565b610240610589366004613660565b6117a9565b34801561059a57600080fd5b506102d46105a9366004613643565b611879565b6104126105bc366004613bfc565b6118df565b3480156105cd57600080fd5b506102d4611a4d565b6000808460036105e68282611b1a565b6040517f72ada4c5000000000000000000000000000000000000000000000000000000008152600481018890526001600160a01b0387811660248301523060448301527f000000000000000000000000000000000000000000000000000000000000000016906372ada4c59060640160408051808303816000875af1158015610673573d6000803e3d6000fd5b505050506040513d601f19601f820116820180604052508101906106979190613e86565b90945092506106a68386611bfe565b5050935093915050565b6001546001600160a01b031633146107355760405162461bcd60e51b815260206004820152602160248201527f476f7665726e61626c653a206f6e6c792070656e64696e6720676f7665726e6f60448201527f720000000000000000000000000000000000000000000000000000000000000060648201526084015b60405180910390fd5b61073d611ccd565b565b83600061074c8282611b1a565b6040517f5b6fd01d000000000000000000000000000000000000000000000000000000008152600481018790526000907f00000000000000000000000000000000000000000000000000000000000000006001600160a01b031690635b6fd01d9060240161010060405180830381865afa1580156107ce573d6000803e3d6000fd5b505050506040513d601f19601f820116820180604052508101906107f29190613fae565b519050610800818786611d8d565b6040517fded700a6000000000000000000000000000000000000000000000000000000008152600481018890526024810187905263ffffffff861660448201527f00000000000000000000000000000000000000000000000000000000000000006001600160a01b03169063ded700a6906064015b600060405180830381600087803b15801561088f57600080fd5b505af11580156108a3573d6000803e3d6000fd5b5050505050505050505050565b60006001600160a01b038b1673eeeeeeeeeeeeeeeeeeeeeeeeeeeeeeeeeeeeeeee1415806108fa57506001600160a01b038a1673eeeeeeeeeeeeeeeeeeeeeeeeeeeeeeeeeeeeeeee145b15610931576040517f672215de00000000000000000000000000000000000000000000000000000000815260040160405180910390fd5b61093a89611db2565b81610a1a576040517f6b29e1bd0000000000000000000000000000000000000000000000000000000081526001600160a01b037f00000000000000000000000000000000000000000000000000000000000000001690636b29e1bd906109d2907f0000000000000000000000000000000000000000000000000000000000000000908e908e908e908e908e908e908e9060040161420b565b6020604051808303816000875af11580156109f1573d6000803e3d6000fd5b505050506040513d601f19601f82011682018060405250810190610a15919061426a565b610af4565b6040517fb2b513c10000000000000000000000000000000000000000000000000000000081526001600160a01b037f0000000000000000000000000000000000000000000000000000000000000000169063b2b513c190610ab1907f0000000000000000000000000000000000000000000000000000000000000000908e908e908e908e908e908e908e908e908e90600401614283565b6020604051808303816000875af1158015610ad0573d6000803e3d6000fd5b505050506040513d601f19601f82011682018060405250810190610af4919061426a565b9b9a5050505050505050505050565b6000546001600160a01b03163314610b5d5760405162461bcd60e51b815260206004820152601960248201527f476f7665726e61626c653a206f6e6c7920676f7665726e6f7200000000000000604482015260640161072c565b828114610b96576040517fbab9192000000000000000000000000000000000000000000000000000000000815260040160405180910390fd5b60005b83811015610c4b57828282818110610bb357610bb3614310565b9050602002016020810190610bc8919061433f565b60026000878785818110610bde57610bde614310565b9050602002016020810190610bf39190613643565b6001600160a01b03168152602081019190915260400160002080547fffffffffffffffffffffffffffffffffffffffffffffffffffffffffffffff001691151591909117905580610c438161438b565b915050610b99565b507f03f0491d4ac1dcd8629e84f9f0d6af60220d6d3e6ce76dc9750959b580cf75e884848484604051610c8194939291906143a5565b60405180910390a150505050565b6000546001600160a01b03163314610ce95760405162461bcd60e51b815260206004820152601960248201527f476f7665726e61626c653a206f6e6c7920676f7665726e6f7200000000000000604482015260640161072c565b610cf4838383611e27565b505050565b6000826002610d088282611b1a565b6040517f17621890000000000000000000000000000000000000000000000000000000008152600481018690526001600160a01b0385811660248301527f000000000000000000000000000000000000000000000000000000000000000016906317621890906044016020604051808303816000875af1158015610d90573d6000803e3d6000fd5b505050506040513d601f19601f82011682018060405250810190610db4919061426a565b95945050505050565b6000826002610dcc8282611b1a565b6040517f17621890000000000000000000000000000000000000000000000000000000008152600481018690523060248201527f00000000000000000000000000000000000000000000000000000000000000006001600160a01b0316906317621890906044016020604051808303816000875af1158015610e52573d6000803e3d6000fd5b505050506040513d601f19601f82011682018060405250810190610e76919061426a565b9250610e828385611bfe565b505092915050565b836001610e978282611b1a565b6040517ff1accf39000000000000000000000000000000000000000000000000000000008152600481018790526024810186905263ffffffff851660448201526001600160a01b0384811660648301527f0000000000000000000000000000000000000000000000000000000000000000169063f1accf3990608401600060405180830381600087803b158015610f2d57600080fd5b505af1158015610f41573d6000803e3d6000fd5b50505050505050505050565b600080846003610f5d8282611b1a565b6040517f72ada4c5000000000000000000000000000000000000000000000000000000008152600481018890526001600160a01b03878116602483015286811660448301527f000000000000000000000000000000000000000000000000000000000000000016906372ada4c59060640160408051808303816000875af1158015610fec573d6000803e3d6000fd5b505050506040513d601f19601f820116820180604052508101906110109190613e86565b909890975095505050505050565b606061104b7f00000000000000000000000000000000000000000000000000000000000000008484611fcb565b9392505050565b60608167ffffffffffffffff81111561106d5761106d613eaa565b6040519080825280602002602001820160405280156110a057816020015b606081526020019060019003908161108b5790505b50905060005b8281101561114057611110308585848181106110c4576110c4614310565b90506020028101906110d69190614435565b8080601f0160208091040260200160405190810160405280939291908181526020018383808284376000920191909152506120af92505050565b82828151811061112257611122614310565b602002602001018190525080806111389061438b565b9150506110a6565b5092915050565b6040517f4faa38830000000000000000000000000000000000000000000000000000000081526001600160a01b037f00000000000000000000000000000000000000000000000000000000000000001690634faa388390610875908a908a908a908a908a908a908a9060040161449a565b6000805b838110156111f9576111e78585838181106111d9576111d9614310565b905060200201356002611b1a565b806111f18161438b565b9150506111bc565b50604080516001808252818301909252600091816020015b6040805180820190915260008152606060208201528152602001906001900390816112115790505090507f00000000000000000000000000000000000000000000000000000000000000008160008151811061126f5761126f614310565b6020026020010151600001906001600160a01b031690816001600160a01b03168152505084848080602002602001604051908101604052809392919081815260200183836020028082843760009201829052508551869450909250151590506112da576112da614310565b60200260200101516020018190525060007f00000000000000000000000000000000000000000000000000000000000000006001600160a01b031663480b379683306040518363ffffffff1660e01b81526004016113399291906144db565b6000604051808303816000875af1158015611358573d6000803e3d6000fd5b505050506040513d6000823e601f3d908101601f1916820160405261138091908101906145df565b90508060008151811061139557611395614310565b602002602001015192506113a98385611bfe565b50509392505050565b60006113bf8c8b84611d8d565b8261147f576040517f6b29e1bd0000000000000000000000000000000000000000000000000000000081526001600160a01b037f00000000000000000000000000000000000000000000000000000000000000001690636b29e1bd90611437908f908f908f908f908f908f908f908f9060040161420b565b6020604051808303816000875af1158015611456573d6000803e3d6000fd5b505050506040513d601f19601f8201168201806040525081019061147a919061426a565b611539565b6040517fb2b513c10000000000000000000000000000000000000000000000000000000081526001600160a01b037f0000000000000000000000000000000000000000000000000000000000000000169063b2b513c1906114f6908f908f908f908f908f908f908f908f908f908f90600401614283565b6020604051808303816000875af1158015611515573d6000803e3d6000fd5b505050506040513d601f19601f82011682018060405250810190611539919061426a565b9c9b505050505050505050505050565b8360016115568282611b1a565b6040517ff1accf39000000000000000000000000000000000000000000000000000000008152600481018790526024810186905263ffffffff851660448201523060648201527f00000000000000000000000000000000000000000000000000000000000000006001600160a01b03169063f1accf3990608401600060405180830381600087803b1580156115ea57600080fd5b505af11580156115fe573d6000803e3d6000fd5b5050505061160c8584611bfe565b505050505050565b8260006116218282611b1a565b61162a84611db2565b6040517fded700a6000000000000000000000000000000000000000000000000000000008152600481018690526024810185905263ffffffff841660448201527f00000000000000000000000000000000000000000000000000000000000000006001600160a01b03169063ded700a690606401600060405180830381600087803b1580156116b857600080fd5b505af11580156116cc573d6000803e3d6000fd5b505050505050505050565b60408051808201909152606080825260208201526000806116f885856120d4565b6040517fd2d95b2d00000000000000000000000000000000000000000000000000000000815291935091506001600160a01b037f0000000000000000000000000000000000000000000000000000000000000000169063d2d95b2d90611764908590859060040161466a565b600060405180830381865afa158015611781573d6000803e3d6000fd5b505050506040513d6000823e601f3d908101601f19168201604052610db491908101906147f1565b6000808460036117b98282611b1a565b6040517f72ada4c5000000000000000000000000000000000000000000000000000000008152600481018890523060248201526001600160a01b0386811660448301527f000000000000000000000000000000000000000000000000000000000000000016906372ada4c59060640160408051808303816000875af1158015611846573d6000803e3d6000fd5b505050506040513d601f19601f8201168201806040525081019061186a9190613e86565b90945092506106a68487611bfe565b6000546001600160a01b031633146118d35760405162461bcd60e51b815260206004820152601960248201527f476f7665726e61626c653a206f6e6c7920676f7665726e6f7200000000000000604482015260640161072c565b6118dc81612135565b50565b606060005b838110156119945760005b85858381811061190157611901614310565b9050602002810190611913919061491b565b611921906020810190614959565b90508110156119815761196f86868481811061193f5761193f614310565b9050602002810190611951919061491b565b61195f906020810190614959565b838181106111d9576111d9614310565b806119798161438b565b9150506118ef565b508061198c8161438b565b9150506118e4565b506040517f480b37960000000000000000000000000000000000000000000000000000000081526001600160a01b037f0000000000000000000000000000000000000000000000000000000000000000169063480b3796906119fe908790879087906004016149c1565b6000604051808303816000875af1158015611a1d573d6000803e3d6000fd5b505050506040513d6000823e601f3d908101601f19168201604052611a4591908101906145df565b949350505050565b6040517f095ea7b30000000000000000000000000000000000000000000000000000000081526001600160a01b037f00000000000000000000000000000000000000000000000000000000000000008116600483015260001960248301527f0000000000000000000000000000000000000000000000000000000000000000169063095ea7b3906044016020604051808303816000875af1158015611af6573d6000803e3d6000fd5b505050506040513d601f19601f820116820180604052508101906118dc9190614ab8565b6040517f823abfd90000000000000000000000000000000000000000000000000000000081526001600160a01b037f0000000000000000000000000000000000000000000000000000000000000000169063823abfd990611b8390859033908690600401614ad5565b602060405180830381865afa158015611ba0573d6000803e3d6000fd5b505050506040513d601f19601f82011682018060405250810190611bc49190614ab8565b611bfa576040517f5c427cd900000000000000000000000000000000000000000000000000000000815260040160405180910390fd5b5050565b8115611bfa576040517f2e1a7d4d000000000000000000000000000000000000000000000000000000008152600481018390527f00000000000000000000000000000000000000000000000000000000000000006001600160a01b031690632e1a7d4d90602401600060405180830381600087803b158015611c7f57600080fd5b505af1158015611c93573d6000803e3d6000fd5b50506040516001600160a01b038416925084156108fc02915084906000818181858888f19350505050158015610cf4573d6000803e3d6000fd5b6001546001600160a01b0316611d255760405162461bcd60e51b815260206004820152601f60248201527f476f7665726e61626c653a206e6f2070656e64696e6720676f7665726e6f7200604482015260640161072c565b60018054600080547fffffffffffffffffffffffff00000000000000000000000000000000000000009081166001600160a01b0384161782559091169091556040517fdc57ca23c46d823853915ed5a090ca0ee9db5eb6a46f5c58e1c9158de861fd769190a1565b8015611da857611da86001600160a01b0384163330856121f7565b610cf483836122ae565b80156118dc577f00000000000000000000000000000000000000000000000000000000000000006001600160a01b031663d0e30db0826040518263ffffffff1660e01b81526004016000604051808303818588803b158015611e1357600080fd5b505af115801561160c573d6000803e3d6000fd5b6001600160a01b038316611e7d5760405162461bcd60e51b815260206004820152601d60248201527f436f6c6c65637461626c65447573743a207a65726f2061646472657373000000604482015260640161072c565b611e8860038361238f565b15611efb5760405162461bcd60e51b815260206004820152602a60248201527f436f6c6c65637461626c65447573743a20746f6b656e2069732070617274206f60448201527f662070726f746f636f6c00000000000000000000000000000000000000000000606482015260840161072c565b7fffffffffffffffffffffffff11111111111111111111111111111111111111126001600160a01b03831601611f67576040516001600160a01b0384169082156108fc029083906000818181858888f19350505050158015611f61573d6000803e3d6000fd5b50611f7b565b611f7b6001600160a01b03831684836123b1565b604080516001600160a01b038086168252841660208201529081018290527f1e34c1aee8e83c2dcc14c21bb4bfeea7f46c0c998cb797ac7cc4d7a18f5c656b9060600160405180910390a1505050565b60608167ffffffffffffffff811115611fe657611fe6613eaa565b60405190808252806020026020018201604052801561200f578160200160208202803683370190505b50905060005b828110156120a7576120788585858481811061203357612033614310565b6120499260206040909202019081019150613643565b86868581811061205b5761205b614310565b90506040020160200160208101906120739190613643565b6123fa565b82828151811061208a5761208a614310565b60209081029190910101528061209f8161438b565b915050612015565b509392505050565b606061104b8383604051806060016040528060278152602001614d8c6027913961274c565b6060806121298484600060405190808252806020026020018201604052801561212357816020015b60408051808201909152600080825260208201528152602001906001900390816120fc5790505b50612837565b50909590945092505050565b6001600160a01b03811661218b5760405162461bcd60e51b815260206004820152601860248201527f476f7665726e61626c653a207a65726f20616464726573730000000000000000604482015260640161072c565b600180547fffffffffffffffffffffffff0000000000000000000000000000000000000000166001600160a01b0383169081179091556040519081527f56bddfa0cee9697cebddf9acd7f23dc6583663b05e007b877056d05017994def9060200160405180910390a150565b6040516001600160a01b03808516602483015283166044820152606481018290526122a89085907f23b872dd00000000000000000000000000000000000000000000000000000000906084015b60408051601f198184030181529190526020810180517bffffffffffffffffffffffffffffffffffffffffffffffffffffffff167fffffffff00000000000000000000000000000000000000000000000000000000909316929092179091526128bc565b50505050565b6001600160a01b03821660008181526002602052604090205463095ea7b3907f00000000000000000000000000000000000000000000000000000000000000009060ff1661230657612301846001614af8565b612308565b835b6040517fffffffff0000000000000000000000000000000000000000000000000000000060e085901b1681526001600160a01b03909216600483015260248201526044016020604051808303816000875af115801561236b573d6000803e3d6000fd5b505050506040513d601f19601f82011682018060405250810190610cf49190614ab8565b6001600160a01b0381166000908152600183016020526040812054151561104b565b6040516001600160a01b038316602482015260448101829052610cf49084907fa9059cbb0000000000000000000000000000000000000000000000000000000090606401612244565b600080600061240985856129a1565b6040517f582cf84b0000000000000000000000000000000000000000000000000000000081526001600160a01b038084166004830152808316602483015292945090925060009188169063582cf84b90604401602060405180830381865afa158015612479573d6000803e3d6000fd5b505050506040513d601f19601f8201168201806040525081019061249d9190614b10565b90507f010000000000000000000000000000000000000000000000000000000000000060005b7fff000000000000000000000000000000000000000000000000000000000000008083169084161080159061251957507fff00000000000000000000000000000000000000000000000000000000000000821615155b1561273c57817effffffffffffffffffffffffffffffffffffffffffffffffffffffffffffff19168284167effffffffffffffffffffffffffffffffffffffffffffffffffffffffffffff19160361270e576040517f808ba8e00000000000000000000000000000000000000000000000000000000081526001600160a01b03898116600483015288811660248301527fff0000000000000000000000000000000000000000000000000000000000000084166044830152600091908b169063808ba8e090606401608060405180830381865afa1580156125fe573d6000803e3d6000fd5b505050506040513d601f19601f820116820180604052508101906126229190614b57565b9050600061262f846129d2565b90506000818284604001516126449190614bd8565b61264f906001614c22565b6126599190614c4a565b63ffffffff169050600083602001517bffffffffffffffffffffffffffffffffffffffffffffffffffffffff1611806126b45750600083606001517bffffffffffffffffffffffffffffffffffffffffffffffffffffffff16115b156126e9574281116126d057839850505050505050505061104b565b6126da4282614c76565b9850505050505050505061104b565b4281111561270a5783156126fd5783612707565b6127074282614c76565b93505b5050505b6001827effffffffffffffffffffffffffffffffffffffffffffffffffffffffffffff1916901b91506124c3565b5060001998975050505050505050565b6060833b6127c25760405162461bcd60e51b815260206004820152602660248201527f416464726573733a2064656c65676174652063616c6c20746f206e6f6e2d636f60448201527f6e74726163740000000000000000000000000000000000000000000000000000606482015260840161072c565b600080856001600160a01b0316856040516127dd9190614c8d565b600060405180830381855af49150503d8060008114612818576040519150601f19603f3d011682016040523d82523d6000602084013e61281d565b606091505b509150915061282d828286612c97565b9695505050505050565b60608060606128988686808060200260200160405190810160405280939291908181526020016000905b8282101561288d5761287e60408302860136819003810190614c9f565b81526020019060010190612861565b505050505085612cd0565b92506128a58686856131b4565b91506128b18484613446565b905093509350939050565b6000612911826040518060400160405280602081526020017f5361666545524332303a206c6f772d6c6576656c2063616c6c206661696c6564815250856001600160a01b031661354c9092919063ffffffff16565b805190915015610cf4578080602001905181019061292f9190614ab8565b610cf45760405162461bcd60e51b815260206004820152602a60248201527f5361666545524332303a204552433230206f7065726174696f6e20646964206e60448201527f6f74207375636365656400000000000000000000000000000000000000000000606482015260840161072c565b600080826001600160a01b0316846001600160a01b0316106129c45782846129c7565b83835b909590945092505050565b60007fff0000000000000000000000000000000000000000000000000000000000000082167f010000000000000000000000000000000000000000000000000000000000000003612a255750603c919050565b7fff0000000000000000000000000000000000000000000000000000000000000082167f020000000000000000000000000000000000000000000000000000000000000003612a77575061012c919050565b7fff0000000000000000000000000000000000000000000000000000000000000082167f040000000000000000000000000000000000000000000000000000000000000003612ac95750610384919050565b7fff0000000000000000000000000000000000000000000000000000000000000082167f080000000000000000000000000000000000000000000000000000000000000003612b1b5750610708919050565b7fff0000000000000000000000000000000000000000000000000000000000000082167f100000000000000000000000000000000000000000000000000000000000000003612b6d5750610e10919050565b7fff0000000000000000000000000000000000000000000000000000000000000082167f200000000000000000000000000000000000000000000000000000000000000003612bbf5750613840919050565b7fff0000000000000000000000000000000000000000000000000000000000000082167f400000000000000000000000000000000000000000000000000000000000000003612c12575062015180919050565b7fff0000000000000000000000000000000000000000000000000000000000000082167f800000000000000000000000000000000000000000000000000000000000000003612c65575062093a80919050565b6040517fbf3cad0b00000000000000000000000000000000000000000000000000000000815260040160405180910390fd5b60608315612ca657508161104b565b825115612cb65782518084602001fd5b8160405162461bcd60e51b815260040161072c9190614cfe565b6060600080835185516002612ce59190614d11565b612cef9190614af8565b67ffffffffffffffff811115612d0757612d07613eaa565b604051908082528060200260200182016040528015612d30578160200160208202803683370190505b50905060005b8551811015612f0a5760008060005b8581108015612d5b5750828015612d595750815b155b15612e305782158015612db55750888481518110612d7b57612d7b614310565b6020026020010151600001516001600160a01b0316858281518110612da257612da2614310565b60200260200101516001600160a01b0316145b15612dbf57600192505b81158015612e145750888481518110612dda57612dda614310565b6020026020010151602001516001600160a01b0316858281518110612e0157612e01614310565b60200260200101516001600160a01b0316145b15612e1e57600191505b80612e288161438b565b915050612d45565b5081612e9357878381518110612e4857612e48614310565b602002602001015160000151848680612e609061438b565b975081518110612e7257612e72614310565b60200260200101906001600160a01b031690816001600160a01b0316815250505b80612ef557878381518110612eaa57612eaa614310565b602002602001015160200151848680612ec29061438b565b975081518110612ed457612ed4614310565b60200260200101906001600160a01b031690816001600160a01b0316815250505b50508080612f029061438b565b915050612d36565b5060005b8451811015613009576000805b8481108015612f28575081155b15612f9357868381518110612f3f57612f3f614310565b6020026020010151600001516001600160a01b0316848281518110612f6657612f66614310565b60200260200101516001600160a01b031603612f8157600191505b80612f8b8161438b565b915050612f1b565b5080612ff657858281518110612fab57612fab614310565b602002602001015160000151838580612fc39061438b565b965081518110612fd557612fd5614310565b60200260200101906001600160a01b031690816001600160a01b0316815250505b50806130018161438b565b915050612f0e565b508167ffffffffffffffff81111561302357613023613eaa565b60405190808252806020026020018201604052801561304c578160200160208202803683370190505b50925060005b828110156131ab57600082828151811061306e5761306e614310565b6020026020010151905060005b816001600160a01b031686828151811061309757613097614310565b60200260200101516001600160a01b03161080156130e1575060006001600160a01b03168682815181106130cd576130cd614310565b60200260200101516001600160a01b031614155b156130f857806130f08161438b565b91505061307b565b825b81811115613162578661310e600183614c76565b8151811061311e5761311e614310565b602002602001015187828151811061313857613138614310565b6001600160a01b03909216602092830291909101909101528061315a81614d30565b9150506130fa565b508186828151811061317657613176614310565b60200260200101906001600160a01b031690816001600160a01b031681525050505080806131a39061438b565b915050613052565b50505092915050565b60608267ffffffffffffffff8111156131cf576131cf613eaa565b60405190808252806020026020018201604052801561321457816020015b60408051808201909152600080825260208201528152602001906001900390816131ed5790505b5090506000805b83518160ff1610156113a9576000613234826001614d47565b90505b84518160ff1610156134335760005b868110156134205787878281811061326057613260614310565b6132769260206040909202019081019150613643565b6001600160a01b0316868460ff168151811061329457613294614310565b60200260200101516001600160a01b031614801561330857508787828181106132bf576132bf614310565b90506040020160200160208101906132d79190613643565b6001600160a01b0316868360ff16815181106132f5576132f5614310565b60200260200101516001600160a01b0316145b806133c8575087878281811061332057613320614310565b90506040020160200160208101906133389190613643565b6001600160a01b0316868460ff168151811061335657613356614310565b60200260200101516001600160a01b03161480156133c8575087878281811061338157613381614310565b6133979260206040909202019081019150613643565b6001600160a01b0316868360ff16815181106133b5576133b5614310565b60200260200101516001600160a01b0316145b1561340e576040805180820190915260ff80851682528316602082015285856133f08161438b565b96508151811061340257613402614310565b60200260200101819052505b806134188161438b565b915050613246565b508061342b81614d6c565b915050613237565b508061343e81614d6c565b91505061321b565b6060815167ffffffffffffffff81111561346257613462613eaa565b60405190808252806020026020018201604052801561348b578160200160208202803683370190505b50905060005b83518110156111405760005b8482815181106134af576134af614310565b6020026020010151600001516001600160a01b03168482815181106134d6576134d6614310565b60200260200101516001600160a01b0316146134fe57806134f68161438b565b91505061349d565b84828151811061351057613510614310565b60200260200101516020015183828151811061352e5761352e614310565b602090810291909101015250806135448161438b565b915050613491565b6060611a45848460008585843b6135a55760405162461bcd60e51b815260206004820152601d60248201527f416464726573733a2063616c6c20746f206e6f6e2d636f6e7472616374000000604482015260640161072c565b600080866001600160a01b031685876040516135c19190614c8d565b60006040518083038185875af1925050503d80600081146135fe576040519150601f19603f3d011682016040523d82523d6000602084013e613603565b606091505b5091509150613613828286612c97565b979650505050505050565b6001600160a01b03811681146118dc57600080fd5b803561363e8161361e565b919050565b60006020828403121561365557600080fd5b813561104b8161361e565b60008060006060848603121561367557600080fd5b8335925060208401356136878161361e565b915060408401356136978161361e565b809150509250925092565b63ffffffff811681146118dc57600080fd5b803561363e816136a2565b80151581146118dc57600080fd5b803561363e816136bf565b600080600080608085870312156136ee57600080fd5b84359350602085013592506040850135613707816136a2565b91506060850135613717816136bf565b939692955090935050565b60008083601f84011261373457600080fd5b50813567ffffffffffffffff81111561374c57600080fd5b6020830191508360208260051b850101111561376757600080fd5b9250929050565b60008083601f84011261378057600080fd5b50813567ffffffffffffffff81111561379857600080fd5b60208301915083602082850101111561376757600080fd5b6000806000806000806000806000806101008b8d0312156137d057600080fd5b8a356137db8161361e565b995060208b01356137eb8161361e565b985060408b0135975060608b0135613802816136a2565b965060808b0135613812816136a2565b955060a08b01356138228161361e565b945060c08b013567ffffffffffffffff8082111561383f57600080fd5b61384b8e838f01613722565b909650945060e08d013591508082111561386457600080fd5b506138718d828e0161376e565b915080935050809150509295989b9194979a5092959850565b600080600080604085870312156138a057600080fd5b843567ffffffffffffffff808211156138b857600080fd5b6138c488838901613722565b909650945060208701359150808211156138dd57600080fd5b506138ea87828801613722565b95989497509550505050565b60008060006060848603121561390b57600080fd5b83356139168161361e565b925060208401356139268161361e565b929592945050506040919091013590565b6000806040838503121561394a57600080fd5b82359150602083013561395c8161361e565b809150509250929050565b6000806000806080858703121561397d57600080fd5b84359350602085013592506040850135613996816136a2565b915060608501356137178161361e565b600080602083850312156139b957600080fd5b823567ffffffffffffffff808211156139d157600080fd5b818501915085601f8301126139e557600080fd5b8135818111156139f457600080fd5b8660208260061b8501011115613a0957600080fd5b60209290920196919550909350505050565b6020808252825182820181905260009190848201906040850190845b81811015613a5357835183529284019291840191600101613a37565b50909695505050505050565b60008060208385031215613a7257600080fd5b823567ffffffffffffffff811115613a8957600080fd5b613a9585828601613722565b90969095509350505050565b60005b83811015613abc578181015183820152602001613aa4565b838111156122a85750506000910152565b60008151808452613ae5816020860160208601613aa1565b601f01601f19169290920160200192915050565b6000602080830181845280855180835260408601915060408160051b870101925083870160005b82811015613b6c577fffffffffffffffffffffffffffffffffffffffffffffffffffffffffffffffc0888603018452613b5a858351613acd565b94509285019290850190600101613b20565b5092979650505050505050565b600080600080600080600060c0888a031215613b9457600080fd5b873567ffffffffffffffff811115613bab57600080fd5b613bb78a828b01613722565b9098509650506020880135945060408801359350606088013560ff81168114613bdf57600080fd5b969995985093969295946080840135945060a09093013592915050565b600080600060408486031215613c1157600080fd5b833567ffffffffffffffff811115613c2857600080fd5b613c3486828701613722565b90945092505060208401356136978161361e565b60008060008060008060008060008060006101208c8e031215613c6a57600080fd5b613c748c3561361e565b8b359a50613c8560208d013561361e565b60208c0135995060408c01359850613c9f60608d016136b4565b9750613cad60808d016136b4565b9650613cbb60a08d01613633565b955067ffffffffffffffff8060c08e01351115613cd757600080fd5b613ce78e60c08f01358f01613722565b909650945060e08d0135811015613cfd57600080fd5b50613d0e8d60e08e01358e0161376e565b9093509150613d206101008d016136cd565b90509295989b509295989b9093969950565b600080600060608486031215613d4757600080fd5b83359250602084013591506040840135613697816136a2565b600081518084526020808501945080840160005b83811015613de857815180516001600160a01b03908116895284820151168489015260408082015190890152606080820151908901526080908101517fff00000000000000000000000000000000000000000000000000000000000000169088015260a09096019590820190600101613d74565b509495945050505050565b600060208083526060808401855160408085880152828251808552608094508489019150868401935060005b81811015613e5d57845180516001600160a01b0316845288810151898501528481015185850152870151878401529387019391850191600101613e1f565b505094880151878603601f19018289015294613e798187613d60565b9998505050505050505050565b60008060408385031215613e9957600080fd5b505080516020909101519092909150565b7f4e487b7100000000000000000000000000000000000000000000000000000000600052604160045260246000fd5b60405160a0810167ffffffffffffffff81118282101715613efc57613efc613eaa565b60405290565b6040805190810167ffffffffffffffff81118282101715613efc57613efc613eaa565b6040516080810167ffffffffffffffff81118282101715613efc57613efc613eaa565b604051601f8201601f1916810167ffffffffffffffff81118282101715613f7157613f71613eaa565b604052919050565b805161363e8161361e565b805161363e816136a2565b80516effffffffffffffffffffffffffffff8116811461363e57600080fd5b6000610100808385031215613fc257600080fd5b6040519081019067ffffffffffffffff82118183101715613fe557613fe5613eaa565b8160405283519150613ff68261361e565b81815261400560208501613f79565b602082015261401660408501613f84565b604082015261402760608501613f84565b60608201526080840151608082015261404260a08501613f84565b60a082015260c084015160c082015261405d60e08501613f8f565b60e0820152949350505050565b60008083357fffffffffffffffffffffffffffffffffffffffffffffffffffffffffffffffe184360301811261409f57600080fd5b830160208101925035905067ffffffffffffffff8111156140bf57600080fd5b8060051b360383131561376757600080fd5b60048110614108577f4e487b7100000000000000000000000000000000000000000000000000000000600052602160045260246000fd5b9052565b600082357fffffffffffffffffffffffffffffffffffffffffffffffffffffffffffffffc183360301811261414057600080fd5b90910192915050565b81835260006020808501808196508560051b810191508460005b878110156141fe57828403895261417a828861410c565b6040808601823561418a8161361e565b6001600160a01b031687526141a18389018461406a565b888a019390935290829052909150606086019060005b838110156141e9578135600481106141ce57600080fd5b6141d884826140d1565b5091880191908801906001016141b7565b50509986019994505090840190600101614163565b5091979650505050505050565b60006001600160a01b03808b168352808a16602084015288604084015263ffffffff808916606085015280881660808501525080861660a08401525060e060c083015261425c60e083018486614149565b9a9950505050505050505050565b60006020828403121561427c57600080fd5b5051919050565b6001600160a01b038b811682528a81166020830152604082018a905263ffffffff898116606084015288166080830152861660a082015261010060c082018190526000906142d48382018789614149565b905082810360e0840152838152838560208301376000602085830101526020601f19601f8601168201019150509b9a5050505050505050505050565b7f4e487b7100000000000000000000000000000000000000000000000000000000600052603260045260246000fd5b60006020828403121561435157600080fd5b813561104b816136bf565b7f4e487b7100000000000000000000000000000000000000000000000000000000600052601160045260246000fd5b6000600019820361439e5761439e61435c565b5060010190565b6040808252810184905260008560608301825b878110156143e85782356143cb8161361e565b6001600160a01b03168252602092830192909101906001016143b8565b5083810360208581019190915285825291508590820160005b86811015614428578235614414816136bf565b151582529183019190830190600101614401565b5098975050505050505050565b60008083357fffffffffffffffffffffffffffffffffffffffffffffffffffffffffffffffe184360301811261446a57600080fd5b83018035915067ffffffffffffffff82111561448557600080fd5b60200191503681900382131561376757600080fd5b60c0815260006144ae60c08301898b614149565b602083019790975250604081019490945260ff929092166060840152608083015260a09091015292915050565b60006040808301818452808651808352606092508286019150828160051b8701016020808a016000805b85811015614594578a85037fffffffffffffffffffffffffffffffffffffffffffffffffffffffffffffffa0018752825180516001600160a01b031686528401518486018a905280518a87018190529085019083908a8801905b8083101561457f578351825292870192600192909201919087019061455f565b50988601989650505091830191600101614505565b5050508196506145ae8189018a6001600160a01b03169052565b5050505050509392505050565b600067ffffffffffffffff8211156145d5576145d5613eaa565b5060051b60200190565b600060208083850312156145f257600080fd5b825167ffffffffffffffff81111561460957600080fd5b8301601f8101851361461a57600080fd5b805161462d614628826145bb565b613f48565b81815260059190911b8201830190838101908783111561464c57600080fd5b928401925b8284101561361357835182529284019290840190614651565b60408082528351828201819052600091906020906060850190828801855b828110156146ad5781516001600160a01b031684529284019290840190600101614688565b5050508481038286015285518082528683019183019060005b818110156146f2578351805160ff908116855290860151168584015292840192918501916001016146c6565b509098975050505050505050565b80517fff000000000000000000000000000000000000000000000000000000000000008116811461363e57600080fd5b600082601f83011261474157600080fd5b81516020614751614628836145bb565b82815260a0928302850182019282820191908785111561477057600080fd5b8387015b858110156147e45781818a03121561478c5760008081fd5b614794613ed9565b815161479f8161361e565b8152818601516147ae8161361e565b81870152604082810151908201526060808301519082015260806147d3818401614700565b908201528452928401928101614774565b5090979650505050505050565b6000602080838503121561480457600080fd5b825167ffffffffffffffff8082111561481c57600080fd5b8185019150604080838803121561483257600080fd5b61483a613f02565b83518381111561484957600080fd5b8401601f8101891361485a57600080fd5b8051614868614628826145bb565b81815260079190911b8201870190878101908b83111561488757600080fd5b928801925b828410156148e5576080848d0312156148a55760008081fd5b6148ad613f25565b84516148b88161361e565b8152848a01518a82015286850151878201526060808601519082015282526080909301929088019061488c565b8452505050838501519150828211156148fd57600080fd5b61490988838601614730565b85820152809550505050505092915050565b600082357fffffffffffffffffffffffffffffffffffffffffffffffffffffffffffffffc183360301811261494f57600080fd5b9190910192915050565b60008083357fffffffffffffffffffffffffffffffffffffffffffffffffffffffffffffffe184360301811261498e57600080fd5b83018035915067ffffffffffffffff8211156149a957600080fd5b6020019150600581901b360382131561376757600080fd5b60408082528181018490526000906060808401600587811b860183018986805b8b811015614a9a577fffffffffffffffffffffffffffffffffffffffffffffffffffffffffffffffa08a8503018652614a1a838e61410c565b8035614a258161361e565b6001600160a01b031685526020614a3e8282018361406a565b92508a82880152828b8801527f07ffffffffffffffffffffffffffffffffffffffffffffffffffffffffffffff831115614a76578485fd5b91871b918281888c01375094018701828152958401959392909201916001016149e1565b5050506001600160a01b03881660208801529450611a459350505050565b600060208284031215614aca57600080fd5b815161104b816136bf565b8381526001600160a01b038316602082015260608101611a4560408301846140d1565b60008219821115614b0b57614b0b61435c565b500190565b600060208284031215614b2257600080fd5b61104b82614700565b80517bffffffffffffffffffffffffffffffffffffffffffffffffffffffff8116811461363e57600080fd5b600060808284031215614b6957600080fd5b6040516080810181811067ffffffffffffffff82111715614b8c57614b8c613eaa565b6040528251614b9a816136a2565b8152614ba860208401614b2b565b60208201526040830151614bbb816136a2565b6040820152614bcc60608401614b2b565b60608201529392505050565b600063ffffffff80841680614c16577f4e487b7100000000000000000000000000000000000000000000000000000000600052601260045260246000fd5b92169190910492915050565b600063ffffffff808316818516808303821115614c4157614c4161435c565b01949350505050565b600063ffffffff80831681851681830481118215151615614c6d57614c6d61435c565b02949350505050565b600082821015614c8857614c8861435c565b500390565b6000825161494f818460208701613aa1565b600060408284031215614cb157600080fd5b6040516040810181811067ffffffffffffffff82111715614cd457614cd4613eaa565b6040528235614ce28161361e565b81526020830135614cf28161361e565b60208201529392505050565b60208152600061104b6020830184613acd565b6000816000190483118215151615614d2b57614d2b61435c565b500290565b600081614d3f57614d3f61435c565b506000190190565b600060ff821660ff84168060ff03821115614d6457614d6461435c565b019392505050565b600060ff821660ff8103614d8257614d8261435c565b6001019291505056fe416464726573733a206c6f772d6c6576656c2064656c65676174652063616c6c206661696c6564a2646970667358221220d3a5300bdeece81bd7223ef4dca1a39433cc10a99c9950c407ad5c81c441883a64736f6c634300080d0033",
  "linkReferences": {},
  "deployedLinkReferences": {}
}