{
  "_format": "hh-sol-artifact-1",
  "contractName": "BetaMigrator",
  "sourceName": "contracts/V2Migration/BetaMigrator.sol",
  "abi": [
    {
      "inputs": [
        {
          "internalType": "contract IDCAHub",
          "name": "_betaHub",
          "type": "address"
        },
        {
          "internalType": "contract IDCAHub",
          "name": "_stableHub",
          "type": "address"
        }
      ],
      "stateMutability": "nonpayable",
      "type": "constructor"
    },
    {
      "inputs": [],
      "name": "ZeroAddress",
      "type": "error"
    },
    {
      "anonymous": false,
      "inputs": [
        {
          "indexed": false,
          "internalType": "uint256",
          "name": "positionId",
          "type": "uint256"
        }
      ],
      "name": "Migrated",
      "type": "event"
    },
    {
      "inputs": [],
      "name": "betaHub",
      "outputs": [
        {
          "internalType": "contract IDCAHub",
          "name": "",
          "type": "address"
        }
      ],
      "stateMutability": "view",
      "type": "function"
    },
    {
      "inputs": [
        {
          "internalType": "uint256",
          "name": "_positionId",
          "type": "uint256"
        },
        {
          "components": [
            {
              "components": [
                {
                  "internalType": "address",
                  "name": "operator",
                  "type": "address"
                },
                {
                  "internalType": "enum IDCAPermissionManager.Permission[]",
                  "name": "permissions",
                  "type": "uint8[]"
                }
              ],
              "internalType": "struct IDCAPermissionManager.PermissionSet[]",
              "name": "permissions",
              "type": "tuple[]"
            },
            {
              "internalType": "uint256",
              "name": "deadline",
              "type": "uint256"
            },
            {
              "internalType": "uint8",
              "name": "v",
              "type": "uint8"
            },
            {
              "internalType": "bytes32",
              "name": "r",
              "type": "bytes32"
            },
            {
              "internalType": "bytes32",
              "name": "s",
              "type": "bytes32"
            }
          ],
          "internalType": "struct BetaMigrator.Signature",
          "name": "_signature",
          "type": "tuple"
        }
      ],
      "name": "migrate",
      "outputs": [],
      "stateMutability": "nonpayable",
      "type": "function"
    },
    {
      "inputs": [],
      "name": "stableHub",
      "outputs": [
        {
          "internalType": "contract IDCAHub",
          "name": "",
          "type": "address"
        }
      ],
      "stateMutability": "view",
      "type": "function"
    }
  ],
  "bytecode": "0x608060405234801561001057600080fd5b50604051610a7b380380610a7b83398101604081905261002f916100b7565b6001600160a01b038216158061004c57506001600160a01b038116155b1561006a5760405163d92e233d60e01b815260040160405180910390fd5b600080546001600160a01b039384166001600160a01b031991821617909155600180549290931691161790556100ea565b80516001600160a01b03811681146100b257600080fd5b919050565b600080604083850312156100ca57600080fd5b6100d38361009b565b91506100e16020840161009b565b90509250929050565b610982806100f96000396000f3fe608060405234801561001057600080fd5b50600436106100415760003560e01c806388f29541146100465780639f19d05f14610075578063f4227c401461008a575b600080fd5b600154610059906001600160a01b031681565b6040516001600160a01b03909116815260200160405180910390f35b61008861008336600461048b565b61009d565b005b600054610059906001600160a01b031681565b60008060009054906101000a90046001600160a01b03166001600160a01b031663cc7a20496040518163ffffffff1660e01b8152600401602060405180830381865afa1580156100f1573d6000803e3d6000fd5b505050506040513d601f19601f8201168201806040525081019061011591906104f1565b6040516331a9108f60e11b8152600481018590529091506000906001600160a01b03831690636352211e90602401602060405180830381865afa158015610160573d6000803e3d6000fd5b505050506040513d601f19601f8201168201806040525081019061018491906104f1565b60008054604051635b6fd01d60e01b81526004810188905292935090916001600160a01b0390911690635b6fd01d9060240161010060405180830381865afa1580156101d4573d6000803e3d6000fd5b505050506040513d601f19601f820116820180604052508101906101f89190610558565b90506001600160a01b038316634faa3883610213868061061d565b88602089013561022960608b0160408c0161066e565b8a606001358b608001356040518863ffffffff1660e01b815260040161025597969594939291906106ba565b600060405180830381600087803b15801561026f57600080fd5b505af1158015610283573d6000803e3d6000fd5b5050600080546040516372ada4c560e01b8152600481018a90523060248201526001600160a01b038781166044830152929450911691506372ada4c59060640160408051808303816000875af11580156102e1573d6000803e3d6000fd5b505050506040513d601f19601f8201168201806040525081019061030591906107fc565b50825160015460405163095ea7b360e01b81526001600160a01b03918216600482015260248101849052929350169063095ea7b3906044016020604051808303816000875af115801561035c573d6000803e3d6000fd5b505050506040513d601f19601f820116820180604052508101906103809190610820565b50600154825160208085015160a0860151604080880151815160008082529581019092526001600160a01b0390961695636b29e1bd95948893928b916103e9565b6040805180820190915260008152606060208201528152602001906001900390816103c15790505b506040518863ffffffff1660e01b815260040161040c9796959493929190610842565b6020604051808303816000875af115801561042b573d6000803e3d6000fd5b505050506040513d601f19601f8201168201806040525081019061044f9190610933565b506040518681527fe4a25c0c2cbe89d6ad8b64c61a7dbdd20d1f781f6023f1ab94ebb7fe0aef6ab89060200160405180910390a1505050505050565b6000806040838503121561049e57600080fd5b82359150602083013567ffffffffffffffff8111156104bc57600080fd5b830160a081860312156104ce57600080fd5b809150509250929050565b6001600160a01b03811681146104ee57600080fd5b50565b60006020828403121561050357600080fd5b815161050e816104d9565b9392505050565b8051610520816104d9565b919050565b805163ffffffff8116811461052057600080fd5b80516effffffffffffffffffffffffffffff8116811461052057600080fd5b600061010080838503121561056c57600080fd5b6040519081019067ffffffffffffffff8211818310171561059d57634e487b7160e01b600052604160045260246000fd5b816040526105aa84610515565b81526105b860208501610515565b60208201526105c960408501610525565b60408201526105da60608501610525565b6060820152608084015160808201526105f560a08501610525565b60a082015260c084015160c082015261061060e08501610539565b60e0820152949350505050565b6000808335601e1984360301811261063457600080fd5b83018035915067ffffffffffffffff82111561064f57600080fd5b6020019150600581901b360382131561066757600080fd5b9250929050565b60006020828403121561068057600080fd5b813560ff8116811461050e57600080fd5b6000600482106106b157634e487b7160e01b600052602160045260246000fd5b50815260200190565b60c080825281018790526000600560e0808401908a831b8501018b845b8c8110156107c45786830360df190184528135368f9003603e190181126106fd57600080fd5b8e016040848101823561070f816104d9565b6001600160a01b0316865260208381013536859003601e1901811261073357600080fd5b8401803567ffffffffffffffff81111561074c57600080fd5b808b1b360386131561075d57600080fd5b888301949094529183905260608701935081810192600092905b808410156107ac57843591506004821061079057600080fd5b61079a8683610691565b95508285019450600184019350610777565b505096870196929550505091909101906001016106d7565b50508093505050508660208301528560408301526107e7606083018660ff169052565b608082019390935260a0015295945050505050565b6000806040838503121561080f57600080fd5b505080516020909101519092909150565b60006020828403121561083257600080fd5b8151801515811461050e57600080fd5b600060e0820160018060a01b03808b1684526020818b168186015260408a81870152606063ffffffff808c1682890152808b1660808901525083891660a088015260e060c088015284885180875261010096508689019150868160051b8a01019650848a016000805b8381101561091a578b8a0360ff19018552825180518a168b52880151888b018890528051888c01819052908901908390888d01905b80831015610905576108f3828551610691565b91508b840193506001830192506108e0565b509b50505093870193918701916001016108ab565b5050505050505050508091505098975050505050505050565b60006020828403121561094557600080fd5b505191905056fea26469706673582212208d35841dd1f2d92671253e5c4133c5459a00e2f41fc09a83d0fe438f1248ea0764736f6c634300080a0033",
  "linkReferences": {},
  "deployedLinkReferences": {}
}