{
  "_format": "hh-sol-artifact-1",
  "contractName": "ChainlinkOracle",
  "sourceName": "contracts/oracles/ChainlinkOracle.sol",
  "abi": [
    {
      "inputs": [
        {
          "internalType": "address",
          "name": "_WETH",
          "type": "address"
        },
        {
          "internalType": "contract FeedRegistryInterface",
          "name": "_registry",
          "type": "address"
        },
        {
          "internalType": "uint32",
          "name": "_maxDelay",
          "type": "uint32"
        },
        {
          "internalType": "address",
          "name": "_governor",
          "type": "address"
        }
      ],
      "stateMutability": "nonpayable",
      "type": "constructor"
    },
    {
      "inputs": [],
      "name": "InvalidMappingsInput",
      "type": "error"
    },
    {
      "inputs": [],
      "name": "InvalidPrice",
      "type": "error"
    },
    {
      "inputs": [],
      "name": "LastUpdateIsTooOld",
      "type": "error"
    },
    {
      "inputs": [],
      "name": "PairNotSupported",
      "type": "error"
    },
    {
      "inputs": [],
      "name": "ZeroAddress",
      "type": "error"
    },
    {
      "inputs": [],
      "name": "ZeroMaxDelay",
      "type": "error"
    },
    {
      "anonymous": false,
      "inputs": [
        {
          "indexed": false,
          "internalType": "address",
          "name": "tokenA",
          "type": "address"
        },
        {
          "indexed": false,
          "internalType": "address",
          "name": "tokenB",
          "type": "address"
        }
      ],
      "name": "AddedSupportForPairInChainlinkOracle",
      "type": "event"
    },
    {
      "anonymous": false,
      "inputs": [
        {
          "indexed": false,
          "internalType": "address[]",
          "name": "tokens",
          "type": "address[]"
        },
        {
          "indexed": false,
          "internalType": "address[]",
          "name": "mappings",
          "type": "address[]"
        }
      ],
      "name": "MappingsAdded",
      "type": "event"
    },
    {
      "anonymous": false,
      "inputs": [],
      "name": "PendingGovernorAccepted",
      "type": "event"
    },
    {
      "anonymous": false,
      "inputs": [
        {
          "indexed": false,
          "internalType": "address",
          "name": "pendingGovernor",
          "type": "address"
        }
      ],
      "name": "PendingGovernorSet",
      "type": "event"
    },
    {
      "anonymous": false,
      "inputs": [
        {
          "indexed": false,
          "internalType": "address[]",
          "name": "tokens",
          "type": "address[]"
        }
      ],
      "name": "TokensConsideredUSD",
      "type": "event"
    },
    {
      "inputs": [],
      "name": "WETH",
      "outputs": [
        {
          "internalType": "address",
          "name": "",
          "type": "address"
        }
      ],
      "stateMutability": "view",
      "type": "function"
    },
    {
      "inputs": [],
      "name": "acceptPendingGovernor",
      "outputs": [],
      "stateMutability": "nonpayable",
      "type": "function"
    },
    {
      "inputs": [
        {
          "internalType": "address[]",
          "name": "_addresses",
          "type": "address[]"
        },
        {
          "internalType": "address[]",
          "name": "_mappings",
          "type": "address[]"
        }
      ],
      "name": "addMappings",
      "outputs": [],
      "stateMutability": "nonpayable",
      "type": "function"
    },
    {
      "inputs": [
        {
          "internalType": "address",
          "name": "_tokenA",
          "type": "address"
        },
        {
          "internalType": "address",
          "name": "_tokenB",
          "type": "address"
        }
      ],
      "name": "addSupportForPairIfNeeded",
      "outputs": [],
      "stateMutability": "nonpayable",
      "type": "function"
    },
    {
      "inputs": [
        {
          "internalType": "address[]",
          "name": "_addresses",
          "type": "address[]"
        }
      ],
      "name": "addUSDStablecoins",
      "outputs": [],
      "stateMutability": "nonpayable",
      "type": "function"
    },
    {
      "inputs": [
        {
          "internalType": "address",
          "name": "_tokenA",
          "type": "address"
        },
        {
          "internalType": "address",
          "name": "_tokenB",
          "type": "address"
        }
      ],
      "name": "canSupportPair",
      "outputs": [
        {
          "internalType": "bool",
          "name": "",
          "type": "bool"
        }
      ],
      "stateMutability": "view",
      "type": "function"
    },
    {
      "inputs": [],
      "name": "governor",
      "outputs": [
        {
          "internalType": "address",
          "name": "",
          "type": "address"
        }
      ],
      "stateMutability": "view",
      "type": "function"
    },
    {
      "inputs": [
        {
          "internalType": "address",
          "name": "_account",
          "type": "address"
        }
      ],
      "name": "isGovernor",
      "outputs": [
        {
          "internalType": "bool",
          "name": "_isGovernor",
          "type": "bool"
        }
      ],
      "stateMutability": "view",
      "type": "function"
    },
    {
      "inputs": [
        {
          "internalType": "address",
          "name": "_account",
          "type": "address"
        }
      ],
      "name": "isPendingGovernor",
      "outputs": [
        {
          "internalType": "bool",
          "name": "_isPendingGovernor",
          "type": "bool"
        }
      ],
      "stateMutability": "view",
      "type": "function"
    },
    {
      "inputs": [
        {
          "internalType": "address",
          "name": "_token",
          "type": "address"
        }
      ],
      "name": "mappedToken",
      "outputs": [
        {
          "internalType": "address",
          "name": "",
          "type": "address"
        }
      ],
      "stateMutability": "view",
      "type": "function"
    },
    {
      "inputs": [],
      "name": "maxDelay",
      "outputs": [
        {
          "internalType": "uint32",
          "name": "",
          "type": "uint32"
        }
      ],
      "stateMutability": "view",
      "type": "function"
    },
    {
      "inputs": [],
      "name": "pendingGovernor",
      "outputs": [
        {
          "internalType": "address",
          "name": "",
          "type": "address"
        }
      ],
      "stateMutability": "view",
      "type": "function"
    },
    {
      "inputs": [
        {
          "internalType": "address",
          "name": "",
          "type": "address"
        },
        {
          "internalType": "address",
          "name": "",
          "type": "address"
        }
      ],
      "name": "planForPair",
      "outputs": [
        {
          "internalType": "enum IChainlinkOracle.PricingPlan",
          "name": "",
          "type": "uint8"
        }
      ],
      "stateMutability": "view",
      "type": "function"
    },
    {
      "inputs": [
        {
          "internalType": "address",
          "name": "_tokenIn",
          "type": "address"
        },
        {
          "internalType": "uint128",
          "name": "_amountIn",
          "type": "uint128"
        },
        {
          "internalType": "address",
          "name": "_tokenOut",
          "type": "address"
        }
      ],
      "name": "quote",
      "outputs": [
        {
          "internalType": "uint256",
          "name": "_amountOut",
          "type": "uint256"
        }
      ],
      "stateMutability": "view",
      "type": "function"
    },
    {
      "inputs": [
        {
          "internalType": "address",
          "name": "_tokenA",
          "type": "address"
        },
        {
          "internalType": "address",
          "name": "_tokenB",
          "type": "address"
        }
      ],
      "name": "reconfigureSupportForPair",
      "outputs": [],
      "stateMutability": "nonpayable",
      "type": "function"
    },
    {
      "inputs": [],
      "name": "registry",
      "outputs": [
        {
          "internalType": "contract FeedRegistryInterface",
          "name": "",
          "type": "address"
        }
      ],
      "stateMutability": "view",
      "type": "function"
    },
    {
      "inputs": [
        {
          "internalType": "address",
          "name": "__pendingGovernor",
          "type": "address"
        }
      ],
      "name": "setPendingGovernor",
      "outputs": [],
      "stateMutability": "nonpayable",
      "type": "function"
    }
  ],
  "bytecode": "0x60e06040523480156200001157600080fd5b5060405162001bf038038062001bf0833981016040819052620000349162000141565b806001600160a01b038116620000905760405162461bcd60e51b815260206004820152601860248201527f476f7665726e61626c653a207a65726f20616464726573730000000000000000604482015260640160405180910390fd5b600080546001600160a01b0319166001600160a01b0392831617905584161580620000c257506001600160a01b038316155b15620000e15760405163d92e233d60e01b815260040160405180910390fd5b63ffffffff82166200010657604051632c4f52fb60e21b815260040160405180910390fd5b506001600160a01b0391821660805263ffffffff1660c0521660a052620001b1565b6001600160a01b03811681146200013e57600080fd5b50565b600080600080608085870312156200015857600080fd5b8451620001658162000128565b6020860151909450620001788162000128565b604086015190935063ffffffff811681146200019357600080fd5b6060860151909250620001a68162000128565b939692955090935050565b60805160a05160c0516119d762000219600039600081816102ca0152818161138401526113bb01526000818161021301528181610a0c01528181610bce01528181610c82015261120f0152600081816101b8015281816110f701526112ed01526119d76000f3fe608060405234801561001057600080fd5b506004361061010b5760003560e01c80637f55db3a116100a2578063e3056a3411610071578063e3056a3414610257578063e43581b814610268578063e82138cd1461028a578063ed49d2f8146102c5578063f235757f1461030157600080fd5b80637f55db3a146101da578063a513355f146101ed578063ad5c46481461020e578063df08aed51461023557600080fd5b80636edc6632116100de5780636edc66321461016a57806372c12c871461017d578063734273fd146101905780637b103999146101b357600080fd5b80630c340a241461011057806313f6986d1461013a5780631d4ef30a146101445780634df3cad614610157575b600080fd5b6000546001600160a01b03165b6040516001600160a01b0390911681526020015b60405180910390f35b610142610314565b005b610142610152366004611456565b610387565b61011d6101653660046114d9565b6104b5565b6101426101783660046114f4565b610552565b61014261018b366004611536565b61062c565b6101a361019e366004611536565b61063a565b6040519015158152602001610131565b61011d7f000000000000000000000000000000000000000000000000000000000000000081565b6101426101e8366004611536565b61067d565b6102006101fb366004611569565b6106e1565b604051908152602001610131565b61011d7f000000000000000000000000000000000000000000000000000000000000000081565b6101a36102433660046114d9565b6001546001600160a01b0391821691161490565b6001546001600160a01b031661011d565b6101a36102763660046114d9565b6000546001600160a01b0391821691161490565b6102b8610298366004611536565b600260209081526000928352604080842090915290825290205460ff1681565b60405161013191906115d0565b6102ec7f000000000000000000000000000000000000000000000000000000000000000081565b60405163ffffffff9091168152602001610131565b61014261030f3660046114d9565b6107f2565b6001546001600160a01b0316331461037d5760405162461bcd60e51b815260206004820152602160248201527f476f7665726e61626c653a206f6e6c792070656e64696e6720676f7665726e6f6044820152603960f91b60648201526084015b60405180910390fd5b610385610828565b565b6000546001600160a01b031633146103b15760405162461bcd60e51b8152600401610374906115f8565b8281146103d1576040516306e3b91560e11b815260040160405180910390fd5b60005b83811015610471578282828181106103ee576103ee61162f565b905060200201602081019061040391906114d9565b600460008787858181106104195761041961162f565b905060200201602081019061042e91906114d9565b6001600160a01b039081168252602082019290925260400160002080546001600160a01b03191692909116919091179055806104698161165b565b9150506103d4565b507f25967af46669513d9b32b10bce9dc8b094f9638e01d68bd4253fb634873b3d17848484846040516104a794939291906116bd565b60405180910390a150505050565b60006001600160a01b03821673eb4c2781e4eba804ce9a9803c67d0893436bb27d14806104fe57506001600160a01b038216732260fac5e5542a773aa44fbcfedf7c193bc2c599145b1561051e575073bbbbbbbbbbbbbbbbbbbbbbbbbbbbbbbbbbbbbbbb919050565b6001600160a01b0380831660009081526004602052604090205416806105445782610546565b805b9392505050565b919050565b6000546001600160a01b0316331461057c5760405162461bcd60e51b8152600401610374906115f8565b60005b818110156105ee5760016003600085858581811061059f5761059f61162f565b90506020020160208101906105b491906114d9565b6001600160a01b031681526020810191909152604001600020805460ff1916911515919091179055806105e68161165b565b91505061057f565b507f0e1316bdb62d8b87b8c288a81e4bc638fbf187056521cd5f525a3c70dd812abf82826040516106209291906116ef565b60405180910390a15050565b61063682826108d0565b5050565b600080600061064985856109b3565b91509150600061065983836109e4565b9050600081600781111561066f5761066f6115ba565b141593505050505b92915050565b60008061068a84846109b3565b909250905060006001600160a01b0380841660009081526002602090815260408083209386168352929052205460ff1660078111156106cb576106cb6115ba565b14156106db576106db84846108d0565b50505050565b60008060006106f086856109b3565b6001600160a01b03808316600090815260026020908152604080832093851683529290529081205492945090925060ff90911690816007811115610736576107366115ba565b1415610755576040516365db466f60e01b815260040160405180910390fd5b600061076088610b12565b9050600061076d87610b12565b90506003836007811115610783576107836115ba565b116107ab5761079f898884848c6001600160801b031688610b76565b95505050505050610546565b60058360078111156107bf576107bf6115ba565b116107db5761079f898884848c6001600160801b031688610d30565b61079f898884848c6001600160801b031688610dc8565b6000546001600160a01b0316331461081c5760405162461bcd60e51b8152600401610374906115f8565b61082581610eff565b50565b6001546001600160a01b03166108805760405162461bcd60e51b815260206004820152601f60248201527f476f7665726e61626c653a206e6f2070656e64696e6720676f7665726e6f72006044820152606401610374565b60018054600080546001600160a01b03199081166001600160a01b0384161782559091169091556040517fdc57ca23c46d823853915ed5a090ca0ee9db5eb6a46f5c58e1c9158de861fd769190a1565b6000806108dd84846109b3565b9150915060006108ed83836109e4565b90506000816007811115610903576109036115ba565b1415610922576040516365db466f60e01b815260040160405180910390fd5b6001600160a01b038084166000908152600260209081526040808320938616835292905220805482919060ff19166001836007811115610964576109646115ba565b0217905550604080516001600160a01b038086168252841660208201527fa0f87b02ca47ea06fb7d8fd30abf826222301c4e0cc359211c4254d49b4736ad910160405180910390a15050505050565b600080826001600160a01b0316846001600160a01b0316106109d65782846109d9565b83835b909590945092505050565b6000806109f084610fa9565b905060006109fd84610fa9565b90506001600160a01b038581167f0000000000000000000000000000000000000000000000000000000000000000821690811491861614818015610a3e5750825b80610a4e5750838015610a4e5750805b15610a60576001945050505050610677565b8215610a7e57610a73876002600761103e565b945050505050610677565b8315610a9157610a73866002600661103e565b8015610aa457610a73876006600361103e565b8115610ab757610a73866007600361103e565b610ac3876103486110f3565b15610ad557610a73866004600661103e565b610af38773eeeeeeeeeeeeeeeeeeeeeeeeeeeeeeeeeeeeeeee6110f3565b15610b0557610a73866007600561103e565b5060009695505050505050565b6000816001600160a01b031663313ce5676040518163ffffffff1660e01b8152600401602060405180830381865afa158015610b52573d6000803e3d6000fd5b505050506040513d601f19601f82011682018060405250810190610677919061170b565b600080806003846007811115610b8e57610b8e6115ba565b14610b9a576008610b9d565b60125b90506000610baa8a610fa9565b80610c0257506003856007811115610bc457610bc46115ba565b148015610c0257507f00000000000000000000000000000000000000000000000000000000000000006001600160a01b03168a6001600160a01b0316145b90506001856007811115610c1857610c186115ba565b1415610c2d57610c266111b1565b9250610cc8565b6002856007811115610c4157610c416115ba565b1415610c6357610c26610c538a610fa9565b610c5d57896111d8565b8a6111d8565b6003856007811115610c7757610c776115ba565b1415610cc857610cc57f00000000000000000000000000000000000000000000000000000000000000006001600160a01b03168a6001600160a01b031614610cbf578961120b565b8a61120b565b92505b80610d0157610cf7610cda878561172e565b89610ce5858b61174d565b610cef919061174d565b60000b61127b565b9350505050610d26565b610cf783610d1388610cef8b8761178e565b610d1d91906117d1565b610cef8a6117f3565b9695505050505050565b6000806004836007811115610d4757610d476115ba565b14610d665773eeeeeeeeeeeeeeeeeeeeeeeeeeeeeeeeeeeeeeee610d6a565b6103485b90506000610d80610d7a8a6104b5565b836112bf565b90506000610d96610d908a6104b5565b846112bf565b9050610dba81610da6848961172e565b610db091906117d1565b610cef8a8a61174d565b9a9950505050505050505050565b6000806006836007811115610ddf57610ddf6115ba565b148015610dfd5750866001600160a01b0316886001600160a01b0316105b80610e3557506007836007811115610e1757610e176115ba565b148015610e355750866001600160a01b0316886001600160a01b0316115b90506000610e416111b1565b90508115610eab576000610e548a6111d8565b90506000610e618a61120b565b90506000610e88610e72848a61172e565b6012610e7e8d8d61174d565b610cef919061178e565b905081610e9585836117d1565b610e9f91906117d1565b95505050505050610d26565b6000610eb68a61120b565b90506000610ec38a6111d8565b9050610ef48184610ed4858b61172e565b610ede919061172e565b610ee891906117d1565b6012610ce58c8c61174d565b945050505050610d26565b6001600160a01b038116610f555760405162461bcd60e51b815260206004820152601860248201527f476f7665726e61626c653a207a65726f206164647265737300000000000000006044820152606401610374565b600180546001600160a01b0319166001600160a01b0383169081179091556040519081527f56bddfa0cee9697cebddf9acd7f23dc6583663b05e007b877056d05017994def9060200160405180910390a150565b60006001600160a01b038216736b175474e89094c44da98b954eedeac495271d0f1480610ff257506001600160a01b03821673a0b86991c6218b36c1d19d4a2e9eb0ce3606eb48145b8061101957506001600160a01b03821673dac17f958d2ee523a2206206994597c13d831ec7145b806106775750506001600160a01b031660009081526003602052604090205460ff1690565b6000806000806000856007811115611058576110586115ba565b87600781111561106a5761106a6115ba565b1061108e5773eeeeeeeeeeeeeeeeeeeeeeeeeeeeeeeeeeeeeeee86610348896110a9565b6103488773eeeeeeeeeeeeeeeeeeeeeeeeeeeeeeeeeeeeeeee885b93509350935093506110bb88856110f3565b156110cc5782945050505050610546565b6110d688836110f3565b156110e657935061054692505050565b6000945050505050610546565b60007f00000000000000000000000000000000000000000000000000000000000000006001600160a01b031663bcfd032d61112d856104b5565b6040516001600160e01b031960e084901b1681526001600160a01b039182166004820152908516602482015260440160a060405180830381865afa925050508015611195575060408051601f3d908101601f191682019092526111929181019061182d565b60015b6111a157506000610677565b6000841395505050505050610677565b60006111d373eeeeeeeeeeeeeeeeeeeeeeeeeeeeeeeeeeeeeeee6103486112bf565b905090565b60006111e382610fa9565b611200576111fb6111f3836104b5565b6103486112bf565b610677565b6305f5e10092915050565b60007f00000000000000000000000000000000000000000000000000000000000000006001600160a01b0316826001600160a01b03161461126c576111fb611252836104b5565b73eeeeeeeeeeeeeeeeeeeeeeeeeeeeeeeeeeeeeeee6112bf565b670de0b6b3a764000092915050565b6000808212156112aa5761128e8261187d565b61129990600a61197e565b6112a390846117d1565b9050610677565b6112b582600a61197e565b6112a3908461172e565b60405163bcfd032d60e01b81526001600160a01b0383811660048301528281166024830152600091829182917f00000000000000000000000000000000000000000000000000000000000000009091169063bcfd032d9060440160a060405180830381865afa158015611336573d6000803e3d6000fd5b505050506040513d601f19601f8201168201806040525081019061135a919061182d565b50935050925050600082136113815760405162bfc92160e01b815260040160405180910390fd5b427f000000000000000000000000000000000000000000000000000000000000000063ffffffff161080156113e457506113e163ffffffff7f0000000000000000000000000000000000000000000000000000000000000000164261198a565b81105b15611402576040516346ea729360e01b815260040160405180910390fd5b509392505050565b60008083601f84011261141c57600080fd5b50813567ffffffffffffffff81111561143457600080fd5b6020830191508360208260051b850101111561144f57600080fd5b9250929050565b6000806000806040858703121561146c57600080fd5b843567ffffffffffffffff8082111561148457600080fd5b6114908883890161140a565b909650945060208701359150808211156114a957600080fd5b506114b68782880161140a565b95989497509550505050565b80356001600160a01b038116811461054d57600080fd5b6000602082840312156114eb57600080fd5b610546826114c2565b6000806020838503121561150757600080fd5b823567ffffffffffffffff81111561151e57600080fd5b61152a8582860161140a565b90969095509350505050565b6000806040838503121561154957600080fd5b611552836114c2565b9150611560602084016114c2565b90509250929050565b60008060006060848603121561157e57600080fd5b611587846114c2565b925060208401356001600160801b03811681146115a357600080fd5b91506115b1604085016114c2565b90509250925092565b634e487b7160e01b600052602160045260246000fd5b60208101600883106115f257634e487b7160e01b600052602160045260246000fd5b91905290565b60208082526019908201527f476f7665726e61626c653a206f6e6c7920676f7665726e6f7200000000000000604082015260600190565b634e487b7160e01b600052603260045260246000fd5b634e487b7160e01b600052601160045260246000fd5b600060001982141561166f5761166f611645565b5060010190565b8183526000602080850194508260005b858110156116b2576001600160a01b0361169f836114c2565b1687529582019590820190600101611686565b509495945050505050565b6040815260006116d1604083018688611676565b82810360208401526116e4818587611676565b979650505050505050565b602081526000611703602083018486611676565b949350505050565b60006020828403121561171d57600080fd5b815160ff8116811461054657600080fd5b600081600019048311821515161561174857611748611645565b500290565b600081810b83820b8281128015607f1983018412161561176f5761176f611645565b81607f01831381161561178457611784611645565b5090039392505050565b60008160000b8360000b6000821282607f038213811516156117b2576117b2611645565b82607f190382128116156117c8576117c8611645565b50019392505050565b6000826117ee57634e487b7160e01b600052601260045260246000fd5b500490565b600081810b607f1981141561180a5761180a611645565b60000392915050565b805169ffffffffffffffffffff8116811461054d57600080fd5b600080600080600060a0868803121561184557600080fd5b61184e86611813565b945060208601519350604086015192506060860151915061187160808701611813565b90509295509295909350565b6000600160ff1b82141561189357611893611645565b5060000390565b600181815b808511156118d55781600019048211156118bb576118bb611645565b808516156118c857918102915b93841c939080029061189f565b509250929050565b6000826118ec57506001610677565b816118f957506000610677565b816001811461190f576002811461191957611935565b6001915050610677565b60ff84111561192a5761192a611645565b50506001821b610677565b5060208310610133831016604e8410600b8410161715611958575081810a610677565b611962838361189a565b806000190482111561197657611976611645565b029392505050565b600061054683836118dd565b60008282101561199c5761199c611645565b50039056fea26469706673582212204e5c1ab17c222cb9eb75b9bf43eb7bb9e3e8a54da93735160c74396b1178931264736f6c634300080a0033",
  "linkReferences": {},
  "deployedLinkReferences": {}
}