{
  "_format": "hh-sol-artifact-1",
  "contractName": "DCAHub",
  "sourceName": "contracts/DCAHub/DCAHub.sol",
  "abi": [
    {
      "inputs": [
        {
          "internalType": "address",
          "name": "_immediateGovernor",
          "type": "address"
        },
        {
          "internalType": "address",
          "name": "_timeLockedGovernor",
          "type": "address"
        },
        {
          "internalType": "contract IPriceOracle",
          "name": "_oracle",
          "type": "address"
        },
        {
          "internalType": "contract IDCAPermissionManager",
          "name": "_permissionManager",
          "type": "address"
        }
      ],
      "stateMutability": "nonpayable",
      "type": "constructor"
    },
    {
      "inputs": [],
      "name": "AmountTooBig",
      "type": "error"
    },
    {
      "inputs": [],
      "name": "HighFee",
      "type": "error"
    },
    {
      "inputs": [],
      "name": "HighPlatformFeeRatio",
      "type": "error"
    },
    {
      "inputs": [],
      "name": "IntervalNotAllowed",
      "type": "error"
    },
    {
      "inputs": [],
      "name": "InvalidFee",
      "type": "error"
    },
    {
      "inputs": [],
      "name": "InvalidInterval",
      "type": "error"
    },
    {
      "inputs": [],
      "name": "InvalidMask",
      "type": "error"
    },
    {
      "inputs": [],
      "name": "InvalidPairs",
      "type": "error"
    },
    {
      "inputs": [],
      "name": "InvalidPosition",
      "type": "error"
    },
    {
      "inputs": [],
      "name": "InvalidToken",
      "type": "error"
    },
    {
      "inputs": [],
      "name": "InvalidTokens",
      "type": "error"
    },
    {
      "inputs": [],
      "name": "LiquidityNotReturned",
      "type": "error"
    },
    {
      "inputs": [],
      "name": "NoSwapsToExecute",
      "type": "error"
    },
    {
      "inputs": [],
      "name": "PositionDoesNotMatchToken",
      "type": "error"
    },
    {
      "inputs": [],
      "name": "UnauthorizedCaller",
      "type": "error"
    },
    {
      "inputs": [],
      "name": "ZeroAddress",
      "type": "error"
    },
    {
      "inputs": [],
      "name": "ZeroAmount",
      "type": "error"
    },
    {
      "inputs": [],
      "name": "ZeroSwaps",
      "type": "error"
    },
    {
      "anonymous": false,
      "inputs": [
        {
          "indexed": true,
          "internalType": "address",
          "name": "depositor",
          "type": "address"
        },
        {
          "indexed": true,
          "internalType": "address",
          "name": "owner",
          "type": "address"
        },
        {
          "indexed": false,
          "internalType": "uint256",
          "name": "positionId",
          "type": "uint256"
        },
        {
          "indexed": false,
          "internalType": "address",
          "name": "fromToken",
          "type": "address"
        },
        {
          "indexed": false,
          "internalType": "address",
          "name": "toToken",
          "type": "address"
        },
        {
          "indexed": false,
          "internalType": "uint32",
          "name": "swapInterval",
          "type": "uint32"
        },
        {
          "indexed": false,
          "internalType": "uint120",
          "name": "rate",
          "type": "uint120"
        },
        {
          "indexed": false,
          "internalType": "uint32",
          "name": "startingSwap",
          "type": "uint32"
        },
        {
          "indexed": false,
          "internalType": "uint32",
          "name": "lastSwap",
          "type": "uint32"
        },
        {
          "components": [
            {
              "internalType": "address",
              "name": "operator",
              "type": "address"
            },
            {
              "internalType": "enum IDCAPermissionManager.Permission[]",
              "name": "permissions",
              "type": "uint8[]"
            }
          ],
          "indexed": false,
          "internalType": "struct IDCAPermissionManager.PermissionSet[]",
          "name": "permissions",
          "type": "tuple[]"
        }
      ],
      "name": "Deposited",
      "type": "event"
    },
    {
      "anonymous": false,
      "inputs": [
        {
          "indexed": false,
          "internalType": "uint32",
          "name": "_feeSet",
          "type": "uint32"
        }
      ],
      "name": "LoanFeeSet",
      "type": "event"
    },
    {
      "anonymous": false,
      "inputs": [
        {
          "indexed": true,
          "internalType": "address",
          "name": "sender",
          "type": "address"
        },
        {
          "indexed": true,
          "internalType": "address",
          "name": "to",
          "type": "address"
        },
        {
          "components": [
            {
              "internalType": "address",
              "name": "token",
              "type": "address"
            },
            {
              "internalType": "uint256",
              "name": "amount",
              "type": "uint256"
            }
          ],
          "indexed": false,
          "internalType": "struct IDCAHub.AmountOfToken[]",
          "name": "loan",
          "type": "tuple[]"
        },
        {
          "indexed": false,
          "internalType": "uint32",
          "name": "fee",
          "type": "uint32"
        }
      ],
      "name": "Loaned",
      "type": "event"
    },
    {
      "anonymous": false,
      "inputs": [
        {
          "indexed": false,
          "internalType": "uint256",
          "name": "positionId",
          "type": "uint256"
        },
        {
          "indexed": false,
          "internalType": "bytes",
          "name": "data",
          "type": "bytes"
        }
      ],
      "name": "Miscellaneous",
      "type": "event"
    },
    {
      "anonymous": false,
      "inputs": [
        {
          "indexed": true,
          "internalType": "address",
          "name": "user",
          "type": "address"
        },
        {
          "indexed": false,
          "internalType": "uint256",
          "name": "positionId",
          "type": "uint256"
        },
        {
          "indexed": false,
          "internalType": "uint120",
          "name": "rate",
          "type": "uint120"
        },
        {
          "indexed": false,
          "internalType": "uint32",
          "name": "startingSwap",
          "type": "uint32"
        },
        {
          "indexed": false,
          "internalType": "uint32",
          "name": "lastSwap",
          "type": "uint32"
        }
      ],
      "name": "Modified",
      "type": "event"
    },
    {
      "anonymous": false,
      "inputs": [
        {
          "indexed": false,
          "internalType": "contract IPriceOracle",
          "name": "_oracle",
          "type": "address"
        }
      ],
      "name": "OracleSet",
      "type": "event"
    },
    {
      "anonymous": false,
      "inputs": [
        {
          "indexed": false,
          "internalType": "address",
          "name": "account",
          "type": "address"
        }
      ],
      "name": "Paused",
      "type": "event"
    },
    {
      "anonymous": false,
      "inputs": [
        {
          "indexed": false,
          "internalType": "uint16",
          "name": "_platformFeeRatio",
          "type": "uint16"
        }
      ],
      "name": "PlatformFeeRatioSet",
      "type": "event"
    },
    {
      "anonymous": false,
      "inputs": [
        {
          "indexed": true,
          "internalType": "bytes32",
          "name": "role",
          "type": "bytes32"
        },
        {
          "indexed": true,
          "internalType": "bytes32",
          "name": "previousAdminRole",
          "type": "bytes32"
        },
        {
          "indexed": true,
          "internalType": "bytes32",
          "name": "newAdminRole",
          "type": "bytes32"
        }
      ],
      "name": "RoleAdminChanged",
      "type": "event"
    },
    {
      "anonymous": false,
      "inputs": [
        {
          "indexed": true,
          "internalType": "bytes32",
          "name": "role",
          "type": "bytes32"
        },
        {
          "indexed": true,
          "internalType": "address",
          "name": "account",
          "type": "address"
        },
        {
          "indexed": true,
          "internalType": "address",
          "name": "sender",
          "type": "address"
        }
      ],
      "name": "RoleGranted",
      "type": "event"
    },
    {
      "anonymous": false,
      "inputs": [
        {
          "indexed": true,
          "internalType": "bytes32",
          "name": "role",
          "type": "bytes32"
        },
        {
          "indexed": true,
          "internalType": "address",
          "name": "account",
          "type": "address"
        },
        {
          "indexed": true,
          "internalType": "address",
          "name": "sender",
          "type": "address"
        }
      ],
      "name": "RoleRevoked",
      "type": "event"
    },
    {
      "anonymous": false,
      "inputs": [
        {
          "indexed": false,
          "internalType": "uint32",
          "name": "_feeSet",
          "type": "uint32"
        }
      ],
      "name": "SwapFeeSet",
      "type": "event"
    },
    {
      "anonymous": false,
      "inputs": [
        {
          "indexed": false,
          "internalType": "uint32[]",
          "name": "_swapIntervals",
          "type": "uint32[]"
        }
      ],
      "name": "SwapIntervalsAllowed",
      "type": "event"
    },
    {
      "anonymous": false,
      "inputs": [
        {
          "indexed": false,
          "internalType": "uint32[]",
          "name": "_swapIntervals",
          "type": "uint32[]"
        }
      ],
      "name": "SwapIntervalsForbidden",
      "type": "event"
    },
    {
      "anonymous": false,
      "inputs": [
        {
          "indexed": true,
          "internalType": "address",
          "name": "sender",
          "type": "address"
        },
        {
          "indexed": true,
          "internalType": "address",
          "name": "rewardRecipient",
          "type": "address"
        },
        {
          "indexed": true,
          "internalType": "address",
          "name": "callbackHandler",
          "type": "address"
        },
        {
          "components": [
            {
              "components": [
                {
                  "internalType": "address",
                  "name": "token",
                  "type": "address"
                },
                {
                  "internalType": "uint256",
                  "name": "reward",
                  "type": "uint256"
                },
                {
                  "internalType": "uint256",
                  "name": "toProvide",
                  "type": "uint256"
                },
                {
                  "internalType": "uint256",
                  "name": "platformFee",
                  "type": "uint256"
                }
              ],
              "internalType": "struct IDCAHubSwapHandler.TokenInSwap[]",
              "name": "tokens",
              "type": "tuple[]"
            },
            {
              "components": [
                {
                  "internalType": "address",
                  "name": "tokenA",
                  "type": "address"
                },
                {
                  "internalType": "address",
                  "name": "tokenB",
                  "type": "address"
                },
                {
                  "internalType": "uint256",
                  "name": "ratioAToB",
                  "type": "uint256"
                },
                {
                  "internalType": "uint256",
                  "name": "ratioBToA",
                  "type": "uint256"
                },
                {
                  "internalType": "bytes1",
                  "name": "intervalsInSwap",
                  "type": "bytes1"
                }
              ],
              "internalType": "struct IDCAHubSwapHandler.PairInSwap[]",
              "name": "pairs",
              "type": "tuple[]"
            }
          ],
          "indexed": false,
          "internalType": "struct IDCAHubSwapHandler.SwapInfo",
          "name": "swapInformation",
          "type": "tuple"
        },
        {
          "indexed": false,
          "internalType": "uint256[]",
          "name": "borrowed",
          "type": "uint256[]"
        },
        {
          "indexed": false,
          "internalType": "uint32",
          "name": "fee",
          "type": "uint32"
        }
      ],
      "name": "Swapped",
      "type": "event"
    },
    {
      "anonymous": false,
      "inputs": [
        {
          "indexed": true,
          "internalType": "address",
          "name": "user",
          "type": "address"
        },
        {
          "indexed": true,
          "internalType": "address",
          "name": "recipientUnswapped",
          "type": "address"
        },
        {
          "indexed": true,
          "internalType": "address",
          "name": "recipientSwapped",
          "type": "address"
        },
        {
          "indexed": false,
          "internalType": "uint256",
          "name": "positionId",
          "type": "uint256"
        },
        {
          "indexed": false,
          "internalType": "uint256",
          "name": "returnedUnswapped",
          "type": "uint256"
        },
        {
          "indexed": false,
          "internalType": "uint256",
          "name": "returnedSwapped",
          "type": "uint256"
        }
      ],
      "name": "Terminated",
      "type": "event"
    },
    {
      "anonymous": false,
      "inputs": [
        {
          "indexed": false,
          "internalType": "address",
          "name": "account",
          "type": "address"
        }
      ],
      "name": "Unpaused",
      "type": "event"
    },
    {
      "anonymous": false,
      "inputs": [
        {
          "indexed": true,
          "internalType": "address",
          "name": "withdrawer",
          "type": "address"
        },
        {
          "indexed": true,
          "internalType": "address",
          "name": "recipient",
          "type": "address"
        },
        {
          "indexed": false,
          "internalType": "uint256",
          "name": "positionId",
          "type": "uint256"
        },
        {
          "indexed": false,
          "internalType": "address",
          "name": "token",
          "type": "address"
        },
        {
          "indexed": false,
          "internalType": "uint256",
          "name": "amount",
          "type": "uint256"
        }
      ],
      "name": "Withdrew",
      "type": "event"
    },
    {
      "anonymous": false,
      "inputs": [
        {
          "indexed": true,
          "internalType": "address",
          "name": "sender",
          "type": "address"
        },
        {
          "indexed": true,
          "internalType": "address",
          "name": "recipient",
          "type": "address"
        },
        {
          "components": [
            {
              "internalType": "address",
              "name": "token",
              "type": "address"
            },
            {
              "internalType": "uint256",
              "name": "amount",
              "type": "uint256"
            }
          ],
          "indexed": false,
          "internalType": "struct IDCAHub.AmountOfToken[]",
          "name": "amounts",
          "type": "tuple[]"
        }
      ],
      "name": "WithdrewFromPlatform",
      "type": "event"
    },
    {
      "anonymous": false,
      "inputs": [
        {
          "indexed": true,
          "internalType": "address",
          "name": "withdrawer",
          "type": "address"
        },
        {
          "indexed": true,
          "internalType": "address",
          "name": "recipient",
          "type": "address"
        },
        {
          "components": [
            {
              "internalType": "address",
              "name": "token",
              "type": "address"
            },
            {
              "internalType": "uint256[]",
              "name": "positionIds",
              "type": "uint256[]"
            }
          ],
          "indexed": false,
          "internalType": "struct IDCAHubPositionHandler.PositionSet[]",
          "name": "positions",
          "type": "tuple[]"
        },
        {
          "indexed": false,
          "internalType": "uint256[]",
          "name": "withdrew",
          "type": "uint256[]"
        }
      ],
      "name": "WithdrewMany",
      "type": "event"
    },
    {
      "inputs": [],
      "name": "DEFAULT_ADMIN_ROLE",
      "outputs": [
        {
          "internalType": "bytes32",
          "name": "",
          "type": "bytes32"
        }
      ],
      "stateMutability": "view",
      "type": "function"
    },
    {
      "inputs": [],
      "name": "IMMEDIATE_ROLE",
      "outputs": [
        {
          "internalType": "bytes32",
          "name": "",
          "type": "bytes32"
        }
      ],
      "stateMutability": "view",
      "type": "function"
    },
    {
      "inputs": [],
      "name": "MAX_FEE",
      "outputs": [
        {
          "internalType": "uint32",
          "name": "",
          "type": "uint32"
        }
      ],
      "stateMutability": "view",
      "type": "function"
    },
    {
      "inputs": [],
      "name": "MAX_PLATFORM_FEE_RATIO",
      "outputs": [
        {
          "internalType": "uint16",
          "name": "",
          "type": "uint16"
        }
      ],
      "stateMutability": "view",
      "type": "function"
    },
    {
      "inputs": [],
      "name": "PLATFORM_WITHDRAW_ROLE",
      "outputs": [
        {
          "internalType": "bytes32",
          "name": "",
          "type": "bytes32"
        }
      ],
      "stateMutability": "view",
      "type": "function"
    },
    {
      "inputs": [],
      "name": "TIME_LOCKED_ROLE",
      "outputs": [
        {
          "internalType": "bytes32",
          "name": "",
          "type": "bytes32"
        }
      ],
      "stateMutability": "view",
      "type": "function"
    },
    {
      "inputs": [
        {
          "internalType": "address",
          "name": "_tokenA",
          "type": "address"
        },
        {
          "internalType": "address",
          "name": "_tokenB",
          "type": "address"
        },
        {
          "internalType": "bytes1",
          "name": "_swapIntervalMask",
          "type": "bytes1"
        },
        {
          "internalType": "uint32",
          "name": "_swapNumber",
          "type": "uint32"
        }
      ],
      "name": "accumRatio",
      "outputs": [
        {
          "components": [
            {
              "internalType": "uint256",
              "name": "accumRatioAToB",
              "type": "uint256"
            },
            {
              "internalType": "uint256",
              "name": "accumRatioBToA",
              "type": "uint256"
            }
          ],
          "internalType": "struct IDCAHubParameters.AccumRatio",
          "name": "",
          "type": "tuple"
        }
      ],
      "stateMutability": "view",
      "type": "function"
    },
    {
      "inputs": [
        {
          "internalType": "address",
          "name": "",
          "type": "address"
        },
        {
          "internalType": "address",
          "name": "",
          "type": "address"
        }
      ],
      "name": "activeSwapIntervals",
      "outputs": [
        {
          "internalType": "bytes1",
          "name": "",
          "type": "bytes1"
        }
      ],
      "stateMutability": "view",
      "type": "function"
    },
    {
      "inputs": [
        {
          "internalType": "uint32[]",
          "name": "_swapIntervals",
          "type": "uint32[]"
        }
      ],
      "name": "addSwapIntervalsToAllowedList",
      "outputs": [],
      "stateMutability": "nonpayable",
      "type": "function"
    },
    {
      "inputs": [],
      "name": "allowedSwapIntervals",
      "outputs": [
        {
          "internalType": "bytes1",
          "name": "",
          "type": "bytes1"
        }
      ],
      "stateMutability": "view",
      "type": "function"
    },
    {
      "inputs": [
        {
          "internalType": "address",
          "name": "_from",
          "type": "address"
        },
        {
          "internalType": "address",
          "name": "_to",
          "type": "address"
        },
        {
          "internalType": "uint256",
          "name": "_amount",
          "type": "uint256"
        },
        {
          "internalType": "uint32",
          "name": "_amountOfSwaps",
          "type": "uint32"
        },
        {
          "internalType": "uint32",
          "name": "_swapInterval",
          "type": "uint32"
        },
        {
          "internalType": "address",
          "name": "_owner",
          "type": "address"
        },
        {
          "components": [
            {
              "internalType": "address",
              "name": "operator",
              "type": "address"
            },
            {
              "internalType": "enum IDCAPermissionManager.Permission[]",
              "name": "permissions",
              "type": "uint8[]"
            }
          ],
          "internalType": "struct IDCAPermissionManager.PermissionSet[]",
          "name": "_permissions",
          "type": "tuple[]"
        }
      ],
      "name": "deposit",
      "outputs": [
        {
          "internalType": "uint256",
          "name": "",
          "type": "uint256"
        }
      ],
      "stateMutability": "nonpayable",
      "type": "function"
    },
    {
      "inputs": [
        {
          "internalType": "address",
          "name": "_from",
          "type": "address"
        },
        {
          "internalType": "address",
          "name": "_to",
          "type": "address"
        },
        {
          "internalType": "uint256",
          "name": "_amount",
          "type": "uint256"
        },
        {
          "internalType": "uint32",
          "name": "_amountOfSwaps",
          "type": "uint32"
        },
        {
          "internalType": "uint32",
          "name": "_swapInterval",
          "type": "uint32"
        },
        {
          "internalType": "address",
          "name": "_owner",
          "type": "address"
        },
        {
          "components": [
            {
              "internalType": "address",
              "name": "operator",
              "type": "address"
            },
            {
              "internalType": "enum IDCAPermissionManager.Permission[]",
              "name": "permissions",
              "type": "uint8[]"
            }
          ],
          "internalType": "struct IDCAPermissionManager.PermissionSet[]",
          "name": "_permissions",
          "type": "tuple[]"
        },
        {
          "internalType": "bytes",
          "name": "_miscellaneous",
          "type": "bytes"
        }
      ],
      "name": "deposit",
      "outputs": [
        {
          "internalType": "uint256",
          "name": "_positionId",
          "type": "uint256"
        }
      ],
      "stateMutability": "nonpayable",
      "type": "function"
    },
    {
      "inputs": [
        {
          "internalType": "address[]",
          "name": "_tokens",
          "type": "address[]"
        },
        {
          "components": [
            {
              "internalType": "uint8",
              "name": "indexTokenA",
              "type": "uint8"
            },
            {
              "internalType": "uint8",
              "name": "indexTokenB",
              "type": "uint8"
            }
          ],
          "internalType": "struct IDCAHubSwapHandler.PairIndexes[]",
          "name": "_pairs",
          "type": "tuple[]"
        }
      ],
      "name": "getNextSwapInfo",
      "outputs": [
        {
          "components": [
            {
              "components": [
                {
                  "internalType": "address",
                  "name": "token",
                  "type": "address"
                },
                {
                  "internalType": "uint256",
                  "name": "reward",
                  "type": "uint256"
                },
                {
                  "internalType": "uint256",
                  "name": "toProvide",
                  "type": "uint256"
                },
                {
                  "internalType": "uint256",
                  "name": "platformFee",
                  "type": "uint256"
                }
              ],
              "internalType": "struct IDCAHubSwapHandler.TokenInSwap[]",
              "name": "tokens",
              "type": "tuple[]"
            },
            {
              "components": [
                {
                  "internalType": "address",
                  "name": "tokenA",
                  "type": "address"
                },
                {
                  "internalType": "address",
                  "name": "tokenB",
                  "type": "address"
                },
                {
                  "internalType": "uint256",
                  "name": "ratioAToB",
                  "type": "uint256"
                },
                {
                  "internalType": "uint256",
                  "name": "ratioBToA",
                  "type": "uint256"
                },
                {
                  "internalType": "bytes1",
                  "name": "intervalsInSwap",
                  "type": "bytes1"
                }
              ],
              "internalType": "struct IDCAHubSwapHandler.PairInSwap[]",
              "name": "pairs",
              "type": "tuple[]"
            }
          ],
          "internalType": "struct IDCAHubSwapHandler.SwapInfo",
          "name": "_swapInformation",
          "type": "tuple"
        }
      ],
      "stateMutability": "view",
      "type": "function"
    },
    {
      "inputs": [
        {
          "internalType": "bytes32",
          "name": "role",
          "type": "bytes32"
        }
      ],
      "name": "getRoleAdmin",
      "outputs": [
        {
          "internalType": "bytes32",
          "name": "",
          "type": "bytes32"
        }
      ],
      "stateMutability": "view",
      "type": "function"
    },
    {
      "inputs": [
        {
          "internalType": "bytes32",
          "name": "role",
          "type": "bytes32"
        },
        {
          "internalType": "address",
          "name": "account",
          "type": "address"
        }
      ],
      "name": "grantRole",
      "outputs": [],
      "stateMutability": "nonpayable",
      "type": "function"
    },
    {
      "inputs": [
        {
          "internalType": "bytes32",
          "name": "role",
          "type": "bytes32"
        },
        {
          "internalType": "address",
          "name": "account",
          "type": "address"
        }
      ],
      "name": "hasRole",
      "outputs": [
        {
          "internalType": "bool",
          "name": "",
          "type": "bool"
        }
      ],
      "stateMutability": "view",
      "type": "function"
    },
    {
      "inputs": [
        {
          "internalType": "uint256",
          "name": "_positionId",
          "type": "uint256"
        },
        {
          "internalType": "uint256",
          "name": "_amount",
          "type": "uint256"
        },
        {
          "internalType": "uint32",
          "name": "_newAmountOfSwaps",
          "type": "uint32"
        }
      ],
      "name": "increasePosition",
      "outputs": [],
      "stateMutability": "nonpayable",
      "type": "function"
    },
    {
      "inputs": [
        {
          "components": [
            {
              "internalType": "address",
              "name": "token",
              "type": "address"
            },
            {
              "internalType": "uint256",
              "name": "amount",
              "type": "uint256"
            }
          ],
          "internalType": "struct IDCAHub.AmountOfToken[]",
          "name": "_loan",
          "type": "tuple[]"
        },
        {
          "internalType": "address",
          "name": "_to",
          "type": "address"
        },
        {
          "internalType": "bytes",
          "name": "_data",
          "type": "bytes"
        }
      ],
      "name": "loan",
      "outputs": [],
      "stateMutability": "nonpayable",
      "type": "function"
    },
    {
      "inputs": [],
      "name": "loanFee",
      "outputs": [
        {
          "internalType": "uint32",
          "name": "",
          "type": "uint32"
        }
      ],
      "stateMutability": "view",
      "type": "function"
    },
    {
      "inputs": [],
      "name": "oracle",
      "outputs": [
        {
          "internalType": "contract IPriceOracle",
          "name": "",
          "type": "address"
        }
      ],
      "stateMutability": "view",
      "type": "function"
    },
    {
      "inputs": [],
      "name": "pause",
      "outputs": [],
      "stateMutability": "nonpayable",
      "type": "function"
    },
    {
      "inputs": [],
      "name": "paused",
      "outputs": [
        {
          "internalType": "bool",
          "name": "",
          "type": "bool"
        }
      ],
      "stateMutability": "view",
      "type": "function"
    },
    {
      "inputs": [],
      "name": "permissionManager",
      "outputs": [
        {
          "internalType": "contract IDCAPermissionManager",
          "name": "",
          "type": "address"
        }
      ],
      "stateMutability": "view",
      "type": "function"
    },
    {
      "inputs": [
        {
          "internalType": "address",
          "name": "",
          "type": "address"
        }
      ],
      "name": "platformBalance",
      "outputs": [
        {
          "internalType": "uint256",
          "name": "",
          "type": "uint256"
        }
      ],
      "stateMutability": "view",
      "type": "function"
    },
    {
      "inputs": [],
      "name": "platformFeeRatio",
      "outputs": [
        {
          "internalType": "uint16",
          "name": "",
          "type": "uint16"
        }
      ],
      "stateMutability": "view",
      "type": "function"
    },
    {
      "inputs": [
        {
          "internalType": "uint256",
          "name": "_positionId",
          "type": "uint256"
        },
        {
          "internalType": "uint256",
          "name": "_amount",
          "type": "uint256"
        },
        {
          "internalType": "uint32",
          "name": "_newAmountOfSwaps",
          "type": "uint32"
        },
        {
          "internalType": "address",
          "name": "_recipient",
          "type": "address"
        }
      ],
      "name": "reducePosition",
      "outputs": [],
      "stateMutability": "nonpayable",
      "type": "function"
    },
    {
      "inputs": [
        {
          "internalType": "uint32[]",
          "name": "_swapIntervals",
          "type": "uint32[]"
        }
      ],
      "name": "removeSwapIntervalsFromAllowedList",
      "outputs": [],
      "stateMutability": "nonpayable",
      "type": "function"
    },
    {
      "inputs": [
        {
          "internalType": "bytes32",
          "name": "role",
          "type": "bytes32"
        },
        {
          "internalType": "address",
          "name": "account",
          "type": "address"
        }
      ],
      "name": "renounceRole",
      "outputs": [],
      "stateMutability": "nonpayable",
      "type": "function"
    },
    {
      "inputs": [
        {
          "internalType": "bytes32",
          "name": "role",
          "type": "bytes32"
        },
        {
          "internalType": "address",
          "name": "account",
          "type": "address"
        }
      ],
      "name": "revokeRole",
      "outputs": [],
      "stateMutability": "nonpayable",
      "type": "function"
    },
    {
      "inputs": [
        {
          "internalType": "uint32",
          "name": "_loanFee",
          "type": "uint32"
        }
      ],
      "name": "setLoanFee",
      "outputs": [],
      "stateMutability": "nonpayable",
      "type": "function"
    },
    {
      "inputs": [
        {
          "internalType": "contract IPriceOracle",
          "name": "_oracle",
          "type": "address"
        }
      ],
      "name": "setOracle",
      "outputs": [],
      "stateMutability": "nonpayable",
      "type": "function"
    },
    {
      "inputs": [
        {
          "internalType": "uint16",
          "name": "_platformFeeRatio",
          "type": "uint16"
        }
      ],
      "name": "setPlatformFeeRatio",
      "outputs": [],
      "stateMutability": "nonpayable",
      "type": "function"
    },
    {
      "inputs": [
        {
          "internalType": "uint32",
          "name": "_swapFee",
          "type": "uint32"
        }
      ],
      "name": "setSwapFee",
      "outputs": [],
      "stateMutability": "nonpayable",
      "type": "function"
    },
    {
      "inputs": [
        {
          "internalType": "bytes4",
          "name": "interfaceId",
          "type": "bytes4"
        }
      ],
      "name": "supportsInterface",
      "outputs": [
        {
          "internalType": "bool",
          "name": "",
          "type": "bool"
        }
      ],
      "stateMutability": "view",
      "type": "function"
    },
    {
      "inputs": [
        {
          "internalType": "address[]",
          "name": "_tokens",
          "type": "address[]"
        },
        {
          "components": [
            {
              "internalType": "uint8",
              "name": "indexTokenA",
              "type": "uint8"
            },
            {
              "internalType": "uint8",
              "name": "indexTokenB",
              "type": "uint8"
            }
          ],
          "internalType": "struct IDCAHubSwapHandler.PairIndexes[]",
          "name": "_pairsToSwap",
          "type": "tuple[]"
        },
        {
          "internalType": "address",
          "name": "_rewardRecipient",
          "type": "address"
        },
        {
          "internalType": "address",
          "name": "_callbackHandler",
          "type": "address"
        },
        {
          "internalType": "uint256[]",
          "name": "_borrow",
          "type": "uint256[]"
        },
        {
          "internalType": "bytes",
          "name": "_data",
          "type": "bytes"
        }
      ],
      "name": "swap",
      "outputs": [
        {
          "components": [
            {
              "components": [
                {
                  "internalType": "address",
                  "name": "token",
                  "type": "address"
                },
                {
                  "internalType": "uint256",
                  "name": "reward",
                  "type": "uint256"
                },
                {
                  "internalType": "uint256",
                  "name": "toProvide",
                  "type": "uint256"
                },
                {
                  "internalType": "uint256",
                  "name": "platformFee",
                  "type": "uint256"
                }
              ],
              "internalType": "struct IDCAHubSwapHandler.TokenInSwap[]",
              "name": "tokens",
              "type": "tuple[]"
            },
            {
              "components": [
                {
                  "internalType": "address",
                  "name": "tokenA",
                  "type": "address"
                },
                {
                  "internalType": "address",
                  "name": "tokenB",
                  "type": "address"
                },
                {
                  "internalType": "uint256",
                  "name": "ratioAToB",
                  "type": "uint256"
                },
                {
                  "internalType": "uint256",
                  "name": "ratioBToA",
                  "type": "uint256"
                },
                {
                  "internalType": "bytes1",
                  "name": "intervalsInSwap",
                  "type": "bytes1"
                }
              ],
              "internalType": "struct IDCAHubSwapHandler.PairInSwap[]",
              "name": "pairs",
              "type": "tuple[]"
            }
          ],
          "internalType": "struct IDCAHubSwapHandler.SwapInfo",
          "name": "_swapInformation",
          "type": "tuple"
        }
      ],
      "stateMutability": "nonpayable",
      "type": "function"
    },
    {
      "inputs": [
        {
          "internalType": "address",
          "name": "_tokenA",
          "type": "address"
        },
        {
          "internalType": "address",
          "name": "_tokenB",
          "type": "address"
        },
        {
          "internalType": "bytes1",
          "name": "_swapIntervalMask",
          "type": "bytes1"
        },
        {
          "internalType": "uint32",
          "name": "_swapNumber",
          "type": "uint32"
        }
      ],
      "name": "swapAmountDelta",
      "outputs": [
        {
          "components": [
            {
              "internalType": "uint128",
              "name": "swapDeltaAToB",
              "type": "uint128"
            },
            {
              "internalType": "uint128",
              "name": "swapDeltaBToA",
              "type": "uint128"
            }
          ],
          "internalType": "struct IDCAHubParameters.SwapDelta",
          "name": "",
          "type": "tuple"
        }
      ],
      "stateMutability": "view",
      "type": "function"
    },
    {
      "inputs": [
        {
          "internalType": "address",
          "name": "_tokenA",
          "type": "address"
        },
        {
          "internalType": "address",
          "name": "_tokenB",
          "type": "address"
        },
        {
          "internalType": "bytes1",
          "name": "_swapIntervalMask",
          "type": "bytes1"
        }
      ],
      "name": "swapData",
      "outputs": [
        {
          "components": [
            {
              "internalType": "uint32",
              "name": "performedSwaps",
              "type": "uint32"
            },
            {
              "internalType": "uint224",
              "name": "nextAmountToSwapAToB",
              "type": "uint224"
            },
            {
              "internalType": "uint32",
              "name": "lastSwappedAt",
              "type": "uint32"
            },
            {
              "internalType": "uint224",
              "name": "nextAmountToSwapBToA",
              "type": "uint224"
            }
          ],
          "internalType": "struct IDCAHubParameters.SwapData",
          "name": "",
          "type": "tuple"
        }
      ],
      "stateMutability": "view",
      "type": "function"
    },
    {
      "inputs": [],
      "name": "swapFee",
      "outputs": [
        {
          "internalType": "uint32",
          "name": "",
          "type": "uint32"
        }
      ],
      "stateMutability": "view",
      "type": "function"
    },
    {
      "inputs": [
        {
          "internalType": "uint256",
          "name": "_positionId",
          "type": "uint256"
        },
        {
          "internalType": "address",
          "name": "_recipientUnswapped",
          "type": "address"
        },
        {
          "internalType": "address",
          "name": "_recipientSwapped",
          "type": "address"
        }
      ],
      "name": "terminate",
      "outputs": [
        {
          "internalType": "uint256",
          "name": "_unswapped",
          "type": "uint256"
        },
        {
          "internalType": "uint256",
          "name": "_swapped",
          "type": "uint256"
        }
      ],
      "stateMutability": "nonpayable",
      "type": "function"
    },
    {
      "inputs": [],
      "name": "unpause",
      "outputs": [],
      "stateMutability": "nonpayable",
      "type": "function"
    },
    {
      "inputs": [
        {
          "internalType": "uint256",
          "name": "_positionId",
          "type": "uint256"
        }
      ],
      "name": "userPosition",
      "outputs": [
        {
          "components": [
            {
              "internalType": "contract IERC20Metadata",
              "name": "from",
              "type": "address"
            },
            {
              "internalType": "contract IERC20Metadata",
              "name": "to",
              "type": "address"
            },
            {
              "internalType": "uint32",
              "name": "swapInterval",
              "type": "uint32"
            },
            {
              "internalType": "uint32",
              "name": "swapsExecuted",
              "type": "uint32"
            },
            {
              "internalType": "uint256",
              "name": "swapped",
              "type": "uint256"
            },
            {
              "internalType": "uint32",
              "name": "swapsLeft",
              "type": "uint32"
            },
            {
              "internalType": "uint256",
              "name": "remaining",
              "type": "uint256"
            },
            {
              "internalType": "uint120",
              "name": "rate",
              "type": "uint120"
            }
          ],
          "internalType": "struct IDCAHubPositionHandler.UserPosition",
          "name": "_userPosition",
          "type": "tuple"
        }
      ],
      "stateMutability": "view",
      "type": "function"
    },
    {
      "inputs": [
        {
          "components": [
            {
              "internalType": "address",
              "name": "token",
              "type": "address"
            },
            {
              "internalType": "uint256",
              "name": "amount",
              "type": "uint256"
            }
          ],
          "internalType": "struct IDCAHub.AmountOfToken[]",
          "name": "_amounts",
          "type": "tuple[]"
        },
        {
          "internalType": "address",
          "name": "_recipient",
          "type": "address"
        }
      ],
      "name": "withdrawFromPlatformBalance",
      "outputs": [],
      "stateMutability": "nonpayable",
      "type": "function"
    },
    {
      "inputs": [
        {
          "internalType": "uint256",
          "name": "_positionId",
          "type": "uint256"
        },
        {
          "internalType": "address",
          "name": "_recipient",
          "type": "address"
        }
      ],
      "name": "withdrawSwapped",
      "outputs": [
        {
          "internalType": "uint256",
          "name": "",
          "type": "uint256"
        }
      ],
      "stateMutability": "nonpayable",
      "type": "function"
    },
    {
      "inputs": [
        {
          "components": [
            {
              "internalType": "address",
              "name": "token",
              "type": "address"
            },
            {
              "internalType": "uint256[]",
              "name": "positionIds",
              "type": "uint256[]"
            }
          ],
          "internalType": "struct IDCAHubPositionHandler.PositionSet[]",
          "name": "_positions",
          "type": "tuple[]"
        },
        {
          "internalType": "address",
          "name": "_recipient",
          "type": "address"
        }
      ],
      "name": "withdrawSwappedMany",
      "outputs": [
        {
          "internalType": "uint256[]",
          "name": "_swapped",
          "type": "uint256[]"
        }
      ],
      "stateMutability": "nonpayable",
      "type": "function"
    }
  ],
  "bytecode": "0x60806040527f313f8c5ec4103e5607b5d8b3519ab06a512037396eaf72a07527d8b838012ed46008557ffb63867dc303889c4e19b6276d834e066500dd4210f4434d34089a246beec82a6009557f73c06b41830ea810d4e9dd3dfb0309555fbff1642391fb7644bc4a0b0f7a77fd600a55600b8054600160a01b600160f81b0319167e09c4f000000064000017700000000000000000000000000000000000000000179055348015620000b157600080fd5b506040516200638138038062006381833981016040819052620000d49162000322565b60016000556007805460ff19169055808484846001600160a01b03831615806200010557506001600160a01b038216155b806200011857506001600160a01b038116155b15620001375760405163d92e233d60e01b815260040160405180910390fd5b600854620001469084620001e2565b600954620001559083620001e2565b6200016b600a54600954620001f260201b60201c565b6008546200017a9080620001f2565b600954620001899080620001f2565b600b80546001600160a01b0319166001600160a01b039290921691909117905550620001b79050816200023d565b600c80546001600160a01b0319166001600160a01b0392909216919091179055506200038a92505050565b620001ee828262000268565b5050565b600082815260066020526040808220600101805490849055905190918391839186917fbd79b86ffe0ab8e8776151514217cd7cacd52c909f66475c3af44e129f0b00ff9190a4505050565b6001600160a01b038116620002655760405163d92e233d60e01b815260040160405180910390fd5b50565b60008281526006602090815260408083206001600160a01b038516845290915290205460ff16620001ee5760008281526006602090815260408083206001600160a01b03851684529091529020805460ff19166001179055620002c83390565b6001600160a01b0316816001600160a01b0316837f2f8788117e7eff1d82e926ec794901d17c78024a50270940304540a733656f0d60405160405180910390a45050565b6001600160a01b03811681146200026557600080fd5b600080600080608085870312156200033957600080fd5b845162000346816200030c565b602086015190945062000359816200030c565b60408601519093506200036c816200030c565b60608601519092506200037f816200030c565b939692955090935050565b615fe7806200039a6000396000f3fe608060405234801561001057600080fd5b50600436106102745760003560e01c806371651aa911610151578063b2b513c1116100c3578063d547741f11610087578063d547741f14610685578063d6d788c314610698578063da90b03a146106ab578063ded700a6146106be578063f1accf39146106d1578063fc448158146106e457600080fd5b8063b2b513c114610622578063bc063e1a14610635578063c67e32e91461063f578063cc7a20491461065f578063d2d95b2d1461067257600080fd5b80637dc0d1d0116101155780637dc0d1d01461055c578063808ba8e0146105875780638456cb59146105e857806391d14854146105f05780639bcb557214610603578063a217fddf1461061a57600080fd5b806371651aa9146104f257806372ada4c5146105055780637adbf9731461052d5780637d361dd3146105405780637d8e86031461054957600080fd5b8063480e5da1116101ea57806357ae1cec116101ae57806357ae1cec14610461578063582cf84b146104765780635b6fd01d146104a45780635c975abb146104c45780636b29e1bd146104cc5780636eefd134146104df57600080fd5b8063480e5da1146103b25780634aa91aee146103df5780634eeeb3eb1461041957806354cf2aeb14610422578063560c64991461044e57600080fd5b80632a2a1a741161023c5780632a2a1a741461032f5780632f2ff15d1461034f57806336568abe146103645780633f4ba83a146103775780633feb14931461037f578063480b37961461039257600080fd5b806301ffc9a7146102795780630b1aa984146102a157806317621890146102cf5780631b8b8c34146102f0578063248a9ca31461030c575b600080fd5b61028c610287366004614b64565b6106ed565b60405190151581526020015b60405180910390f35b6102b46102af366004614bdf565b610724565b60408051825181526020928301519281019290925201610298565b6102e26102dd366004614c37565b6107ae565b604051908152602001610298565b6102f961271081565b60405161ffff9091168152602001610298565b6102e261031a366004614c67565b60009081526006602052604090206001015490565b61034261033d366004614d49565b610862565b6040516102989190614f24565b61036261035d366004614c37565b610d63565b005b610362610372366004614c37565b610d8e565b610362610e0c565b61036261038d366004614f37565b610e24565b6103a56103a0366004614f78565b610ee4565b6040516102989190615009565b600b546103c690600160e01b900460f81b81565b6040516001600160f81b03199091168152602001610298565b6103f26103ed366004614bdf565b611138565b6040805182516001600160801b039081168252602093840151169281019290925201610298565b6102e260095481565b600b5461043990600160a01b900463ffffffff1681565b60405163ffffffff9091168152602001610298565b61036261045c36600461501c565b6111d3565b600b546102f990600160e81b900461ffff1681565b6103c6610484366004615053565b600160209081526000928352604080842090915290825290205460f81b81565b6104b76104b2366004614c67565b611353565b6040516102989190615081565b61028c611511565b6102e26104da366004615105565b611520565b6103626104ed3660046151aa565b6118bc565b6103626105003660046151ce565b611948565b610518610513366004615252565b611d47565b60408051928352602083019190915201610298565b61036261053b366004615289565b611fa4565b6102e260085481565b610362610557366004614f37565b612008565b600b5461056f906001600160a01b031681565b6040516001600160a01b039091168152602001610298565b61059a6105953660046152a6565b6120a2565b60408051825163ffffffff90811682526020808501516001600160e01b0390811691840191909152848401519091169282019290925260609283015190911691810191909152608001610298565b61036261215e565b61028c6105fe366004614c37565b612173565b600b5461043990600160c01b900463ffffffff1681565b6102e2600081565b6102e26106303660046152ed565b61219e565b610439620186a081565b6102e261064d366004615289565b60026020526000908152604090205481565b600c5461056f906001600160a01b031681565b61034261068036600461539c565b612202565b610362610693366004614c37565b612973565b6103626106a6366004615407565b612999565b6103626106b9366004615407565b612a03565b6103626106cc366004615422565b612a6d565b6103626106df36600461544e565b612ad1565b6102e2600a5481565b60006001600160e01b03198216637965db0b60e01b148061071e57506301ffc9a760e01b6001600160e01b03198316145b92915050565b60408051808201909152600080825260208201526000806107458787612b19565b6001600160a01b0391821660009081526004602090815260408083209390941682529182528281206001600160f81b031989168252825282812063ffffffff8816825282528290208251808401909352805483526001015490820152925050505b949350505050565b6000600260005414156107dc5760405162461bcd60e51b81526004016107d390615496565b60405180910390fd5b60026000556107ea82612b4a565b6000806107f685612b71565b91509150610805818584612c81565b604080518681526001600160a01b0383811660208301529181018490529085169033907fcade65431cead780eb2b14b84a6594e1b235278a02e31abf3fc04c7c3e8ab4ee9060600160405180910390a35060016000559392505050565b6040805180820190915260608082526020820152600260005414156108995760405162461bcd60e51b81526004016107d390615496565b60026000556108a6611511565b156108c35760405162461bcd60e51b81526004016107d3906154cd565b600b54600160a01b900463ffffffff166108df8c8c8c8c612202565b9150426000805b8460200151518110156109cc5760008560200151828151811061090b5761090b6154f7565b60209081029190910101516080810151909150600160f81b5b6001600160f81b03198082169083161080159061094a57506001600160f81b0319811615155b1561099f576001600160f81b0319828216161561099157610991836000015184602001518361097d8b8860400151612c95565b61098b8c8960600151612c95565b8b612ccb565b60011b607f60f91b16610924565b84806109b457506001600160f81b0319821615155b945050505080806109c490615523565b9150506108e6565b50806109eb576040516346f8d7b160e11b815260040160405180910390fd5b50508151516000906001600160401b03811115610a0a57610a0a61553e565b604051908082528060200260200182016040528015610a33578160200160208202803683370190505b50905060005b835151811015610b5057600084600001518281518110610a5b57610a5b6154f7565b602002602001015190506000898984818110610a7957610a796154f7565b905060200201359050600082604001511180610a955750600081115b15610ac4578151610aa590613081565b848481518110610ab757610ab76154f7565b6020026020010181815250505b8a6001600160a01b03168c6001600160a01b03161415610b0b576000818360200151610af09190615554565b90508015610b05578251610b05908d83612c81565b50610b3b565b602082015115610b2857610b2882600001518d8460200151612c81565b8015610b3b578151610b3b908c83612c81565b50508080610b4890615523565b915050610a39565b508251604051632c0be4cf60e11b81526001600160a01b038a1691635817c99e91610b879133918c908c908c908c906004016155cb565b600060405180830381600087803b158015610ba157600080fd5b505af1158015610bb5573d6000803e3d6000fd5b5050505060005b835151811015610cf257600084600001518281518110610bde57610bde6154f7565b60200260200101519050600081606001519050600082604001511180610c1c575060008a8a85818110610c1357610c136154f7565b90506020020135115b15610ca857600082602001518360400151868681518110610c3f57610c3f6154f7565b6020026020010151610c519190615554565b610c5b9190615678565b90506000610c6c8460000151613081565b905081811015610c8f5760405163d562e29f60e01b815260040160405180910390fd5b610c998282615678565b610ca39084615554565b925050505b8015610cdd5781516001600160a01b031660009081526002602052604081208054839290610cd7908490615554565b90915550505b50508080610cea90615523565b915050610bbc565b50876001600160a01b0316896001600160a01b0316336001600160a01b03167fa1ec3a0d95701d84ce597ac1f6789b13a582504554c8aa7ec2be74470639c8e5868b8b88604051610d46949392919061568f565b60405180910390a4505060016000559a9950505050505050505050565b600082815260066020526040902060010154610d7f81336130ec565b610d898383613150565b505050565b6001600160a01b0381163314610dfe5760405162461bcd60e51b815260206004820152602f60248201527f416363657373436f6e74726f6c3a2063616e206f6e6c792072656e6f756e636560448201526e103937b632b9903337b91039b2b63360891b60648201526084016107d3565b610e0882826131d6565b5050565b600854610e1981336130ec565b610e2161323d565b50565b600854610e3181336130ec565b60005b82811015610ea557610e6b848483818110610e5157610e516154f7565b9050602002016020810190610e669190615407565b6132d2565b600b805460ff60e01b198116600160e01b9182900460f890811b9490941790931c0291909117905580610e9d81615523565b915050610e34565b507fd691741464555eddf67afe8f82b0cbe92f8859926856aec4a48a106ceb1b1bee8383604051610ed79291906156cd565b60405180910390a1505050565b606060026000541415610f095760405162461bcd60e51b81526004016107d390615496565b6002600055610f1782612b4a565b826001600160401b03811115610f2f57610f2f61553e565b604051908082528060200260200182016040528015610f58578160200160208202803683370190505b50905060005b838110156110dc576000858583818110610f7a57610f7a6154f7565b9050602002810190610f8c9190615716565b610f9a906020810190615289565b905060005b868684818110610fb157610fb16154f7565b9050602002810190610fc39190615716565b610fd1906020810190615736565b90508110156110a45760008061102e898987818110610ff257610ff26154f7565b90506020028101906110049190615716565b611012906020810190615736565b85818110611022576110226154f7565b90506020020135612b71565b91509150836001600160a01b0316816001600160a01b0316146110645760405163305663b560e11b815260040160405180910390fd5b81868681518110611077576110776154f7565b6020026020010181815161108b9190615554565b90525082915061109c905081615523565b915050610f9f565b506110c981858585815181106110bc576110bc6154f7565b6020026020010151612c81565b50806110d481615523565b915050610f5e565b50816001600160a01b0316336001600160a01b03167fdc1e0c1e1b707ce83f3d3a8c66a6abc1d23d95f81a61fc1f578355e0d968fd2d868685604051611124939291906157e6565b60405180910390a360016000559392505050565b60408051808201909152600080825260208201526000806111598787612b19565b6001600160a01b0391821660009081526003602090815260408083209490931682529283528181206001600160f81b031989168252835281812063ffffffff8816825283528190208151808301909252546001600160801b038082168352600160801b909104169181019190915292505050949350505050565b600260005414156111f65760405162461bcd60e51b81526004016107d390615496565b6002600055600a5461120881336130ec565b60005b838110156112fa57848482818110611225576112256154f7565b9050604002016020013560026000878785818110611245576112456154f7565b61125b9260206040909202019081019150615289565b6001600160a01b03166001600160a01b03168152602001908152602001600020600082825461128a9190615678565b909155506112e89050838686848181106112a6576112a66154f7565b905060400201602001358787858181106112c2576112c26154f7565b6112d89260206040909202019081019150615289565b6001600160a01b031691906133c6565b806112f281615523565b91505061120b565b50816001600160a01b0316336001600160a01b03167fc372140441ddd3b3a7319bbc36cbc33b5600b15c211eda1d1fc9d35bb7ebb3a886866040516113409291906158ca565b60405180910390a3505060016000555050565b6040805161010081018252600080825260208201819052918101829052606081018290526080810182905260a0810182905260c0810182905260e08101919091526000828152600d60209081526040808320815160e081018352815463ffffffff8082168352600160201b82041694820194909452600160401b840460f81b6001600160f81b031916928101839052600160481b84046001600160a01b0390811660608301819052600160e81b90950462ffffff1660808301526001909201546001600160601b03811660a0830152600160601b900490911660c0820181905290939261144292909190613429565b90506000611454828460200151613484565b60608401516001600160a01b03908116865260c085015116602086015283519091506114819082906134a5565b63ffffffff166060850152602083015161149b90836134a5565b63ffffffff1660a08501526114b083836134cb565b60c08501526114be836134fd565b6001600160781b031660e085015260408301516001600160f81b03191615611509576114ed836040015161352e565b63ffffffff166040850152611503858484613642565b60808501525b505050919050565b600061151b6138a0565b905090565b6000600260005414156115455760405162461bcd60e51b81526004016107d390615496565b6002600055611552611511565b1561156f5760405162461bcd60e51b81526004016107d3906154cd565b6001600160a01b038916158061158c57506001600160a01b038816155b8061159e57506001600160a01b038416155b156115bc5760405163d92e233d60e01b815260040160405180910390fd5b876001600160a01b0316896001600160a01b031614156115ef5760405163c1ab6dc160e01b815260040160405180910390fd5b8661160d57604051631f2a200560e01b815260040160405180910390fd5b63ffffffff861661163157604051633c92196b60e11b815260040160405180910390fd5b600061163d88886138ae565b90506000600f6000815461165090615523565b91829055509050600061166e8c8c8b6116688c6132d2565b876138eb565b6040810151600b549192506001600160f81b0319600160e01b90920460f81b16166116ac57604051638b52594f60e01b815260040160405180910390fd5b600c546040516306d66a1360e31b81526001600160a01b03909116906336b35098906116e29085908b908b908b906004016159c2565b600060405180830381600087803b1580156116fc57600080fd5b505af1158015611710573d6000803e3d6000fd5b505050506117238c8c83604001516139c4565b6117388c8c8360400151846020015187613ac4565b6000828152600d60209081526040918290208351815492850151938501516060860151608087015163ffffffff93841667ffffffffffffffff1990961695909517600160201b968416969096029590951768010000000000000000600160e81b031916600160401b60f89290921c919091027fffffff0000000000000000000000000000000000000000ffffffffffffffffff1617600160481b6001600160a01b0395861602176001600160e81b0316600160e81b62ffffff9094169390930292909217815560a084015160c08501516001600160601b03909116600160601b9185169190910217600190910155611839918e1690339030908e90613ada16565b866001600160a01b0316336001600160a01b03167f1915b09a20b5793f1bd89b84dc928fe4ee36b0b9270ec217a3b2c278999f0967848f8f8d898860000151600161188491906159f7565b89602001518f8f6040516118a099989796959493929190615a1f565b60405180910390a35060016000559a9950505050505050505050565b6009546118c981336130ec565b61271061ffff831611156118f0576040516314bc5e9d60e21b815260040160405180910390fd5b600b805461ffff60e81b1916600160e81b61ffff8516908102919091179091556040519081527f6c234431526967795ada65665e195191d4b2fc63c9f564d1ea626478325ae9d9906020015b60405180910390a15050565b6002600054141561196b5760405162461bcd60e51b81526004016107d390615496565b6002600055611978611511565b156119955760405162461bcd60e51b81526004016107d3906154cd565b600b54600160c01b900463ffffffff166000856001600160401b038111156119bf576119bf61553e565b6040519080825280602002602001820160405280156119e8578160200160208202803683370190505b50905060005b8151811015611aee57600081118015611a7157508787611a0f600184615678565b818110611a1e57611a1e6154f7565b611a349260206040909202019081019150615289565b6001600160a01b0316888883818110611a4f57611a4f6154f7565b611a659260206040909202019081019150615289565b6001600160a01b031611155b15611a8f576040516333910aef60e11b815260040160405180910390fd5b611abf888883818110611aa457611aa46154f7565b611aba9260206040909202019081019150615289565b613081565b828281518110611ad157611ad16154f7565b602090810291909101015280611ae681615523565b9150506119ee565b5060005b86811015611b5957611b47888883818110611b0f57611b0f6154f7565b611b259260206040909202019081019150615289565b878a8a85818110611b3857611b386154f7565b90506040020160200135612c81565b80611b5181615523565b915050611af2565b5060405163c5dd4f9960e01b81526001600160a01b0386169063c5dd4f9990611b909033908b908b9088908b908b90600401615a8e565b600060405180830381600087803b158015611baa57600080fd5b505af1158015611bbe573d6000803e3d6000fd5b5050505060005b86811015611ce9576000611be4898984818110611aa457611aa46154f7565b9050611c0b848a8a85818110611bfc57611bfc6154f7565b90506040020160200135613b18565b838381518110611c1d57611c1d6154f7565b6020026020010151611c2f9190615554565b811015611c4f5760405163d562e29f60e01b815260040160405180910390fd5b828281518110611c6157611c616154f7565b602002602001015181611c749190615678565b600260008b8b86818110611c8a57611c8a6154f7565b611ca09260206040909202019081019150615289565b6001600160a01b03166001600160a01b031681526020019081526020016000206000828254611ccf9190615554565b90915550829150611ce1905081615523565b915050611bc5565b50846001600160a01b0316336001600160a01b03167ffe7a45edbfa15e95f7bb4e9f70a63c167ef12768b9ab360f861497e3bbbbaa08898986604051611d3193929190615ad2565b60405180910390a3505060016000555050505050565b60008060026000541415611d6d5760405162461bcd60e51b81526004016107d390615496565b60026000556001600160a01b0384161580611d8f57506001600160a01b038316155b15611dad5760405163d92e233d60e01b815260040160405180910390fd5b6000858152600d6020908152604091829020825160e081018452815463ffffffff8082168352600160201b82041693820193909352600160401b830460f81b6001600160f81b03191693810193909352600160481b82046001600160a01b039081166060850152600160e81b90920462ffffff166080840152600101546001600160601b03811660a0840152600160601b90041660c0820152611e5286826003613b39565b6000611e6b82606001518360c001518460400151613429565b9050611e78878383613642565b9250611e8482826134cb565b9350611e908282613bf7565b6000878152600d60209081526040808320838155600101839055600e90915280822091909155600c549051630852cd8d60e31b8152600481018990526001600160a01b03909116906342966c6890602401600060405180830381600087803b158015611efb57600080fd5b505af1158015611f0f573d6000803e3d6000fd5b505050506000831115611f2b57611f2b8260c001518685612c81565b8315611f4057611f4082606001518786612c81565b60408051888152602081018690529081018490526001600160a01b03808716919088169033907f2577f709b454c4d5c1118a01186dd48d4a6bacf43fe4c26aad2f66a51bf5290d9060600160405180910390a4505060016000559094909350915050565b600954611fb181336130ec565b611fba82612b4a565b600b80546001600160a01b0319166001600160a01b0384169081179091556040519081527f3f32684a32a11dabdbb8c0177de80aa3ae36a004d75210335b49e544e48cd0aa9060200161193c565b60085461201581336130ec565b60005b8281101561207057612035848483818110610e5157610e516154f7565b600b805460ff60e01b1981169219600160e01b9182900460f890811b91909116901c029190911790558061206881615523565b915050612018565b507fd0359552feffede26fee29bd110dd8e1a3237acd35c7e17a9d3b7330b02f88258383604051610ed79291906156cd565b604080516080810182526000808252602082018190529181018290526060810182905290806120d18686612b19565b6001600160a01b0391821660009081526005602090815260408083209390941682529182528281206001600160f81b03198816825282528290208251608081018452815463ffffffff80821683526001600160e01b03600160201b9283900481169584019590955260019093015492831694820194909452929004166060820152925050505b9392505050565b60085461216b81336130ec565b610e21613c36565b60009182526006602090815260408084206001600160a01b0393909316845291905290205460ff1690565b60006121b08b8b8b8b8b8b8b8b611520565b905081156121f4577fa9c989cd063ac13a33305492ca3b3643f4bf38968e009d020c750e27b3ee287e8184846040516121eb93929190615afc565b60405180910390a15b9a9950505050505050505050565b6040805180820190915260608082526020820152600b5463ffffffff600160a01b820416906001600160a01b03166000866001600160401b0381111561224a5761224a61553e565b604051908082528060200260200182016040528015612273578160200160208202803683370190505b5090506000876001600160401b038111156122905761229061553e565b6040519080825280602002602001820160405280156122b9578160200160208202803683370190505b509050856001600160401b038111156122d4576122d461553e565b60405190808252806020026020018201604052801561232d57816020015b6040805160a0810182526000808252602080830182905292820181905260608201819052608082015282526000199092019101816122f25790505b50602086015260005b868110156126cb576000888883818110612352576123526154f7565b6123689260206040909202019081019150615b2e565b9050600089898481811061237e5761237e6154f7565b90506040020160200160208101906123969190615b2e565b90508060ff168260ff161015806124725750600083118015612472575089896123c0600186615678565b8181106123cf576123cf6154f7565b6123e59260206040909202019081019150615b2e565b60ff168260ff16108061247257508989612400600186615678565b81811061240f5761240f6154f7565b6124259260206040909202019081019150615b2e565b60ff168260ff1614801561247257508989612441600186615678565b818110612450576124506154f7565b90506040020160200160208101906124689190615b2e565b60ff168160ff1611155b1561249057604051635dd49b5d60e01b815260040160405180910390fd5b6040805160a0810182526000808252602082018190529181018290526060810182905260808101919091528c8c8460ff168181106124d0576124d06154f7565b90506020020160208101906124e59190615289565b6001600160a01b031681528c8c60ff8416818110612505576125056154f7565b905060200201602081019061251a9190615289565b6001600160a01b03166020820152805160009061253690613c90565b905060006125478360200151613c90565b905060008061255e85600001518660200151613cff565b6001600160f81b03191660808801528b51919350915082908b9060ff8a1690811061258b5761258b6154f7565b6020026020010181815161259f9190615554565b905250895181908b9060ff89169081106125bb576125bb6154f7565b602002602001018181516125cf9190615554565b905250845160208601516125f291906001600160781b038088169087168f613ea7565b606087018190526040870191909152612618906001600160781b0385169083908f613f50565b898860ff168151811061262d5761262d6154f7565b602002602001018181516126419190615554565b9052506040850151612660906001600160781b0386169084908f613f50565b898760ff1681518110612675576126756154f7565b602002602001018181516126899190615554565b90525060208d015180518691908a9081106126a6576126a66154f7565b60200260200101819052505050505050505080806126c390615523565b915050612336565b50600b54600160e81b900461ffff16886001600160401b038111156126f2576126f261553e565b60405190808252806020026020018201604052801561275757816020015b612744604051806080016040528060006001600160a01b031681526020016000815260200160008152602001600081525090565b8152602001906001900390816127105790505b50865260005b865151811015612965576000811180156127df57508a8a61277f600184615678565b81811061278e5761278e6154f7565b90506020020160208101906127a39190615289565b6001600160a01b03168b8b838181106127be576127be6154f7565b90506020020160208101906127d39190615289565b6001600160a01b031611155b156127fd576040516333910aef60e11b815260040160405180910390fd5b612831604051806080016040528060006001600160a01b031681526020016000815260200160008152602001600081525090565b8b8b83818110612843576128436154f7565b90506020020160208101906128589190615289565b6001600160a01b03168152835160009085908490811061287a5761287a6154f7565b602002602001015190506000868481518110612898576128986154f7565b6020026020010151905060008211806128b15750600081115b1561292d5760006128c28a84613f9b565b905060006127106128d761ffff891684615b4b565b6128e19190615b80565b905060006128ef8585615b94565b90508181131561290d576129038282615b94565b6020870152612925565b818112156129255761291f8183615b94565b60408701525b506060850152505b828a600001518581518110612944576129446154f7565b6020026020010181905250505050808061295d90615523565b91505061275d565b505050505050949350505050565b60008281526006602052604090206001015461298f81336130ec565b610d8983836131d6565b6009546129a681336130ec565b6129af82613fd2565b600b805463ffffffff60a01b1916600160a01b63ffffffff8516908102919091179091556040519081527f5658872a8436367e842f76c14ffbbf8e67a2e70f47b28b3c4154134f72e902d69060200161193c565b600954612a1081336130ec565b612a1982613fd2565b600b805463ffffffff60c01b1916600160c01b63ffffffff8516908102919091179091556040519081527f6d0851a3fe66369a96f833703a09a7cb561e2eea7bc56bb8f247ac599814150f9060200161193c565b60026000541415612a905760405162461bcd60e51b81526004016107d390615496565b6002600055612a9d611511565b15612aba5760405162461bcd60e51b81526004016107d3906154cd565b612ac7838383600061402b565b5050600160005550565b60026000541415612af45760405162461bcd60e51b81526004016107d390615496565b6002600055612b0281612b4a565b612b0e8484848461402b565b505060016000555050565b600080826001600160a01b0316846001600160a01b031610612b3c578284612b3f565b83835b909590945092505050565b6001600160a01b038116610e215760405163d92e233d60e01b815260040160405180910390fd5b6000818152600d60209081526040808320815160e081018352815463ffffffff8082168352600160201b82041694820194909452600160401b840460f81b6001600160f81b03191692810192909252600160481b83046001600160a01b039081166060840152600160e81b90930462ffffff166080830152600101546001600160601b03811660a0830152600160601b900490911660c08201528190612c1984826002613b39565b6000612c3282606001518360c001518460400151613429565b9050612c3f858383613642565b60c0909201516000958652600d60209081526040808820805463ffffffff90951663ffffffff1990951694909417909355600e90529085209490945593915050565b610d896001600160a01b03841683836133c6565b6000612710612ca5606485615bd3565b612cb190612710615bf6565b612cc19063ffffffff1684615b4b565b6121579190615b80565b6001600160a01b03808716600090815260056020908152604080832093891683529281528282206001600160f81b0319881683528152908290208251608081018452815463ffffffff80821683526001600160e01b03600160201b92839004811695840186905260019094015490811695830195909552909304166060830152151580612d655750600081606001516001600160e01b0316115b1561303d576001600160a01b038088166000908152600460209081526040808320938a1683529281528282206001600160f81b0319891683528152828220845163ffffffff168352815290829020825180840184528154815260019091015491810191909152815180830190925280519091908190612de5908890615554565b8152602001858360200151612dfa9190615554565b90526001600160a01b03808a166000908152600460209081526040808320938c1683529281528282206001600160f81b03198b16835290529081208451909190612e459060016159f7565b63ffffffff1681526020808201929092526040908101600090812084518155938301516001909401939093556001600160a01b03808c16845260038352818420908b16845282528083206001600160f81b03198a168452909152812083518290612eb09060026159f7565b63ffffffff16815260208082019290925260409081016000208151808301835290546001600160801b038082168352600160801b90910416928101929092528051608081019091528451919250908190612f0b9060016159f7565b63ffffffff16815260200182600001516001600160801b03168560200151612f339190615c1b565b6001600160e01b031681526020018563ffffffff16815260200182602001516001600160801b03168560600151612f6a9190615c1b565b6001600160e01b039081169091526001600160a01b03808c166000818152600560209081526040808320948f168084529482528083206001600160f81b03198f168085529083528184208851898501518916600160201b90810263ffffffff9283161783558a8501516060909b0151909916909802989097169790971760019096019590955591815260038252838120928152918152828220938252929092528120845190919061301c9060026159f7565b63ffffffff1681526020810191909152604001600090812055506130789050565b6001600160a01b038088166000908152600160209081526040808320938a16835292905220805460f881811b881916901c60ff199091161790555b50505050505050565b6040516370a0823160e01b81523060048201526000906001600160a01b038316906370a0823190602401602060405180830381865afa1580156130c8573d6000803e3d6000fd5b505050506040513d601f19601f8201168201806040525081019061071e9190615c3b565b6130f68282612173565b610e085761310e816001600160a01b03166014614311565b613119836020614311565b60405160200161312a929190615c80565b60408051601f198184030181529082905262461bcd60e51b82526107d391600401615cf5565b61315a8282612173565b610e085760008281526006602090815260408083206001600160a01b03851684529091529020805460ff191660011790556131923390565b6001600160a01b0316816001600160a01b0316837f2f8788117e7eff1d82e926ec794901d17c78024a50270940304540a733656f0d60405160405180910390a45050565b6131e08282612173565b15610e085760008281526006602090815260408083206001600160a01b0385168085529252808320805460ff1916905551339285917ff6391f5c32d9c69d2a47ea670b442974b53935d1edc7fd64eb21e047a839171b9190a45050565b613245611511565b6132885760405162461bcd60e51b815260206004820152601460248201527314185d5cd8589b194e881b9bdd081c185d5cd95960621b60448201526064016107d3565b6007805460ff191690557f5db9ee0a495bf2e6ff9c91a7834c1ba4fdd244a5e8aa4e537bd38aeae4b073aa335b6040516001600160a01b03909116815260200160405180910390a1565b60008163ffffffff16603c14156132ee5750600160f81b919050565b8163ffffffff1661012c14156133095750600160f91b919050565b8163ffffffff1661038414156133245750600160fa1b919050565b8163ffffffff16610708141561333f5750600160fb1b919050565b8163ffffffff16610e10141561335a5750600160fc1b919050565b8163ffffffff1661384014156133755750600160fd1b919050565b8163ffffffff166201518014156133915750600160fe1b919050565b8163ffffffff1662093a8014156133ad5750600160ff1b919050565b6040516305fabb6160e41b815260040160405180910390fd5b6040516001600160a01b038316602482015260448101829052610d8990849063a9059cbb60e01b906064015b60408051601f198184030181529190526020810180516001600160e01b03166001600160e01b0319909316929092179091526144ac565b60008060006134388686612b19565b6001600160a01b0391821660009081526005602090815260408083209490931682529283528181206001600160f81b03198816825290925290205463ffffffff16925050509392505050565b60008163ffffffff168363ffffffff161161349f5782612157565b50919050565b60008163ffffffff168363ffffffff16116134c1576000612157565b6121578284615bf6565b60006134d6836134fd565b6001600160781b03166134ed8460200151846134a5565b63ffffffff166121579190615b4b565b6000816080015162ffffff1660188360a001516001600160601b03166001600160781b0316901b61071e9190615d28565b6000600160f81b6001600160f81b03198316141561354e5750603c919050565b600160f91b6001600160f81b03198316141561356d575061012c919050565b600160fa1b6001600160f81b03198316141561358c5750610384919050565b600160fb1b6001600160f81b0319831614156135ab5750610708919050565b600160fc1b6001600160f81b0319831614156135ca5750610e10919050565b600160fd1b6001600160f81b0319831614156135e95750613840919050565b600160fe1b6001600160f81b031983161415613609575062015180919050565b600160ff1b6001600160f81b031983161415613629575062093a80919050565b60405163bf3cad0b60e01b815260040160405180910390fd5b600080613653838560200151613484565b90508063ffffffff16846000015163ffffffff161115613677576000915050612157565b8063ffffffff16846000015163ffffffff1614156136a55750506000838152600e6020526040902054612157565b60008460c001516001600160a01b031685606001516001600160a01b03161061376a5760c0850180516001600160a01b03908116600090815260046020818152604080842060608c01805187168652908352818520828d0180516001600160f81b031990811688529185528387208e5163ffffffff90811689529086528488206001908101549a518a1689529686528488209351909816875291845282862091511685528252808420948816845293905291902001546137659190615678565b6137fe565b6060850180516001600160a01b03908116600090815260046020818152604080842060c08c01805187168652908352818520828d0180516001600160f81b031990811688529185528387208e5163ffffffff90811689529086528488205499518916885295855283872092519097168652908352818520955116845293815283832091871683525220546137fe9190615678565b9050600061380f8660600151613c90565b6001600160781b031690506000613825876134fd565b905060008061383d85846001600160781b031661457e565b9150915060008261386b576001600160781b03841661385c8688615b80565b6138669190615b4b565b613875565b6138758583615b80565b60008c8152600e60205260409020549091506138919082615554565b9b9a5050505050505050505050565b600061151b60075460ff1690565b6000806138c163ffffffff841685615b80565b90506001600160781b0381111561215757604051636b2f218360e01b815260040160405180910390fd5b6040805160e081018252600080825260208201819052918101829052606081018290526080810182905260a0810182905260c081018290529061392f878786613429565b6040805160e0810190915263ffffffff8216815290915083906001600160601b03601883901c16906020810161396589866159f7565b63ffffffff168152602001876001600160f81b03191681526020018a6001600160a01b031681526020018362ffffff168152602001826001600160601b03168152602001896001600160a01b0316815250935050505095945050505050565b6000806139d18585612b19565b6001600160a01b03808316600090815260016020908152604080832093851683529290522054919350915060f81b6001600160f81b031984821616613abc576001600160f81b03198116613a8757600b54604051633faaed9d60e11b81526001600160a01b038581166004830152848116602483015290911690637f55db3a90604401600060405180830381600087803b158015613a6e57600080fd5b505af1158015613a82573d6000803e3d6000fd5b505050505b6001600160a01b038381166000908152600160209081526040808320938616835292905220805460ff191685831760f81c1790555b505050505050565b613ad3858585858560016145c6565b5050505050565b6040516001600160a01b0380851660248301528316604482015260648101829052613b129085906323b872dd60e01b906084016133f2565b50505050565b60006064612710613b2f63ffffffff861685615b4b565b612cc19190615b80565b60408201516001600160f81b031916613b655760405163673f032f60e11b815260040160405180910390fd5b600c5460405163823abfd960e01b81526001600160a01b039091169063823abfd990613b9990869033908690600401615d4a565b602060405180830381865afa158015613bb6573d6000803e3d6000fd5b505050506040513d601f19601f82011682018060405250810190613bda9190615d6d565b610d8957604051635c427cd960e01b815260040160405180910390fd5b8063ffffffff16826020015163ffffffff161115610e0857610e0882606001518360c0015184604001518560200151613c2f876134fd565b60006145c6565b613c3e611511565b15613c5b5760405162461bcd60e51b81526004016107d3906154cd565b6007805460ff191660011790557f62e78cea01bee320cd4e420270b5ea74000d11b0c9f74754ebdbfc544b05a2586132b53390565b6000816001600160a01b031663313ce5676040518163ffffffff1660e01b8152600401602060405180830381865afa158015613cd0573d6000803e3d6000fd5b505050506040513d601f19601f82011682018060405250810190613cf49190615d8f565b61071e90600a615e90565b6001600160a01b0382811660009081526001602090815260408083209385168352929052908120548190819060f81b42600160f81b5b6001600160f81b031980821690841610801590613d5b57506001600160f81b0319811615155b15613e87576001600160f81b03198382161615613e79576001600160a01b038089166000908152600560209081526040808320938b1683529281528282206001600160f81b03198516835281528282208351608081018552815463ffffffff80821683526001600160e01b03600160201b9283900481169584019590955260019093015492831695820195909552939004166060830152613dfb8361352e565b90508363ffffffff1681828460400151613e159190615bd3565b613e209060016159f7565b613e2a9190615e9f565b63ffffffff161115613e3d575050613e87565b602082015195831795613e59906001600160e01b031689615554565b975081606001516001600160e01b031687613e749190615554565b965050505b60011b607f60f91b16613d35565b85158015613e93575084155b15613e9d57600093505b5050509250925092565b60405163a513355f60e01b81526001600160a01b0385811660048301526001600160801b03841660248301528681166044830152600091829184169063a513355f90606401602060405180830381865afa158015613f09573d6000803e3d6000fd5b505050506040513d601f19601f82011682018060405250810190613f2d9190615c3b565b905080613f3a8686615b4b565b613f449190615b80565b91509550959350505050565b600080613f5d8385612c95565b613f679086615b4b565b9050613f738682615b80565b9150613f7f8682615ecb565b15613f925781613f8e81615523565b9250505b50949350505050565b600082613fab6127106064615edf565b62ffffff16613fba9190615bf6565b63ffffffff168363ffffffff1683612cc19190615b4b565b620186a063ffffffff82161115613ffc576040516314041af760e31b815260040160405180910390fd5b614007606482615f01565b63ffffffff1615610e21576040516358d620b360e01b815260040160405180910390fd5b6000848152600d6020908152604091829020825160e081018452815463ffffffff8082168352600160201b82041693820193909352600160401b830460f81b6001600160f81b03191693810193909352600160481b82046001600160a01b039081166060850152600160e81b90920462ffffff166080840152600101546001600160601b03811660a0840152600160601b9004811660c08301528216156140e08683836140d9576001613b39565b6000613b39565b60006140f983606001518460c001518560400151613429565b9050600061410784836134cb565b905060008361411f5761411a8883615678565b614129565b6141298883615554565b9050801580159061413e575063ffffffff8716155b1561415c57604051633c92196b60e11b815260040160405180910390fd5b80158015614170575060008763ffffffff16115b1561417a57600096505b600063ffffffff8816156141975761419282896138ae565b61419a565b60005b60008b8152600d602052604081206001810180546bffffffffffffffffffffffff19166001600160601b03601886901c1617905580546001600160e81b0316600160e81b62ffffff8516021790559091506141f589866159f7565b60008c8152600d60205260409020805463ffffffff808416600160201b0267ffffffffffffffff199092169089161717905590506142348b8887613642565b60008c8152600e602052604090205561424d8786613bf7565b61426687606001518860c0015189604001518486613ac4565b89156142a057851561429157606087015161428c906001600160a01b031633308d613ada565b6142a0565b6142a08760600151898c612c81565b337f1e52a79a98c3fbf6230e862913323047a9c0ec511d2c289b1eeeeb9cc97c5bea8c846142cf8960016159f7565b604080519384526001600160781b0392909216602084015263ffffffff9081168383015285166060830152519081900360800190a25050505050505050505050565b60606000614320836002615b4b565b61432b906002615554565b6001600160401b038111156143425761434261553e565b6040519080825280601f01601f19166020018201604052801561436c576020820181803683370190505b509050600360fc1b81600081518110614387576143876154f7565b60200101906001600160f81b031916908160001a905350600f60fb1b816001815181106143b6576143b66154f7565b60200101906001600160f81b031916908160001a90535060006143da846002615b4b565b6143e5906001615554565b90505b600181111561445d576f181899199a1a9b1b9c1cb0b131b232b360811b85600f1660108110614419576144196154f7565b1a60f81b82828151811061442f5761442f6154f7565b60200101906001600160f81b031916908160001a90535060049490941c9361445681615f24565b90506143e8565b5083156121575760405162461bcd60e51b815260206004820181905260248201527f537472696e67733a20686578206c656e67746820696e73756666696369656e7460448201526064016107d3565b6000614501826040518060400160405280602081526020017f5361666545524332303a206c6f772d6c6576656c2063616c6c206661696c6564815250856001600160a01b0316614a699092919063ffffffff16565b805190915015610d89578080602001905181019061451f9190615d6d565b610d895760405162461bcd60e51b815260206004820152602a60248201527f5361666545524332303a204552433230206f7065726174696f6e20646964206e6044820152691bdd081cdd58d8d9595960b21b60648201526084016107d3565b6000808361459257506001905060006145bf565b838302838582816145a5576145a5615b6a565b04146145b85760008092509250506145bf565b6001925090505b9250929050565b846001600160a01b0316866001600160a01b0316101561481b578015614715576001600160a01b03868116600090815260056020908152604080832093891683529281528282206001600160f81b03198816835290522080546001600160781b0384169190600490614649908490600160201b90046001600160e01b0316615f3b565b82546001600160e01b039182166101009390930a9283029190920219909116179055506001600160a01b03808716600090815260036020908152604080832093891683529281528282206001600160f81b03198816835290529081206001600160781b038416916146bb8660016159f7565b63ffffffff1681526020810191909152604001600090812080549091906146ec9084906001600160801b0316615f5d565b92506101000a8154816001600160801b0302191690836001600160801b03160217905550613abc565b6001600160a01b03868116600090815260056020908152604080832093891683529281528282206001600160f81b03198816835290522080546001600160781b0384169190600490614778908490600160201b90046001600160e01b0316615c1b565b82546001600160e01b039182166101009390930a9283029190920219909116179055506001600160a01b03808716600090815260036020908152604080832093891683529281528282206001600160f81b03198816835290529081206001600160781b038416916147ea8660016159f7565b63ffffffff1681526020810191909152604001600090812080549091906146ec9084906001600160801b0316615f7f565b801561492f576001600160a01b038581166000908152600560209081526040808320938a1683529281528282206001600160f81b03198816835290522060010180546001600160781b0384169190600490614887908490600160201b90046001600160e01b0316615f3b565b82546001600160e01b039182166101009390930a9283029190920219909116179055506001600160a01b038086166000908152600360209081526040808320938a1683529281528282206001600160f81b03198816835290529081206001600160781b038416916148f98660016159f7565b63ffffffff168152602081019190915260400160002080546010906146ec908490600160801b90046001600160801b0316615f5d565b6001600160a01b038581166000908152600560209081526040808320938a1683529281528282206001600160f81b03198816835290522060010180546001600160781b0384169190600490614995908490600160201b90046001600160e01b0316615c1b565b82546001600160e01b039182166101009390930a9283029190920219909116179055506001600160a01b038086166000908152600360209081526040808320938a1683529281528282206001600160f81b03198816835290529081206001600160781b03841691614a078660016159f7565b63ffffffff16815260208101919091526040016000208054601090614a3d908490600160801b90046001600160801b0316615f7f565b92506101000a8154816001600160801b0302191690836001600160801b03160217905550505050505050565b60606107a6848460008585843b614ac25760405162461bcd60e51b815260206004820152601d60248201527f416464726573733a2063616c6c20746f206e6f6e2d636f6e747261637400000060448201526064016107d3565b600080866001600160a01b03168587604051614ade9190615f9f565b60006040518083038185875af1925050503d8060008114614b1b576040519150601f19603f3d011682016040523d82523d6000602084013e614b20565b606091505b5091509150613f8e82828660608315614b3a575081612157565b825115614b4a5782518084602001fd5b8160405162461bcd60e51b81526004016107d39190615cf5565b600060208284031215614b7657600080fd5b81356001600160e01b03198116811461215757600080fd5b6001600160a01b0381168114610e2157600080fd5b8035614bae81614b8e565b919050565b80356001600160f81b031981168114614bae57600080fd5b803563ffffffff81168114614bae57600080fd5b60008060008060808587031215614bf557600080fd5b8435614c0081614b8e565b93506020850135614c1081614b8e565b9250614c1e60408601614bb3565b9150614c2c60608601614bcb565b905092959194509250565b60008060408385031215614c4a57600080fd5b823591506020830135614c5c81614b8e565b809150509250929050565b600060208284031215614c7957600080fd5b5035919050565b60008083601f840112614c9257600080fd5b5081356001600160401b03811115614ca957600080fd5b6020830191508360208260051b85010111156145bf57600080fd5b60008083601f840112614cd657600080fd5b5081356001600160401b03811115614ced57600080fd5b6020830191508360208260061b85010111156145bf57600080fd5b60008083601f840112614d1a57600080fd5b5081356001600160401b03811115614d3157600080fd5b6020830191508360208285010111156145bf57600080fd5b60008060008060008060008060008060c08b8d031215614d6857600080fd5b8a356001600160401b0380821115614d7f57600080fd5b614d8b8e838f01614c80565b909c509a5060208d0135915080821115614da457600080fd5b614db08e838f01614cc4565b909a509850889150614dc460408e01614ba3565b9750614dd260608e01614ba3565b965060808d0135915080821115614de857600080fd5b614df48e838f01614c80565b909650945060a08d0135915080821115614e0d57600080fd5b50614e1a8d828e01614d08565b915080935050809150509295989b9194979a5092959850565b8051604080845281518482018190526000926060916020918201918388019190865b82811015614e9c57845180516001600160a01b0316855260208082015190860152604080820151908601526060908101519085015260808401948201949350600101614e55565b50878101518984038a83015280518085529082019450600093820192505b80841015614f1657845180516001600160a01b039081168552838201511683850152878101518885015286810151878501526080908101516001600160f81b03191690840152938101936001939093019260a090920191614eba565b509098975050505050505050565b6020815260006121576020830184614e33565b60008060208385031215614f4a57600080fd5b82356001600160401b03811115614f6057600080fd5b614f6c85828601614c80565b90969095509350505050565b600080600060408486031215614f8d57600080fd5b83356001600160401b03811115614fa357600080fd5b614faf86828701614c80565b9094509250506020840135614fc381614b8e565b809150509250925092565b600081518084526020808501945080840160005b83811015614ffe57815187529582019590820190600101614fe2565b509495945050505050565b6020815260006121576020830184614fce565b60008060006040848603121561503157600080fd5b83356001600160401b0381111561504757600080fd5b614faf86828701614cc4565b6000806040838503121561506657600080fd5b823561507181614b8e565b91506020830135614c5c81614b8e565b60006101008201905060018060a01b0380845116835280602085015116602084015250604083015163ffffffff8082166040850152806060860151166060850152608085015160808501528060a08601511660a0850152505060c083015160c083015260e08301516150fe60e08401826001600160781b03169052565b5092915050565b60008060008060008060008060e0898b03121561512157600080fd5b883561512c81614b8e565b9750602089013561513c81614b8e565b96506040890135955061515160608a01614bcb565b945061515f60808a01614bcb565b935060a089013561516f81614b8e565b925060c08901356001600160401b0381111561518a57600080fd5b6151968b828c01614c80565b999c989b5096995094979396929594505050565b6000602082840312156151bc57600080fd5b813561ffff8116811461215757600080fd5b6000806000806000606086880312156151e657600080fd5b85356001600160401b03808211156151fd57600080fd5b61520989838a01614cc4565b90975095506020880135915061521e82614b8e565b9093506040870135908082111561523457600080fd5b5061524188828901614d08565b969995985093965092949392505050565b60008060006060848603121561526757600080fd5b83359250602084013561527981614b8e565b91506040840135614fc381614b8e565b60006020828403121561529b57600080fd5b813561215781614b8e565b6000806000606084860312156152bb57600080fd5b83356152c681614b8e565b925060208401356152d681614b8e565b91506152e460408501614bb3565b90509250925092565b6000806000806000806000806000806101008b8d03121561530d57600080fd5b8a3561531881614b8e565b995060208b013561532881614b8e565b985060408b0135975061533d60608c01614bcb565b965061534b60808c01614bcb565b955060a08b013561535b81614b8e565b945060c08b01356001600160401b038082111561537757600080fd5b6153838e838f01614c80565b909650945060e08d0135915080821115614e0d57600080fd5b600080600080604085870312156153b257600080fd5b84356001600160401b03808211156153c957600080fd5b6153d588838901614c80565b909650945060208701359150808211156153ee57600080fd5b506153fb87828801614cc4565b95989497509550505050565b60006020828403121561541957600080fd5b61215782614bcb565b60008060006060848603121561543757600080fd5b83359250602084013591506152e460408501614bcb565b6000806000806080858703121561546457600080fd5b843593506020850135925061547b60408601614bcb565b9150606085013561548b81614b8e565b939692955090935050565b6020808252601f908201527f5265656e7472616e637947756172643a207265656e7472616e742063616c6c00604082015260600190565b60208082526010908201526f14185d5cd8589b194e881c185d5cd95960821b604082015260600190565b634e487b7160e01b600052603260045260246000fd5b634e487b7160e01b600052601160045260246000fd5b60006000198214156155375761553761550d565b5060010190565b634e487b7160e01b600052604160045260246000fd5b600082198211156155675761556761550d565b500190565b81835260006001600160fb1b0383111561558557600080fd5b8260051b8083602087013760009401602001938452509192915050565b81835281816020850137506000828201602090810191909152601f909101601f19169091010190565b6001600160a01b0387168152608060208083018290528751918301829052600091888201919060a0850190845b8181101561563f57845180516001600160a01b03168452602080820151908501526040808201519085015260609081015190840152608083019484019492506001016155f8565b5050848103604086015261565481898b61556c565b92505050828103606084015261566b8185876155a2565b9998505050505050505050565b60008282101561568a5761568a61550d565b500390565b6060815260006156a26060830187614e33565b82810360208401526156b581868861556c565b91505063ffffffff8316604083015295945050505050565b60208082528181018390526000908460408401835b8681101561570b5763ffffffff6156f884614bcb565b16825291830191908301906001016156e2565b509695505050505050565b60008235603e1983360301811261572c57600080fd5b9190910192915050565b6000808335601e1984360301811261574d57600080fd5b8301803591506001600160401b0382111561576757600080fd5b6020019150600581901b36038213156145bf57600080fd5b6000808335601e1984360301811261579657600080fd5b83016020810192503590506001600160401b038111156157b557600080fd5b8060051b36038313156145bf57600080fd5b60008235603e198336030181126157dd57600080fd5b90910192915050565b60408082528181018490526000906060600586901b8401810190840187845b8881101561586d57868403605f19018352615820828b6157c7565b803561582b81614b8e565b6001600160a01b0316855260206158448282018361577f565b92508782880152615858888801848361556c565b96505093840193929092019150600101615805565b5050508381036020850152613f8e8186614fce565b8183526000602080850194508260005b85811015614ffe5781356158a581614b8e565b6001600160a01b03168752818301358388015260409687019690910190600101615892565b6020815260006107a6602083018486615882565b600481106158fc57634e487b7160e01b600052602160045260246000fd5b9052565b81835260006020808501808196508560051b810191508460005b878110156159b557828403895261593182886157c7565b6040808601823561594181614b8e565b6001600160a01b031687526159588389018461577f565b888a019390935290829052909150606086019060005b838110156159a05781356004811061598557600080fd5b61598f84826158de565b50918801919088019060010161596e565b5050998601999450509084019060010161591a565b5091979650505050505050565b8481526001600160a01b03841660208201526060604082018190526000906159ed9083018486615900565b9695505050505050565b600063ffffffff808316818516808303821115615a1657615a1661550d565b01949350505050565b8981526001600160a01b0389811660208301528816604082015263ffffffff87811660608301526001600160781b038716608083015285811660a0830152841660c082015261010060e08201819052600090615a7e8382018587615900565b9c9b505050505050505050505050565b6001600160a01b0387168152608060208201819052600090615ab39083018789615882565b63ffffffff86166040840152828103606084015261566b8185876155a2565b604081526000615ae6604083018587615882565b905063ffffffff83166020830152949350505050565b838152604060208201526000615b166040830184866155a2565b95945050505050565b60ff81168114610e2157600080fd5b600060208284031215615b4057600080fd5b813561215781615b1f565b6000816000190483118215151615615b6557615b6561550d565b500290565b634e487b7160e01b600052601260045260246000fd5b600082615b8f57615b8f615b6a565b500490565b60008083128015600160ff1b850184121615615bb257615bb261550d565b6001600160ff1b0384018313811615615bcd57615bcd61550d565b50500390565b600063ffffffff80841680615bea57615bea615b6a565b92169190910492915050565b600063ffffffff83811690831681811015615c1357615c1361550d565b039392505050565b60006001600160e01b0383811690831681811015615c1357615c1361550d565b600060208284031215615c4d57600080fd5b5051919050565b60005b83811015615c6f578181015183820152602001615c57565b83811115613b125750506000910152565b7f416363657373436f6e74726f6c3a206163636f756e7420000000000000000000815260008351615cb8816017850160208801615c54565b7001034b99036b4b9b9b4b733903937b6329607d1b6017918401918201528351615ce9816028840160208801615c54565b01602801949350505050565b6020815260008251806020840152615d14816040850160208701615c54565b601f01601f19169190910160400192915050565b60006001600160781b03808316818516808303821115615a1657615a1661550d565b8381526001600160a01b0383166020820152606081016107a660408301846158de565b600060208284031215615d7f57600080fd5b8151801515811461215757600080fd5b600060208284031215615da157600080fd5b815161215781615b1f565b600181815b80851115615de7578160001904821115615dcd57615dcd61550d565b80851615615dda57918102915b93841c9390800290615db1565b509250929050565b600082615dfe5750600161071e565b81615e0b5750600061071e565b8160018114615e215760028114615e2b57615e47565b600191505061071e565b60ff841115615e3c57615e3c61550d565b50506001821b61071e565b5060208310610133831016604e8410600b8410161715615e6a575081810a61071e565b615e748383615dac565b8060001904821115615e8857615e8861550d565b029392505050565b600061215760ff841683615def565b600063ffffffff80831681851681830481118215151615615ec257615ec261550d565b02949350505050565b600082615eda57615eda615b6a565b500690565b600062ffffff80831681851681830481118215151615615ec257615ec261550d565b600063ffffffff80841680615f1857615f18615b6a565b92169190910692915050565b600081615f3357615f3361550d565b506000190190565b60006001600160e01b03828116848216808303821115615a1657615a1661550d565b60006001600160801b03808316818516808303821115615a1657615a1661550d565b60006001600160801b0383811690831681811015615c1357615c1361550d565b6000825161572c818460208701615c5456fea2646970667358221220fe45f693b8babe514d0c2a424576b1725c521ef4786ccb62c28d0e83d754818264736f6c634300080a0033",
  "linkReferences": {},
  "deployedLinkReferences": {}
}