{
  "_format": "hh-sol-artifact-1",
  "contractName": "DCAHub",
  "sourceName": "contracts/DCAHub/DCAHub.sol",
  "abi": [
    {
      "inputs": [
        {
          "internalType": "address",
          "name": "_immediateGovernor",
          "type": "address"
        },
        {
          "internalType": "address",
          "name": "_timeLockedGovernor",
          "type": "address"
        },
        {
          "internalType": "contract IPriceOracle",
          "name": "_oracle",
          "type": "address"
        },
        {
          "internalType": "contract IDCAPermissionManager",
          "name": "_permissionManager",
          "type": "address"
        }
      ],
      "stateMutability": "nonpayable",
      "type": "constructor"
    },
    {
      "inputs": [],
      "name": "AmountTooBig",
      "type": "error"
    },
    {
      "inputs": [],
      "name": "HighFee",
      "type": "error"
    },
    {
      "inputs": [],
      "name": "HighPlatformFeeRatio",
      "type": "error"
    },
    {
      "inputs": [],
      "name": "IntervalNotAllowed",
      "type": "error"
    },
    {
      "inputs": [],
      "name": "InvalidFee",
      "type": "error"
    },
    {
      "inputs": [],
      "name": "InvalidInterval",
      "type": "error"
    },
    {
      "inputs": [],
      "name": "InvalidMask",
      "type": "error"
    },
    {
      "inputs": [],
      "name": "InvalidPairs",
      "type": "error"
    },
    {
      "inputs": [],
      "name": "InvalidPosition",
      "type": "error"
    },
    {
      "inputs": [],
      "name": "InvalidToken",
      "type": "error"
    },
    {
      "inputs": [],
      "name": "InvalidTokens",
      "type": "error"
    },
    {
      "inputs": [],
      "name": "LiquidityNotReturned",
      "type": "error"
    },
    {
      "inputs": [],
      "name": "NoSwapsToExecute",
      "type": "error"
    },
    {
      "inputs": [],
      "name": "PositionDoesNotMatchToken",
      "type": "error"
    },
    {
      "inputs": [],
      "name": "UnauthorizedCaller",
      "type": "error"
    },
    {
      "inputs": [],
      "name": "ZeroAddress",
      "type": "error"
    },
    {
      "inputs": [],
      "name": "ZeroAmount",
      "type": "error"
    },
    {
      "inputs": [],
      "name": "ZeroSwaps",
      "type": "error"
    },
    {
      "anonymous": false,
      "inputs": [
        {
          "indexed": true,
          "internalType": "address",
          "name": "depositor",
          "type": "address"
        },
        {
          "indexed": true,
          "internalType": "address",
          "name": "owner",
          "type": "address"
        },
        {
          "indexed": false,
          "internalType": "uint256",
          "name": "positionId",
          "type": "uint256"
        },
        {
          "indexed": false,
          "internalType": "address",
          "name": "fromToken",
          "type": "address"
        },
        {
          "indexed": false,
          "internalType": "address",
          "name": "toToken",
          "type": "address"
        },
        {
          "indexed": false,
          "internalType": "uint32",
          "name": "swapInterval",
          "type": "uint32"
        },
        {
          "indexed": false,
          "internalType": "uint120",
          "name": "rate",
          "type": "uint120"
        },
        {
          "indexed": false,
          "internalType": "uint32",
          "name": "startingSwap",
          "type": "uint32"
        },
        {
          "indexed": false,
          "internalType": "uint32",
          "name": "lastSwap",
          "type": "uint32"
        },
        {
          "components": [
            {
              "internalType": "address",
              "name": "operator",
              "type": "address"
            },
            {
              "internalType": "enum IDCAPermissionManager.Permission[]",
              "name": "permissions",
              "type": "uint8[]"
            }
          ],
          "indexed": false,
          "internalType": "struct IDCAPermissionManager.PermissionSet[]",
          "name": "permissions",
          "type": "tuple[]"
        }
      ],
      "name": "Deposited",
      "type": "event"
    },
    {
      "anonymous": false,
      "inputs": [
        {
          "indexed": false,
          "internalType": "uint32",
          "name": "_feeSet",
          "type": "uint32"
        }
      ],
      "name": "LoanFeeSet",
      "type": "event"
    },
    {
      "anonymous": false,
      "inputs": [
        {
          "indexed": true,
          "internalType": "address",
          "name": "sender",
          "type": "address"
        },
        {
          "indexed": true,
          "internalType": "address",
          "name": "to",
          "type": "address"
        },
        {
          "components": [
            {
              "internalType": "address",
              "name": "token",
              "type": "address"
            },
            {
              "internalType": "uint256",
              "name": "amount",
              "type": "uint256"
            }
          ],
          "indexed": false,
          "internalType": "struct IDCAHub.AmountOfToken[]",
          "name": "loan",
          "type": "tuple[]"
        },
        {
          "indexed": false,
          "internalType": "uint32",
          "name": "fee",
          "type": "uint32"
        }
      ],
      "name": "Loaned",
      "type": "event"
    },
    {
      "anonymous": false,
      "inputs": [
        {
          "indexed": true,
          "internalType": "address",
          "name": "user",
          "type": "address"
        },
        {
          "indexed": false,
          "internalType": "uint256",
          "name": "positionId",
          "type": "uint256"
        },
        {
          "indexed": false,
          "internalType": "uint120",
          "name": "rate",
          "type": "uint120"
        },
        {
          "indexed": false,
          "internalType": "uint32",
          "name": "startingSwap",
          "type": "uint32"
        },
        {
          "indexed": false,
          "internalType": "uint32",
          "name": "lastSwap",
          "type": "uint32"
        }
      ],
      "name": "Modified",
      "type": "event"
    },
    {
      "anonymous": false,
      "inputs": [
        {
          "indexed": false,
          "internalType": "contract IPriceOracle",
          "name": "_oracle",
          "type": "address"
        }
      ],
      "name": "OracleSet",
      "type": "event"
    },
    {
      "anonymous": false,
      "inputs": [
        {
          "indexed": false,
          "internalType": "address",
          "name": "account",
          "type": "address"
        }
      ],
      "name": "Paused",
      "type": "event"
    },
    {
      "anonymous": false,
      "inputs": [
        {
          "indexed": false,
          "internalType": "uint16",
          "name": "_platformFeeRatio",
          "type": "uint16"
        }
      ],
      "name": "PlatformFeeRatioSet",
      "type": "event"
    },
    {
      "anonymous": false,
      "inputs": [
        {
          "indexed": true,
          "internalType": "bytes32",
          "name": "role",
          "type": "bytes32"
        },
        {
          "indexed": true,
          "internalType": "bytes32",
          "name": "previousAdminRole",
          "type": "bytes32"
        },
        {
          "indexed": true,
          "internalType": "bytes32",
          "name": "newAdminRole",
          "type": "bytes32"
        }
      ],
      "name": "RoleAdminChanged",
      "type": "event"
    },
    {
      "anonymous": false,
      "inputs": [
        {
          "indexed": true,
          "internalType": "bytes32",
          "name": "role",
          "type": "bytes32"
        },
        {
          "indexed": true,
          "internalType": "address",
          "name": "account",
          "type": "address"
        },
        {
          "indexed": true,
          "internalType": "address",
          "name": "sender",
          "type": "address"
        }
      ],
      "name": "RoleGranted",
      "type": "event"
    },
    {
      "anonymous": false,
      "inputs": [
        {
          "indexed": true,
          "internalType": "bytes32",
          "name": "role",
          "type": "bytes32"
        },
        {
          "indexed": true,
          "internalType": "address",
          "name": "account",
          "type": "address"
        },
        {
          "indexed": true,
          "internalType": "address",
          "name": "sender",
          "type": "address"
        }
      ],
      "name": "RoleRevoked",
      "type": "event"
    },
    {
      "anonymous": false,
      "inputs": [
        {
          "indexed": false,
          "internalType": "uint32",
          "name": "_feeSet",
          "type": "uint32"
        }
      ],
      "name": "SwapFeeSet",
      "type": "event"
    },
    {
      "anonymous": false,
      "inputs": [
        {
          "indexed": false,
          "internalType": "uint32[]",
          "name": "_swapIntervals",
          "type": "uint32[]"
        }
      ],
      "name": "SwapIntervalsAllowed",
      "type": "event"
    },
    {
      "anonymous": false,
      "inputs": [
        {
          "indexed": false,
          "internalType": "uint32[]",
          "name": "_swapIntervals",
          "type": "uint32[]"
        }
      ],
      "name": "SwapIntervalsForbidden",
      "type": "event"
    },
    {
      "anonymous": false,
      "inputs": [
        {
          "indexed": true,
          "internalType": "address",
          "name": "sender",
          "type": "address"
        },
        {
          "indexed": true,
          "internalType": "address",
          "name": "rewardRecipient",
          "type": "address"
        },
        {
          "indexed": true,
          "internalType": "address",
          "name": "callbackHandler",
          "type": "address"
        },
        {
          "components": [
            {
              "components": [
                {
                  "internalType": "address",
                  "name": "token",
                  "type": "address"
                },
                {
                  "internalType": "uint256",
                  "name": "reward",
                  "type": "uint256"
                },
                {
                  "internalType": "uint256",
                  "name": "toProvide",
                  "type": "uint256"
                },
                {
                  "internalType": "uint256",
                  "name": "platformFee",
                  "type": "uint256"
                }
              ],
              "internalType": "struct IDCAHubSwapHandler.TokenInSwap[]",
              "name": "tokens",
              "type": "tuple[]"
            },
            {
              "components": [
                {
                  "internalType": "address",
                  "name": "tokenA",
                  "type": "address"
                },
                {
                  "internalType": "address",
                  "name": "tokenB",
                  "type": "address"
                },
                {
                  "internalType": "uint256",
                  "name": "ratioAToB",
                  "type": "uint256"
                },
                {
                  "internalType": "uint256",
                  "name": "ratioBToA",
                  "type": "uint256"
                },
                {
                  "internalType": "bytes1",
                  "name": "intervalsInSwap",
                  "type": "bytes1"
                }
              ],
              "internalType": "struct IDCAHubSwapHandler.PairInSwap[]",
              "name": "pairs",
              "type": "tuple[]"
            }
          ],
          "indexed": false,
          "internalType": "struct IDCAHubSwapHandler.SwapInfo",
          "name": "swapInformation",
          "type": "tuple"
        },
        {
          "indexed": false,
          "internalType": "uint256[]",
          "name": "borrowed",
          "type": "uint256[]"
        },
        {
          "indexed": false,
          "internalType": "uint32",
          "name": "fee",
          "type": "uint32"
        }
      ],
      "name": "Swapped",
      "type": "event"
    },
    {
      "anonymous": false,
      "inputs": [
        {
          "indexed": true,
          "internalType": "address",
          "name": "user",
          "type": "address"
        },
        {
          "indexed": true,
          "internalType": "address",
          "name": "recipientUnswapped",
          "type": "address"
        },
        {
          "indexed": true,
          "internalType": "address",
          "name": "recipientSwapped",
          "type": "address"
        },
        {
          "indexed": false,
          "internalType": "uint256",
          "name": "positionId",
          "type": "uint256"
        },
        {
          "indexed": false,
          "internalType": "uint256",
          "name": "returnedUnswapped",
          "type": "uint256"
        },
        {
          "indexed": false,
          "internalType": "uint256",
          "name": "returnedSwapped",
          "type": "uint256"
        }
      ],
      "name": "Terminated",
      "type": "event"
    },
    {
      "anonymous": false,
      "inputs": [
        {
          "indexed": false,
          "internalType": "address",
          "name": "account",
          "type": "address"
        }
      ],
      "name": "Unpaused",
      "type": "event"
    },
    {
      "anonymous": false,
      "inputs": [
        {
          "indexed": true,
          "internalType": "address",
          "name": "withdrawer",
          "type": "address"
        },
        {
          "indexed": true,
          "internalType": "address",
          "name": "recipient",
          "type": "address"
        },
        {
          "indexed": false,
          "internalType": "uint256",
          "name": "positionId",
          "type": "uint256"
        },
        {
          "indexed": false,
          "internalType": "address",
          "name": "token",
          "type": "address"
        },
        {
          "indexed": false,
          "internalType": "uint256",
          "name": "amount",
          "type": "uint256"
        }
      ],
      "name": "Withdrew",
      "type": "event"
    },
    {
      "anonymous": false,
      "inputs": [
        {
          "indexed": true,
          "internalType": "address",
          "name": "sender",
          "type": "address"
        },
        {
          "indexed": true,
          "internalType": "address",
          "name": "recipient",
          "type": "address"
        },
        {
          "components": [
            {
              "internalType": "address",
              "name": "token",
              "type": "address"
            },
            {
              "internalType": "uint256",
              "name": "amount",
              "type": "uint256"
            }
          ],
          "indexed": false,
          "internalType": "struct IDCAHub.AmountOfToken[]",
          "name": "amounts",
          "type": "tuple[]"
        }
      ],
      "name": "WithdrewFromPlatform",
      "type": "event"
    },
    {
      "anonymous": false,
      "inputs": [
        {
          "indexed": true,
          "internalType": "address",
          "name": "withdrawer",
          "type": "address"
        },
        {
          "indexed": true,
          "internalType": "address",
          "name": "recipient",
          "type": "address"
        },
        {
          "components": [
            {
              "internalType": "address",
              "name": "token",
              "type": "address"
            },
            {
              "internalType": "uint256[]",
              "name": "positionIds",
              "type": "uint256[]"
            }
          ],
          "indexed": false,
          "internalType": "struct IDCAHubPositionHandler.PositionSet[]",
          "name": "positions",
          "type": "tuple[]"
        },
        {
          "indexed": false,
          "internalType": "uint256[]",
          "name": "withdrew",
          "type": "uint256[]"
        }
      ],
      "name": "WithdrewMany",
      "type": "event"
    },
    {
      "inputs": [],
      "name": "DEFAULT_ADMIN_ROLE",
      "outputs": [
        {
          "internalType": "bytes32",
          "name": "",
          "type": "bytes32"
        }
      ],
      "stateMutability": "view",
      "type": "function"
    },
    {
      "inputs": [],
      "name": "IMMEDIATE_ROLE",
      "outputs": [
        {
          "internalType": "bytes32",
          "name": "",
          "type": "bytes32"
        }
      ],
      "stateMutability": "view",
      "type": "function"
    },
    {
      "inputs": [],
      "name": "MAX_FEE",
      "outputs": [
        {
          "internalType": "uint32",
          "name": "",
          "type": "uint32"
        }
      ],
      "stateMutability": "view",
      "type": "function"
    },
    {
      "inputs": [],
      "name": "MAX_PLATFORM_FEE_RATIO",
      "outputs": [
        {
          "internalType": "uint16",
          "name": "",
          "type": "uint16"
        }
      ],
      "stateMutability": "view",
      "type": "function"
    },
    {
      "inputs": [],
      "name": "PLATFORM_WITHDRAW_ROLE",
      "outputs": [
        {
          "internalType": "bytes32",
          "name": "",
          "type": "bytes32"
        }
      ],
      "stateMutability": "view",
      "type": "function"
    },
    {
      "inputs": [],
      "name": "TIME_LOCKED_ROLE",
      "outputs": [
        {
          "internalType": "bytes32",
          "name": "",
          "type": "bytes32"
        }
      ],
      "stateMutability": "view",
      "type": "function"
    },
    {
      "inputs": [
        {
          "internalType": "address",
          "name": "_tokenA",
          "type": "address"
        },
        {
          "internalType": "address",
          "name": "_tokenB",
          "type": "address"
        },
        {
          "internalType": "bytes1",
          "name": "_swapIntervalMask",
          "type": "bytes1"
        },
        {
          "internalType": "uint32",
          "name": "_swapNumber",
          "type": "uint32"
        }
      ],
      "name": "accumRatio",
      "outputs": [
        {
          "components": [
            {
              "internalType": "uint256",
              "name": "accumRatioAToB",
              "type": "uint256"
            },
            {
              "internalType": "uint256",
              "name": "accumRatioBToA",
              "type": "uint256"
            }
          ],
          "internalType": "struct IDCAHubParameters.AccumRatio",
          "name": "",
          "type": "tuple"
        }
      ],
      "stateMutability": "view",
      "type": "function"
    },
    {
      "inputs": [
        {
          "internalType": "address",
          "name": "",
          "type": "address"
        },
        {
          "internalType": "address",
          "name": "",
          "type": "address"
        }
      ],
      "name": "activeSwapIntervals",
      "outputs": [
        {
          "internalType": "bytes1",
          "name": "",
          "type": "bytes1"
        }
      ],
      "stateMutability": "view",
      "type": "function"
    },
    {
      "inputs": [
        {
          "internalType": "uint32[]",
          "name": "_swapIntervals",
          "type": "uint32[]"
        }
      ],
      "name": "addSwapIntervalsToAllowedList",
      "outputs": [],
      "stateMutability": "nonpayable",
      "type": "function"
    },
    {
      "inputs": [],
      "name": "allowedSwapIntervals",
      "outputs": [
        {
          "internalType": "bytes1",
          "name": "",
          "type": "bytes1"
        }
      ],
      "stateMutability": "view",
      "type": "function"
    },
    {
      "inputs": [
        {
          "internalType": "address",
          "name": "_from",
          "type": "address"
        },
        {
          "internalType": "address",
          "name": "_to",
          "type": "address"
        },
        {
          "internalType": "uint256",
          "name": "_amount",
          "type": "uint256"
        },
        {
          "internalType": "uint32",
          "name": "_amountOfSwaps",
          "type": "uint32"
        },
        {
          "internalType": "uint32",
          "name": "_swapInterval",
          "type": "uint32"
        },
        {
          "internalType": "address",
          "name": "_owner",
          "type": "address"
        },
        {
          "components": [
            {
              "internalType": "address",
              "name": "operator",
              "type": "address"
            },
            {
              "internalType": "enum IDCAPermissionManager.Permission[]",
              "name": "permissions",
              "type": "uint8[]"
            }
          ],
          "internalType": "struct IDCAPermissionManager.PermissionSet[]",
          "name": "_permissions",
          "type": "tuple[]"
        }
      ],
      "name": "deposit",
      "outputs": [
        {
          "internalType": "uint256",
          "name": "",
          "type": "uint256"
        }
      ],
      "stateMutability": "nonpayable",
      "type": "function"
    },
    {
      "inputs": [
        {
          "internalType": "address[]",
          "name": "_tokens",
          "type": "address[]"
        },
        {
          "components": [
            {
              "internalType": "uint8",
              "name": "indexTokenA",
              "type": "uint8"
            },
            {
              "internalType": "uint8",
              "name": "indexTokenB",
              "type": "uint8"
            }
          ],
          "internalType": "struct IDCAHubSwapHandler.PairIndexes[]",
          "name": "_pairs",
          "type": "tuple[]"
        }
      ],
      "name": "getNextSwapInfo",
      "outputs": [
        {
          "components": [
            {
              "components": [
                {
                  "internalType": "address",
                  "name": "token",
                  "type": "address"
                },
                {
                  "internalType": "uint256",
                  "name": "reward",
                  "type": "uint256"
                },
                {
                  "internalType": "uint256",
                  "name": "toProvide",
                  "type": "uint256"
                },
                {
                  "internalType": "uint256",
                  "name": "platformFee",
                  "type": "uint256"
                }
              ],
              "internalType": "struct IDCAHubSwapHandler.TokenInSwap[]",
              "name": "tokens",
              "type": "tuple[]"
            },
            {
              "components": [
                {
                  "internalType": "address",
                  "name": "tokenA",
                  "type": "address"
                },
                {
                  "internalType": "address",
                  "name": "tokenB",
                  "type": "address"
                },
                {
                  "internalType": "uint256",
                  "name": "ratioAToB",
                  "type": "uint256"
                },
                {
                  "internalType": "uint256",
                  "name": "ratioBToA",
                  "type": "uint256"
                },
                {
                  "internalType": "bytes1",
                  "name": "intervalsInSwap",
                  "type": "bytes1"
                }
              ],
              "internalType": "struct IDCAHubSwapHandler.PairInSwap[]",
              "name": "pairs",
              "type": "tuple[]"
            }
          ],
          "internalType": "struct IDCAHubSwapHandler.SwapInfo",
          "name": "_swapInformation",
          "type": "tuple"
        }
      ],
      "stateMutability": "view",
      "type": "function"
    },
    {
      "inputs": [
        {
          "internalType": "bytes32",
          "name": "role",
          "type": "bytes32"
        }
      ],
      "name": "getRoleAdmin",
      "outputs": [
        {
          "internalType": "bytes32",
          "name": "",
          "type": "bytes32"
        }
      ],
      "stateMutability": "view",
      "type": "function"
    },
    {
      "inputs": [
        {
          "internalType": "bytes32",
          "name": "role",
          "type": "bytes32"
        },
        {
          "internalType": "address",
          "name": "account",
          "type": "address"
        }
      ],
      "name": "grantRole",
      "outputs": [],
      "stateMutability": "nonpayable",
      "type": "function"
    },
    {
      "inputs": [
        {
          "internalType": "bytes32",
          "name": "role",
          "type": "bytes32"
        },
        {
          "internalType": "address",
          "name": "account",
          "type": "address"
        }
      ],
      "name": "hasRole",
      "outputs": [
        {
          "internalType": "bool",
          "name": "",
          "type": "bool"
        }
      ],
      "stateMutability": "view",
      "type": "function"
    },
    {
      "inputs": [
        {
          "internalType": "uint256",
          "name": "_positionId",
          "type": "uint256"
        },
        {
          "internalType": "uint256",
          "name": "_amount",
          "type": "uint256"
        },
        {
          "internalType": "uint32",
          "name": "_newAmountOfSwaps",
          "type": "uint32"
        }
      ],
      "name": "increasePosition",
      "outputs": [],
      "stateMutability": "nonpayable",
      "type": "function"
    },
    {
      "inputs": [
        {
          "components": [
            {
              "internalType": "address",
              "name": "token",
              "type": "address"
            },
            {
              "internalType": "uint256",
              "name": "amount",
              "type": "uint256"
            }
          ],
          "internalType": "struct IDCAHub.AmountOfToken[]",
          "name": "_loan",
          "type": "tuple[]"
        },
        {
          "internalType": "address",
          "name": "_to",
          "type": "address"
        },
        {
          "internalType": "bytes",
          "name": "_data",
          "type": "bytes"
        }
      ],
      "name": "loan",
      "outputs": [],
      "stateMutability": "nonpayable",
      "type": "function"
    },
    {
      "inputs": [],
      "name": "loanFee",
      "outputs": [
        {
          "internalType": "uint32",
          "name": "",
          "type": "uint32"
        }
      ],
      "stateMutability": "view",
      "type": "function"
    },
    {
      "inputs": [],
      "name": "oracle",
      "outputs": [
        {
          "internalType": "contract IPriceOracle",
          "name": "",
          "type": "address"
        }
      ],
      "stateMutability": "view",
      "type": "function"
    },
    {
      "inputs": [],
      "name": "pause",
      "outputs": [],
      "stateMutability": "nonpayable",
      "type": "function"
    },
    {
      "inputs": [],
      "name": "paused",
      "outputs": [
        {
          "internalType": "bool",
          "name": "",
          "type": "bool"
        }
      ],
      "stateMutability": "view",
      "type": "function"
    },
    {
      "inputs": [],
      "name": "permissionManager",
      "outputs": [
        {
          "internalType": "contract IDCAPermissionManager",
          "name": "",
          "type": "address"
        }
      ],
      "stateMutability": "view",
      "type": "function"
    },
    {
      "inputs": [
        {
          "internalType": "address",
          "name": "",
          "type": "address"
        }
      ],
      "name": "platformBalance",
      "outputs": [
        {
          "internalType": "uint256",
          "name": "",
          "type": "uint256"
        }
      ],
      "stateMutability": "view",
      "type": "function"
    },
    {
      "inputs": [],
      "name": "platformFeeRatio",
      "outputs": [
        {
          "internalType": "uint16",
          "name": "",
          "type": "uint16"
        }
      ],
      "stateMutability": "view",
      "type": "function"
    },
    {
      "inputs": [
        {
          "internalType": "uint256",
          "name": "_positionId",
          "type": "uint256"
        },
        {
          "internalType": "uint256",
          "name": "_amount",
          "type": "uint256"
        },
        {
          "internalType": "uint32",
          "name": "_newAmountOfSwaps",
          "type": "uint32"
        },
        {
          "internalType": "address",
          "name": "_recipient",
          "type": "address"
        }
      ],
      "name": "reducePosition",
      "outputs": [],
      "stateMutability": "nonpayable",
      "type": "function"
    },
    {
      "inputs": [
        {
          "internalType": "uint32[]",
          "name": "_swapIntervals",
          "type": "uint32[]"
        }
      ],
      "name": "removeSwapIntervalsFromAllowedList",
      "outputs": [],
      "stateMutability": "nonpayable",
      "type": "function"
    },
    {
      "inputs": [
        {
          "internalType": "bytes32",
          "name": "role",
          "type": "bytes32"
        },
        {
          "internalType": "address",
          "name": "account",
          "type": "address"
        }
      ],
      "name": "renounceRole",
      "outputs": [],
      "stateMutability": "nonpayable",
      "type": "function"
    },
    {
      "inputs": [
        {
          "internalType": "bytes32",
          "name": "role",
          "type": "bytes32"
        },
        {
          "internalType": "address",
          "name": "account",
          "type": "address"
        }
      ],
      "name": "revokeRole",
      "outputs": [],
      "stateMutability": "nonpayable",
      "type": "function"
    },
    {
      "inputs": [
        {
          "internalType": "uint32",
          "name": "_loanFee",
          "type": "uint32"
        }
      ],
      "name": "setLoanFee",
      "outputs": [],
      "stateMutability": "nonpayable",
      "type": "function"
    },
    {
      "inputs": [
        {
          "internalType": "contract IPriceOracle",
          "name": "_oracle",
          "type": "address"
        }
      ],
      "name": "setOracle",
      "outputs": [],
      "stateMutability": "nonpayable",
      "type": "function"
    },
    {
      "inputs": [
        {
          "internalType": "uint16",
          "name": "_platformFeeRatio",
          "type": "uint16"
        }
      ],
      "name": "setPlatformFeeRatio",
      "outputs": [],
      "stateMutability": "nonpayable",
      "type": "function"
    },
    {
      "inputs": [
        {
          "internalType": "uint32",
          "name": "_swapFee",
          "type": "uint32"
        }
      ],
      "name": "setSwapFee",
      "outputs": [],
      "stateMutability": "nonpayable",
      "type": "function"
    },
    {
      "inputs": [
        {
          "internalType": "bytes4",
          "name": "interfaceId",
          "type": "bytes4"
        }
      ],
      "name": "supportsInterface",
      "outputs": [
        {
          "internalType": "bool",
          "name": "",
          "type": "bool"
        }
      ],
      "stateMutability": "view",
      "type": "function"
    },
    {
      "inputs": [
        {
          "internalType": "address[]",
          "name": "_tokens",
          "type": "address[]"
        },
        {
          "components": [
            {
              "internalType": "uint8",
              "name": "indexTokenA",
              "type": "uint8"
            },
            {
              "internalType": "uint8",
              "name": "indexTokenB",
              "type": "uint8"
            }
          ],
          "internalType": "struct IDCAHubSwapHandler.PairIndexes[]",
          "name": "_pairsToSwap",
          "type": "tuple[]"
        },
        {
          "internalType": "address",
          "name": "_rewardRecipient",
          "type": "address"
        },
        {
          "internalType": "address",
          "name": "_callbackHandler",
          "type": "address"
        },
        {
          "internalType": "uint256[]",
          "name": "_borrow",
          "type": "uint256[]"
        },
        {
          "internalType": "bytes",
          "name": "_data",
          "type": "bytes"
        }
      ],
      "name": "swap",
      "outputs": [
        {
          "components": [
            {
              "components": [
                {
                  "internalType": "address",
                  "name": "token",
                  "type": "address"
                },
                {
                  "internalType": "uint256",
                  "name": "reward",
                  "type": "uint256"
                },
                {
                  "internalType": "uint256",
                  "name": "toProvide",
                  "type": "uint256"
                },
                {
                  "internalType": "uint256",
                  "name": "platformFee",
                  "type": "uint256"
                }
              ],
              "internalType": "struct IDCAHubSwapHandler.TokenInSwap[]",
              "name": "tokens",
              "type": "tuple[]"
            },
            {
              "components": [
                {
                  "internalType": "address",
                  "name": "tokenA",
                  "type": "address"
                },
                {
                  "internalType": "address",
                  "name": "tokenB",
                  "type": "address"
                },
                {
                  "internalType": "uint256",
                  "name": "ratioAToB",
                  "type": "uint256"
                },
                {
                  "internalType": "uint256",
                  "name": "ratioBToA",
                  "type": "uint256"
                },
                {
                  "internalType": "bytes1",
                  "name": "intervalsInSwap",
                  "type": "bytes1"
                }
              ],
              "internalType": "struct IDCAHubSwapHandler.PairInSwap[]",
              "name": "pairs",
              "type": "tuple[]"
            }
          ],
          "internalType": "struct IDCAHubSwapHandler.SwapInfo",
          "name": "_swapInformation",
          "type": "tuple"
        }
      ],
      "stateMutability": "nonpayable",
      "type": "function"
    },
    {
      "inputs": [
        {
          "internalType": "address",
          "name": "_tokenA",
          "type": "address"
        },
        {
          "internalType": "address",
          "name": "_tokenB",
          "type": "address"
        },
        {
          "internalType": "bytes1",
          "name": "_swapIntervalMask",
          "type": "bytes1"
        },
        {
          "internalType": "uint32",
          "name": "_swapNumber",
          "type": "uint32"
        }
      ],
      "name": "swapAmountDelta",
      "outputs": [
        {
          "components": [
            {
              "internalType": "uint128",
              "name": "swapDeltaAToB",
              "type": "uint128"
            },
            {
              "internalType": "uint128",
              "name": "swapDeltaBToA",
              "type": "uint128"
            }
          ],
          "internalType": "struct IDCAHubParameters.SwapDelta",
          "name": "",
          "type": "tuple"
        }
      ],
      "stateMutability": "view",
      "type": "function"
    },
    {
      "inputs": [
        {
          "internalType": "address",
          "name": "_tokenA",
          "type": "address"
        },
        {
          "internalType": "address",
          "name": "_tokenB",
          "type": "address"
        },
        {
          "internalType": "bytes1",
          "name": "_swapIntervalMask",
          "type": "bytes1"
        }
      ],
      "name": "swapData",
      "outputs": [
        {
          "components": [
            {
              "internalType": "uint32",
              "name": "performedSwaps",
              "type": "uint32"
            },
            {
              "internalType": "uint224",
              "name": "nextAmountToSwapAToB",
              "type": "uint224"
            },
            {
              "internalType": "uint32",
              "name": "lastSwappedAt",
              "type": "uint32"
            },
            {
              "internalType": "uint224",
              "name": "nextAmountToSwapBToA",
              "type": "uint224"
            }
          ],
          "internalType": "struct IDCAHubParameters.SwapData",
          "name": "",
          "type": "tuple"
        }
      ],
      "stateMutability": "view",
      "type": "function"
    },
    {
      "inputs": [],
      "name": "swapFee",
      "outputs": [
        {
          "internalType": "uint32",
          "name": "",
          "type": "uint32"
        }
      ],
      "stateMutability": "view",
      "type": "function"
    },
    {
      "inputs": [
        {
          "internalType": "uint256",
          "name": "_positionId",
          "type": "uint256"
        },
        {
          "internalType": "address",
          "name": "_recipientUnswapped",
          "type": "address"
        },
        {
          "internalType": "address",
          "name": "_recipientSwapped",
          "type": "address"
        }
      ],
      "name": "terminate",
      "outputs": [
        {
          "internalType": "uint256",
          "name": "_unswapped",
          "type": "uint256"
        },
        {
          "internalType": "uint256",
          "name": "_swapped",
          "type": "uint256"
        }
      ],
      "stateMutability": "nonpayable",
      "type": "function"
    },
    {
      "inputs": [],
      "name": "unpause",
      "outputs": [],
      "stateMutability": "nonpayable",
      "type": "function"
    },
    {
      "inputs": [
        {
          "internalType": "uint256",
          "name": "_positionId",
          "type": "uint256"
        }
      ],
      "name": "userPosition",
      "outputs": [
        {
          "components": [
            {
              "internalType": "contract IERC20Metadata",
              "name": "from",
              "type": "address"
            },
            {
              "internalType": "contract IERC20Metadata",
              "name": "to",
              "type": "address"
            },
            {
              "internalType": "uint32",
              "name": "swapInterval",
              "type": "uint32"
            },
            {
              "internalType": "uint32",
              "name": "swapsExecuted",
              "type": "uint32"
            },
            {
              "internalType": "uint256",
              "name": "swapped",
              "type": "uint256"
            },
            {
              "internalType": "uint32",
              "name": "swapsLeft",
              "type": "uint32"
            },
            {
              "internalType": "uint256",
              "name": "remaining",
              "type": "uint256"
            },
            {
              "internalType": "uint120",
              "name": "rate",
              "type": "uint120"
            }
          ],
          "internalType": "struct IDCAHubPositionHandler.UserPosition",
          "name": "_userPosition",
          "type": "tuple"
        }
      ],
      "stateMutability": "view",
      "type": "function"
    },
    {
      "inputs": [
        {
          "components": [
            {
              "internalType": "address",
              "name": "token",
              "type": "address"
            },
            {
              "internalType": "uint256",
              "name": "amount",
              "type": "uint256"
            }
          ],
          "internalType": "struct IDCAHub.AmountOfToken[]",
          "name": "_amounts",
          "type": "tuple[]"
        },
        {
          "internalType": "address",
          "name": "_recipient",
          "type": "address"
        }
      ],
      "name": "withdrawFromPlatformBalance",
      "outputs": [],
      "stateMutability": "nonpayable",
      "type": "function"
    },
    {
      "inputs": [
        {
          "internalType": "uint256",
          "name": "_positionId",
          "type": "uint256"
        },
        {
          "internalType": "address",
          "name": "_recipient",
          "type": "address"
        }
      ],
      "name": "withdrawSwapped",
      "outputs": [
        {
          "internalType": "uint256",
          "name": "",
          "type": "uint256"
        }
      ],
      "stateMutability": "nonpayable",
      "type": "function"
    },
    {
      "inputs": [
        {
          "components": [
            {
              "internalType": "address",
              "name": "token",
              "type": "address"
            },
            {
              "internalType": "uint256[]",
              "name": "positionIds",
              "type": "uint256[]"
            }
          ],
          "internalType": "struct IDCAHubPositionHandler.PositionSet[]",
          "name": "_positions",
          "type": "tuple[]"
        },
        {
          "internalType": "address",
          "name": "_recipient",
          "type": "address"
        }
      ],
      "name": "withdrawSwappedMany",
      "outputs": [
        {
          "internalType": "uint256[]",
          "name": "_swapped",
          "type": "uint256[]"
        }
      ],
      "stateMutability": "nonpayable",
      "type": "function"
    }
  ],
  "bytecode": "0x60806040527f313f8c5ec4103e5607b5d8b3519ab06a512037396eaf72a07527d8b838012ed46008557ffb63867dc303889c4e19b6276d834e066500dd4210f4434d34089a246beec82a6009557f73c06b41830ea810d4e9dd3dfb0309555fbff1642391fb7644bc4a0b0f7a77fd600a55600b8054600160a01b600160f81b0319167e09c4f000000064000017700000000000000000000000000000000000000000179055348015620000b157600080fd5b506040516200638d3803806200638d833981016040819052620000d49162000322565b60016000556007805460ff19169055808484846001600160a01b03831615806200010557506001600160a01b038216155b806200011857506001600160a01b038116155b15620001375760405163d92e233d60e01b815260040160405180910390fd5b600854620001469084620001e2565b600954620001559083620001e2565b6200016b600a54600954620001f260201b60201c565b6008546200017a9080620001f2565b600954620001899080620001f2565b600b80546001600160a01b0319166001600160a01b039290921691909117905550620001b79050816200023d565b600c80546001600160a01b0319166001600160a01b0392909216919091179055506200038a92505050565b620001ee828262000268565b5050565b600082815260066020526040808220600101805490849055905190918391839186917fbd79b86ffe0ab8e8776151514217cd7cacd52c909f66475c3af44e129f0b00ff9190a4505050565b6001600160a01b038116620002655760405163d92e233d60e01b815260040160405180910390fd5b50565b60008281526006602090815260408083206001600160a01b038516845290915290205460ff16620001ee5760008281526006602090815260408083206001600160a01b03851684529091529020805460ff19166001179055620002c83390565b6001600160a01b0316816001600160a01b0316837f2f8788117e7eff1d82e926ec794901d17c78024a50270940304540a733656f0d60405160405180910390a45050565b6001600160a01b03811681146200026557600080fd5b600080600080608085870312156200033957600080fd5b845162000346816200030c565b602086015190945062000359816200030c565b60408601519093506200036c816200030c565b60608601519092506200037f816200030c565b939692955090935050565b615ff3806200039a6000396000f3fe608060405234801561001057600080fd5b50600436106102695760003560e01c80636eefd13411610151578063a217fddf116100c3578063d547741f11610087578063d547741f14610667578063d6d788c31461067a578063da90b03a1461068d578063ded700a6146106a0578063f1accf39146106b3578063fc448158146106c657600080fd5b8063a217fddf1461060f578063bc063e1a14610617578063c67e32e914610621578063cc7a204914610641578063d2d95b2d1461065457600080fd5b80637d8e8603116101155780637d8e86031461053e5780637dc0d1d014610551578063808ba8e01461057c5780638456cb59146105dd57806391d14854146105e55780639bcb5572146105f857600080fd5b80636eefd134146104d457806371651aa9146104e757806372ada4c5146104fa5780637adbf973146105225780637d361dd31461053557600080fd5b8063480b3796116101ea578063560c6499116101ae578063560c64991461044357806357ae1cec14610456578063582cf84b1461046b5780635b6fd01d146104995780635c975abb146104b95780636b29e1bd146104c157600080fd5b8063480b379614610387578063480e5da1146103a75780634aa91aee146103d45780634eeeb3eb1461040e57806354cf2aeb1461041757600080fd5b80632a2a1a74116102315780632a2a1a74146103245780632f2ff15d1461034457806336568abe146103595780633f4ba83a1461036c5780633feb14931461037457600080fd5b806301ffc9a71461026e5780630b1aa9841461029657806317621890146102c45780631b8b8c34146102e5578063248a9ca314610301575b600080fd5b61028161027c366004614c3f565b6106cf565b60405190151581526020015b60405180910390f35b6102a96102a4366004614cba565b610706565b6040805182518152602092830151928101929092520161028d565b6102d76102d2366004614d12565b610790565b60405190815260200161028d565b6102ee61271081565b60405161ffff909116815260200161028d565b6102d761030f366004614d42565b60009081526006602052604090206001015490565b610337610332366004614e24565b61084e565b60405161028d9190614fff565b610357610352366004614d12565b610e2c565b005b610357610367366004614d12565b610e57565b610357610ed5565b610357610382366004615012565b610eed565b61039a610395366004615053565b610fad565b60405161028d91906150e4565b600b546103bb90600160e01b900460f81b81565b6040516001600160f81b0319909116815260200161028d565b6103e76103e2366004614cba565b611214565b6040805182516001600160801b03908116825260209384015116928101929092520161028d565b6102d760095481565b600b5461042e90600160a01b900463ffffffff1681565b60405163ffffffff909116815260200161028d565b6103576104513660046150f7565b6112af565b600b546102ee90600160e81b900461ffff1681565b6103bb61047936600461512e565b600160209081526000928352604080842090915290825290205460f81b81565b6104ac6104a7366004614d42565b61142f565b60405161028d919061515c565b6102816115ed565b6102d76104cf3660046151e0565b6115fc565b6103576104e2366004615285565b611998565b6103576104f53660046152a9565b611a24565b61050d61050836600461532d565b611ee7565b6040805192835260208301919091520161028d565b610357610530366004615364565b612158565b6102d760085481565b61035761054c366004615012565b6121bc565b600b54610564906001600160a01b031681565b6040516001600160a01b03909116815260200161028d565b61058f61058a366004615381565b612256565b60408051825163ffffffff90811682526020808501516001600160e01b039081169184019190915284840151909116928201929092526060928301519091169181019190915260800161028d565b610357612312565b6102816105f3366004614d12565b612327565b600b5461042e90600160c01b900463ffffffff1681565b6102d7600081565b61042e620186a081565b6102d761062f366004615364565b60026020526000908152604090205481565b600c54610564906001600160a01b031681565b6103376106623660046153c8565b612352565b610357610675366004614d12565b612ac3565b610357610688366004615433565b612ae9565b61035761069b366004615433565b612b53565b6103576106ae36600461544e565b612bbd565b6103576106c136600461547a565b612c21565b6102d7600a5481565b60006001600160e01b03198216637965db0b60e01b148061070057506301ffc9a760e01b6001600160e01b03198316145b92915050565b60408051808201909152600080825260208201526000806107278787612c69565b6001600160a01b0391821660009081526004602090815260408083209390941682529182528281206001600160f81b031989168252825282812063ffffffff8816825282528290208251808401909352805483526001015490820152925050505b949350505050565b6000600260005414156107be5760405162461bcd60e51b81526004016107b5906154c2565b60405180910390fd5b60026000556107cc82612c9a565b6000806107d885612cc1565b90925090506107f16001600160a01b0382168584612dd1565b604080518681526001600160a01b0383811660208301529181018490529085169033907fcade65431cead780eb2b14b84a6594e1b235278a02e31abf3fc04c7c3e8ab4ee9060600160405180910390a35060016000559392505050565b6040805180820190915260608082526020820152600260005414156108855760405162461bcd60e51b81526004016107b5906154c2565b60026000556108926115ed565b156108af5760405162461bcd60e51b81526004016107b5906154f9565b600b54600160a01b900463ffffffff166108cb8c8c8c8c612352565b9150426000805b8460200151518110156109b8576000856020015182815181106108f7576108f7615523565b60209081029190910101516080810151909150600160f81b5b6001600160f81b03198082169083161080159061093657506001600160f81b0319811615155b1561098b576001600160f81b0319828216161561097d5761097d83600001518460200151836109698b8860400151612e34565b6109778c8960600151612e34565b8b612e6a565b60011b607f60f91b16610910565b84806109a057506001600160f81b0319821615155b945050505080806109b09061554f565b9150506108d2565b50806109d7576040516346f8d7b160e11b815260040160405180910390fd5b50508151516000906001600160401b038111156109f6576109f661556a565b604051908082528060200260200182016040528015610a1f578160200160208202803683370190505b50905060005b835151811015610bb957600084600001518281518110610a4757610a47615523565b602002602001015190506000898984818110610a6557610a65615523565b905060200201359050600082604001511180610a815750600081115b15610b105781516040516370a0823160e01b81523060048201526001600160a01b03909116906370a0823190602401602060405180830381865afa158015610acd573d6000803e3d6000fd5b505050506040513d601f19601f82011682018060405250810190610af19190615580565b848481518110610b0357610b03615523565b6020026020010181815250505b8a6001600160a01b03168c6001600160a01b03161415610b60576000818360200151610b3c9190615599565b90508015610b5a578251610b5a906001600160a01b03168d83612dd1565b50610ba4565b602082015115610b885760208201518251610b88916001600160a01b03909116908e90612dd1565b8015610ba4578151610ba4906001600160a01b03168c83612dd1565b50508080610bb19061554f565b915050610a25565b508251604051632c0be4cf60e11b81526001600160a01b038a1691635817c99e91610bf09133918c908c908c908c90600401615610565b600060405180830381600087803b158015610c0a57600080fd5b505af1158015610c1e573d6000803e3d6000fd5b5050505060005b835151811015610dbb57600084600001518281518110610c4757610c47615523565b60200260200101519050600081606001519050600082604001511180610c85575060008a8a85818110610c7c57610c7c615523565b90506020020135115b15610d7157600082602001518360400151868681518110610ca857610ca8615523565b6020026020010151610cba9190615599565b610cc491906156bd565b83516040516370a0823160e01b81523060048201529192506000916001600160a01b03909116906370a0823190602401602060405180830381865afa158015610d11573d6000803e3d6000fd5b505050506040513d601f19601f82011682018060405250810190610d359190615580565b905081811015610d585760405163d562e29f60e01b815260040160405180910390fd5b610d6282826156bd565b610d6c9084615599565b925050505b8015610da65781516001600160a01b031660009081526002602052604081208054839290610da0908490615599565b90915550505b50508080610db39061554f565b915050610c25565b50876001600160a01b0316896001600160a01b0316336001600160a01b03167fa1ec3a0d95701d84ce597ac1f6789b13a582504554c8aa7ec2be74470639c8e5868b8b88604051610e0f94939291906156d4565b60405180910390a4505060016000559a9950505050505050505050565b600082815260066020526040902060010154610e488133613220565b610e528383613284565b505050565b6001600160a01b0381163314610ec75760405162461bcd60e51b815260206004820152602f60248201527f416363657373436f6e74726f6c3a2063616e206f6e6c792072656e6f756e636560448201526e103937b632b9903337b91039b2b63360891b60648201526084016107b5565b610ed1828261330a565b5050565b600854610ee28133613220565b610eea613371565b50565b600854610efa8133613220565b60005b82811015610f6e57610f34848483818110610f1a57610f1a615523565b9050602002016020810190610f2f9190615433565b613406565b600b805460ff60e01b198116600160e01b9182900460f890811b9490941790931c0291909117905580610f668161554f565b915050610efd565b507fd691741464555eddf67afe8f82b0cbe92f8859926856aec4a48a106ceb1b1bee8383604051610fa0929190615712565b60405180910390a1505050565b606060026000541415610fd25760405162461bcd60e51b81526004016107b5906154c2565b6002600055610fe082612c9a565b826001600160401b03811115610ff857610ff861556a565b604051908082528060200260200182016040528015611021578160200160208202803683370190505b50905060005b838110156111b857600085858381811061104357611043615523565b9050602002810190611055919061575b565b611063906020810190615364565b905060005b86868481811061107a5761107a615523565b905060200281019061108c919061575b565b61109a90602081019061577b565b905081101561116d576000806110f78989878181106110bb576110bb615523565b90506020028101906110cd919061575b565b6110db90602081019061577b565b858181106110eb576110eb615523565b90506020020135612cc1565b91509150836001600160a01b0316816001600160a01b03161461112d5760405163305663b560e11b815260040160405180910390fd5b8186868151811061114057611140615523565b602002602001018181516111549190615599565b90525082915061116590508161554f565b915050611068565b506111a58484848151811061118457611184615523565b6020026020010151836001600160a01b0316612dd19092919063ffffffff16565b50806111b08161554f565b915050611027565b50816001600160a01b0316336001600160a01b03167fdc1e0c1e1b707ce83f3d3a8c66a6abc1d23d95f81a61fc1f578355e0d968fd2d8686856040516112009392919061582b565b60405180910390a360016000559392505050565b60408051808201909152600080825260208201526000806112358787612c69565b6001600160a01b0391821660009081526003602090815260408083209490931682529283528181206001600160f81b031989168252835281812063ffffffff8816825283528190208151808301909252546001600160801b038082168352600160801b909104169181019190915292505050949350505050565b600260005414156112d25760405162461bcd60e51b81526004016107b5906154c2565b6002600055600a546112e48133613220565b60005b838110156113d65784848281811061130157611301615523565b905060400201602001356002600087878581811061132157611321615523565b6113379260206040909202019081019150615364565b6001600160a01b03166001600160a01b03168152602001908152602001600020600082825461136691906156bd565b909155506113c490508386868481811061138257611382615523565b9050604002016020013587878581811061139e5761139e615523565b6113b49260206040909202019081019150615364565b6001600160a01b03169190612dd1565b806113ce8161554f565b9150506112e7565b50816001600160a01b0316336001600160a01b03167fc372140441ddd3b3a7319bbc36cbc33b5600b15c211eda1d1fc9d35bb7ebb3a8868660405161141c92919061590f565b60405180910390a3505060016000555050565b6040805161010081018252600080825260208201819052918101829052606081018290526080810182905260a0810182905260c0810182905260e08101919091526000828152600d60209081526040808320815160e081018352815463ffffffff8082168352600160201b82041694820194909452600160401b840460f81b6001600160f81b031916928101839052600160481b84046001600160a01b0390811660608301819052600160e81b90950462ffffff1660808301526001909201546001600160601b03811660a0830152600160601b900490911660c0820181905290939261151e929091906134fa565b90506000611530828460200151613555565b60608401516001600160a01b03908116865260c0850151166020860152835190915061155d908290613576565b63ffffffff16606085015260208301516115779083613576565b63ffffffff1660a085015261158c838361359c565b60c085015261159a836135ce565b6001600160781b031660e085015260408301516001600160f81b031916156115e5576115c983604001516135ff565b63ffffffff1660408501526115df858484613713565b60808501525b505050919050565b60006115f7613971565b905090565b6000600260005414156116215760405162461bcd60e51b81526004016107b5906154c2565b600260005561162e6115ed565b1561164b5760405162461bcd60e51b81526004016107b5906154f9565b6001600160a01b038916158061166857506001600160a01b038816155b8061167a57506001600160a01b038416155b156116985760405163d92e233d60e01b815260040160405180910390fd5b876001600160a01b0316896001600160a01b031614156116cb5760405163c1ab6dc160e01b815260040160405180910390fd5b866116e957604051631f2a200560e01b815260040160405180910390fd5b63ffffffff861661170d57604051633c92196b60e11b815260040160405180910390fd5b6000611719888861397f565b90506000600f6000815461172c9061554f565b91829055509050600061174a8c8c8b6117448c613406565b876139bc565b6040810151600b549192506001600160f81b0319600160e01b90920460f81b161661178857604051638b52594f60e01b815260040160405180910390fd5b600c546040516306d66a1360e31b81526001600160a01b03909116906336b35098906117be9085908b908b908b90600401615a0a565b600060405180830381600087803b1580156117d857600080fd5b505af11580156117ec573d6000803e3d6000fd5b505050506117ff8c8c8360400151613a95565b6118148c8c8360400151846020015187613b95565b6000828152600d60209081526040918290208351815492850151938501516060860151608087015163ffffffff93841667ffffffffffffffff1990961695909517600160201b968416969096029590951768010000000000000000600160e81b031916600160401b60f89290921c919091027fffffff0000000000000000000000000000000000000000ffffffffffffffffff1617600160481b6001600160a01b0395861602176001600160e81b0316600160e81b62ffffff9094169390930292909217815560a084015160c08501516001600160601b03909116600160601b9185169190910217600190910155611915918e1690339030908e90613bab16565b866001600160a01b0316336001600160a01b03167f1915b09a20b5793f1bd89b84dc928fe4ee36b0b9270ec217a3b2c278999f0967848f8f8d89886000015160016119609190615a3f565b89602001518f8f60405161197c99989796959493929190615a67565b60405180910390a35060016000559a9950505050505050505050565b6009546119a58133613220565b61271061ffff831611156119cc576040516314bc5e9d60e21b815260040160405180910390fd5b600b805461ffff60e81b1916600160e81b61ffff8516908102919091179091556040519081527f6c234431526967795ada65665e195191d4b2fc63c9f564d1ea626478325ae9d9906020015b60405180910390a15050565b60026000541415611a475760405162461bcd60e51b81526004016107b5906154c2565b6002600055611a546115ed565b15611a715760405162461bcd60e51b81526004016107b5906154f9565b600b54600160c01b900463ffffffff166000856001600160401b03811115611a9b57611a9b61556a565b604051908082528060200260200182016040528015611ac4578160200160208202803683370190505b50905060005b8151811015611c2c57600081118015611b4d57508787611aeb6001846156bd565b818110611afa57611afa615523565b611b109260206040909202019081019150615364565b6001600160a01b0316888883818110611b2b57611b2b615523565b611b419260206040909202019081019150615364565b6001600160a01b031611155b15611b6b576040516333910aef60e11b815260040160405180910390fd5b878782818110611b7d57611b7d615523565b611b939260206040909202019081019150615364565b6040516370a0823160e01b81523060048201526001600160a01b0391909116906370a0823190602401602060405180830381865afa158015611bd9573d6000803e3d6000fd5b505050506040513d601f19601f82011682018060405250810190611bfd9190615580565b828281518110611c0f57611c0f615523565b602090810291909101015280611c248161554f565b915050611aca565b5060005b86811015611c7c57611c6a86898984818110611c4e57611c4e615523565b905060400201602001358a8a8581811061139e5761139e615523565b80611c748161554f565b915050611c30565b5060405163c5dd4f9960e01b81526001600160a01b0386169063c5dd4f9990611cb39033908b908b9088908b908b90600401615ad6565b600060405180830381600087803b158015611ccd57600080fd5b505af1158015611ce1573d6000803e3d6000fd5b5050505060005b86811015611e89576000888883818110611d0457611d04615523565b611d1a9260206040909202019081019150615364565b6040516370a0823160e01b81523060048201526001600160a01b0391909116906370a0823190602401602060405180830381865afa158015611d60573d6000803e3d6000fd5b505050506040513d601f19601f82011682018060405250810190611d849190615580565b9050611dab848a8a85818110611d9c57611d9c615523565b90506040020160200135613be9565b838381518110611dbd57611dbd615523565b6020026020010151611dcf9190615599565b811015611def5760405163d562e29f60e01b815260040160405180910390fd5b828281518110611e0157611e01615523565b602002602001015181611e1491906156bd565b600260008b8b86818110611e2a57611e2a615523565b611e409260206040909202019081019150615364565b6001600160a01b03166001600160a01b031681526020019081526020016000206000828254611e6f9190615599565b90915550829150611e8190508161554f565b915050611ce8565b50846001600160a01b0316336001600160a01b03167ffe7a45edbfa15e95f7bb4e9f70a63c167ef12768b9ab360f861497e3bbbbaa08898986604051611ed193929190615b1a565b60405180910390a3505060016000555050505050565b60008060026000541415611f0d5760405162461bcd60e51b81526004016107b5906154c2565b60026000556001600160a01b0384161580611f2f57506001600160a01b038316155b15611f4d5760405163d92e233d60e01b815260040160405180910390fd5b6000858152600d6020908152604091829020825160e081018452815463ffffffff8082168352600160201b82041693820193909352600160401b830460f81b6001600160f81b03191693810193909352600160481b82046001600160a01b039081166060850152600160e81b90920462ffffff166080840152600101546001600160601b03811660a0840152600160601b90041660c0820152611ff286826003613c0a565b600061200b82606001518360c0015184604001516134fa565b9050612018878383613713565b9250612024828261359c565b93506120308282613cc8565b6000878152600d60209081526040808320838155600101839055600e90915280822091909155600c549051630852cd8d60e31b8152600481018990526001600160a01b03909116906342966c6890602401600060405180830381600087803b15801561209b57600080fd5b505af11580156120af573d6000803e3d6000fd5b5050505060008311156120d55760c08201516120d5906001600160a01b03168685612dd1565b83156120f45760608201516120f4906001600160a01b03168786612dd1565b60408051888152602081018690529081018490526001600160a01b03808716919088169033907f2577f709b454c4d5c1118a01186dd48d4a6bacf43fe4c26aad2f66a51bf5290d9060600160405180910390a4505060016000559094909350915050565b6009546121658133613220565b61216e82612c9a565b600b80546001600160a01b0319166001600160a01b0384169081179091556040519081527f3f32684a32a11dabdbb8c0177de80aa3ae36a004d75210335b49e544e48cd0aa90602001611a18565b6008546121c98133613220565b60005b82811015612224576121e9848483818110610f1a57610f1a615523565b600b805460ff60e01b1981169219600160e01b9182900460f890811b91909116901c029190911790558061221c8161554f565b9150506121cc565b507fd0359552feffede26fee29bd110dd8e1a3237acd35c7e17a9d3b7330b02f88258383604051610fa0929190615712565b604080516080810182526000808252602082018190529181018290526060810182905290806122858686612c69565b6001600160a01b0391821660009081526005602090815260408083209390941682529182528281206001600160f81b03198816825282528290208251608081018452815463ffffffff80821683526001600160e01b03600160201b9283900481169584019590955260019093015492831694820194909452929004166060820152925050505b9392505050565b60085461231f8133613220565b610eea613d07565b60009182526006602090815260408084206001600160a01b0393909316845291905290205460ff1690565b6040805180820190915260608082526020820152600b5463ffffffff600160a01b820416906001600160a01b03166000866001600160401b0381111561239a5761239a61556a565b6040519080825280602002602001820160405280156123c3578160200160208202803683370190505b5090506000876001600160401b038111156123e0576123e061556a565b604051908082528060200260200182016040528015612409578160200160208202803683370190505b509050856001600160401b038111156124245761242461556a565b60405190808252806020026020018201604052801561247d57816020015b6040805160a0810182526000808252602080830182905292820181905260608201819052608082015282526000199092019101816124425790505b50602086015260005b8681101561281b5760008888838181106124a2576124a2615523565b6124b89260206040909202019081019150615b53565b905060008989848181106124ce576124ce615523565b90506040020160200160208101906124e69190615b53565b90508060ff168260ff161015806125c257506000831180156125c2575089896125106001866156bd565b81811061251f5761251f615523565b6125359260206040909202019081019150615b53565b60ff168260ff1610806125c2575089896125506001866156bd565b81811061255f5761255f615523565b6125759260206040909202019081019150615b53565b60ff168260ff161480156125c2575089896125916001866156bd565b8181106125a0576125a0615523565b90506040020160200160208101906125b89190615b53565b60ff168160ff1611155b156125e057604051635dd49b5d60e01b815260040160405180910390fd5b6040805160a0810182526000808252602082018190529181018290526060810182905260808101919091528c8c8460ff1681811061262057612620615523565b90506020020160208101906126359190615364565b6001600160a01b031681528c8c60ff841681811061265557612655615523565b905060200201602081019061266a9190615364565b6001600160a01b03166020820152805160009061268690613d61565b905060006126978360200151613d61565b90506000806126ae85600001518660200151613dd0565b6001600160f81b03191660808801528b51919350915082908b9060ff8a169081106126db576126db615523565b602002602001018181516126ef9190615599565b905250895181908b9060ff891690811061270b5761270b615523565b6020026020010181815161271f9190615599565b9052508451602086015161274291906001600160781b038088169087168f613f78565b606087018190526040870191909152612768906001600160781b0385169083908f614021565b898860ff168151811061277d5761277d615523565b602002602001018181516127919190615599565b90525060408501516127b0906001600160781b0386169084908f614021565b898760ff16815181106127c5576127c5615523565b602002602001018181516127d99190615599565b90525060208d015180518691908a9081106127f6576127f6615523565b60200260200101819052505050505050505080806128139061554f565b915050612486565b50600b54600160e81b900461ffff16886001600160401b038111156128425761284261556a565b6040519080825280602002602001820160405280156128a757816020015b612894604051806080016040528060006001600160a01b031681526020016000815260200160008152602001600081525090565b8152602001906001900390816128605790505b50865260005b865151811015612ab55760008111801561292f57508a8a6128cf6001846156bd565b8181106128de576128de615523565b90506020020160208101906128f39190615364565b6001600160a01b03168b8b8381811061290e5761290e615523565b90506020020160208101906129239190615364565b6001600160a01b031611155b1561294d576040516333910aef60e11b815260040160405180910390fd5b612981604051806080016040528060006001600160a01b031681526020016000815260200160008152602001600081525090565b8b8b8381811061299357612993615523565b90506020020160208101906129a89190615364565b6001600160a01b0316815283516000908590849081106129ca576129ca615523565b6020026020010151905060008684815181106129e8576129e8615523565b602002602001015190506000821180612a015750600081115b15612a7d576000612a128a8461406c565b90506000612710612a2761ffff891684615b70565b612a319190615ba5565b90506000612a3f8585615bb9565b905081811315612a5d57612a538282615bb9565b6020870152612a75565b81811215612a7557612a6f8183615bb9565b60408701525b506060850152505b828a600001518581518110612a9457612a94615523565b60200260200101819052505050508080612aad9061554f565b9150506128ad565b505050505050949350505050565b600082815260066020526040902060010154612adf8133613220565b610e52838361330a565b600954612af68133613220565b612aff826140a3565b600b805463ffffffff60a01b1916600160a01b63ffffffff8516908102919091179091556040519081527f5658872a8436367e842f76c14ffbbf8e67a2e70f47b28b3c4154134f72e902d690602001611a18565b600954612b608133613220565b612b69826140a3565b600b805463ffffffff60c01b1916600160c01b63ffffffff8516908102919091179091556040519081527f6d0851a3fe66369a96f833703a09a7cb561e2eea7bc56bb8f247ac599814150f90602001611a18565b60026000541415612be05760405162461bcd60e51b81526004016107b5906154c2565b6002600055612bed6115ed565b15612c0a5760405162461bcd60e51b81526004016107b5906154f9565b612c1783838360006140fc565b5050600160005550565b60026000541415612c445760405162461bcd60e51b81526004016107b5906154c2565b6002600055612c5281612c9a565b612c5e848484846140fc565b505060016000555050565b600080826001600160a01b0316846001600160a01b031610612c8c578284612c8f565b83835b909590945092505050565b6001600160a01b038116610eea5760405163d92e233d60e01b815260040160405180910390fd5b6000818152600d60209081526040808320815160e081018352815463ffffffff8082168352600160201b82041694820194909452600160401b840460f81b6001600160f81b03191692810192909252600160481b83046001600160a01b039081166060840152600160e81b90930462ffffff166080830152600101546001600160601b03811660a0830152600160601b900490911660c08201528190612d6984826002613c0a565b6000612d8282606001518360c0015184604001516134fa565b9050612d8f858383613713565b60c0909201516000958652600d60209081526040808820805463ffffffff90951663ffffffff1990951694909417909355600e90529085209490945593915050565b6040516001600160a01b038316602482015260448101829052610e5290849063a9059cbb60e01b906064015b60408051601f198184030181529190526020810180516001600160e01b03166001600160e01b0319909316929092179091526143ec565b6000612710612e44606485615bf8565b612e5090612710615c1b565b612e609063ffffffff1684615b70565b61230b9190615ba5565b6001600160a01b03808716600090815260056020908152604080832093891683529281528282206001600160f81b0319881683528152908290208251608081018452815463ffffffff80821683526001600160e01b03600160201b92839004811695840186905260019094015490811695830195909552909304166060830152151580612f045750600081606001516001600160e01b0316115b156131dc576001600160a01b038088166000908152600460209081526040808320938a1683529281528282206001600160f81b0319891683528152828220845163ffffffff168352815290829020825180840184528154815260019091015491810191909152815180830190925280519091908190612f84908890615599565b8152602001858360200151612f999190615599565b90526001600160a01b03808a166000908152600460209081526040808320938c1683529281528282206001600160f81b03198b16835290529081208451909190612fe4906001615a3f565b63ffffffff1681526020808201929092526040908101600090812084518155938301516001909401939093556001600160a01b03808c16845260038352818420908b16845282528083206001600160f81b03198a16845290915281208351829061304f906002615a3f565b63ffffffff16815260208082019290925260409081016000208151808301835290546001600160801b038082168352600160801b909104169281019290925280516080810190915284519192509081906130aa906001615a3f565b63ffffffff16815260200182600001516001600160801b031685602001516130d29190615c40565b6001600160e01b031681526020018563ffffffff16815260200182602001516001600160801b031685606001516131099190615c40565b6001600160e01b039081169091526001600160a01b03808c166000818152600560209081526040808320948f168084529482528083206001600160f81b03198f168085529083528184208851898501518916600160201b90810263ffffffff9283161783558a8501516060909b015190991690980298909716979097176001909601959095559181526003825283812092815291815282822093825292909252812084519091906131bb906002615a3f565b63ffffffff1681526020810191909152604001600090812055506132179050565b6001600160a01b038088166000908152600160209081526040808320938a16835292905220805460f881811b881916901c60ff199091161790555b50505050505050565b61322a8282612327565b610ed157613242816001600160a01b031660146144be565b61324d8360206144be565b60405160200161325e929190615c8c565b60408051601f198184030181529082905262461bcd60e51b82526107b591600401615d01565b61328e8282612327565b610ed15760008281526006602090815260408083206001600160a01b03851684529091529020805460ff191660011790556132c63390565b6001600160a01b0316816001600160a01b0316837f2f8788117e7eff1d82e926ec794901d17c78024a50270940304540a733656f0d60405160405180910390a45050565b6133148282612327565b15610ed15760008281526006602090815260408083206001600160a01b0385168085529252808320805460ff1916905551339285917ff6391f5c32d9c69d2a47ea670b442974b53935d1edc7fd64eb21e047a839171b9190a45050565b6133796115ed565b6133bc5760405162461bcd60e51b815260206004820152601460248201527314185d5cd8589b194e881b9bdd081c185d5cd95960621b60448201526064016107b5565b6007805460ff191690557f5db9ee0a495bf2e6ff9c91a7834c1ba4fdd244a5e8aa4e537bd38aeae4b073aa335b6040516001600160a01b03909116815260200160405180910390a1565b60008163ffffffff16603c14156134225750600160f81b919050565b8163ffffffff1661012c141561343d5750600160f91b919050565b8163ffffffff1661038414156134585750600160fa1b919050565b8163ffffffff1661070814156134735750600160fb1b919050565b8163ffffffff16610e10141561348e5750600160fc1b919050565b8163ffffffff1661384014156134a95750600160fd1b919050565b8163ffffffff166201518014156134c55750600160fe1b919050565b8163ffffffff1662093a8014156134e15750600160ff1b919050565b6040516305fabb6160e41b815260040160405180910390fd5b60008060006135098686612c69565b6001600160a01b0391821660009081526005602090815260408083209490931682529283528181206001600160f81b03198816825290925290205463ffffffff16925050509392505050565b60008163ffffffff168363ffffffff1611613570578261230b565b50919050565b60008163ffffffff168363ffffffff161161359257600061230b565b61230b8284615c1b565b60006135a7836135ce565b6001600160781b03166135be846020015184613576565b63ffffffff1661230b9190615b70565b6000816080015162ffffff1660188360a001516001600160601b03166001600160781b0316901b6107009190615d34565b6000600160f81b6001600160f81b03198316141561361f5750603c919050565b600160f91b6001600160f81b03198316141561363e575061012c919050565b600160fa1b6001600160f81b03198316141561365d5750610384919050565b600160fb1b6001600160f81b03198316141561367c5750610708919050565b600160fc1b6001600160f81b03198316141561369b5750610e10919050565b600160fd1b6001600160f81b0319831614156136ba5750613840919050565b600160fe1b6001600160f81b0319831614156136da575062015180919050565b600160ff1b6001600160f81b0319831614156136fa575062093a80919050565b60405163bf3cad0b60e01b815260040160405180910390fd5b600080613724838560200151613555565b90508063ffffffff16846000015163ffffffff16111561374857600091505061230b565b8063ffffffff16846000015163ffffffff1614156137765750506000838152600e602052604090205461230b565b60008460c001516001600160a01b031685606001516001600160a01b03161061383b5760c0850180516001600160a01b03908116600090815260046020818152604080842060608c01805187168652908352818520828d0180516001600160f81b031990811688529185528387208e5163ffffffff90811689529086528488206001908101549a518a16895296865284882093519098168752918452828620915116855282528084209488168452939052919020015461383691906156bd565b6138cf565b6060850180516001600160a01b03908116600090815260046020818152604080842060c08c01805187168652908352818520828d0180516001600160f81b031990811688529185528387208e5163ffffffff90811689529086528488205499518916885295855283872092519097168652908352818520955116845293815283832091871683525220546138cf91906156bd565b905060006138e08660600151613d61565b6001600160781b0316905060006138f6876135ce565b905060008061390e85846001600160781b0316614659565b9150915060008261393c576001600160781b03841661392d8688615ba5565b6139379190615b70565b613946565b6139468583615ba5565b60008c8152600e60205260409020549091506139629082615599565b9b9a5050505050505050505050565b60006115f760075460ff1690565b60008061399263ffffffff841685615ba5565b90506001600160781b0381111561230b57604051636b2f218360e01b815260040160405180910390fd5b6040805160e081018252600080825260208201819052918101829052606081018290526080810182905260a0810182905260c0810182905290613a008787866134fa565b6040805160e0810190915263ffffffff8216815290915083906001600160601b03601883901c169060208101613a368986615a3f565b63ffffffff168152602001876001600160f81b03191681526020018a6001600160a01b031681526020018362ffffff168152602001826001600160601b03168152602001896001600160a01b0316815250935050505095945050505050565b600080613aa28585612c69565b6001600160a01b03808316600090815260016020908152604080832093851683529290522054919350915060f81b6001600160f81b031984821616613b8d576001600160f81b03198116613b5857600b54604051633faaed9d60e11b81526001600160a01b038581166004830152848116602483015290911690637f55db3a90604401600060405180830381600087803b158015613b3f57600080fd5b505af1158015613b53573d6000803e3d6000fd5b505050505b6001600160a01b038381166000908152600160209081526040808320938616835292905220805460ff191685831760f81c1790555b505050505050565b613ba4858585858560016146a1565b5050505050565b6040516001600160a01b0380851660248301528316604482015260648101829052613be39085906323b872dd60e01b90608401612dfd565b50505050565b60006064612710613c0063ffffffff861685615b70565b612e609190615ba5565b60408201516001600160f81b031916613c365760405163673f032f60e11b815260040160405180910390fd5b600c5460405163823abfd960e01b81526001600160a01b039091169063823abfd990613c6a90869033908690600401615d56565b602060405180830381865afa158015613c87573d6000803e3d6000fd5b505050506040513d601f19601f82011682018060405250810190613cab9190615d79565b610e5257604051635c427cd960e01b815260040160405180910390fd5b8063ffffffff16826020015163ffffffff161115610ed157610ed182606001518360c0015184604001518560200151613d00876135ce565b60006146a1565b613d0f6115ed565b15613d2c5760405162461bcd60e51b81526004016107b5906154f9565b6007805460ff191660011790557f62e78cea01bee320cd4e420270b5ea74000d11b0c9f74754ebdbfc544b05a2586133e93390565b6000816001600160a01b031663313ce5676040518163ffffffff1660e01b8152600401602060405180830381865afa158015613da1573d6000803e3d6000fd5b505050506040513d601f19601f82011682018060405250810190613dc59190615d9b565b61070090600a615e9c565b6001600160a01b0382811660009081526001602090815260408083209385168352929052908120548190819060f81b42600160f81b5b6001600160f81b031980821690841610801590613e2c57506001600160f81b0319811615155b15613f58576001600160f81b03198382161615613f4a576001600160a01b038089166000908152600560209081526040808320938b1683529281528282206001600160f81b03198516835281528282208351608081018552815463ffffffff80821683526001600160e01b03600160201b9283900481169584019590955260019093015492831695820195909552939004166060830152613ecc836135ff565b90508363ffffffff1681828460400151613ee69190615bf8565b613ef1906001615a3f565b613efb9190615eab565b63ffffffff161115613f0e575050613f58565b602082015195831795613f2a906001600160e01b031689615599565b975081606001516001600160e01b031687613f459190615599565b965050505b60011b607f60f91b16613e06565b85158015613f64575084155b15613f6e57600093505b5050509250925092565b60405163a513355f60e01b81526001600160a01b0385811660048301526001600160801b03841660248301528681166044830152600091829184169063a513355f90606401602060405180830381865afa158015613fda573d6000803e3d6000fd5b505050506040513d601f19601f82011682018060405250810190613ffe9190615580565b90508061400b8686615b70565b6140159190615ba5565b91509550959350505050565b60008061402e8385612e34565b6140389086615b70565b90506140448682615ba5565b91506140508682615ed7565b15614063578161405f8161554f565b9250505b50949350505050565b60008261407c6127106064615eeb565b62ffffff1661408b9190615c1b565b63ffffffff168363ffffffff1683612e609190615b70565b620186a063ffffffff821611156140cd576040516314041af760e31b815260040160405180910390fd5b6140d8606482615f0d565b63ffffffff1615610eea576040516358d620b360e01b815260040160405180910390fd5b6000848152600d6020908152604091829020825160e081018452815463ffffffff8082168352600160201b82041693820193909352600160401b830460f81b6001600160f81b03191693810193909352600160481b82046001600160a01b039081166060850152600160e81b90920462ffffff166080840152600101546001600160601b03811660a0840152600160601b9004811660c08301528216156141b18683836141aa576001613c0a565b6000613c0a565b60006141ca83606001518460c0015185604001516134fa565b905060006141d8848361359c565b90506000836141f0576141eb88836156bd565b6141fa565b6141fa8883615599565b9050801580159061420f575063ffffffff8716155b1561422d57604051633c92196b60e11b815260040160405180910390fd5b80158015614241575060008763ffffffff16115b1561424b57600096505b600063ffffffff88161561426857614263828961397f565b61426b565b60005b60008b8152600d602052604081206001810180546bffffffffffffffffffffffff19166001600160601b03601886901c1617905580546001600160e81b0316600160e81b62ffffff8516021790559091506142c68986615a3f565b60008c8152600d60205260409020805463ffffffff808416600160201b0267ffffffffffffffff199092169089161717905590506143058b8887613713565b60008c8152600e602052604090205561431e8786613cc8565b61433787606001518860c0015189604001518486613b95565b891561437b57851561436257606087015161435d906001600160a01b031633308d613bab565b61437b565b606087015161437b906001600160a01b0316898c612dd1565b337f1e52a79a98c3fbf6230e862913323047a9c0ec511d2c289b1eeeeb9cc97c5bea8c846143aa896001615a3f565b604080519384526001600160781b0392909216602084015263ffffffff9081168383015285166060830152519081900360800190a25050505050505050505050565b6000614441826040518060400160405280602081526020017f5361666545524332303a206c6f772d6c6576656c2063616c6c206661696c6564815250856001600160a01b0316614b449092919063ffffffff16565b805190915015610e52578080602001905181019061445f9190615d79565b610e525760405162461bcd60e51b815260206004820152602a60248201527f5361666545524332303a204552433230206f7065726174696f6e20646964206e6044820152691bdd081cdd58d8d9595960b21b60648201526084016107b5565b606060006144cd836002615b70565b6144d8906002615599565b6001600160401b038111156144ef576144ef61556a565b6040519080825280601f01601f191660200182016040528015614519576020820181803683370190505b509050600360fc1b8160008151811061453457614534615523565b60200101906001600160f81b031916908160001a905350600f60fb1b8160018151811061456357614563615523565b60200101906001600160f81b031916908160001a9053506000614587846002615b70565b614592906001615599565b90505b600181111561460a576f181899199a1a9b1b9c1cb0b131b232b360811b85600f16601081106145c6576145c6615523565b1a60f81b8282815181106145dc576145dc615523565b60200101906001600160f81b031916908160001a90535060049490941c9361460381615f30565b9050614595565b50831561230b5760405162461bcd60e51b815260206004820181905260248201527f537472696e67733a20686578206c656e67746820696e73756666696369656e7460448201526064016107b5565b6000808361466d575060019050600061469a565b8383028385828161468057614680615b8f565b041461469357600080925092505061469a565b6001925090505b9250929050565b846001600160a01b0316866001600160a01b031610156148f65780156147f0576001600160a01b03868116600090815260056020908152604080832093891683529281528282206001600160f81b03198816835290522080546001600160781b0384169190600490614724908490600160201b90046001600160e01b0316615f47565b82546001600160e01b039182166101009390930a9283029190920219909116179055506001600160a01b03808716600090815260036020908152604080832093891683529281528282206001600160f81b03198816835290529081206001600160781b03841691614796866001615a3f565b63ffffffff1681526020810191909152604001600090812080549091906147c79084906001600160801b0316615f69565b92506101000a8154816001600160801b0302191690836001600160801b03160217905550613b8d565b6001600160a01b03868116600090815260056020908152604080832093891683529281528282206001600160f81b03198816835290522080546001600160781b0384169190600490614853908490600160201b90046001600160e01b0316615c40565b82546001600160e01b039182166101009390930a9283029190920219909116179055506001600160a01b03808716600090815260036020908152604080832093891683529281528282206001600160f81b03198816835290529081206001600160781b038416916148c5866001615a3f565b63ffffffff1681526020810191909152604001600090812080549091906147c79084906001600160801b0316615f8b565b8015614a0a576001600160a01b038581166000908152600560209081526040808320938a1683529281528282206001600160f81b03198816835290522060010180546001600160781b0384169190600490614962908490600160201b90046001600160e01b0316615f47565b82546001600160e01b039182166101009390930a9283029190920219909116179055506001600160a01b038086166000908152600360209081526040808320938a1683529281528282206001600160f81b03198816835290529081206001600160781b038416916149d4866001615a3f565b63ffffffff168152602081019190915260400160002080546010906147c7908490600160801b90046001600160801b0316615f69565b6001600160a01b038581166000908152600560209081526040808320938a1683529281528282206001600160f81b03198816835290522060010180546001600160781b0384169190600490614a70908490600160201b90046001600160e01b0316615c40565b82546001600160e01b039182166101009390930a9283029190920219909116179055506001600160a01b038086166000908152600360209081526040808320938a1683529281528282206001600160f81b03198816835290529081206001600160781b03841691614ae2866001615a3f565b63ffffffff16815260208101919091526040016000208054601090614b18908490600160801b90046001600160801b0316615f8b565b92506101000a8154816001600160801b0302191690836001600160801b03160217905550505050505050565b6060610788848460008585843b614b9d5760405162461bcd60e51b815260206004820152601d60248201527f416464726573733a2063616c6c20746f206e6f6e2d636f6e747261637400000060448201526064016107b5565b600080866001600160a01b03168587604051614bb99190615fab565b60006040518083038185875af1925050503d8060008114614bf6576040519150601f19603f3d011682016040523d82523d6000602084013e614bfb565b606091505b509150915061405f82828660608315614c1557508161230b565b825115614c255782518084602001fd5b8160405162461bcd60e51b81526004016107b59190615d01565b600060208284031215614c5157600080fd5b81356001600160e01b03198116811461230b57600080fd5b6001600160a01b0381168114610eea57600080fd5b8035614c8981614c69565b919050565b80356001600160f81b031981168114614c8957600080fd5b803563ffffffff81168114614c8957600080fd5b60008060008060808587031215614cd057600080fd5b8435614cdb81614c69565b93506020850135614ceb81614c69565b9250614cf960408601614c8e565b9150614d0760608601614ca6565b905092959194509250565b60008060408385031215614d2557600080fd5b823591506020830135614d3781614c69565b809150509250929050565b600060208284031215614d5457600080fd5b5035919050565b60008083601f840112614d6d57600080fd5b5081356001600160401b03811115614d8457600080fd5b6020830191508360208260051b850101111561469a57600080fd5b60008083601f840112614db157600080fd5b5081356001600160401b03811115614dc857600080fd5b6020830191508360208260061b850101111561469a57600080fd5b60008083601f840112614df557600080fd5b5081356001600160401b03811115614e0c57600080fd5b60208301915083602082850101111561469a57600080fd5b60008060008060008060008060008060c08b8d031215614e4357600080fd5b8a356001600160401b0380821115614e5a57600080fd5b614e668e838f01614d5b565b909c509a5060208d0135915080821115614e7f57600080fd5b614e8b8e838f01614d9f565b909a509850889150614e9f60408e01614c7e565b9750614ead60608e01614c7e565b965060808d0135915080821115614ec357600080fd5b614ecf8e838f01614d5b565b909650945060a08d0135915080821115614ee857600080fd5b50614ef58d828e01614de3565b915080935050809150509295989b9194979a5092959850565b8051604080845281518482018190526000926060916020918201918388019190865b82811015614f7757845180516001600160a01b0316855260208082015190860152604080820151908601526060908101519085015260808401948201949350600101614f30565b50878101518984038a83015280518085529082019450600093820192505b80841015614ff157845180516001600160a01b039081168552838201511683850152878101518885015286810151878501526080908101516001600160f81b03191690840152938101936001939093019260a090920191614f95565b509098975050505050505050565b60208152600061230b6020830184614f0e565b6000806020838503121561502557600080fd5b82356001600160401b0381111561503b57600080fd5b61504785828601614d5b565b90969095509350505050565b60008060006040848603121561506857600080fd5b83356001600160401b0381111561507e57600080fd5b61508a86828701614d5b565b909450925050602084013561509e81614c69565b809150509250925092565b600081518084526020808501945080840160005b838110156150d9578151875295820195908201906001016150bd565b509495945050505050565b60208152600061230b60208301846150a9565b60008060006040848603121561510c57600080fd5b83356001600160401b0381111561512257600080fd5b61508a86828701614d9f565b6000806040838503121561514157600080fd5b823561514c81614c69565b91506020830135614d3781614c69565b60006101008201905060018060a01b0380845116835280602085015116602084015250604083015163ffffffff8082166040850152806060860151166060850152608085015160808501528060a08601511660a0850152505060c083015160c083015260e08301516151d960e08401826001600160781b03169052565b5092915050565b60008060008060008060008060e0898b0312156151fc57600080fd5b883561520781614c69565b9750602089013561521781614c69565b96506040890135955061522c60608a01614ca6565b945061523a60808a01614ca6565b935060a089013561524a81614c69565b925060c08901356001600160401b0381111561526557600080fd5b6152718b828c01614d5b565b999c989b5096995094979396929594505050565b60006020828403121561529757600080fd5b813561ffff8116811461230b57600080fd5b6000806000806000606086880312156152c157600080fd5b85356001600160401b03808211156152d857600080fd5b6152e489838a01614d9f565b9097509550602088013591506152f982614c69565b9093506040870135908082111561530f57600080fd5b5061531c88828901614de3565b969995985093965092949392505050565b60008060006060848603121561534257600080fd5b83359250602084013561535481614c69565b9150604084013561509e81614c69565b60006020828403121561537657600080fd5b813561230b81614c69565b60008060006060848603121561539657600080fd5b83356153a181614c69565b925060208401356153b181614c69565b91506153bf60408501614c8e565b90509250925092565b600080600080604085870312156153de57600080fd5b84356001600160401b03808211156153f557600080fd5b61540188838901614d5b565b9096509450602087013591508082111561541a57600080fd5b5061542787828801614d9f565b95989497509550505050565b60006020828403121561544557600080fd5b61230b82614ca6565b60008060006060848603121561546357600080fd5b83359250602084013591506153bf60408501614ca6565b6000806000806080858703121561549057600080fd5b84359350602085013592506154a760408601614ca6565b915060608501356154b781614c69565b939692955090935050565b6020808252601f908201527f5265656e7472616e637947756172643a207265656e7472616e742063616c6c00604082015260600190565b60208082526010908201526f14185d5cd8589b194e881c185d5cd95960821b604082015260600190565b634e487b7160e01b600052603260045260246000fd5b634e487b7160e01b600052601160045260246000fd5b600060001982141561556357615563615539565b5060010190565b634e487b7160e01b600052604160045260246000fd5b60006020828403121561559257600080fd5b5051919050565b600082198211156155ac576155ac615539565b500190565b81835260006001600160fb1b038311156155ca57600080fd5b8260051b8083602087013760009401602001938452509192915050565b81835281816020850137506000828201602090810191909152601f909101601f19169091010190565b6001600160a01b0387168152608060208083018290528751918301829052600091888201919060a0850190845b8181101561568457845180516001600160a01b031684526020808201519085015260408082015190850152606090810151908401526080830194840194925060010161563d565b5050848103604086015261569981898b6155b1565b9250505082810360608401526156b08185876155e7565b9998505050505050505050565b6000828210156156cf576156cf615539565b500390565b6060815260006156e76060830187614f0e565b82810360208401526156fa8186886155b1565b91505063ffffffff8316604083015295945050505050565b60208082528181018390526000908460408401835b868110156157505763ffffffff61573d84614ca6565b1682529183019190830190600101615727565b509695505050505050565b60008235603e1983360301811261577157600080fd5b9190910192915050565b6000808335601e1984360301811261579257600080fd5b8301803591506001600160401b038211156157ac57600080fd5b6020019150600581901b360382131561469a57600080fd5b6000808335601e198436030181126157db57600080fd5b83016020810192503590506001600160401b038111156157fa57600080fd5b8060051b360383131561469a57600080fd5b60008235603e1983360301811261582257600080fd5b90910192915050565b60408082528181018490526000906060600586901b8401810190840187845b888110156158b257868403605f19018352615865828b61580c565b803561587081614c69565b6001600160a01b031685526020615889828201836157c4565b9250878288015261589d88880184836155b1565b9650509384019392909201915060010161584a565b505050838103602085015261405f81866150a9565b8183526000602080850194508260005b858110156150d95781356158ea81614c69565b6001600160a01b031687528183013583880152604096870196909101906001016158d7565b6020815260006107886020830184866158c7565b6004811061594157634e487b7160e01b600052602160045260246000fd5b9052565b60008383855260208086019550808560051b8301018460005b878110156159fd57848303601f19018952615979828861580c565b6040808501823561598981614c69565b6001600160a01b031686526159a0838801846157c4565b8789019390935290829052909150606085019060005b838110156159e8578135600481106159cd57600080fd5b6159d78482615923565b5091870191908701906001016159b6565b5050998501999350509083019060010161595e565b5090979650505050505050565b8481526001600160a01b0384166020820152606060408201819052600090615a359083018486615945565b9695505050505050565b600063ffffffff808316818516808303821115615a5e57615a5e615539565b01949350505050565b8981526001600160a01b0389811660208301528816604082015263ffffffff87811660608301526001600160781b038716608083015285811660a0830152841660c082015261010060e08201819052600090615ac68382018587615945565b9c9b505050505050505050505050565b6001600160a01b0387168152608060208201819052600090615afb90830187896158c7565b63ffffffff8616604084015282810360608401526156b08185876155e7565b604081526000615b2e6040830185876158c7565b905063ffffffff83166020830152949350505050565b60ff81168114610eea57600080fd5b600060208284031215615b6557600080fd5b813561230b81615b44565b6000816000190483118215151615615b8a57615b8a615539565b500290565b634e487b7160e01b600052601260045260246000fd5b600082615bb457615bb4615b8f565b500490565b60008083128015600160ff1b850184121615615bd757615bd7615539565b6001600160ff1b0384018313811615615bf257615bf2615539565b50500390565b600063ffffffff80841680615c0f57615c0f615b8f565b92169190910492915050565b600063ffffffff83811690831681811015615c3857615c38615539565b039392505050565b60006001600160e01b0383811690831681811015615c3857615c38615539565b60005b83811015615c7b578181015183820152602001615c63565b83811115613be35750506000910152565b7f416363657373436f6e74726f6c3a206163636f756e7420000000000000000000815260008351615cc4816017850160208801615c60565b7001034b99036b4b9b9b4b733903937b6329607d1b6017918401918201528351615cf5816028840160208801615c60565b01602801949350505050565b6020815260008251806020840152615d20816040850160208701615c60565b601f01601f19169190910160400192915050565b60006001600160781b03808316818516808303821115615a5e57615a5e615539565b8381526001600160a01b0383166020820152606081016107886040830184615923565b600060208284031215615d8b57600080fd5b8151801515811461230b57600080fd5b600060208284031215615dad57600080fd5b815161230b81615b44565b600181815b80851115615df3578160001904821115615dd957615dd9615539565b80851615615de657918102915b93841c9390800290615dbd565b509250929050565b600082615e0a57506001610700565b81615e1757506000610700565b8160018114615e2d5760028114615e3757615e53565b6001915050610700565b60ff841115615e4857615e48615539565b50506001821b610700565b5060208310610133831016604e8410600b8410161715615e76575081810a610700565b615e808383615db8565b8060001904821115615e9457615e94615539565b029392505050565b600061230b60ff841683615dfb565b600063ffffffff80831681851681830481118215151615615ece57615ece615539565b02949350505050565b600082615ee657615ee6615b8f565b500690565b600062ffffff80831681851681830481118215151615615ece57615ece615539565b600063ffffffff80841680615f2457615f24615b8f565b92169190910692915050565b600081615f3f57615f3f615539565b506000190190565b60006001600160e01b03828116848216808303821115615a5e57615a5e615539565b60006001600160801b03808316818516808303821115615a5e57615a5e615539565b60006001600160801b0383811690831681811015615c3857615c38615539565b60008251615771818460208701615c6056fea2646970667358221220cfa28b07c1289c071acc28f1761c45e9834674dbbcbc244ccc13e1d3a580b83a64736f6c634300080a0033",
  "linkReferences": {},
  "deployedLinkReferences": {}
}