{
  "_format": "hh-sol-artifact-1",
  "contractName": "DCAHubCompanion",
  "sourceName": "contracts/DCAHubCompanion/DCAHubCompanion.sol",
  "abi": [
    {
      "inputs": [
        {
          "internalType": "contract IDCAHub",
          "name": "_hub",
          "type": "address"
        },
        {
          "internalType": "contract IWrappedProtocolToken",
          "name": "_wToken",
          "type": "address"
        },
        {
          "internalType": "address",
          "name": "_governor",
          "type": "address"
        }
      ],
      "stateMutability": "nonpayable",
      "type": "constructor"
    },
    {
      "inputs": [],
      "name": "CallToDexFailed",
      "type": "error"
    },
    {
      "inputs": [],
      "name": "CallbackNotCalledByHub",
      "type": "error"
    },
    {
      "inputs": [],
      "name": "InvalidAmountOfProtocolTokenReceived",
      "type": "error"
    },
    {
      "inputs": [],
      "name": "InvalidMask",
      "type": "error"
    },
    {
      "inputs": [],
      "name": "InvalidTokenApprovalParams",
      "type": "error"
    },
    {
      "inputs": [],
      "name": "InvalidTokens",
      "type": "error"
    },
    {
      "inputs": [],
      "name": "RewardNotEnough",
      "type": "error"
    },
    {
      "inputs": [],
      "name": "SwapNotInitiatedByCompanion",
      "type": "error"
    },
    {
      "inputs": [],
      "name": "ToProvideIsTooMuch",
      "type": "error"
    },
    {
      "inputs": [],
      "name": "UnauthorizedCaller",
      "type": "error"
    },
    {
      "inputs": [],
      "name": "UnexpectedSwapPlan",
      "type": "error"
    },
    {
      "inputs": [],
      "name": "UnsupportedDex",
      "type": "error"
    },
    {
      "inputs": [],
      "name": "ZeroAddress",
      "type": "error"
    },
    {
      "anonymous": false,
      "inputs": [
        {
          "indexed": false,
          "internalType": "uint256",
          "name": "positionId",
          "type": "uint256"
        },
        {
          "indexed": false,
          "internalType": "address",
          "name": "originalTokenFrom",
          "type": "address"
        },
        {
          "indexed": false,
          "internalType": "address",
          "name": "convertedTokenFrom",
          "type": "address"
        },
        {
          "indexed": false,
          "internalType": "address",
          "name": "originalTokenTo",
          "type": "address"
        },
        {
          "indexed": false,
          "internalType": "address",
          "name": "convertedTokenTo",
          "type": "address"
        }
      ],
      "name": "ConvertedDeposit",
      "type": "event"
    },
    {
      "anonymous": false,
      "inputs": [
        {
          "indexed": false,
          "internalType": "address",
          "name": "_to",
          "type": "address"
        },
        {
          "indexed": false,
          "internalType": "address",
          "name": "token",
          "type": "address"
        },
        {
          "indexed": false,
          "internalType": "uint256",
          "name": "amount",
          "type": "uint256"
        }
      ],
      "name": "DustSent",
      "type": "event"
    },
    {
      "anonymous": false,
      "inputs": [],
      "name": "PendingGovernorAccepted",
      "type": "event"
    },
    {
      "anonymous": false,
      "inputs": [
        {
          "indexed": false,
          "internalType": "address",
          "name": "_pendingGovernor",
          "type": "address"
        }
      ],
      "name": "PendingGovernorSet",
      "type": "event"
    },
    {
      "anonymous": false,
      "inputs": [
        {
          "indexed": false,
          "internalType": "address[]",
          "name": "addresses",
          "type": "address[]"
        },
        {
          "indexed": false,
          "internalType": "bool[]",
          "name": "hasIssue",
          "type": "bool[]"
        }
      ],
      "name": "TokenWithApprovalIssuesSet",
      "type": "event"
    },
    {
      "inputs": [
        {
          "internalType": "address",
          "name": "_sender",
          "type": "address"
        },
        {
          "components": [
            {
              "internalType": "address",
              "name": "token",
              "type": "address"
            },
            {
              "internalType": "uint256",
              "name": "reward",
              "type": "uint256"
            },
            {
              "internalType": "uint256",
              "name": "toProvide",
              "type": "uint256"
            },
            {
              "internalType": "uint256",
              "name": "platformFee",
              "type": "uint256"
            }
          ],
          "internalType": "struct IDCAHubSwapHandler.TokenInSwap[]",
          "name": "_tokens",
          "type": "tuple[]"
        },
        {
          "internalType": "uint256[]",
          "name": "",
          "type": "uint256[]"
        },
        {
          "internalType": "bytes",
          "name": "_data",
          "type": "bytes"
        }
      ],
      "name": "DCAHubSwapCall",
      "outputs": [],
      "stateMutability": "nonpayable",
      "type": "function"
    },
    {
      "inputs": [],
      "name": "PROTOCOL_TOKEN",
      "outputs": [
        {
          "internalType": "address",
          "name": "",
          "type": "address"
        }
      ],
      "stateMutability": "view",
      "type": "function"
    },
    {
      "inputs": [],
      "name": "acceptPendingGovernor",
      "outputs": [],
      "stateMutability": "nonpayable",
      "type": "function"
    },
    {
      "inputs": [],
      "name": "approveWTokenForHub",
      "outputs": [],
      "stateMutability": "nonpayable",
      "type": "function"
    },
    {
      "inputs": [
        {
          "internalType": "address",
          "name": "_dex",
          "type": "address"
        },
        {
          "internalType": "bool",
          "name": "_support",
          "type": "bool"
        }
      ],
      "name": "defineDexSupport",
      "outputs": [],
      "stateMutability": "nonpayable",
      "type": "function"
    },
    {
      "inputs": [
        {
          "internalType": "address",
          "name": "_from",
          "type": "address"
        },
        {
          "internalType": "address",
          "name": "_to",
          "type": "address"
        },
        {
          "internalType": "uint256",
          "name": "_amount",
          "type": "uint256"
        },
        {
          "internalType": "uint32",
          "name": "_amountOfSwaps",
          "type": "uint32"
        },
        {
          "internalType": "uint32",
          "name": "_swapInterval",
          "type": "uint32"
        },
        {
          "internalType": "address",
          "name": "_owner",
          "type": "address"
        },
        {
          "components": [
            {
              "internalType": "address",
              "name": "operator",
              "type": "address"
            },
            {
              "internalType": "enum IDCAPermissionManager.Permission[]",
              "name": "permissions",
              "type": "uint8[]"
            }
          ],
          "internalType": "struct IDCAPermissionManager.PermissionSet[]",
          "name": "_permissions",
          "type": "tuple[]"
        },
        {
          "internalType": "bool",
          "name": "_transferFromCaller",
          "type": "bool"
        }
      ],
      "name": "depositProxy",
      "outputs": [
        {
          "internalType": "uint256",
          "name": "_positionId",
          "type": "uint256"
        }
      ],
      "stateMutability": "nonpayable",
      "type": "function"
    },
    {
      "inputs": [
        {
          "internalType": "address",
          "name": "_from",
          "type": "address"
        },
        {
          "internalType": "address",
          "name": "_to",
          "type": "address"
        },
        {
          "internalType": "uint256",
          "name": "_amount",
          "type": "uint256"
        },
        {
          "internalType": "uint32",
          "name": "_amountOfSwaps",
          "type": "uint32"
        },
        {
          "internalType": "uint32",
          "name": "_swapInterval",
          "type": "uint32"
        },
        {
          "internalType": "address",
          "name": "_owner",
          "type": "address"
        },
        {
          "components": [
            {
              "internalType": "address",
              "name": "operator",
              "type": "address"
            },
            {
              "internalType": "enum IDCAPermissionManager.Permission[]",
              "name": "permissions",
              "type": "uint8[]"
            }
          ],
          "internalType": "struct IDCAPermissionManager.PermissionSet[]",
          "name": "_permissions",
          "type": "tuple[]"
        }
      ],
      "name": "depositUsingProtocolToken",
      "outputs": [
        {
          "internalType": "uint256",
          "name": "_positionId",
          "type": "uint256"
        }
      ],
      "stateMutability": "payable",
      "type": "function"
    },
    {
      "inputs": [
        {
          "components": [
            {
              "internalType": "address",
              "name": "tokenA",
              "type": "address"
            },
            {
              "internalType": "address",
              "name": "tokenB",
              "type": "address"
            }
          ],
          "internalType": "struct Pair[]",
          "name": "_pairs",
          "type": "tuple[]"
        }
      ],
      "name": "getNextSwapInfo",
      "outputs": [
        {
          "components": [
            {
              "components": [
                {
                  "internalType": "address",
                  "name": "token",
                  "type": "address"
                },
                {
                  "internalType": "uint256",
                  "name": "reward",
                  "type": "uint256"
                },
                {
                  "internalType": "uint256",
                  "name": "toProvide",
                  "type": "uint256"
                },
                {
                  "internalType": "uint256",
                  "name": "platformFee",
                  "type": "uint256"
                }
              ],
              "internalType": "struct IDCAHubSwapHandler.TokenInSwap[]",
              "name": "tokens",
              "type": "tuple[]"
            },
            {
              "components": [
                {
                  "internalType": "address",
                  "name": "tokenA",
                  "type": "address"
                },
                {
                  "internalType": "address",
                  "name": "tokenB",
                  "type": "address"
                },
                {
                  "internalType": "uint256",
                  "name": "ratioAToB",
                  "type": "uint256"
                },
                {
                  "internalType": "uint256",
                  "name": "ratioBToA",
                  "type": "uint256"
                },
                {
                  "internalType": "bytes1",
                  "name": "intervalsInSwap",
                  "type": "bytes1"
                }
              ],
              "internalType": "struct IDCAHubSwapHandler.PairInSwap[]",
              "name": "pairs",
              "type": "tuple[]"
            }
          ],
          "internalType": "struct IDCAHubSwapHandler.SwapInfo",
          "name": "",
          "type": "tuple"
        }
      ],
      "stateMutability": "view",
      "type": "function"
    },
    {
      "inputs": [],
      "name": "governor",
      "outputs": [
        {
          "internalType": "address",
          "name": "",
          "type": "address"
        }
      ],
      "stateMutability": "view",
      "type": "function"
    },
    {
      "inputs": [],
      "name": "hub",
      "outputs": [
        {
          "internalType": "contract IDCAHub",
          "name": "",
          "type": "address"
        }
      ],
      "stateMutability": "view",
      "type": "function"
    },
    {
      "inputs": [
        {
          "internalType": "uint256",
          "name": "_positionId",
          "type": "uint256"
        },
        {
          "internalType": "uint256",
          "name": "_amount",
          "type": "uint256"
        },
        {
          "internalType": "uint32",
          "name": "_newSwaps",
          "type": "uint32"
        },
        {
          "internalType": "bool",
          "name": "_transferFromCaller",
          "type": "bool"
        }
      ],
      "name": "increasePositionProxy",
      "outputs": [],
      "stateMutability": "nonpayable",
      "type": "function"
    },
    {
      "inputs": [
        {
          "internalType": "uint256",
          "name": "_positionId",
          "type": "uint256"
        },
        {
          "internalType": "uint256",
          "name": "_amount",
          "type": "uint256"
        },
        {
          "internalType": "uint32",
          "name": "_newSwaps",
          "type": "uint32"
        }
      ],
      "name": "increasePositionUsingProtocolToken",
      "outputs": [],
      "stateMutability": "payable",
      "type": "function"
    },
    {
      "inputs": [
        {
          "internalType": "address",
          "name": "",
          "type": "address"
        }
      ],
      "name": "isDexSupported",
      "outputs": [
        {
          "internalType": "bool",
          "name": "",
          "type": "bool"
        }
      ],
      "stateMutability": "view",
      "type": "function"
    },
    {
      "inputs": [
        {
          "internalType": "address",
          "name": "_account",
          "type": "address"
        }
      ],
      "name": "isGovernor",
      "outputs": [
        {
          "internalType": "bool",
          "name": "_isGovernor",
          "type": "bool"
        }
      ],
      "stateMutability": "view",
      "type": "function"
    },
    {
      "inputs": [
        {
          "internalType": "address",
          "name": "_account",
          "type": "address"
        }
      ],
      "name": "isPendingGovernor",
      "outputs": [
        {
          "internalType": "bool",
          "name": "_isPendingGovernor",
          "type": "bool"
        }
      ],
      "stateMutability": "view",
      "type": "function"
    },
    {
      "inputs": [
        {
          "internalType": "bytes[]",
          "name": "data",
          "type": "bytes[]"
        }
      ],
      "name": "multicall",
      "outputs": [
        {
          "internalType": "bytes[]",
          "name": "results",
          "type": "bytes[]"
        }
      ],
      "stateMutability": "nonpayable",
      "type": "function"
    },
    {
      "inputs": [],
      "name": "pendingGovernor",
      "outputs": [
        {
          "internalType": "address",
          "name": "",
          "type": "address"
        }
      ],
      "stateMutability": "view",
      "type": "function"
    },
    {
      "inputs": [],
      "name": "permissionManager",
      "outputs": [
        {
          "internalType": "contract IDCAPermissionManager",
          "name": "",
          "type": "address"
        }
      ],
      "stateMutability": "view",
      "type": "function"
    },
    {
      "inputs": [
        {
          "components": [
            {
              "internalType": "address",
              "name": "operator",
              "type": "address"
            },
            {
              "internalType": "enum IDCAPermissionManager.Permission[]",
              "name": "permissions",
              "type": "uint8[]"
            }
          ],
          "internalType": "struct IDCAPermissionManager.PermissionSet[]",
          "name": "_permissions",
          "type": "tuple[]"
        },
        {
          "internalType": "uint256",
          "name": "_tokenId",
          "type": "uint256"
        },
        {
          "internalType": "uint256",
          "name": "_deadline",
          "type": "uint256"
        },
        {
          "internalType": "uint8",
          "name": "_v",
          "type": "uint8"
        },
        {
          "internalType": "bytes32",
          "name": "_r",
          "type": "bytes32"
        },
        {
          "internalType": "bytes32",
          "name": "_s",
          "type": "bytes32"
        }
      ],
      "name": "permissionPermitProxy",
      "outputs": [],
      "stateMutability": "nonpayable",
      "type": "function"
    },
    {
      "inputs": [
        {
          "internalType": "uint256",
          "name": "_positionId",
          "type": "uint256"
        },
        {
          "internalType": "uint256",
          "name": "_amount",
          "type": "uint256"
        },
        {
          "internalType": "uint32",
          "name": "_newSwaps",
          "type": "uint32"
        },
        {
          "internalType": "address",
          "name": "_recipient",
          "type": "address"
        }
      ],
      "name": "reducePositionProxy",
      "outputs": [],
      "stateMutability": "nonpayable",
      "type": "function"
    },
    {
      "inputs": [
        {
          "internalType": "uint256",
          "name": "_positionId",
          "type": "uint256"
        },
        {
          "internalType": "uint256",
          "name": "_amount",
          "type": "uint256"
        },
        {
          "internalType": "uint32",
          "name": "_newSwaps",
          "type": "uint32"
        },
        {
          "internalType": "address payable",
          "name": "_recipient",
          "type": "address"
        }
      ],
      "name": "reducePositionUsingProtocolToken",
      "outputs": [],
      "stateMutability": "nonpayable",
      "type": "function"
    },
    {
      "inputs": [
        {
          "components": [
            {
              "internalType": "address",
              "name": "tokenA",
              "type": "address"
            },
            {
              "internalType": "address",
              "name": "tokenB",
              "type": "address"
            }
          ],
          "internalType": "struct Pair[]",
          "name": "_pairs",
          "type": "tuple[]"
        }
      ],
      "name": "secondsUntilNextSwap",
      "outputs": [
        {
          "internalType": "uint256[]",
          "name": "",
          "type": "uint256[]"
        }
      ],
      "stateMutability": "view",
      "type": "function"
    },
    {
      "inputs": [
        {
          "internalType": "address",
          "name": "_to",
          "type": "address"
        },
        {
          "internalType": "address",
          "name": "_token",
          "type": "address"
        },
        {
          "internalType": "uint256",
          "name": "_amount",
          "type": "uint256"
        }
      ],
      "name": "sendDust",
      "outputs": [],
      "stateMutability": "nonpayable",
      "type": "function"
    },
    {
      "inputs": [
        {
          "internalType": "address",
          "name": "__pendingGovernor",
          "type": "address"
        }
      ],
      "name": "setPendingGovernor",
      "outputs": [],
      "stateMutability": "nonpayable",
      "type": "function"
    },
    {
      "inputs": [
        {
          "internalType": "address[]",
          "name": "_addresses",
          "type": "address[]"
        },
        {
          "internalType": "bool[]",
          "name": "_hasIssue",
          "type": "bool[]"
        }
      ],
      "name": "setTokensWithApprovalIssues",
      "outputs": [],
      "stateMutability": "nonpayable",
      "type": "function"
    },
    {
      "inputs": [
        {
          "internalType": "address[]",
          "name": "_tokens",
          "type": "address[]"
        },
        {
          "components": [
            {
              "internalType": "uint8",
              "name": "indexTokenA",
              "type": "uint8"
            },
            {
              "internalType": "uint8",
              "name": "indexTokenB",
              "type": "uint8"
            }
          ],
          "internalType": "struct IDCAHubSwapHandler.PairIndexes[]",
          "name": "_pairsToSwap",
          "type": "tuple[]"
        },
        {
          "internalType": "uint256[]",
          "name": "_minimumOutput",
          "type": "uint256[]"
        },
        {
          "internalType": "uint256[]",
          "name": "_maximumInput",
          "type": "uint256[]"
        },
        {
          "internalType": "address",
          "name": "_recipient",
          "type": "address"
        },
        {
          "internalType": "uint256",
          "name": "_deadline",
          "type": "uint256"
        }
      ],
      "name": "swapForCaller",
      "outputs": [
        {
          "components": [
            {
              "components": [
                {
                  "internalType": "address",
                  "name": "token",
                  "type": "address"
                },
                {
                  "internalType": "uint256",
                  "name": "reward",
                  "type": "uint256"
                },
                {
                  "internalType": "uint256",
                  "name": "toProvide",
                  "type": "uint256"
                },
                {
                  "internalType": "uint256",
                  "name": "platformFee",
                  "type": "uint256"
                }
              ],
              "internalType": "struct IDCAHubSwapHandler.TokenInSwap[]",
              "name": "tokens",
              "type": "tuple[]"
            },
            {
              "components": [
                {
                  "internalType": "address",
                  "name": "tokenA",
                  "type": "address"
                },
                {
                  "internalType": "address",
                  "name": "tokenB",
                  "type": "address"
                },
                {
                  "internalType": "uint256",
                  "name": "ratioAToB",
                  "type": "uint256"
                },
                {
                  "internalType": "uint256",
                  "name": "ratioBToA",
                  "type": "uint256"
                },
                {
                  "internalType": "bytes1",
                  "name": "intervalsInSwap",
                  "type": "bytes1"
                }
              ],
              "internalType": "struct IDCAHubSwapHandler.PairInSwap[]",
              "name": "pairs",
              "type": "tuple[]"
            }
          ],
          "internalType": "struct IDCAHubSwapHandler.SwapInfo",
          "name": "_swapInfo",
          "type": "tuple"
        }
      ],
      "stateMutability": "payable",
      "type": "function"
    },
    {
      "inputs": [
        {
          "internalType": "address",
          "name": "_dex",
          "type": "address"
        },
        {
          "internalType": "address[]",
          "name": "_tokens",
          "type": "address[]"
        },
        {
          "components": [
            {
              "internalType": "uint8",
              "name": "indexTokenA",
              "type": "uint8"
            },
            {
              "internalType": "uint8",
              "name": "indexTokenB",
              "type": "uint8"
            }
          ],
          "internalType": "struct IDCAHubSwapHandler.PairIndexes[]",
          "name": "_pairsToSwap",
          "type": "tuple[]"
        },
        {
          "internalType": "bytes[]",
          "name": "_callsToDex",
          "type": "bytes[]"
        },
        {
          "internalType": "bool",
          "name": "_doDexSwapsIncludeTransferToHub",
          "type": "bool"
        },
        {
          "internalType": "address",
          "name": "_leftoverRecipient",
          "type": "address"
        },
        {
          "internalType": "uint256",
          "name": "_deadline",
          "type": "uint256"
        }
      ],
      "name": "swapWithDex",
      "outputs": [
        {
          "components": [
            {
              "components": [
                {
                  "internalType": "address",
                  "name": "token",
                  "type": "address"
                },
                {
                  "internalType": "uint256",
                  "name": "reward",
                  "type": "uint256"
                },
                {
                  "internalType": "uint256",
                  "name": "toProvide",
                  "type": "uint256"
                },
                {
                  "internalType": "uint256",
                  "name": "platformFee",
                  "type": "uint256"
                }
              ],
              "internalType": "struct IDCAHubSwapHandler.TokenInSwap[]",
              "name": "tokens",
              "type": "tuple[]"
            },
            {
              "components": [
                {
                  "internalType": "address",
                  "name": "tokenA",
                  "type": "address"
                },
                {
                  "internalType": "address",
                  "name": "tokenB",
                  "type": "address"
                },
                {
                  "internalType": "uint256",
                  "name": "ratioAToB",
                  "type": "uint256"
                },
                {
                  "internalType": "uint256",
                  "name": "ratioBToA",
                  "type": "uint256"
                },
                {
                  "internalType": "bytes1",
                  "name": "intervalsInSwap",
                  "type": "bytes1"
                }
              ],
              "internalType": "struct IDCAHubSwapHandler.PairInSwap[]",
              "name": "pairs",
              "type": "tuple[]"
            }
          ],
          "internalType": "struct IDCAHubSwapHandler.SwapInfo",
          "name": "",
          "type": "tuple"
        }
      ],
      "stateMutability": "nonpayable",
      "type": "function"
    },
    {
      "inputs": [
        {
          "internalType": "address",
          "name": "_dex",
          "type": "address"
        },
        {
          "internalType": "address[]",
          "name": "_tokens",
          "type": "address[]"
        },
        {
          "components": [
            {
              "internalType": "uint8",
              "name": "indexTokenA",
              "type": "uint8"
            },
            {
              "internalType": "uint8",
              "name": "indexTokenB",
              "type": "uint8"
            }
          ],
          "internalType": "struct IDCAHubSwapHandler.PairIndexes[]",
          "name": "_pairsToSwap",
          "type": "tuple[]"
        },
        {
          "internalType": "bytes[]",
          "name": "_callsToDex",
          "type": "bytes[]"
        },
        {
          "internalType": "bool",
          "name": "_doDexSwapsIncludeTransferToHub",
          "type": "bool"
        },
        {
          "internalType": "address",
          "name": "_leftoverRecipient",
          "type": "address"
        },
        {
          "internalType": "uint256",
          "name": "_deadline",
          "type": "uint256"
        }
      ],
      "name": "swapWithDexAndShareLeftoverWithHub",
      "outputs": [
        {
          "components": [
            {
              "components": [
                {
                  "internalType": "address",
                  "name": "token",
                  "type": "address"
                },
                {
                  "internalType": "uint256",
                  "name": "reward",
                  "type": "uint256"
                },
                {
                  "internalType": "uint256",
                  "name": "toProvide",
                  "type": "uint256"
                },
                {
                  "internalType": "uint256",
                  "name": "platformFee",
                  "type": "uint256"
                }
              ],
              "internalType": "struct IDCAHubSwapHandler.TokenInSwap[]",
              "name": "tokens",
              "type": "tuple[]"
            },
            {
              "components": [
                {
                  "internalType": "address",
                  "name": "tokenA",
                  "type": "address"
                },
                {
                  "internalType": "address",
                  "name": "tokenB",
                  "type": "address"
                },
                {
                  "internalType": "uint256",
                  "name": "ratioAToB",
                  "type": "uint256"
                },
                {
                  "internalType": "uint256",
                  "name": "ratioBToA",
                  "type": "uint256"
                },
                {
                  "internalType": "bytes1",
                  "name": "intervalsInSwap",
                  "type": "bytes1"
                }
              ],
              "internalType": "struct IDCAHubSwapHandler.PairInSwap[]",
              "name": "pairs",
              "type": "tuple[]"
            }
          ],
          "internalType": "struct IDCAHubSwapHandler.SwapInfo",
          "name": "",
          "type": "tuple"
        }
      ],
      "stateMutability": "nonpayable",
      "type": "function"
    },
    {
      "inputs": [
        {
          "internalType": "uint256",
          "name": "_positionId",
          "type": "uint256"
        },
        {
          "internalType": "address",
          "name": "_recipientUnswapped",
          "type": "address"
        },
        {
          "internalType": "address",
          "name": "_recipientSwapped",
          "type": "address"
        }
      ],
      "name": "terminateProxy",
      "outputs": [
        {
          "internalType": "uint256",
          "name": "_unswapped",
          "type": "uint256"
        },
        {
          "internalType": "uint256",
          "name": "_swapped",
          "type": "uint256"
        }
      ],
      "stateMutability": "nonpayable",
      "type": "function"
    },
    {
      "inputs": [
        {
          "internalType": "uint256",
          "name": "_positionId",
          "type": "uint256"
        },
        {
          "internalType": "address payable",
          "name": "_recipientUnswapped",
          "type": "address"
        },
        {
          "internalType": "address",
          "name": "_recipientSwapped",
          "type": "address"
        }
      ],
      "name": "terminateUsingProtocolTokenAsFrom",
      "outputs": [
        {
          "internalType": "uint256",
          "name": "_unswapped",
          "type": "uint256"
        },
        {
          "internalType": "uint256",
          "name": "_swapped",
          "type": "uint256"
        }
      ],
      "stateMutability": "nonpayable",
      "type": "function"
    },
    {
      "inputs": [
        {
          "internalType": "uint256",
          "name": "_positionId",
          "type": "uint256"
        },
        {
          "internalType": "address",
          "name": "_recipientUnswapped",
          "type": "address"
        },
        {
          "internalType": "address payable",
          "name": "_recipientSwapped",
          "type": "address"
        }
      ],
      "name": "terminateUsingProtocolTokenAsTo",
      "outputs": [
        {
          "internalType": "uint256",
          "name": "_unswapped",
          "type": "uint256"
        },
        {
          "internalType": "uint256",
          "name": "_swapped",
          "type": "uint256"
        }
      ],
      "stateMutability": "nonpayable",
      "type": "function"
    },
    {
      "inputs": [
        {
          "internalType": "address",
          "name": "",
          "type": "address"
        }
      ],
      "name": "tokenHasApprovalIssue",
      "outputs": [
        {
          "internalType": "bool",
          "name": "",
          "type": "bool"
        }
      ],
      "stateMutability": "view",
      "type": "function"
    },
    {
      "inputs": [],
      "name": "wToken",
      "outputs": [
        {
          "internalType": "contract IWrappedProtocolToken",
          "name": "",
          "type": "address"
        }
      ],
      "stateMutability": "view",
      "type": "function"
    },
    {
      "inputs": [
        {
          "components": [
            {
              "internalType": "address",
              "name": "token",
              "type": "address"
            },
            {
              "internalType": "uint256[]",
              "name": "positionIds",
              "type": "uint256[]"
            }
          ],
          "internalType": "struct IDCAHubPositionHandler.PositionSet[]",
          "name": "_positions",
          "type": "tuple[]"
        },
        {
          "internalType": "address",
          "name": "_recipient",
          "type": "address"
        }
      ],
      "name": "withdrawSwappedManyProxy",
      "outputs": [
        {
          "internalType": "uint256[]",
          "name": "_withdrawn",
          "type": "uint256[]"
        }
      ],
      "stateMutability": "nonpayable",
      "type": "function"
    },
    {
      "inputs": [
        {
          "internalType": "uint256[]",
          "name": "_positionIds",
          "type": "uint256[]"
        },
        {
          "internalType": "address payable",
          "name": "_recipient",
          "type": "address"
        }
      ],
      "name": "withdrawSwappedManyUsingProtocolToken",
      "outputs": [
        {
          "internalType": "uint256",
          "name": "_swapped",
          "type": "uint256"
        }
      ],
      "stateMutability": "nonpayable",
      "type": "function"
    },
    {
      "inputs": [
        {
          "internalType": "uint256",
          "name": "_positionId",
          "type": "uint256"
        },
        {
          "internalType": "address",
          "name": "_recipient",
          "type": "address"
        }
      ],
      "name": "withdrawSwappedProxy",
      "outputs": [
        {
          "internalType": "uint256",
          "name": "_swapped",
          "type": "uint256"
        }
      ],
      "stateMutability": "nonpayable",
      "type": "function"
    },
    {
      "inputs": [
        {
          "internalType": "uint256",
          "name": "_positionId",
          "type": "uint256"
        },
        {
          "internalType": "address payable",
          "name": "_recipient",
          "type": "address"
        }
      ],
      "name": "withdrawSwappedUsingProtocolToken",
      "outputs": [
        {
          "internalType": "uint256",
          "name": "_swapped",
          "type": "uint256"
        }
      ],
      "stateMutability": "nonpayable",
      "type": "function"
    },
    {
      "stateMutability": "payable",
      "type": "receive"
    }
  ],
  "bytecode": "0x60e06040523480156200001157600080fd5b50604051620062a8380380620062a883398101604081905262000034916200021d565b82836001600160a01b031663cc7a20496040518163ffffffff1660e01b8152600401602060405180830381865afa15801562000074573d6000803e3d6000fd5b505050506040513d601f19601f820116820180604052508101906200009a919062000271565b8383806001600160a01b038116620000f85760405162461bcd60e51b815260206004820152601860248201527f476f7665726e61626c653a207a65726f20616464726573730000000000000000604482015260640160405180910390fd5b600080546001600160a01b0319166001600160a01b03928316179055841615806200012a57506001600160a01b038316155b806200013d57506001600160a01b038216155b156200015c5760405163d92e233d60e01b815260040160405180910390fd5b506001600160a01b03928316608052821660c0521660a0526200017e62000187565b505050620002bc565b60c05160805160405163095ea7b360e01b81526001600160a01b039182166004820152600019602482015291169063095ea7b3906044016020604051808303816000875af1158015620001de573d6000803e3d6000fd5b505050506040513d601f19601f8201168201806040525081019062000204919062000298565b50565b6001600160a01b03811681146200020457600080fd5b6000806000606084860312156200023357600080fd5b8351620002408162000207565b6020850151909350620002538162000207565b6040850151909250620002668162000207565b809150509250925092565b6000602082840312156200028457600080fd5b8151620002918162000207565b9392505050565b600060208284031215620002ab57600080fd5b815180151581146200029157600080fd5b60805160a05160c051615ec7620003e1600039600081816102b601528181610d4901528181610d910152818161170201528181611d1501528181611f220152818161234c015281816125ba01526126070152600081816105fe015281816115df0152611e6b015260008181610397015281816107c0015281816108de015281816109a301528181610ba501528181610c4601528181610db301528181610f0601528181610fa80152818161102d01528181611221015281816112f1015281816117b2015281816118b30152818161196801528181611a1001528181611ac801528181611c4601528181611ce501528181611dc0015281816120f6015281816126f701528181612b3201528181612b9101528181612bca0152612d210152615ec76000f3fe60806040526004361061021e5760003560e01c8063a2c346ec11610123578063d7752a0c116100ab578063f0261ac41161006f578063f0261ac4146106ef578063f235757f1461070f578063f50b098e1461072f578063fe62b6201461074f578063ff42fb251461076457600080fd5b8063d7752a0c14610640578063df08aed514610653578063e3056a3414610682578063e43581b8146106a0578063e581a3be146106cf57600080fd5b8063b715b93d116100f2578063b715b93d1461058c578063baa791a5146105ac578063c95cb387146105cc578063cc7a2049146105ec578063d6d2d0b71461062057600080fd5b8063a2c346ec146104ef578063a8bf39fd1461051c578063ac9650d81461052f578063b452cdc41461055c57600080fd5b806337be507e116101a6578063535af43011610175578063535af4301461043a5780635817c99e1461045a578063585cc6a51461047a57806382643589146104a25780638d203345146104c257600080fd5b806337be507e146103b95780633e9820f1146103e75780634782c82a14610407578063479e8fac1461041a57600080fd5b806313f6986d116101ed57806313f6986d1461030e57806318b5769c1461032557806328c756b0146103455780632db8c12914610365578063365a86fc1461038557600080fd5b8063065f957d1461022a5780630a12aa481461026f5780630babd864146102a45780630c340a24146102f057600080fd5b3661022557005b600080fd5b34801561023657600080fd5b5061025a6102453660046140dc565b60026020526000908152604090205460ff1681565b60405190151581526020015b60405180910390f35b34801561027b57600080fd5b5061028f61028a3660046140f9565b610784565b60408051928352602083019190915201610266565b3480156102b057600080fd5b506102d87f000000000000000000000000000000000000000000000000000000000000000081565b6040516001600160a01b039091168152602001610266565b3480156102fc57600080fd5b506000546001600160a01b03166102d8565b34801561031a57600080fd5b50610323610845565b005b34801561033157600080fd5b5061032361034036600461415b565b6108b8565b34801561035157600080fd5b506103236103603660046141f0565b610a11565b34801561037157600080fd5b5061032361038036600461425b565b610b36565b34801561039157600080fd5b506102d87f000000000000000000000000000000000000000000000000000000000000000081565b3480156103c557600080fd5b506103d96103d436600461429c565b610b70565b604051908152602001610266565b3480156103f357600080fd5b506103d961040236600461429c565b610c1b565b6103d96104153660046142cc565b610ccf565b34801561042657600080fd5b50610323610435366004614375565b610ec0565b34801561044657600080fd5b5061028f6104553660046140f9565b610f6a565b34801561046657600080fd5b506103236104753660046143f5565b611022565b34801561048657600080fd5b506102d873eeeeeeeeeeeeeeeeeeeeeeeeeeeeeeeeeeeeeeee81565b3480156104ae57600080fd5b506103236104bd3660046144d2565b61111f565b3480156104ce57600080fd5b506104e26104dd366004614544565b61119b565b6040516102669190614696565b3480156104fb57600080fd5b5061050f61050a36600461471c565b61121a565b604051610266919061478d565b6104e261052a3660046147a0565b61124e565b34801561053b57600080fd5b5061054f61054a36600461487d565b6114d4565b604051610266919061490a565b34801561056857600080fd5b5061025a6105773660046140dc565b60036020526000908152604090205460ff1681565b34801561059857600080fd5b506103236105a736600461497d565b6115c8565b3480156105b857600080fd5b506104e26105c7366004614544565b611620565b3480156105d857600080fd5b506103d96105e73660046149f6565b61167d565b3480156105f857600080fd5b506102d87f000000000000000000000000000000000000000000000000000000000000000081565b34801561062c57600080fd5b5061032361063b366004614375565b611877565b61032361064e366004614a41565b611929565b34801561065f57600080fd5b5061025a61066e3660046140dc565b6001546001600160a01b0391821691161490565b34801561068e57600080fd5b506001546001600160a01b03166102d8565b3480156106ac57600080fd5b5061025a6106bb3660046140dc565b6000546001600160a01b0391821691161490565b3480156106db57600080fd5b506104e26106ea36600461471c565b6119d3565b3480156106fb57600080fd5b5061028f61070a3660046140f9565b611a8c565b34801561071b57600080fd5b5061032361072a3660046140dc565b611b43565b34801561073b57600080fd5b5061050f61074a3660046149f6565b611b79565b34801561075b57600080fd5b50610323611cce565b34801561077057600080fd5b506103d961077f366004614a6f565b611d82565b6000808460036107948282611e54565b6040516372ada4c560e01b8152600481018890526001600160a01b0387811660248301523060448301527f000000000000000000000000000000000000000000000000000000000000000016906372ada4c59060640160408051808303816000875af1158015610808573d6000803e3d6000fd5b505050506040513d601f19601f8201168201806040525081019061082c9190614b2c565b909450925061083b8386611f06565b5050935093915050565b6001546001600160a01b031633146108ae5760405162461bcd60e51b815260206004820152602160248201527f476f7665726e61626c653a206f6e6c792070656e64696e6720676f7665726e6f6044820152603960f91b60648201526084015b60405180910390fd5b6108b6611fbc565b565b8360006108c58282611e54565b604051635b6fd01d60e01b8152600481018790526000907f00000000000000000000000000000000000000000000000000000000000000006001600160a01b031690635b6fd01d9060240161010060405180830381865afa15801561092e573d6000803e3d6000fd5b505050506040513d601f19601f820116820180604052508101906109529190614c37565b5190508315610970576109706001600160a01b038216333089612064565b61097a81876120d5565b604051636f6b805360e11b8152600481018890526024810187905263ffffffff861660448201527f00000000000000000000000000000000000000000000000000000000000000006001600160a01b03169063ded700a6906064015b600060405180830381600087803b1580156109f057600080fd5b505af1158015610a04573d6000803e3d6000fd5b5050505050505050505050565b6000546001600160a01b03163314610a3b5760405162461bcd60e51b81526004016108a590614cf2565b828114610a5b576040516305d5c8c960e51b815260040160405180910390fd5b60005b83811015610af257828282818110610a7857610a78614d29565b9050602002016020810190610a8d9190614d3f565b60026000878785818110610aa357610aa3614d29565b9050602002016020810190610ab891906140dc565b6001600160a01b031681526020810191909152604001600020805460ff191691151591909117905580610aea81614d72565b915050610a5e565b507f03f0491d4ac1dcd8629e84f9f0d6af60220d6d3e6ce76dc9750959b580cf75e884848484604051610b289493929190614dcb565b60405180910390a150505050565b6000546001600160a01b03163314610b605760405162461bcd60e51b81526004016108a590614cf2565b610b6b83838361219e565b505050565b6000826002610b7f8282611e54565b604051630176218960e41b8152600481018690526001600160a01b0385811660248301527f000000000000000000000000000000000000000000000000000000000000000016906317621890906044016020604051808303816000875af1158015610bee573d6000803e3d6000fd5b505050506040513d601f19601f82011682018060405250810190610c129190614e29565b95945050505050565b6000826002610c2a8282611e54565b604051630176218960e41b8152600481018690523060248201527f00000000000000000000000000000000000000000000000000000000000000006001600160a01b0316906317621890906044016020604051808303816000875af1158015610c97573d6000803e3d6000fd5b505050506040513d601f19601f82011682018060405250810190610cbb9190614e29565b9250610cc78385611f06565b505092915050565b60006001600160a01b0389811673eeeeeeeeeeeeeeeeeeeeeeeeeeeeeeeeeeeeeeee908114918a16141415610d17576040516333910aef60e11b815260040160405180910390fd5b88886001600160a01b03821673eeeeeeeeeeeeeeeeeeeeeeeeeeeeeeeeeeeeeeee1415610d6f57610d4789612324565b7f00000000000000000000000000000000000000000000000000000000000000009150610db1565b610d846001600160a01b038c1633308c612064565b610d8e8b8a6120d5565b507f00000000000000000000000000000000000000000000000000000000000000005b7f00000000000000000000000000000000000000000000000000000000000000006001600160a01b0316636b29e1bd83838c8c8c8c610df08d8d6123b9565b6040518863ffffffff1660e01b8152600401610e129796959493929190614e6c565b6020604051808303816000875af1158015610e31573d6000803e3d6000fd5b505050506040513d601f19601f82011682018060405250810190610e559190614e29565b604080518281526001600160a01b038e81166020830152858116828401528d811660608301528416608082015290519194507f5d1f4d7c07147efcb2ae3ff0e9d58684918220c4cf2e5495a8fa5760658be83f919081900360a00190a1505098975050505050505050565b836001610ecd8282611e54565b60405163f1accf3960e01b8152600481018790526024810186905263ffffffff851660448201526001600160a01b0384811660648301527f0000000000000000000000000000000000000000000000000000000000000000169063f1accf3990608401600060405180830381600087803b158015610f4a57600080fd5b505af1158015610f5e573d6000803e3d6000fd5b50505050505050505050565b600080846003610f7a8282611e54565b6040516372ada4c560e01b8152600481018890526001600160a01b03878116602483015286811660448301527f000000000000000000000000000000000000000000000000000000000000000016906372ada4c59060640160408051808303816000875af1158015610ff0573d6000803e3d6000fd5b505050506040513d601f19601f820116820180604052508101906110149190614b2c565b909890975095505050505050565b336001600160a01b037f0000000000000000000000000000000000000000000000000000000000000000161461106b576040516301bb2f1560e21b815260040160405180910390fd5b6001600160a01b03871630146110945760405163d219c5db60e01b815260040160405180910390fd5b60006110a282840184614fdc565b90506001815160028111156110b9576110b9614e42565b14156110d3576110ce8787836020015161255e565b611115565b6002815160028111156110e8576110e8614e42565b14156110fd576110ce87878360200151612736565b6040516225941760e31b815260040160405180910390fd5b5050505050505050565b6000546001600160a01b031633146111495760405162461bcd60e51b81526004016108a590614cf2565b6001600160a01b0382166111705760405163d92e233d60e01b815260040160405180910390fd5b6001600160a01b03919091166000908152600360205260409020805460ff1916911515919091179055565b604080518082019091526060808252602082015260006040518060a001604052808d6001600160a01b031681526020016000151581526020018615158152602001856001600160a01b031681526020018888906111f89190615082565b9052905061120a8b8b8b8b8588612c44565b9c9b505050505050505050505050565b60606112477f00000000000000000000000000000000000000000000000000000000000000008484612e2e565b9392505050565b604080518082019091526060808252602082015281804211156112a95760405162461bcd60e51b8152602060048201526013602482015272151c985b9cd858dd1a5bdb881d1bdbc81bdb19606a1b60448201526064016108a5565b60008b6001600160401b038111156112c3576112c3614b50565b6040519080825280602002602001820160405280156112ec578160200160208202803683370190505b5090507f00000000000000000000000000000000000000000000000000000000000000006001600160a01b0316632a2a1a748e8e8e8e8a308860405180604001604052806001600281111561134357611343614e42565b815260408051808201825233808252346020928301908152835180840192909252518184015282518082038401815260609091018352928101929092525161138c9291016150f5565b6040516020818303038152906040526040518963ffffffff1660e01b81526004016113be98979695949392919061512c565b6000604051808303816000875af11580156113dd573d6000803e3d6000fd5b505050506040513d6000823e601f3d908101601f1916820160405261140591908101906152c0565b925060005b8351518110156114c35760008460000151828151811061142c5761142c614d29565b602002602001015190508a8a8381811061144857611448614d29565b90506020020135816020015110156114735760405163861aeb1f60e01b815260040160405180910390fd5b88888381811061148557611485614d29565b90506020020135816040015111156114b05760405163edddba2760e01b815260040160405180910390fd5b50806114bb81614d72565b91505061140a565b5050509a9950505050505050505050565b6060816001600160401b038111156114ee576114ee614b50565b60405190808252806020026020018201604052801561152157816020015b606081526020019060019003908161150c5790505b50905060005b828110156115c1576115913085858481811061154557611545614d29565b905060200281019061155791906153e9565b8080601f016020809104026020016040519081016040528093929190818152602001838380828437600092019190915250612f1192505050565b8282815181106115a3576115a3614d29565b602002602001018190525080806115b990614d72565b915050611527565b5092915050565b604051634faa388360e01b81526001600160a01b037f00000000000000000000000000000000000000000000000000000000000000001690634faa3883906109d6908a908a908a908a908a908a908a90600401615560565b604080518082019091526060808252602082015260006040518060a001604052808d6001600160a01b031681526020016001151581526020018615158152602001856001600160a01b031681526020018888906111f89190615082565b6000805b838110156116be576116ac85858381811061169e5761169e614d29565b905060200201356002611e54565b806116b681614d72565b915050611681565b50604080516001808252818301909252600091816020015b6040805180820190915260008152606060208201528152602001906001900390816116d65790505090507f00000000000000000000000000000000000000000000000000000000000000008160008151811061173457611734614d29565b6020026020010151600001906001600160a01b031690816001600160a01b031681525050848480806020026020016040519081016040528093929190818152602001838360200280828437600092018290525085518694509092501515905061179f5761179f614d29565b60200260200101516020018190525060007f00000000000000000000000000000000000000000000000000000000000000006001600160a01b031663480b379683306040518363ffffffff1660e01b81526004016117fe9291906155a1565b6000604051808303816000875af115801561181d573d6000803e3d6000fd5b505050506040513d6000823e601f3d908101601f191682016040526118459190810190615631565b90508060008151811061185a5761185a614d29565b6020026020010151925061186e8385611f06565b50509392505050565b8360016118848282611e54565b60405163f1accf3960e01b8152600481018790526024810186905263ffffffff851660448201523060648201527f00000000000000000000000000000000000000000000000000000000000000006001600160a01b03169063f1accf3990608401600060405180830381600087803b1580156118ff57600080fd5b505af1158015611913573d6000803e3d6000fd5b505050506119218584611f06565b505050505050565b8260006119368282611e54565b61193f84612324565b604051636f6b805360e11b8152600481018690526024810185905263ffffffff841660448201527f00000000000000000000000000000000000000000000000000000000000000006001600160a01b03169063ded700a690606401600060405180830381600087803b1580156119b457600080fd5b505af11580156119c8573d6000803e3d6000fd5b505050505050505050565b60408051808201909152606080825260208201526000806119f48585612f36565b60405163d2d95b2d60e01b815291935091506001600160a01b037f0000000000000000000000000000000000000000000000000000000000000000169063d2d95b2d90611a4790859085906004016156b6565b600060405180830381865afa158015611a64573d6000803e3d6000fd5b505050506040513d6000823e601f3d908101601f19168201604052610c1291908101906152c0565b600080846003611a9c8282611e54565b6040516372ada4c560e01b8152600481018890523060248201526001600160a01b0386811660448301527f000000000000000000000000000000000000000000000000000000000000000016906372ada4c59060640160408051808303816000875af1158015611b10573d6000803e3d6000fd5b505050506040513d601f19601f82011682018060405250810190611b349190614b2c565b909450925061083b8487611f06565b6000546001600160a01b03163314611b6d5760405162461bcd60e51b81526004016108a590614cf2565b611b7681612f97565b50565b606060005b83811015611c2e5760005b858583818110611b9b57611b9b614d29565b9050602002810190611bad919061574c565b611bbb90602081019061576c565b9050811015611c1b57611c09868684818110611bd957611bd9614d29565b9050602002810190611beb919061574c565b611bf990602081019061576c565b8381811061169e5761169e614d29565b80611c1381614d72565b915050611b89565b5080611c2681614d72565b915050611b7e565b506040516324059bcb60e11b81526001600160a01b037f0000000000000000000000000000000000000000000000000000000000000000169063480b379690611c7f908790879087906004016157b5565b6000604051808303816000875af1158015611c9e573d6000803e3d6000fd5b505050506040513d6000823e601f3d908101601f19168201604052611cc69190810190615631565b949350505050565b60405163095ea7b360e01b81526001600160a01b037f00000000000000000000000000000000000000000000000000000000000000008116600483015260001960248301527f0000000000000000000000000000000000000000000000000000000000000000169063095ea7b3906044016020604051808303816000875af1158015611d5e573d6000803e3d6000fd5b505050506040513d601f19601f82011682018060405250810190611b769190615877565b60008115611d9f57611d9f6001600160a01b038b1633308b612064565b611da98a896120d5565b604051636b29e1bd60e01b81526001600160a01b037f00000000000000000000000000000000000000000000000000000000000000001690636b29e1bd90611e03908d908d908d908d908d908d908d908d90600401615894565b6020604051808303816000875af1158015611e22573d6000803e3d6000fd5b505050506040513d601f19601f82011682018060405250810190611e469190614e29565b9a9950505050505050505050565b60405163823abfd960e01b81526001600160a01b037f0000000000000000000000000000000000000000000000000000000000000000169063823abfd990611ea4908590339086906004016158e4565b602060405180830381865afa158015611ec1573d6000803e3d6000fd5b505050506040513d601f19601f82011682018060405250810190611ee59190615877565b611f0257604051635c427cd960e01b815260040160405180910390fd5b5050565b8115611f0257604051632e1a7d4d60e01b8152600481018390527f00000000000000000000000000000000000000000000000000000000000000006001600160a01b031690632e1a7d4d90602401600060405180830381600087803b158015611f6e57600080fd5b505af1158015611f82573d6000803e3d6000fd5b50506040516001600160a01b038416925084156108fc02915084906000818181858888f19350505050158015610b6b573d6000803e3d6000fd5b6001546001600160a01b03166120145760405162461bcd60e51b815260206004820152601f60248201527f476f7665726e61626c653a206e6f2070656e64696e6720676f7665726e6f720060448201526064016108a5565b60018054600080546001600160a01b03199081166001600160a01b0384161782559091169091556040517fdc57ca23c46d823853915ed5a090ca0ee9db5eb6a46f5c58e1c9158de861fd769190a1565b6040516001600160a01b03808516602483015283166044820152606481018290526120cf9085906323b872dd60e01b906084015b60408051601f198184030181529190526020810180516001600160e01b03166001600160e01b031990931692909217909152613041565b50505050565b6001600160a01b03821660008181526002602052604090205463095ea7b3907f00000000000000000000000000000000000000000000000000000000000000009060ff1661212d57612128846001615907565b61212f565b835b6040516001600160e01b031960e085901b1681526001600160a01b03909216600483015260248201526044016020604051808303816000875af115801561217a573d6000803e3d6000fd5b505050506040513d601f19601f82011682018060405250810190610b6b9190615877565b6001600160a01b0383166121f45760405162461bcd60e51b815260206004820152601d60248201527f436f6c6c65637461626c65447573743a207a65726f206164647265737300000060448201526064016108a5565b6121ff600483613113565b1561225f5760405162461bcd60e51b815260206004820152602a60248201527f436f6c6c65637461626c65447573743a20746f6b656e2069732070617274206f60448201526919881c1c9bdd1bd8dbdb60b21b60648201526084016108a5565b6001600160a01b03821673eeeeeeeeeeeeeeeeeeeeeeeeeeeeeeeeeeeeeeee14156122c0576040516001600160a01b0384169082156108fc029083906000818181858888f193505050501580156122ba573d6000803e3d6000fd5b506122d4565b6122d46001600160a01b0383168483613135565b604080516001600160a01b038086168252841660208201529081018290527f1e34c1aee8e83c2dcc14c21bb4bfeea7f46c0c998cb797ac7cc4d7a18f5c656b9060600160405180910390a1505050565b803414612344576040516397d71f5d60e01b815260040160405180910390fd5b8015611b76577f00000000000000000000000000000000000000000000000000000000000000006001600160a01b031663d0e30db0826040518263ffffffff1660e01b81526004016000604051808303818588803b1580156123a557600080fd5b505af1158015611921573d6000803e3d6000fd5b60606123c6826001615907565b6001600160401b038111156123dd576123dd614b50565b60405190808252806020026020018201604052801561242357816020015b6040805180820190915260008152606060208201528152602001906001900390816123fb5790505b50905060005b8281101561248e5783838281811061244357612443614d29565b9050602002810190612455919061574c565b61245e9061591f565b82828151811061247057612470614d29565b6020026020010181905250808061248690614d72565b915050612429565b5060408051600480825260a082019092526000916020820160808036833701905050905060005b6004811015612523578060038111156124d0576124d0614e42565b8282815181106124e2576124e2614d29565b602002602001019060038111156124fb576124fb614e42565b9081600381111561250e5761250e614e42565b9052508061251b81614d72565b9150506124b5565b506040805180820190915230815260208101829052825183908590811061254c5761254c614d29565b60200260200101819052505092915050565b60008180602001905181019061257491906159d4565b905060005b8381101561272f57600085858381811061259557612595614d29565b9050608002018036038101906125ab9190615a0e565b60408101519091501561271c577f00000000000000000000000000000000000000000000000000000000000000006001600160a01b031681600001516001600160a01b03161480156126005750602083015115155b156126dc577f00000000000000000000000000000000000000000000000000000000000000006001600160a01b031663d0e30db082604001516040518263ffffffff1660e01b81526004016000604051808303818588803b15801561266457600080fd5b505af1158015612678573d6000803e3d6000fd5b50505050508060400151836020015111156126dc5782600001516001600160a01b03166108fc826040015185602001516126b29190615a5f565b6040518115909202916000818181858888f193505050501580156126da573d6000803e3d6000fd5b505b82516040820151825161271c926001600160a01b03909116917f000000000000000000000000000000000000000000000000000000000000000090612064565b508061272781614d72565b915050612579565b5050505050565b60008180602001905181019061274c9190615a76565b905060005b838110156129ee57600085858381811061276d5761276d614d29565b9050608002018036038101906127839190615a0e565b6020810151909150156129db5780516001600160a01b03811660009081526002602052604090205460ff168061284b57845160208401516001600160a01b0384169163095ea7b3916127d6906001615907565b6040516001600160e01b031960e085901b1681526001600160a01b03909216600483015260248201526044016020604051808303816000875af1158015612821573d6000803e3d6000fd5b505050506040513d601f19601f820116820180604052508101906128459190615877565b506129d8565b8451604051636eb1769f60e11b81523060048201526001600160a01b03918216602482015260009184169063dd62ed3e90604401602060405180830381865afa15801561289c573d6000803e3d6000fd5b505050506040513d601f19601f820116820180604052508101906128c09190614e29565b905083602001518110156129d657801561294c57855160405163095ea7b360e01b81526001600160a01b039182166004820152600060248201529084169063095ea7b3906044016020604051808303816000875af1158015612926573d6000803e3d6000fd5b505050506040513d601f19601f8201168201806040525081019061294a9190615877565b505b8551602085015160405163095ea7b360e01b81526001600160a01b0386169263095ea7b392612991926004016001600160a01b03929092168252602082015260400190565b6020604051808303816000875af11580156129b0573d6000803e3d6000fd5b505050506040513d601f19601f820116820180604052508101906129d49190615877565b505b505b50505b50806129e681614d72565b915050612751565b5060005b816080015151811015612a3c57612a2a826000015183608001518381518110612a1d57612a1d614d29565b6020026020010151613165565b80612a3481614d72565b9150506129f2565b5060005b8381101561272f576000858583818110612a5c57612a5c614d29565b612a7292602060809092020190810191506140dc565b6040516370a0823160e01b81523060048201529091506000906001600160a01b038316906370a0823190602401602060405180830381865afa158015612abc573d6000803e3d6000fd5b505050506040513d601f19601f82011682018060405250810190612ae09190614e29565b90508015612c2f576000878785818110612afc57612afc614d29565b9050608002016040013590506000811115612c1357846040015115612b6e5760008560200151612b30578560600151612b52565b7f00000000000000000000000000000000000000000000000000000000000000005b9050612b686001600160a01b0385168285613135565b50612c2d565b846020015180612b7d57508082145b15612bbb57612bb66001600160a01b0384167f000000000000000000000000000000000000000000000000000000000000000084613135565b612c2d565b612bef6001600160a01b0384167f000000000000000000000000000000000000000000000000000000000000000083613135565b6060850151612bb690612c028385615a5f565b6001600160a01b0386169190613135565b6060850151612c2d906001600160a01b0385169084613135565b505b50508080612c3c90614d72565b915050612a40565b60408051808201909152606080825260208201528180421115612c9f5760405162461bcd60e51b8152602060048201526013602482015272151c985b9cd858dd1a5bdb881d1bdbc81bdb19606a1b60448201526064016108a5565b83516001600160a01b031660009081526003602052604090205460ff16612cd957604051632974f28d60e21b815260040160405180910390fd5b6000876001600160401b03811115612cf357612cf3614b50565b604051908082528060200260200182016040528015612d1c578160200160208202803683370190505b5090507f00000000000000000000000000000000000000000000000000000000000000006001600160a01b0316632a2a1a748a8a8a8a3030886040518060400160405280600280811115612d7257612d72614e42565b81526020018f604051602001612d889190615bd9565b60408051601f19818403018152918152915251612da891906020016150f5565b6040516020818303038152906040526040518963ffffffff1660e01b8152600401612dda98979695949392919061512c565b6000604051808303816000875af1158015612df9573d6000803e3d6000fd5b505050506040513d6000823e601f3d908101601f19168201604052612e2191908101906152c0565b9998505050505050505050565b6060816001600160401b03811115612e4857612e48614b50565b604051908082528060200260200182016040528015612e71578160200160208202803683370190505b50905060005b82811015612f0957612eda85858584818110612e9557612e95614d29565b612eab92602060409092020190810191506140dc565b868685818110612ebd57612ebd614d29565b9050604002016020016020810190612ed591906140dc565b6131e5565b828281518110612eec57612eec614d29565b602090810291909101015280612f0181614d72565b915050612e77565b509392505050565b60606112478383604051806060016040528060278152602001615e6b60279139613430565b606080612f8b84846000604051908082528060200260200182016040528015612f8557816020015b6040805180820190915260008082526020820152815260200190600190039081612f5e5790505b50613504565b50909590945092505050565b6001600160a01b038116612fed5760405162461bcd60e51b815260206004820152601860248201527f476f7665726e61626c653a207a65726f2061646472657373000000000000000060448201526064016108a5565b600180546001600160a01b0319166001600160a01b0383169081179091556040519081527f56bddfa0cee9697cebddf9acd7f23dc6583663b05e007b877056d05017994def9060200160405180910390a150565b6000613096826040518060400160405280602081526020017f5361666545524332303a206c6f772d6c6576656c2063616c6c206661696c6564815250856001600160a01b03166135899092919063ffffffff16565b805190915015610b6b57808060200190518101906130b49190615877565b610b6b5760405162461bcd60e51b815260206004820152602a60248201527f5361666545524332303a204552433230206f7065726174696f6e20646964206e6044820152691bdd081cdd58d8d9595960b21b60648201526084016108a5565b6001600160a01b03811660009081526001830160205260408120541515611247565b6040516001600160a01b038316602482015260448101829052610b6b90849063a9059cbb60e01b90606401612098565b6000826001600160a01b03166000836040516131819190615c6f565b60006040518083038185875af1925050503d80600081146131be576040519150601f19603f3d011682016040523d82523d6000602084013e6131c3565b606091505b5050905080610b6b5760405163254a88ad60e01b815260040160405180910390fd5b60008060006131f48585613598565b60405163582cf84b60e01b81526001600160a01b038084166004830152808316602483015292945090925060009188169063582cf84b90604401602060405180830381865afa15801561324b573d6000803e3d6000fd5b505050506040513d601f19601f8201168201806040525081019061326f9190615c81565b9050600160f81b60005b6001600160f81b03198083169084161080159061329f57506001600160f81b0319821615155b1561342057816001600160f81b0319168284166001600160f81b031916141561340a576040516304045d4760e51b81526001600160a01b03898116600483015288811660248301526001600160f81b031984166044830152600091908b169063808ba8e090606401608060405180830381865afa158015613324573d6000803e3d6000fd5b505050506040513d601f19601f820116820180604052508101906133489190615cb3565b90506000613355846135c9565b905060008182846040015161336a9190615d16565b613375906001615d47565b61337f9190615d6f565b63ffffffff169050600083602001516001600160e01b031611806133b05750600083606001516001600160e01b0316115b156133e5574281116133cc578398505050505050505050611247565b6133d64282615a5f565b98505050505050505050611247565b428111156134065783156133f95783613403565b6134034282615a5f565b93505b5050505b6001826001600160f81b031916901b9150613279565b5060001998975050505050505050565b6060833b61348f5760405162461bcd60e51b815260206004820152602660248201527f416464726573733a2064656c65676174652063616c6c20746f206e6f6e2d636f6044820152651b9d1c9858dd60d21b60648201526084016108a5565b600080856001600160a01b0316856040516134aa9190615c6f565b600060405180830381855af49150503d80600081146134e5576040519150601f19603f3d011682016040523d82523d6000602084013e6134ea565b606091505b50915091506134fa8282866136dd565b9695505050505050565b60608060606135658686808060200260200160405190810160405280939291908181526020016000905b8282101561355a5761354b60408302860136819003810190615d9b565b8152602001906001019061352e565b505050505085613716565b9250613572868685613bf9565b915061357e8484613e8a565b905093509350939050565b6060611cc68484600085613f8f565b600080826001600160a01b0316846001600160a01b0316106135bb5782846135be565b83835b909590945092505050565b6000600160f81b6001600160f81b0319831614156135e95750603c919050565b600160f91b6001600160f81b031983161415613608575061012c919050565b600160fa1b6001600160f81b0319831614156136275750610384919050565b600160fb1b6001600160f81b0319831614156136465750610708919050565b600160fc1b6001600160f81b0319831614156136655750610e10919050565b600160fd1b6001600160f81b0319831614156136845750613840919050565b600160fe1b6001600160f81b0319831614156136a4575062015180919050565b600160ff1b6001600160f81b0319831614156136c4575062093a80919050565b60405163bf3cad0b60e01b815260040160405180910390fd5b606083156136ec575081611247565b8251156136fc5782518084602001fd5b8160405162461bcd60e51b81526004016108a59190615ddc565b606060008083518551600261372b9190615def565b6137359190615907565b6001600160401b0381111561374c5761374c614b50565b604051908082528060200260200182016040528015613775578160200160208202803683370190505b50905060005b855181101561394f5760008060005b85811080156137a0575082801561379e5750815b155b1561387557821580156137fa57508884815181106137c0576137c0614d29565b6020026020010151600001516001600160a01b03168582815181106137e7576137e7614d29565b60200260200101516001600160a01b0316145b1561380457600192505b81158015613859575088848151811061381f5761381f614d29565b6020026020010151602001516001600160a01b031685828151811061384657613846614d29565b60200260200101516001600160a01b0316145b1561386357600191505b8061386d81614d72565b91505061378a565b50816138d85787838151811061388d5761388d614d29565b6020026020010151600001518486806138a590614d72565b9750815181106138b7576138b7614d29565b60200260200101906001600160a01b031690816001600160a01b0316815250505b8061393a578783815181106138ef576138ef614d29565b60200260200101516020015184868061390790614d72565b97508151811061391957613919614d29565b60200260200101906001600160a01b031690816001600160a01b0316815250505b5050808061394790614d72565b91505061377b565b5060005b8451811015613a4f576000805b848110801561396d575081155b156139d95786838151811061398457613984614d29565b6020026020010151600001516001600160a01b03168482815181106139ab576139ab614d29565b60200260200101516001600160a01b031614156139c757600191505b806139d181614d72565b915050613960565b5080613a3c578582815181106139f1576139f1614d29565b602002602001015160000151838580613a0990614d72565b965081518110613a1b57613a1b614d29565b60200260200101906001600160a01b031690816001600160a01b0316815250505b5080613a4781614d72565b915050613953565b50816001600160401b03811115613a6857613a68614b50565b604051908082528060200260200182016040528015613a91578160200160208202803683370190505b50925060005b82811015613bf0576000828281518110613ab357613ab3614d29565b6020026020010151905060005b816001600160a01b0316868281518110613adc57613adc614d29565b60200260200101516001600160a01b0316108015613b26575060006001600160a01b0316868281518110613b1257613b12614d29565b60200260200101516001600160a01b031614155b15613b3d5780613b3581614d72565b915050613ac0565b825b81811115613ba75786613b53600183615a5f565b81518110613b6357613b63614d29565b6020026020010151878281518110613b7d57613b7d614d29565b6001600160a01b039092166020928302919091019091015280613b9f81615e0e565b915050613b3f565b5081868281518110613bbb57613bbb614d29565b60200260200101906001600160a01b031690816001600160a01b03168152505050508080613be890614d72565b915050613a97565b50505092915050565b6060826001600160401b03811115613c1357613c13614b50565b604051908082528060200260200182016040528015613c5857816020015b6040805180820190915260008082526020820152815260200190600190039081613c315790505b5090506000805b83518160ff16101561186e576000613c78826001615e25565b90505b84518160ff161015613e775760005b86811015613e6457878782818110613ca457613ca4614d29565b613cba92602060409092020190810191506140dc565b6001600160a01b0316868460ff1681518110613cd857613cd8614d29565b60200260200101516001600160a01b0316148015613d4c5750878782818110613d0357613d03614d29565b9050604002016020016020810190613d1b91906140dc565b6001600160a01b0316868360ff1681518110613d3957613d39614d29565b60200260200101516001600160a01b0316145b80613e0c5750878782818110613d6457613d64614d29565b9050604002016020016020810190613d7c91906140dc565b6001600160a01b0316868460ff1681518110613d9a57613d9a614d29565b60200260200101516001600160a01b0316148015613e0c5750878782818110613dc557613dc5614d29565b613ddb92602060409092020190810191506140dc565b6001600160a01b0316868360ff1681518110613df957613df9614d29565b60200260200101516001600160a01b0316145b15613e52576040805180820190915260ff8085168252831660208201528585613e3481614d72565b965081518110613e4657613e46614d29565b60200260200101819052505b80613e5c81614d72565b915050613c8a565b5080613e6f81615e4a565b915050613c7b565b5080613e8281615e4a565b915050613c5f565b606081516001600160401b03811115613ea557613ea5614b50565b604051908082528060200260200182016040528015613ece578160200160208202803683370190505b50905060005b83518110156115c15760005b848281518110613ef257613ef2614d29565b6020026020010151600001516001600160a01b0316848281518110613f1957613f19614d29565b60200260200101516001600160a01b031614613f415780613f3981614d72565b915050613ee0565b848281518110613f5357613f53614d29565b602002602001015160200151838281518110613f7157613f71614d29565b60209081029190910101525080613f8781614d72565b915050613ed4565b606082471015613ff05760405162461bcd60e51b815260206004820152602660248201527f416464726573733a20696e73756666696369656e742062616c616e636520666f6044820152651c8818d85b1b60d21b60648201526084016108a5565b843b61403e5760405162461bcd60e51b815260206004820152601d60248201527f416464726573733a2063616c6c20746f206e6f6e2d636f6e747261637400000060448201526064016108a5565b600080866001600160a01b0316858760405161405a9190615c6f565b60006040518083038185875af1925050503d8060008114614097576040519150601f19603f3d011682016040523d82523d6000602084013e61409c565b606091505b50915091506140ac8282866136dd565b979650505050505050565b6001600160a01b0381168114611b7657600080fd5b80356140d7816140b7565b919050565b6000602082840312156140ee57600080fd5b8135611247816140b7565b60008060006060848603121561410e57600080fd5b833592506020840135614120816140b7565b91506040840135614130816140b7565b809150509250925092565b63ffffffff81168114611b7657600080fd5b8015158114611b7657600080fd5b6000806000806080858703121561417157600080fd5b8435935060208501359250604085013561418a8161413b565b9150606085013561419a8161414d565b939692955090935050565b60008083601f8401126141b757600080fd5b5081356001600160401b038111156141ce57600080fd5b6020830191508360208260051b85010111156141e957600080fd5b9250929050565b6000806000806040858703121561420657600080fd5b84356001600160401b038082111561421d57600080fd5b614229888389016141a5565b9096509450602087013591508082111561424257600080fd5b5061424f878288016141a5565b95989497509550505050565b60008060006060848603121561427057600080fd5b833561427b816140b7565b9250602084013561428b816140b7565b929592945050506040919091013590565b600080604083850312156142af57600080fd5b8235915060208301356142c1816140b7565b809150509250929050565b60008060008060008060008060e0898b0312156142e857600080fd5b88356142f3816140b7565b97506020890135614303816140b7565b965060408901359550606089013561431a8161413b565b9450608089013561432a8161413b565b935060a089013561433a816140b7565b925060c08901356001600160401b0381111561435557600080fd5b6143618b828c016141a5565b999c989b5096995094979396929594505050565b6000806000806080858703121561438b57600080fd5b843593506020850135925060408501356143a48161413b565b9150606085013561419a816140b7565b60008083601f8401126143c657600080fd5b5081356001600160401b038111156143dd57600080fd5b6020830191508360208285010111156141e957600080fd5b60008060008060008060006080888a03121561441057600080fd5b873561441b816140b7565b965060208801356001600160401b038082111561443757600080fd5b818a0191508a601f83011261444b57600080fd5b81358181111561445a57600080fd5b8b60208260071b850101111561446f57600080fd5b6020830198508097505060408a013591508082111561448d57600080fd5b6144998b838c016141a5565b909650945060608a01359150808211156144b257600080fd5b506144bf8a828b016143b4565b989b979a50959850939692959293505050565b600080604083850312156144e557600080fd5b82356144f0816140b7565b915060208301356142c18161414d565b60008083601f84011261451257600080fd5b5081356001600160401b0381111561452957600080fd5b6020830191508360208260061b85010111156141e957600080fd5b60008060008060008060008060008060e08b8d03121561456357600080fd5b8a3561456e816140b7565b995060208b01356001600160401b038082111561458a57600080fd5b6145968e838f016141a5565b909b50995060408d01359150808211156145af57600080fd5b6145bb8e838f01614500565b909950975060608d01359150808211156145d457600080fd5b506145e18d828e016141a5565b90965094505060808b01356145f58161414d565b925061460360a08c016140cc565b915060c08b013590509295989b9194979a5092959850565b600081518084526020808501945080840160005b8381101561468b57815180516001600160a01b03908116895284820151168489015260408082015190890152606080820151908901526080908101516001600160f81b0319169088015260a0909601959082019060010161462f565b509495945050505050565b600060208083526060808401855160408085880152828251808552608094508489019150868401935060005b8181101561470057845180516001600160a01b03168452888101518985015284810151858501528701518784015293870193918501916001016146c2565b505094880151878603601f19018289015294612e21818761461b565b6000806020838503121561472f57600080fd5b82356001600160401b0381111561474557600080fd5b61475185828601614500565b90969095509350505050565b600081518084526020808501945080840160005b8381101561468b57815187529582019590820190600101614771565b602081526000611247602083018461475d565b60008060008060008060008060008060c08b8d0312156147bf57600080fd5b8a356001600160401b03808211156147d657600080fd5b6147e28e838f016141a5565b909c509a5060208d01359150808211156147fb57600080fd5b6148078e838f01614500565b909a50985060408d013591508082111561482057600080fd5b61482c8e838f016141a5565b909850965060608d013591508082111561484557600080fd5b506148528d828e016141a5565b9095509350614865905060808c016140cc565b915060a08b013590509295989b9194979a5092959850565b6000806020838503121561489057600080fd5b82356001600160401b038111156148a657600080fd5b614751858286016141a5565b60005b838110156148cd5781810151838201526020016148b5565b838111156120cf5750506000910152565b600081518084526148f68160208601602086016148b2565b601f01601f19169290920160200192915050565b6000602080830181845280855180835260408601915060408160051b870101925083870160005b8281101561495f57603f1988860301845261494d8583516148de565b94509285019290850190600101614931565b5092979650505050505050565b803560ff811681146140d757600080fd5b600080600080600080600060c0888a03121561499857600080fd5b87356001600160401b038111156149ae57600080fd5b6149ba8a828b016141a5565b90985096505060208801359450604088013593506149da6060890161496c565b92506080880135915060a0880135905092959891949750929550565b600080600060408486031215614a0b57600080fd5b83356001600160401b03811115614a2157600080fd5b614a2d868287016141a5565b9094509250506020840135614130816140b7565b600080600060608486031215614a5657600080fd5b833592506020840135915060408401356141308161413b565b60008060008060008060008060006101008a8c031215614a8e57600080fd5b8935614a99816140b7565b985060208a0135614aa9816140b7565b975060408a0135965060608a0135614ac08161413b565b955060808a0135614ad08161413b565b945060a08a0135614ae0816140b7565b935060c08a01356001600160401b03811115614afb57600080fd5b614b078c828d016141a5565b90945092505060e08a0135614b1b8161414d565b809150509295985092959850929598565b60008060408385031215614b3f57600080fd5b505080516020909101519092909150565b634e487b7160e01b600052604160045260246000fd5b604080519081016001600160401b0381118282101715614b8857614b88614b50565b60405290565b60405160a081016001600160401b0381118282101715614b8857614b88614b50565b604051608081016001600160401b0381118282101715614b8857614b88614b50565b604051601f8201601f191681016001600160401b0381118282101715614bfa57614bfa614b50565b604052919050565b80516140d7816140b7565b80516140d78161413b565b80516effffffffffffffffffffffffffffff811681146140d757600080fd5b6000610100808385031215614c4b57600080fd5b604051908101906001600160401b0382118183101715614c6d57614c6d614b50565b8160405283519150614c7e826140b7565b818152614c8d60208501614c02565b6020820152614c9e60408501614c0d565b6040820152614caf60608501614c0d565b606082015260808401516080820152614cca60a08501614c0d565b60a082015260c084015160c0820152614ce560e08501614c18565b60e0820152949350505050565b60208082526019908201527f476f7665726e61626c653a206f6e6c7920676f7665726e6f7200000000000000604082015260600190565b634e487b7160e01b600052603260045260246000fd5b600060208284031215614d5157600080fd5b81356112478161414d565b634e487b7160e01b600052601160045260246000fd5b6000600019821415614d8657614d86614d5c565b5060010190565b8183526000602080850194508260005b8581101561468b578135614db0816140b7565b6001600160a01b031687529582019590820190600101614d9d565b604081526000614ddf604083018688614d8d565b8281036020848101919091528482528591810160005b86811015614e1c578335614e088161414d565b151582529282019290820190600101614df5565b5098975050505050505050565b600060208284031215614e3b57600080fd5b5051919050565b634e487b7160e01b600052602160045260246000fd5b60048110614e6857614e68614e42565b9052565b600060e0820160018060a01b03808b1684526020818b168186015260408a81870152606063ffffffff808c1682890152808b1660808901525083891660a088015260e060c088015284885180875261010096508689019150868160051b8a01019650848a016000805b83811015614f46578b8a0360ff19018552825180518a168b52880151888b018890528051888c01819052908901908390888d01905b80831015614f3157614f1d828551614e58565b928b019260019290920191908b0190614f0a565b509b5050509387019391870191600101614ed5565b5050505050505050508091505098975050505050505050565b60006001600160401b03821115614f7857614f78614b50565b50601f01601f191660200190565b600082601f830112614f9757600080fd5b8135614faa614fa582614f5f565b614bd2565b818152846020838601011115614fbf57600080fd5b816020850160208301376000918101602001919091529392505050565b600060208284031215614fee57600080fd5b81356001600160401b038082111561500557600080fd5b908301906040828603121561501957600080fd5b615021614b66565b82356003811061503057600080fd5b815260208301358281111561504457600080fd5b61505087828601614f86565b60208301525095945050505050565b60006001600160401b0382111561507857615078614b50565b5060051b60200190565b6000615090614fa58461505f565b80848252602080830192508560051b8501368111156150ae57600080fd5b855b818110156150e95780356001600160401b038111156150cf5760008081fd5b6150db36828a01614f86565b8652509382019382016150b0565b50919695505050505050565b60208152600082516003811061510d5761510d614e42565b806020840152506020830151604080840152611cc660608401826148de565b60c08152600061514060c083018a8c614d8d565b8281036020848101919091528882528991810160005b8a8110156151915760ff8061516a8661496c565b1683528061517985870161496c565b16838501525060409384019390910190600101615156565b506001600160a01b03891660408601526001600160a01b038816606086015284810360808601526151c2818861475d565b9250505082810360a08401526151d881856148de565b9b9a5050505050505050505050565b80516001600160f81b0319811681146140d757600080fd5b600082601f83011261521057600080fd5b81516020615220614fa58361505f565b82815260a0928302850182019282820191908785111561523f57600080fd5b8387015b858110156152b35781818a03121561525b5760008081fd5b615263614b8e565b815161526e816140b7565b81528186015161527d816140b7565b81870152604082810151908201526060808301519082015260806152a28184016151e7565b908201528452928401928101615243565b5090979650505050505050565b600060208083850312156152d357600080fd5b82516001600160401b03808211156152ea57600080fd5b8185019150604080838803121561530057600080fd5b615308614b66565b83518381111561531757600080fd5b8401601f8101891361532857600080fd5b8051615336614fa58261505f565b81815260079190911b8201870190878101908b83111561535557600080fd5b928801925b828410156153b3576080848d0312156153735760008081fd5b61537b614bb0565b8451615386816140b7565b8152848a01518a82015286850151878201526060808601519082015282526080909301929088019061535a565b8452505050838501519150828211156153cb57600080fd5b6153d7888386016151ff565b85820152809550505050505092915050565b6000808335601e1984360301811261540057600080fd5b8301803591506001600160401b0382111561541a57600080fd5b6020019150368190038213156141e957600080fd5b6000808335601e1984360301811261544657600080fd5b83016020810192503590506001600160401b0381111561546557600080fd5b8060051b36038313156141e957600080fd5b8035600481106140d757600080fd5b60008235603e1983360301811261549c57600080fd5b90910192915050565b81835260006020808501808196508560051b81019150846000805b88811015615552578385038a526154d78389615486565b604080870182356154e7816140b7565b6001600160a01b031688526154fe838a018461542f565b898b0193909352908290529091506060870190845b8381101561553d5761552d8361552884615477565b614e58565b9189019190890190600101615513565b50509a87019a955050918501916001016154c0565b509298975050505050505050565b60c08152600061557460c08301898b6154a5565b602083019790975250604081019490945260ff929092166060840152608083015260a09091015292915050565b6000604080830181845280865180835260608601915060608160051b8701019250602080890160005b8381101561561257888603605f19018552815180516001600160a01b031687528301518387018890526155ff8888018261475d565b96505093820193908201906001016155ca565b50506001600160a01b0397909716959096019490945295945050505050565b6000602080838503121561564457600080fd5b82516001600160401b0381111561565a57600080fd5b8301601f8101851361566b57600080fd5b8051615679614fa58261505f565b81815260059190911b8201830190838101908783111561569857600080fd5b928401925b828410156140ac5783518252928401929084019061569d565b60408082528351828201819052600091906020906060850190828801855b828110156156f95781516001600160a01b0316845292840192908401906001016156d4565b5050508481038286015285518082528683019183019060005b8181101561573e578351805160ff90811685529086015116858401529284019291850191600101615712565b509098975050505050505050565b60008235603e1983360301811261576257600080fd5b9190910192915050565b6000808335601e1984360301811261578357600080fd5b8301803591506001600160401b0382111561579d57600080fd5b6020019150600581901b36038213156141e957600080fd5b60408082528181018490526000906060808401600587811b860183018986805b8b81101561585957898403605f190186526157f0838e615486565b80356157fb816140b7565b6001600160a01b0316855260206158148282018361542f565b8783018c9052878c0181905292506001600160fb1b03831115615835578485fd5b91871b918281888c01375094018701828152958401959392909201916001016157d5565b5050506001600160a01b03881660208801529450611cc69350505050565b60006020828403121561588957600080fd5b81516112478161414d565b6001600160a01b03898116825288811660208301526040820188905263ffffffff878116606084015286166080830152841660a082015260e060c08201819052600090611e4690830184866154a5565b8381526001600160a01b038316602082015260608101611cc66040830184614e58565b6000821982111561591a5761591a614d5c565b500190565b60006040823603121561593157600080fd5b615939614b66565b8235615944816140b7565b81526020838101356001600160401b0381111561596057600080fd5b840136601f82011261597157600080fd5b803561597f614fa58261505f565b81815260059190911b8201830190838101903683111561599e57600080fd5b928401925b828410156159c3576159b484615477565b825292840192908401906159a3565b938501939093525091949350505050565b6000604082840312156159e657600080fd5b6159ee614b66565b82516159f9816140b7565b81526020928301519281019290925250919050565b600060808284031215615a2057600080fd5b615a28614bb0565b8235615a33816140b7565b808252506020830135602082015260408301356040820152606083013560608201528091505092915050565b600082821015615a7157615a71614d5c565b500390565b60006020808385031215615a8957600080fd5b82516001600160401b0380821115615aa057600080fd5b9084019060a08287031215615ab457600080fd5b615abc614b8e565b8251615ac7816140b7565b815282840151615ad68161414d565b81850152604083810151615ae98161414d565b828201526060840151615afb816140b7565b6060830152608084015183811115615b1257600080fd5b80850194505087601f850112615b2757600080fd5b8351615b35614fa58261505f565b81815260059190911b8501860190868101908a831115615b5457600080fd5b8787015b83811015615bc557805187811115615b705760008081fd5b8801603f81018d13615b825760008081fd5b89810151615b92614fa582614f5f565b8181528e88838501011115615ba75760008081fd5b615bb6828d83018a86016148b2565b85525050918801918801615b58565b506080850152509198975050505050505050565b6000602080835260c0830160018060a01b038086511683860152828601511515604086015260408601511515606086015280606087015116608086015250608085015160a08086015281815180845260e08701915060e08160051b8801019350848301925060005b8181101561495f5760df19888603018352615c5d8585516148de565b94509285019291850191600101615c41565b600082516157628184602087016148b2565b600060208284031215615c9357600080fd5b611247826151e7565b80516001600160e01b03811681146140d757600080fd5b600060808284031215615cc557600080fd5b615ccd614bb0565b8251615cd88161413b565b8152615ce660208401615c9c565b60208201526040830151615cf98161413b565b6040820152615d0a60608401615c9c565b60608201529392505050565b600063ffffffff80841680615d3b57634e487b7160e01b600052601260045260246000fd5b92169190910492915050565b600063ffffffff808316818516808303821115615d6657615d66614d5c565b01949350505050565b600063ffffffff80831681851681830481118215151615615d9257615d92614d5c565b02949350505050565b600060408284031215615dad57600080fd5b615db5614b66565b8235615dc0816140b7565b81526020830135615dd0816140b7565b60208201529392505050565b60208152600061124760208301846148de565b6000816000190483118215151615615e0957615e09614d5c565b500290565b600081615e1d57615e1d614d5c565b506000190190565b600060ff821660ff84168060ff03821115615e4257615e42614d5c565b019392505050565b600060ff821660ff811415615e6157615e61614d5c565b6001019291505056fe416464726573733a206c6f772d6c6576656c2064656c65676174652063616c6c206661696c6564a26469706673582212201a3ef8e79586a01196b9ebcd20f39ad00dd07170764406fdf83f2f0019dab73364736f6c634300080a0033",
  "linkReferences": {},
  "deployedLinkReferences": {}
}