{
  "_format": "hh-sol-artifact-1",
  "contractName": "OracleAggregator",
  "sourceName": "contracts/oracles/OracleAggregator.sol",
  "abi": [
    {
      "inputs": [
        {
          "internalType": "contract IPriceOracle",
          "name": "_oracle1",
          "type": "address"
        },
        {
          "internalType": "contract IPriceOracle",
          "name": "_oracle2",
          "type": "address"
        },
        {
          "internalType": "address",
          "name": "_governor",
          "type": "address"
        }
      ],
      "stateMutability": "nonpayable",
      "type": "constructor"
    },
    {
      "anonymous": false,
      "inputs": [],
      "name": "PendingGovernorAccepted",
      "type": "event"
    },
    {
      "anonymous": false,
      "inputs": [
        {
          "indexed": false,
          "internalType": "address",
          "name": "pendingGovernor",
          "type": "address"
        }
      ],
      "name": "PendingGovernorSet",
      "type": "event"
    },
    {
      "inputs": [],
      "name": "acceptPendingGovernor",
      "outputs": [],
      "stateMutability": "nonpayable",
      "type": "function"
    },
    {
      "inputs": [
        {
          "internalType": "address",
          "name": "_tokenA",
          "type": "address"
        },
        {
          "internalType": "address",
          "name": "_tokenB",
          "type": "address"
        }
      ],
      "name": "addSupportForPairIfNeeded",
      "outputs": [],
      "stateMutability": "nonpayable",
      "type": "function"
    },
    {
      "inputs": [
        {
          "internalType": "address",
          "name": "_tokenA",
          "type": "address"
        },
        {
          "internalType": "address",
          "name": "_tokenB",
          "type": "address"
        }
      ],
      "name": "canSupportPair",
      "outputs": [
        {
          "internalType": "bool",
          "name": "",
          "type": "bool"
        }
      ],
      "stateMutability": "view",
      "type": "function"
    },
    {
      "inputs": [],
      "name": "governor",
      "outputs": [
        {
          "internalType": "address",
          "name": "",
          "type": "address"
        }
      ],
      "stateMutability": "view",
      "type": "function"
    },
    {
      "inputs": [
        {
          "internalType": "address",
          "name": "_account",
          "type": "address"
        }
      ],
      "name": "isGovernor",
      "outputs": [
        {
          "internalType": "bool",
          "name": "_isGovernor",
          "type": "bool"
        }
      ],
      "stateMutability": "view",
      "type": "function"
    },
    {
      "inputs": [
        {
          "internalType": "address",
          "name": "_account",
          "type": "address"
        }
      ],
      "name": "isPendingGovernor",
      "outputs": [
        {
          "internalType": "bool",
          "name": "_isPendingGovernor",
          "type": "bool"
        }
      ],
      "stateMutability": "view",
      "type": "function"
    },
    {
      "inputs": [],
      "name": "oracle1",
      "outputs": [
        {
          "internalType": "contract IPriceOracle",
          "name": "",
          "type": "address"
        }
      ],
      "stateMutability": "view",
      "type": "function"
    },
    {
      "inputs": [],
      "name": "oracle2",
      "outputs": [
        {
          "internalType": "contract IPriceOracle",
          "name": "",
          "type": "address"
        }
      ],
      "stateMutability": "view",
      "type": "function"
    },
    {
      "inputs": [
        {
          "internalType": "address",
          "name": "",
          "type": "address"
        },
        {
          "internalType": "address",
          "name": "",
          "type": "address"
        }
      ],
      "name": "oracleInUse",
      "outputs": [
        {
          "internalType": "enum IOracleAggregator.OracleInUse",
          "name": "",
          "type": "uint8"
        }
      ],
      "stateMutability": "view",
      "type": "function"
    },
    {
      "inputs": [
        {
          "internalType": "address",
          "name": "_tokenA",
          "type": "address"
        },
        {
          "internalType": "address",
          "name": "_tokenB",
          "type": "address"
        }
      ],
      "name": "overrideDefault",
      "outputs": [],
      "stateMutability": "nonpayable",
      "type": "function"
    },
    {
      "inputs": [],
      "name": "pendingGovernor",
      "outputs": [
        {
          "internalType": "address",
          "name": "",
          "type": "address"
        }
      ],
      "stateMutability": "view",
      "type": "function"
    },
    {
      "inputs": [
        {
          "internalType": "address",
          "name": "_tokenIn",
          "type": "address"
        },
        {
          "internalType": "uint128",
          "name": "_amountIn",
          "type": "uint128"
        },
        {
          "internalType": "address",
          "name": "_tokenOut",
          "type": "address"
        }
      ],
      "name": "quote",
      "outputs": [
        {
          "internalType": "uint256",
          "name": "_amountOut",
          "type": "uint256"
        }
      ],
      "stateMutability": "view",
      "type": "function"
    },
    {
      "inputs": [
        {
          "internalType": "address",
          "name": "_tokenA",
          "type": "address"
        },
        {
          "internalType": "address",
          "name": "_tokenB",
          "type": "address"
        }
      ],
      "name": "reconfigureSupportForPair",
      "outputs": [],
      "stateMutability": "nonpayable",
      "type": "function"
    },
    {
      "inputs": [
        {
          "internalType": "address",
          "name": "__pendingGovernor",
          "type": "address"
        }
      ],
      "name": "setPendingGovernor",
      "outputs": [],
      "stateMutability": "nonpayable",
      "type": "function"
    }
  ],
  "bytecode": "0x60c060405234801561001057600080fd5b50604051610ec6380380610ec683398101604081905261002f91610129565b806001600160a01b03811661008b5760405162461bcd60e51b815260206004820152601860248201527f476f7665726e61626c653a207a65726f2061646472657373000000000000000060448201526064015b60405180910390fd5b600080546001600160a01b0319166001600160a01b039283161790558316158015906100bf57506001600160a01b03821615155b6100f95760405162461bcd60e51b815260206004820152600b60248201526a5a65726f4164647265737360a81b6044820152606401610082565b506001600160a01b039182166080521660a052610176565b6001600160a01b038116811461012657600080fd5b50565b60008060006060848603121561013e57600080fd5b835161014981610111565b602085015190935061015a81610111565b604085015190925061016b81610111565b809150509250925092565b60805160a051610cf36101d3600039600081816101e6015281816103810152818161050a0152818161076d0152610a4c01526000818161017101528181610470015281816106c1015281816108fe01526109950152610cf36000f3fe608060405234801561001057600080fd5b50600436106100ea5760003560e01c80637f55db3a1161008c578063df08aed511610066578063df08aed514610229578063e3056a341461024b578063e43581b81461025c578063f235757f1461027e57600080fd5b80637f55db3a146101ce578063996f7d3a146101e1578063a513355f1461020857600080fd5b806372c12c87116100c857806372c12c8714610136578063734273fd14610149578063747a0c3a1461016c5780637aa3d48d1461019357600080fd5b80630c340a24146100ef57806313f6986d14610119578063678b733514610123575b600080fd5b6000546001600160a01b03165b6040516001600160a01b0390911681526020015b60405180910390f35b610121610291565b005b610121610131366004610ba5565b610304565b610121610144366004610ba5565b610425565b61015c610157366004610ba5565b610446565b6040519015158152602001610110565b6100fc7f000000000000000000000000000000000000000000000000000000000000000081565b6101c16101a1366004610ba5565b600260209081526000928352604080842090915290825290205460ff1681565b6040516101109190610bee565b6101216101dc366004610ba5565b61057c565b6100fc7f000000000000000000000000000000000000000000000000000000000000000081565b61021b610216366004610c16565b6105db565b604051908152602001610110565b61015c610237366004610c67565b6001546001600160a01b0391821691161490565b6001546001600160a01b03166100fc565b61015c61026a366004610c67565b6000546001600160a01b0391821691161490565b61012161028c366004610c67565b61079c565b6001546001600160a01b031633146102fa5760405162461bcd60e51b815260206004820152602160248201527f476f7665726e61626c653a206f6e6c792070656e64696e6720676f7665726e6f6044820152603960f91b60648201526084015b60405180910390fd5b6103026107fe565b565b6000546001600160a01b0316331461035a5760405162461bcd60e51b815260206004820152601960248201527823b7bb32b93730b136329d1037b7363c9033b7bb32b93737b960391b60448201526064016102f1565b6040516372c12c8760e01b81526001600160a01b03838116600483015282811660248301527f000000000000000000000000000000000000000000000000000000000000000016906372c12c8790604401600060405180830381600087803b1580156103c557600080fd5b505af11580156103d9573d6000803e3d6000fd5b505050506000806103ea84846108a6565b6001600160a01b0391821660009081526002602081815260408084209490951683529290925291909120805460ff1916909117905550505050565b60008061043284846108a6565b9150915061044082826108d7565b50505050565b60405163734273fd60e01b81526001600160a01b03838116600483015282811660248301526000917f00000000000000000000000000000000000000000000000000000000000000009091169063734273fd90604401602060405180830381865afa1580156104b9573d6000803e3d6000fd5b505050506040513d601f19601f820116820180604052508101906104dd9190610c82565b80610575575060405163734273fd60e01b81526001600160a01b03848116600483015283811660248301527f0000000000000000000000000000000000000000000000000000000000000000169063734273fd90604401602060405180830381865afa158015610551573d6000803e3d6000fd5b505050506040513d601f19601f820116820180604052508101906105759190610c82565b9392505050565b60008061058984846108a6565b909250905060006001600160a01b03808416600090815260026020818152604080842094871684529390529190205460ff16908111156105cb576105cb610bd8565b14156104405761044082826108d7565b60008060006105ea86856108a6565b6001600160a01b03808316600090815260026020908152604080832093851683529290529081205492945090925060ff9091169081600281111561063057610630610bd8565b14156106715760405162461bcd60e51b815260206004820152601060248201526f14185a5c939bdd14dd5c1c1bdc9d195960821b60448201526064016102f1565b600181600281111561068557610685610bd8565b14156107375760405163a513355f60e01b81526001600160a01b0388811660048301526001600160801b038816602483015286811660448301527f0000000000000000000000000000000000000000000000000000000000000000169063a513355f906064015b602060405180830381865afa158015610709573d6000803e3d6000fd5b505050506040513d601f19601f8201168201806040525081019061072d9190610ca4565b9350505050610575565b60405163a513355f60e01b81526001600160a01b0388811660048301526001600160801b038816602483015286811660448301527f0000000000000000000000000000000000000000000000000000000000000000169063a513355f906064016106ec565b6000546001600160a01b031633146107f25760405162461bcd60e51b815260206004820152601960248201527823b7bb32b93730b136329d1037b7363c9033b7bb32b93737b960391b60448201526064016102f1565b6107fb81610adf565b50565b6001546001600160a01b03166108565760405162461bcd60e51b815260206004820152601f60248201527f476f7665726e61626c653a206e6f2070656e64696e6720676f7665726e6f720060448201526064016102f1565b60018054600080546001600160a01b03199081166001600160a01b0384161782559091169091556040517fdc57ca23c46d823853915ed5a090ca0ee9db5eb6a46f5c58e1c9158de861fd769190a1565b600080826001600160a01b0316846001600160a01b0316106108c95782846108cc565b83835b909590945092505050565b60405163734273fd60e01b81526001600160a01b03838116600483015282811660248301527f0000000000000000000000000000000000000000000000000000000000000000169063734273fd90604401602060405180830381865afa158015610945573d6000803e3d6000fd5b505050506040513d601f19601f820116820180604052508101906109699190610c82565b15610a25576040516372c12c8760e01b81526001600160a01b03838116600483015282811660248301527f000000000000000000000000000000000000000000000000000000000000000016906372c12c8790604401600060405180830381600087803b1580156109d957600080fd5b505af11580156109ed573d6000803e3d6000fd5b505050506001600160a01b0391821660009081526002602090815260408083209390941682529190915220805460ff19166001179055565b6040516372c12c8760e01b81526001600160a01b03838116600483015282811660248301527f000000000000000000000000000000000000000000000000000000000000000016906372c12c8790604401600060405180830381600087803b158015610a9057600080fd5b505af1158015610aa4573d6000803e3d6000fd5b505050506001600160a01b0391821660009081526002602081815260408084209490951683529290925291909120805460ff19169091179055565b6001600160a01b038116610b355760405162461bcd60e51b815260206004820152601860248201527f476f7665726e61626c653a207a65726f2061646472657373000000000000000060448201526064016102f1565b600180546001600160a01b0319166001600160a01b0383169081179091556040519081527f56bddfa0cee9697cebddf9acd7f23dc6583663b05e007b877056d05017994def9060200160405180910390a150565b80356001600160a01b0381168114610ba057600080fd5b919050565b60008060408385031215610bb857600080fd5b610bc183610b89565b9150610bcf60208401610b89565b90509250929050565b634e487b7160e01b600052602160045260246000fd5b6020810160038310610c1057634e487b7160e01b600052602160045260246000fd5b91905290565b600080600060608486031215610c2b57600080fd5b610c3484610b89565b925060208401356001600160801b0381168114610c5057600080fd5b9150610c5e60408501610b89565b90509250925092565b600060208284031215610c7957600080fd5b61057582610b89565b600060208284031215610c9457600080fd5b8151801515811461057557600080fd5b600060208284031215610cb657600080fd5b505191905056fea26469706673582212206432762a2fc7eaf8771d95747ef98864614167acdc157885d8617eaba9befec764736f6c634300080a0033",
  "linkReferences": {},
  "deployedLinkReferences": {}
}