{
  "_format": "hh-sol-artifact-1",
  "contractName": "DCAPermissionsManager",
  "sourceName": "contracts/DCAPermissionsManager/DCAPermissionsManager.sol",
  "abi": [
    {
      "inputs": [
        {
          "internalType": "address",
          "name": "_governor",
          "type": "address"
        },
        {
          "internalType": "contract IDCATokenDescriptor",
          "name": "_descriptor",
          "type": "address"
        }
      ],
      "stateMutability": "nonpayable",
      "type": "constructor"
    },
    {
      "inputs": [],
      "name": "ExpiredDeadline",
      "type": "error"
    },
    {
      "inputs": [],
      "name": "HubAlreadySet",
      "type": "error"
    },
    {
      "inputs": [],
      "name": "InvalidSignature",
      "type": "error"
    },
    {
      "inputs": [],
      "name": "NotOwner",
      "type": "error"
    },
    {
      "inputs": [],
      "name": "OnlyHubCanExecute",
      "type": "error"
    },
    {
      "inputs": [],
      "name": "ZeroAddress",
      "type": "error"
    },
    {
      "anonymous": false,
      "inputs": [
        {
          "indexed": true,
          "internalType": "address",
          "name": "owner",
          "type": "address"
        },
        {
          "indexed": true,
          "internalType": "address",
          "name": "approved",
          "type": "address"
        },
        {
          "indexed": true,
          "internalType": "uint256",
          "name": "tokenId",
          "type": "uint256"
        }
      ],
      "name": "Approval",
      "type": "event"
    },
    {
      "anonymous": false,
      "inputs": [
        {
          "indexed": true,
          "internalType": "address",
          "name": "owner",
          "type": "address"
        },
        {
          "indexed": true,
          "internalType": "address",
          "name": "operator",
          "type": "address"
        },
        {
          "indexed": false,
          "internalType": "bool",
          "name": "approved",
          "type": "bool"
        }
      ],
      "name": "ApprovalForAll",
      "type": "event"
    },
    {
      "anonymous": false,
      "inputs": [
        {
          "indexed": false,
          "internalType": "uint256",
          "name": "tokenId",
          "type": "uint256"
        },
        {
          "components": [
            {
              "internalType": "address",
              "name": "operator",
              "type": "address"
            },
            {
              "internalType": "enum IDCAPermissionManager.Permission[]",
              "name": "permissions",
              "type": "uint8[]"
            }
          ],
          "indexed": false,
          "internalType": "struct IDCAPermissionManager.PermissionSet[]",
          "name": "permissions",
          "type": "tuple[]"
        }
      ],
      "name": "Modified",
      "type": "event"
    },
    {
      "anonymous": false,
      "inputs": [
        {
          "indexed": false,
          "internalType": "contract IDCATokenDescriptor",
          "name": "descriptor",
          "type": "address"
        }
      ],
      "name": "NFTDescriptorSet",
      "type": "event"
    },
    {
      "anonymous": false,
      "inputs": [],
      "name": "PendingGovernorAccepted",
      "type": "event"
    },
    {
      "anonymous": false,
      "inputs": [
        {
          "indexed": false,
          "internalType": "address",
          "name": "pendingGovernor",
          "type": "address"
        }
      ],
      "name": "PendingGovernorSet",
      "type": "event"
    },
    {
      "anonymous": false,
      "inputs": [
        {
          "indexed": true,
          "internalType": "address",
          "name": "from",
          "type": "address"
        },
        {
          "indexed": true,
          "internalType": "address",
          "name": "to",
          "type": "address"
        },
        {
          "indexed": true,
          "internalType": "uint256",
          "name": "tokenId",
          "type": "uint256"
        }
      ],
      "name": "Transfer",
      "type": "event"
    },
    {
      "inputs": [],
      "name": "DOMAIN_SEPARATOR",
      "outputs": [
        {
          "internalType": "bytes32",
          "name": "",
          "type": "bytes32"
        }
      ],
      "stateMutability": "view",
      "type": "function"
    },
    {
      "inputs": [],
      "name": "PERMISSION_PERMIT_TYPEHASH",
      "outputs": [
        {
          "internalType": "bytes32",
          "name": "",
          "type": "bytes32"
        }
      ],
      "stateMutability": "view",
      "type": "function"
    },
    {
      "inputs": [],
      "name": "PERMISSION_SET_TYPEHASH",
      "outputs": [
        {
          "internalType": "bytes32",
          "name": "",
          "type": "bytes32"
        }
      ],
      "stateMutability": "view",
      "type": "function"
    },
    {
      "inputs": [],
      "name": "PERMIT_TYPEHASH",
      "outputs": [
        {
          "internalType": "bytes32",
          "name": "",
          "type": "bytes32"
        }
      ],
      "stateMutability": "view",
      "type": "function"
    },
    {
      "inputs": [],
      "name": "acceptPendingGovernor",
      "outputs": [],
      "stateMutability": "nonpayable",
      "type": "function"
    },
    {
      "inputs": [
        {
          "internalType": "address",
          "name": "to",
          "type": "address"
        },
        {
          "internalType": "uint256",
          "name": "tokenId",
          "type": "uint256"
        }
      ],
      "name": "approve",
      "outputs": [],
      "stateMutability": "nonpayable",
      "type": "function"
    },
    {
      "inputs": [
        {
          "internalType": "address",
          "name": "owner",
          "type": "address"
        }
      ],
      "name": "balanceOf",
      "outputs": [
        {
          "internalType": "uint256",
          "name": "",
          "type": "uint256"
        }
      ],
      "stateMutability": "view",
      "type": "function"
    },
    {
      "inputs": [
        {
          "internalType": "uint256",
          "name": "_id",
          "type": "uint256"
        }
      ],
      "name": "burn",
      "outputs": [],
      "stateMutability": "nonpayable",
      "type": "function"
    },
    {
      "inputs": [
        {
          "internalType": "uint256",
          "name": "tokenId",
          "type": "uint256"
        }
      ],
      "name": "getApproved",
      "outputs": [
        {
          "internalType": "address",
          "name": "",
          "type": "address"
        }
      ],
      "stateMutability": "view",
      "type": "function"
    },
    {
      "inputs": [],
      "name": "governor",
      "outputs": [
        {
          "internalType": "address",
          "name": "",
          "type": "address"
        }
      ],
      "stateMutability": "view",
      "type": "function"
    },
    {
      "inputs": [
        {
          "internalType": "uint256",
          "name": "_id",
          "type": "uint256"
        },
        {
          "internalType": "address",
          "name": "_address",
          "type": "address"
        },
        {
          "internalType": "enum IDCAPermissionManager.Permission",
          "name": "_permission",
          "type": "uint8"
        }
      ],
      "name": "hasPermission",
      "outputs": [
        {
          "internalType": "bool",
          "name": "",
          "type": "bool"
        }
      ],
      "stateMutability": "view",
      "type": "function"
    },
    {
      "inputs": [
        {
          "internalType": "uint256",
          "name": "_id",
          "type": "uint256"
        },
        {
          "internalType": "address",
          "name": "_address",
          "type": "address"
        },
        {
          "internalType": "enum IDCAPermissionManager.Permission[]",
          "name": "_permissions",
          "type": "uint8[]"
        }
      ],
      "name": "hasPermissions",
      "outputs": [
        {
          "internalType": "bool[]",
          "name": "_hasPermissions",
          "type": "bool[]"
        }
      ],
      "stateMutability": "view",
      "type": "function"
    },
    {
      "inputs": [],
      "name": "hub",
      "outputs": [
        {
          "internalType": "address",
          "name": "",
          "type": "address"
        }
      ],
      "stateMutability": "view",
      "type": "function"
    },
    {
      "inputs": [
        {
          "internalType": "address",
          "name": "owner",
          "type": "address"
        },
        {
          "internalType": "address",
          "name": "operator",
          "type": "address"
        }
      ],
      "name": "isApprovedForAll",
      "outputs": [
        {
          "internalType": "bool",
          "name": "",
          "type": "bool"
        }
      ],
      "stateMutability": "view",
      "type": "function"
    },
    {
      "inputs": [
        {
          "internalType": "address",
          "name": "_account",
          "type": "address"
        }
      ],
      "name": "isGovernor",
      "outputs": [
        {
          "internalType": "bool",
          "name": "_isGovernor",
          "type": "bool"
        }
      ],
      "stateMutability": "view",
      "type": "function"
    },
    {
      "inputs": [
        {
          "internalType": "address",
          "name": "_account",
          "type": "address"
        }
      ],
      "name": "isPendingGovernor",
      "outputs": [
        {
          "internalType": "bool",
          "name": "_isPendingGovernor",
          "type": "bool"
        }
      ],
      "stateMutability": "view",
      "type": "function"
    },
    {
      "inputs": [
        {
          "internalType": "uint256",
          "name": "",
          "type": "uint256"
        }
      ],
      "name": "lastOwnershipChange",
      "outputs": [
        {
          "internalType": "uint256",
          "name": "",
          "type": "uint256"
        }
      ],
      "stateMutability": "view",
      "type": "function"
    },
    {
      "inputs": [
        {
          "internalType": "uint256",
          "name": "_id",
          "type": "uint256"
        },
        {
          "internalType": "address",
          "name": "_owner",
          "type": "address"
        },
        {
          "components": [
            {
              "internalType": "address",
              "name": "operator",
              "type": "address"
            },
            {
              "internalType": "enum IDCAPermissionManager.Permission[]",
              "name": "permissions",
              "type": "uint8[]"
            }
          ],
          "internalType": "struct IDCAPermissionManager.PermissionSet[]",
          "name": "_permissions",
          "type": "tuple[]"
        }
      ],
      "name": "mint",
      "outputs": [],
      "stateMutability": "nonpayable",
      "type": "function"
    },
    {
      "inputs": [
        {
          "internalType": "uint256",
          "name": "_id",
          "type": "uint256"
        },
        {
          "components": [
            {
              "internalType": "address",
              "name": "operator",
              "type": "address"
            },
            {
              "internalType": "enum IDCAPermissionManager.Permission[]",
              "name": "permissions",
              "type": "uint8[]"
            }
          ],
          "internalType": "struct IDCAPermissionManager.PermissionSet[]",
          "name": "_permissions",
          "type": "tuple[]"
        }
      ],
      "name": "modify",
      "outputs": [],
      "stateMutability": "nonpayable",
      "type": "function"
    },
    {
      "inputs": [],
      "name": "name",
      "outputs": [
        {
          "internalType": "string",
          "name": "",
          "type": "string"
        }
      ],
      "stateMutability": "view",
      "type": "function"
    },
    {
      "inputs": [],
      "name": "nftDescriptor",
      "outputs": [
        {
          "internalType": "contract IDCATokenDescriptor",
          "name": "",
          "type": "address"
        }
      ],
      "stateMutability": "view",
      "type": "function"
    },
    {
      "inputs": [
        {
          "internalType": "address",
          "name": "",
          "type": "address"
        }
      ],
      "name": "nonces",
      "outputs": [
        {
          "internalType": "uint256",
          "name": "",
          "type": "uint256"
        }
      ],
      "stateMutability": "view",
      "type": "function"
    },
    {
      "inputs": [
        {
          "internalType": "uint256",
          "name": "tokenId",
          "type": "uint256"
        }
      ],
      "name": "ownerOf",
      "outputs": [
        {
          "internalType": "address",
          "name": "",
          "type": "address"
        }
      ],
      "stateMutability": "view",
      "type": "function"
    },
    {
      "inputs": [],
      "name": "pendingGovernor",
      "outputs": [
        {
          "internalType": "address",
          "name": "",
          "type": "address"
        }
      ],
      "stateMutability": "view",
      "type": "function"
    },
    {
      "inputs": [
        {
          "components": [
            {
              "internalType": "address",
              "name": "operator",
              "type": "address"
            },
            {
              "internalType": "enum IDCAPermissionManager.Permission[]",
              "name": "permissions",
              "type": "uint8[]"
            }
          ],
          "internalType": "struct IDCAPermissionManager.PermissionSet[]",
          "name": "_permissions",
          "type": "tuple[]"
        },
        {
          "internalType": "uint256",
          "name": "_tokenId",
          "type": "uint256"
        },
        {
          "internalType": "uint256",
          "name": "_deadline",
          "type": "uint256"
        },
        {
          "internalType": "uint8",
          "name": "_v",
          "type": "uint8"
        },
        {
          "internalType": "bytes32",
          "name": "_r",
          "type": "bytes32"
        },
        {
          "internalType": "bytes32",
          "name": "_s",
          "type": "bytes32"
        }
      ],
      "name": "permissionPermit",
      "outputs": [],
      "stateMutability": "nonpayable",
      "type": "function"
    },
    {
      "inputs": [
        {
          "internalType": "address",
          "name": "_spender",
          "type": "address"
        },
        {
          "internalType": "uint256",
          "name": "_tokenId",
          "type": "uint256"
        },
        {
          "internalType": "uint256",
          "name": "_deadline",
          "type": "uint256"
        },
        {
          "internalType": "uint8",
          "name": "_v",
          "type": "uint8"
        },
        {
          "internalType": "bytes32",
          "name": "_r",
          "type": "bytes32"
        },
        {
          "internalType": "bytes32",
          "name": "_s",
          "type": "bytes32"
        }
      ],
      "name": "permit",
      "outputs": [],
      "stateMutability": "nonpayable",
      "type": "function"
    },
    {
      "inputs": [
        {
          "internalType": "address",
          "name": "from",
          "type": "address"
        },
        {
          "internalType": "address",
          "name": "to",
          "type": "address"
        },
        {
          "internalType": "uint256",
          "name": "tokenId",
          "type": "uint256"
        }
      ],
      "name": "safeTransferFrom",
      "outputs": [],
      "stateMutability": "nonpayable",
      "type": "function"
    },
    {
      "inputs": [
        {
          "internalType": "address",
          "name": "from",
          "type": "address"
        },
        {
          "internalType": "address",
          "name": "to",
          "type": "address"
        },
        {
          "internalType": "uint256",
          "name": "tokenId",
          "type": "uint256"
        },
        {
          "internalType": "bytes",
          "name": "_data",
          "type": "bytes"
        }
      ],
      "name": "safeTransferFrom",
      "outputs": [],
      "stateMutability": "nonpayable",
      "type": "function"
    },
    {
      "inputs": [
        {
          "internalType": "address",
          "name": "operator",
          "type": "address"
        },
        {
          "internalType": "bool",
          "name": "approved",
          "type": "bool"
        }
      ],
      "name": "setApprovalForAll",
      "outputs": [],
      "stateMutability": "nonpayable",
      "type": "function"
    },
    {
      "inputs": [
        {
          "internalType": "address",
          "name": "_hub",
          "type": "address"
        }
      ],
      "name": "setHub",
      "outputs": [],
      "stateMutability": "nonpayable",
      "type": "function"
    },
    {
      "inputs": [
        {
          "internalType": "contract IDCATokenDescriptor",
          "name": "_descriptor",
          "type": "address"
        }
      ],
      "name": "setNFTDescriptor",
      "outputs": [],
      "stateMutability": "nonpayable",
      "type": "function"
    },
    {
      "inputs": [
        {
          "internalType": "address",
          "name": "__pendingGovernor",
          "type": "address"
        }
      ],
      "name": "setPendingGovernor",
      "outputs": [],
      "stateMutability": "nonpayable",
      "type": "function"
    },
    {
      "inputs": [
        {
          "internalType": "bytes4",
          "name": "interfaceId",
          "type": "bytes4"
        }
      ],
      "name": "supportsInterface",
      "outputs": [
        {
          "internalType": "bool",
          "name": "",
          "type": "bool"
        }
      ],
      "stateMutability": "view",
      "type": "function"
    },
    {
      "inputs": [],
      "name": "symbol",
      "outputs": [
        {
          "internalType": "string",
          "name": "",
          "type": "string"
        }
      ],
      "stateMutability": "view",
      "type": "function"
    },
    {
      "inputs": [
        {
          "internalType": "uint256",
          "name": "",
          "type": "uint256"
        },
        {
          "internalType": "address",
          "name": "",
          "type": "address"
        }
      ],
      "name": "tokenPermissions",
      "outputs": [
        {
          "internalType": "uint8",
          "name": "permissions",
          "type": "uint8"
        },
        {
          "internalType": "uint248",
          "name": "lastUpdated",
          "type": "uint248"
        }
      ],
      "stateMutability": "view",
      "type": "function"
    },
    {
      "inputs": [
        {
          "internalType": "uint256",
          "name": "_tokenId",
          "type": "uint256"
        }
      ],
      "name": "tokenURI",
      "outputs": [
        {
          "internalType": "string",
          "name": "",
          "type": "string"
        }
      ],
      "stateMutability": "view",
      "type": "function"
    },
    {
      "inputs": [
        {
          "internalType": "address",
          "name": "from",
          "type": "address"
        },
        {
          "internalType": "address",
          "name": "to",
          "type": "address"
        },
        {
          "internalType": "uint256",
          "name": "tokenId",
          "type": "uint256"
        }
      ],
      "name": "transferFrom",
      "outputs": [],
      "stateMutability": "nonpayable",
      "type": "function"
    }
  ],
  "bytecode": "0x6101406040523480156200001257600080fd5b5060405162003139380380620031398339810160408190526200003591620002fd565b816040518060400160405280601081526020016f4d65616e2046696e616e63652044434160801b815250604051806040016040528060018152602001603160f81b8152506040518060400160405280601081526020016f4d65616e2046696e616e63652044434160801b8152506040518060400160405280600381526020016244434160e81b8152508160009080519060200190620000d69291906200023e565b508051620000ec9060019060208401906200023e565b5050825160208085019190912083518483012060e08290526101008190524660a0818152604080517f8b73c3c69bb8fe3d512ecc4cf759cc79239f7b179b0ffacaa9a75d522b39400f81880181905281830187905260608201869052608082019490945230818401528151808203909301835260c0019052805194019390932091935091906080523060c05261012052505050506001600160a01b038116620001db5760405162461bcd60e51b815260206004820152601860248201527f476f7665726e61626c653a207a65726f20616464726573730000000000000000604482015260640160405180910390fd5b600680546001600160a01b0319166001600160a01b039283161790558116620002175760405163d92e233d60e01b815260040160405180910390fd5b600880546001600160a01b0319166001600160a01b03929092169190911790555062000379565b8280546200024c906200033c565b90600052602060002090601f016020900481019282620002705760008555620002bb565b82601f106200028b57805160ff1916838001178555620002bb565b82800160010185558215620002bb579182015b82811115620002bb5782518255916020019190600101906200029e565b50620002c9929150620002cd565b5090565b5b80821115620002c95760008155600101620002ce565b6001600160a01b0381168114620002fa57600080fd5b50565b600080604083850312156200031157600080fd5b82516200031e81620002e4565b60208401519092506200033181620002e4565b809150509250929050565b600181811c908216806200035157607f821691505b602082108114156200037357634e487b7160e01b600052602260045260246000fd5b50919050565b60805160a05160c05160e0516101005161012051612d70620003c960003960006116bb0152600061170a015260006116e50152600061163e01526000611668015260006116920152612d706000f3fe608060405234801561001057600080fd5b50600436106102275760003560e01c8063551e123b11610130578063a22cb465116100b8578063e1fc815d1161007c578063e1fc815d14610552578063e3056a3414610579578063e43581b81461058a578063e985e9c5146105ac578063f235757f146105e857600080fd5b8063a22cb465146104d7578063b3d23ffc146104ea578063b88d4fde1461050a578063c87b56dd1461051d578063df08aed51461053057600080fd5b80637cad6cd1116100ff5780637cad6cd11461042a5780637ecebe001461043d578063823abfd91461045d57806393f03eed1461047057806395d89b41146104cf57600080fd5b8063551e123b146103d15780636352211e146103f157806370a08231146104045780637ac2ff7b1461041757600080fd5b806330adf81f116101b357806336b350981161018257806336b350981461037257806342842e0e1461038557806342966c681461039857806344267570146103ab5780634faa3883146103be57600080fd5b806330adf81f1461031d57806331962cdc146103445780633644e51514610357578063365a86fc1461035f57600080fd5b80630b7d4820116101fa5780630b7d4820146102a95780630c340a24146102bc57806313f6986d146102cd57806323b872dd146102d557806327d70dca146102e857600080fd5b806301ffc9a71461022c57806306fdde0314610254578063081812fc14610269578063095ea7b314610294575b600080fd5b61023f61023a3660046123b2565b6105fb565b60405190151581526020015b60405180910390f35b61025c61064d565b60405161024b9190612427565b61027c61027736600461243a565b6106df565b6040516001600160a01b03909116815260200161024b565b6102a76102a2366004612468565b610779565b005b6102a76102b73660046124e0565b61088f565b6006546001600160a01b031661027c565b6102a76108d4565b6102a76102e336600461252c565b610942565b61030f7fd9daa4fe1723edf458fc13a2d7c6e9147a88485b7932c0ada7e0dd16445f0dda81565b60405190815260200161024b565b61030f7f49ecf333e5b8c95c40fdafc95c1ad136e8914a8fb55e9dc8bb01eaa83a2df9ad81565b6102a761035236600461256d565b610973565b61030f6109e6565b60095461027c906001600160a01b031681565b6102a761038036600461258a565b6109f5565b6102a761039336600461252c565b610a3b565b6102a76103a636600461243a565b610a56565b60085461027c906001600160a01b031681565b6102a76103cc3660046125fc565b610a8d565b6103e46103df36600461258a565b610bc2565b60405161024b9190612676565b61027c6103ff36600461243a565b610d50565b61030f61041236600461256d565b610dc7565b6102a76104253660046126bc565b610e4e565b6102a761043836600461256d565b610f7c565b61030f61044b36600461256d565b600a6020526000908152604090205481565b61023f61046b366004612725565b61104e565b6104ae61047e366004612763565b600c60209081526000928352604080842090915290825290205460ff81169061010090046001600160f81b031682565b6040805160ff90931683526001600160f81b0390911660208301520161024b565b61025c611103565b6102a76104e5366004612793565b611112565b61030f6104f836600461243a565b600b6020526000908152604090205481565b6102a7610518366004612835565b611121565b61025c61052b36600461243a565b611153565b61023f61053e36600461256d565b6007546001600160a01b0391821691161490565b61030f7f5922b2c51ed135e5c892d4fa1b63ad30a4a2c7e7bfc895ee28a38b6e8899962781565b6007546001600160a01b031661027c565b61023f61059836600461256d565b6006546001600160a01b0391821691161490565b61023f6105ba3660046128e4565b6001600160a01b03918216600090815260056020908152604080832093909416825291909152205460ff1690565b6102a76105f636600461256d565b6111d3565b60006001600160e01b031982166380ac58cd60e01b148061062c57506001600160e01b03198216635b5e139f60e01b145b8061064757506301ffc9a760e01b6001600160e01b03198316145b92915050565b60606000805461065c90612912565b80601f016020809104026020016040519081016040528092919081815260200182805461068890612912565b80156106d55780601f106106aa576101008083540402835291602001916106d5565b820191906000526020600020905b8154815290600101906020018083116106b857829003601f168201915b5050505050905090565b6000818152600260205260408120546001600160a01b031661075d5760405162461bcd60e51b815260206004820152602c60248201527f4552433732313a20617070726f76656420717565727920666f72206e6f6e657860448201526b34b9ba32b73a103a37b5b2b760a11b60648201526084015b60405180910390fd5b506000908152600460205260409020546001600160a01b031690565b600061078482610d50565b9050806001600160a01b0316836001600160a01b031614156107f25760405162461bcd60e51b815260206004820152602160248201527f4552433732313a20617070726f76616c20746f2063757272656e74206f776e656044820152603960f91b6064820152608401610754565b336001600160a01b038216148061080e575061080e81336105ba565b6108805760405162461bcd60e51b815260206004820152603860248201527f4552433732313a20617070726f76652063616c6c6572206973206e6f74206f7760448201527f6e6572206e6f7220617070726f76656420666f7220616c6c00000000000000006064820152608401610754565b61088a8383611232565b505050565b61089883610d50565b6001600160a01b0316336001600160a01b0316146108c9576040516330cd747160e01b815260040160405180910390fd5b61088a8383836112a0565b6007546001600160a01b031633146109385760405162461bcd60e51b815260206004820152602160248201527f476f7665726e61626c653a206f6e6c792070656e64696e6720676f7665726e6f6044820152603960f91b6064820152608401610754565b6109406112eb565b565b61094c3382611393565b6109685760405162461bcd60e51b815260040161075490612947565b61088a838383611486565b6001600160a01b03811661099a5760405163d92e233d60e01b815260040160405180910390fd5b6009546001600160a01b0316156109c4576040516379fb96cd60e01b815260040160405180910390fd5b600980546001600160a01b0319166001600160a01b0392909216919091179055565b60006109f0611631565b905090565b6009546001600160a01b03163314610a205760405163fc88f3b160e01b815260040160405180910390fd5b610a2a8385611758565b610a358483836118a6565b50505050565b61088a83838360405180602001604052806000815250611121565b6009546001600160a01b03163314610a815760405163fc88f3b160e01b815260040160405180910390fd5b610a8a81611a6e565b50565b83421115610aae5760405163f87d927160e01b815260040160405180910390fd5b6000610ab986610d50565b905060007f5922b2c51ed135e5c892d4fa1b63ad30a4a2c7e7bfc895ee28a38b6e88999627610ae88a8a611b15565b80516020918201206001600160a01b0385166000908152600a90925260408220805491928b929190610b19836129ae565b909155506040805160208101959095528401929092526060830152608082015260a0810187905260c0016040516020818303038152906040528051906020012090506000610b6682611b90565b90506000610b7682888888611bde565b9050836001600160a01b0316816001600160a01b031614610baa57604051638baa579f60e01b815260040160405180910390fd5b610bb5898c8c6112a0565b5050505050505050505050565b60608167ffffffffffffffff811115610bdd57610bdd6127c6565b604051908082528060200260200182016040528015610c06578160200160208202803683370190505b509050836001600160a01b0316610c1c86610d50565b6001600160a01b03161415610c725760005b82811015610c6c576001828281518110610c4a57610c4a6129c9565b9115156020928302919091019091015280610c64816129ae565b915050610c2e565b50610d48565b6000858152600c602090815260408083206001600160a01b0388168452825280832081518083018352905460ff8116825261010090046001600160f81b0316818401819052898552600b9093529220541015610d465760005b83811015610d4457610d08858583818110610ce857610ce86129c9565b9050602002016020810190610cfd91906129df565b835160ff1690611c06565b15610d32576001838281518110610d2157610d216129c9565b911515602092830291909101909101525b80610d3c816129ae565b915050610ccb565b505b505b949350505050565b6000818152600260205260408120546001600160a01b0316806106475760405162461bcd60e51b815260206004820152602960248201527f4552433732313a206f776e657220717565727920666f72206e6f6e657869737460448201526832b73a103a37b5b2b760b91b6064820152608401610754565b60006001600160a01b038216610e325760405162461bcd60e51b815260206004820152602a60248201527f4552433732313a2062616c616e636520717565727920666f7220746865207a65604482015269726f206164647265737360b01b6064820152608401610754565b506001600160a01b031660009081526003602052604090205490565b83421115610e6f5760405163f87d927160e01b815260040160405180910390fd5b6000610e7a86610d50565b6001600160a01b0381166000908152600a60205260408120805492935090917f49ecf333e5b8c95c40fdafc95c1ad136e8914a8fb55e9dc8bb01eaa83a2df9ad918a918a9185610ec9836129ae565b909155506040805160208101959095526001600160a01b03909316928401929092526060830152608082015260a0810187905260c0016040516020818303038152906040528051906020012090506000610f2282611b90565b90506000610f3282888888611bde565b9050836001600160a01b0316816001600160a01b031614610f6657604051638baa579f60e01b815260040160405180910390fd5b610f708a8a611232565b50505050505050505050565b6006546001600160a01b03163314610fd25760405162461bcd60e51b815260206004820152601960248201527823b7bb32b93730b136329d1037b7363c9033b7bb32b93737b960391b6044820152606401610754565b6001600160a01b038116610ff95760405163d92e233d60e01b815260040160405180910390fd5b600880546001600160a01b0319166001600160a01b0383169081179091556040519081527f58a2b9171063c6d38177053178bc1844b920884b05d7c9126c480d86b0716bce906020015b60405180910390a150565b6000826001600160a01b031661106385610d50565b6001600160a01b0316141561107a575060016110fc565b6000848152600c602090815260408083206001600160a01b038716845282529182902082518084019093525460ff81168084526101009091046001600160f81b0316918301919091526110cd9084611c06565b80156110f8575080602001516001600160f81b0316600b600087815260200190815260200160002054105b9150505b9392505050565b60606001805461065c90612912565b61111d338383611c33565b5050565b61112b3383611393565b6111475760405162461bcd60e51b815260040161075490612947565b610a3584848484611d02565b60085460095460405163e9dc637560e01b81526001600160a01b03918216600482015260248101849052606092919091169063e9dc637590604401600060405180830381865afa1580156111ab573d6000803e3d6000fd5b505050506040513d6000823e601f3d908101601f1916820160405261064791908101906129fa565b6006546001600160a01b031633146112295760405162461bcd60e51b815260206004820152601960248201527823b7bb32b93730b136329d1037b7363c9033b7bb32b93737b960391b6044820152606401610754565b610a8a81611d35565b600081815260046020526040902080546001600160a01b0319166001600160a01b038416908117909155819061126782610d50565b6001600160a01b03167f8c5be1e5ebec7d5bd14f71427d1e84f3dd0314c0f7b2291e5b200ac8c7c3b92560405160405180910390a45050565b6112ab8383836118a6565b7f5015559e4f379aa0dd2effee572c916b09bb68ed41ad9ab127c8066f052e16438383836040516112de93929190612a87565b60405180910390a1505050565b6007546001600160a01b03166113435760405162461bcd60e51b815260206004820152601f60248201527f476f7665726e61626c653a206e6f2070656e64696e6720676f7665726e6f72006044820152606401610754565b60078054600680546001600160a01b03199081166001600160a01b038416179091551690556040517fdc57ca23c46d823853915ed5a090ca0ee9db5eb6a46f5c58e1c9158de861fd7690600090a1565b6000818152600260205260408120546001600160a01b031661140c5760405162461bcd60e51b815260206004820152602c60248201527f4552433732313a206f70657261746f7220717565727920666f72206e6f6e657860448201526b34b9ba32b73a103a37b5b2b760a11b6064820152608401610754565b600061141783610d50565b9050806001600160a01b0316846001600160a01b031614806114525750836001600160a01b0316611447846106df565b6001600160a01b0316145b80610d4857506001600160a01b0380821660009081526005602090815260408083209388168352929052205460ff16610d48565b826001600160a01b031661149982610d50565b6001600160a01b0316146115015760405162461bcd60e51b815260206004820152602960248201527f4552433732313a207472616e73666572206f6620746f6b656e2074686174206960448201526839903737ba1037bbb760b91b6064820152608401610754565b6001600160a01b0382166115635760405162461bcd60e51b8152602060048201526024808201527f4552433732313a207472616e7366657220746f20746865207a65726f206164646044820152637265737360e01b6064820152608401610754565b61156e838383611dd9565b611579600082611232565b6001600160a01b03831660009081526003602052604081208054600192906115a2908490612bb4565b90915550506001600160a01b03821660009081526003602052604081208054600192906115d0908490612bcb565b909155505060008181526002602052604080822080546001600160a01b0319166001600160a01b0386811691821790925591518493918716917fddf252ad1be2c89b69c2b068fc378daa952ba7f163c4a11628f55a4df523b3ef91a4505050565b6000306001600160a01b037f00000000000000000000000000000000000000000000000000000000000000001614801561168a57507f000000000000000000000000000000000000000000000000000000000000000046145b156116b457507f000000000000000000000000000000000000000000000000000000000000000090565b50604080517f00000000000000000000000000000000000000000000000000000000000000006020808301919091527f0000000000000000000000000000000000000000000000000000000000000000828401527f000000000000000000000000000000000000000000000000000000000000000060608301524660808301523060a0808401919091528351808403909101815260c0909201909252805191012090565b6001600160a01b0382166117ae5760405162461bcd60e51b815260206004820181905260248201527f4552433732313a206d696e7420746f20746865207a65726f20616464726573736044820152606401610754565b6000818152600260205260409020546001600160a01b0316156118135760405162461bcd60e51b815260206004820152601c60248201527f4552433732313a20746f6b656e20616c7265616479206d696e746564000000006044820152606401610754565b61181f60008383611dd9565b6001600160a01b0382166000908152600360205260408120805460019290611848908490612bcb565b909155505060008181526002602052604080822080546001600160a01b0319166001600160a01b03861690811790915590518392907fddf252ad1be2c89b69c2b068fc378daa952ba7f163c4a11628f55a4df523b3ef908290a45050565b4360005b82811015611a67578383828181106118c4576118c46129c9565b90506020028101906118d69190612be3565b6118e4906020810190612c03565b1515905061194e576000858152600c602052604081209085858481811061190d5761190d6129c9565b905060200281019061191f9190612be3565b61192d90602081019061256d565b6001600160a01b031681526020810191909152604001600090812055611a55565b60405180604001604052806119c586868581811061196e5761196e6129c9565b90506020028101906119809190612be3565b61198e906020810190612c03565b80806020026020016040519081016040528093929190818152602001838360200280828437600092019190915250611e1e92505050565b60ff1681526001600160f81b0384166020918201526000878152600c90915260408120908686858181106119fb576119fb6129c9565b9050602002810190611a0d9190612be3565b611a1b90602081019061256d565b6001600160a01b03168152602080820192909252604001600020825192909101516001600160f81b03166101000260ff9092169190911790555b80611a5f816129ae565b9150506118aa565b5050505050565b6000611a7982610d50565b9050611a8781600084611dd9565b611a92600083611232565b6001600160a01b0381166000908152600360205260408120805460019290611abb908490612bb4565b909155505060008281526002602052604080822080546001600160a01b0319169055518391906001600160a01b038416907fddf252ad1be2c89b69c2b068fc378daa952ba7f163c4a11628f55a4df523b3ef908390a45050565b606060005b82811015611b895781611b4f858584818110611b3857611b386129c9565b9050602002810190611b4a9190612be3565b611e7a565b8051602091820120604051611b65939201612c4d565b60405160208183030381529060405291508080611b81906129ae565b915050611b1a565b5092915050565b6000610647611b9d611631565b8360405161190160f01b6020820152602281018390526042810182905260009060620160405160208183030381529060405280519060200120905092915050565b6000806000611bef87878787611f06565b91509150611bfc81611ff3565b5095945050505050565b600080826003811115611c1b57611c1b612a71565b600160ff9182161b9490941690931615159392505050565b816001600160a01b0316836001600160a01b03161415611c955760405162461bcd60e51b815260206004820152601960248201527f4552433732313a20617070726f766520746f2063616c6c6572000000000000006044820152606401610754565b6001600160a01b03838116600081815260056020908152604080832094871680845294825291829020805460ff191686151590811790915591519182527f17307eab39ab6107e8899845ad3d59bd9653f200f220920489ca2b5937696c31910160405180910390a3505050565b611d0d848484611486565b611d19848484846121ae565b610a355760405162461bcd60e51b815260040161075490612c6f565b6001600160a01b038116611d8b5760405162461bcd60e51b815260206004820152601860248201527f476f7665726e61626c653a207a65726f206164647265737300000000000000006044820152606401610754565b600780546001600160a01b0319166001600160a01b0383169081179091556040519081527f56bddfa0cee9697cebddf9acd7f23dc6583663b05e007b877056d05017994def90602001611043565b6001600160a01b038216611dfa576000908152600b60205260408120555050565b6001600160a01b0383161561088a57436000828152600b6020526040902055505050565b6000805b8251811015611e7457828181518110611e3d57611e3d6129c9565b60200260200101516003811115611e5657611e56612a71565b60ff166001901b821791508080611e6c906129ae565b915050611e22565b50919050565b60607fd9daa4fe1723edf458fc13a2d7c6e9147a88485b7932c0ada7e0dd16445f0dda611eaa602084018461256d565b611ebf611eba6020860186612c03565b6122a9565b8051602091820120604051611ef0949392019283526001600160a01b03919091166020830152604082015260600190565b6040516020818303038152906040529050919050565b6000807f7fffffffffffffffffffffffffffffff5d576e7357a4501ddfe92f46681b20a0831115611f3d5750600090506003611fea565b8460ff16601b14158015611f5557508460ff16601c14155b15611f665750600090506004611fea565b6040805160008082526020820180845289905260ff881692820192909252606081018690526080810185905260019060a0016020604051602081039080840390855afa158015611fba573d6000803e3d6000fd5b5050604051601f1901519150506001600160a01b038116611fe357600060019250925050611fea565b9150600090505b94509492505050565b600081600481111561200757612007612a71565b14156120105750565b600181600481111561202457612024612a71565b14156120725760405162461bcd60e51b815260206004820152601860248201527f45434453413a20696e76616c6964207369676e617475726500000000000000006044820152606401610754565b600281600481111561208657612086612a71565b14156120d45760405162461bcd60e51b815260206004820152601f60248201527f45434453413a20696e76616c6964207369676e6174757265206c656e677468006044820152606401610754565b60038160048111156120e8576120e8612a71565b14156121415760405162461bcd60e51b815260206004820152602260248201527f45434453413a20696e76616c6964207369676e6174757265202773272076616c604482015261756560f01b6064820152608401610754565b600481600481111561215557612155612a71565b1415610a8a5760405162461bcd60e51b815260206004820152602260248201527f45434453413a20696e76616c6964207369676e6174757265202776272076616c604482015261756560f01b6064820152608401610754565b60006001600160a01b0384163b156122a157604051630a85bd0160e11b81526001600160a01b0385169063150b7a02906121f2903390899088908890600401612cc1565b6020604051808303816000875af192505050801561222d575060408051601f3d908101601f1916820190925261222a91810190612cfe565b60015b612287573d80801561225b576040519150601f19603f3d011682016040523d82523d6000602084013e612260565b606091505b50805161227f5760405162461bcd60e51b815260040161075490612c6f565b805181602001fd5b6001600160e01b031916630a85bd0160e11b149050610d48565b506001610d48565b60606122b6826020612d1b565b67ffffffffffffffff8111156122ce576122ce6127c6565b6040519080825280601f01601f1916602001820160405280156122f8576020820181803683370190505b50905060005b82811015611b8957838382818110612318576123186129c9565b905060200201602081019061232d91906129df565b600381111561233e5761233e612a71565b60f81b82600161234e8482612bcb565b612359906020612d1b565b6123639190612bb4565b81518110612373576123736129c9565b60200101906001600160f81b031916908160001a90535080612394816129ae565b9150506122fe565b6001600160e01b031981168114610a8a57600080fd5b6000602082840312156123c457600080fd5b81356110fc8161239c565b60005b838110156123ea5781810151838201526020016123d2565b83811115610a355750506000910152565b600081518084526124138160208601602086016123cf565b601f01601f19169290920160200192915050565b6020815260006110fc60208301846123fb565b60006020828403121561244c57600080fd5b5035919050565b6001600160a01b0381168114610a8a57600080fd5b6000806040838503121561247b57600080fd5b823561248681612453565b946020939093013593505050565b60008083601f8401126124a657600080fd5b50813567ffffffffffffffff8111156124be57600080fd5b6020830191508360208260051b85010111156124d957600080fd5b9250929050565b6000806000604084860312156124f557600080fd5b83359250602084013567ffffffffffffffff81111561251357600080fd5b61251f86828701612494565b9497909650939450505050565b60008060006060848603121561254157600080fd5b833561254c81612453565b9250602084013561255c81612453565b929592945050506040919091013590565b60006020828403121561257f57600080fd5b81356110fc81612453565b600080600080606085870312156125a057600080fd5b8435935060208501356125b281612453565b9250604085013567ffffffffffffffff8111156125ce57600080fd5b6125da87828801612494565b95989497509550505050565b803560ff811681146125f757600080fd5b919050565b600080600080600080600060c0888a03121561261757600080fd5b873567ffffffffffffffff81111561262e57600080fd5b61263a8a828b01612494565b909850965050602088013594506040880135935061265a606089016125e6565b92506080880135915060a0880135905092959891949750929550565b6020808252825182820181905260009190848201906040850190845b818110156126b0578351151583529284019291840191600101612692565b50909695505050505050565b60008060008060008060c087890312156126d557600080fd5b86356126e081612453565b955060208701359450604087013593506126fc606088016125e6565b92506080870135915060a087013590509295509295509295565b8035600481106125f757600080fd5b60008060006060848603121561273a57600080fd5b83359250602084013561274c81612453565b915061275a60408501612716565b90509250925092565b6000806040838503121561277657600080fd5b82359150602083013561278881612453565b809150509250929050565b600080604083850312156127a657600080fd5b82356127b181612453565b91506020830135801515811461278857600080fd5b634e487b7160e01b600052604160045260246000fd5b604051601f8201601f1916810167ffffffffffffffff81118282101715612805576128056127c6565b604052919050565b600067ffffffffffffffff821115612827576128276127c6565b50601f01601f191660200190565b6000806000806080858703121561284b57600080fd5b843561285681612453565b9350602085013561286681612453565b925060408501359150606085013567ffffffffffffffff81111561288957600080fd5b8501601f8101871361289a57600080fd5b80356128ad6128a88261280d565b6127dc565b8181528860208385010111156128c257600080fd5b8160208401602083013760006020838301015280935050505092959194509250565b600080604083850312156128f757600080fd5b823561290281612453565b9150602083013561278881612453565b600181811c9082168061292657607f821691505b60208210811415611e7457634e487b7160e01b600052602260045260246000fd5b60208082526031908201527f4552433732313a207472616e736665722063616c6c6572206973206e6f74206f6040820152701ddb995c881b9bdc88185c1c1c9bdd9959607a1b606082015260800190565b634e487b7160e01b600052601160045260246000fd5b60006000198214156129c2576129c2612998565b5060010190565b634e487b7160e01b600052603260045260246000fd5b6000602082840312156129f157600080fd5b6110fc82612716565b600060208284031215612a0c57600080fd5b815167ffffffffffffffff811115612a2357600080fd5b8201601f81018413612a3457600080fd5b8051612a426128a88261280d565b818152856020838501011115612a5757600080fd5b612a688260208301602086016123cf565b95945050505050565b634e487b7160e01b600052602160045260246000fd5b8381526040602080830182905282820184905260009190606090818501600587811b8701840189875b8a811015612ba357898303605f190185528135368d9003603e19018112612ad657600080fd5b8c018389018135612ae681612453565b6001600160a01b031685528188013536839003601e19018112612b0857600080fd5b8201803567ffffffffffffffff811115612b2157600080fd5b80881b3603841315612b3257600080fd5b868a018c90529182905289860192508801906000905b80821015612b8e57612b5983612716565b6004808210612b7757634e487b7160e01b6000526021815260246000fd5b508452928901929189019160019190910190612b48565b50505094860194925090850190600101612ab0565b50909b9a5050505050505050505050565b600082821015612bc657612bc6612998565b500390565b60008219821115612bde57612bde612998565b500190565b60008235603e19833603018112612bf957600080fd5b9190910192915050565b6000808335601e19843603018112612c1a57600080fd5b83018035915067ffffffffffffffff821115612c3557600080fd5b6020019150600581901b36038213156124d957600080fd5b60008351612c5f8184602088016123cf565b9190910191825250602001919050565b60208082526032908201527f4552433732313a207472616e7366657220746f206e6f6e20455243373231526560408201527131b2b4bb32b91034b6b83632b6b2b73a32b960711b606082015260800190565b6001600160a01b0385811682528416602082015260408101839052608060608201819052600090612cf4908301846123fb565b9695505050505050565b600060208284031215612d1057600080fd5b81516110fc8161239c565b6000816000190483118215151615612d3557612d35612998565b50029056fea2646970667358221220b7b3e2f34d422bffb6c9efdb6eca32e7ee40fb7d0551345ba690c93e6af2d2b364736f6c634300080a0033",
  "linkReferences": {},
  "deployedLinkReferences": {}
}