{
  "_format": "hh-sol-artifact-1",
  "contractName": "UniswapV3Oracle",
  "sourceName": "contracts/oracles/UniswapV3Oracle.sol",
  "abi": [
    {
      "inputs": [
        {
          "internalType": "address",
          "name": "_governor",
          "type": "address"
        },
        {
          "internalType": "contract IUniswapV3Factory",
          "name": "_factory",
          "type": "address"
        },
        {
          "internalType": "uint8",
          "name": "_cardinalityPerMinute",
          "type": "uint8"
        },
        {
          "internalType": "uint16",
          "name": "_period",
          "type": "uint16"
        },
        {
          "internalType": "uint16",
          "name": "_minimumPeriod",
          "type": "uint16"
        },
        {
          "internalType": "uint16",
          "name": "_maximumPeriod",
          "type": "uint16"
        }
      ],
      "stateMutability": "nonpayable",
      "type": "constructor"
    },
    {
      "anonymous": false,
      "inputs": [
        {
          "indexed": false,
          "internalType": "uint24",
          "name": "feeTier",
          "type": "uint24"
        }
      ],
      "name": "AddedFeeTier",
      "type": "event"
    },
    {
      "anonymous": false,
      "inputs": [
        {
          "indexed": false,
          "internalType": "address",
          "name": "tokenA",
          "type": "address"
        },
        {
          "indexed": false,
          "internalType": "address",
          "name": "tokenB",
          "type": "address"
        }
      ],
      "name": "AddedSupportForPairInUniswapOracle",
      "type": "event"
    },
    {
      "anonymous": false,
      "inputs": [
        {
          "indexed": false,
          "internalType": "uint8",
          "name": "cardinalityPerMinute",
          "type": "uint8"
        }
      ],
      "name": "CardinalityPerMinuteChanged",
      "type": "event"
    },
    {
      "anonymous": false,
      "inputs": [],
      "name": "PendingGovernorAccepted",
      "type": "event"
    },
    {
      "anonymous": false,
      "inputs": [
        {
          "indexed": false,
          "internalType": "address",
          "name": "pendingGovernor",
          "type": "address"
        }
      ],
      "name": "PendingGovernorSet",
      "type": "event"
    },
    {
      "anonymous": false,
      "inputs": [
        {
          "indexed": false,
          "internalType": "uint32",
          "name": "period",
          "type": "uint32"
        }
      ],
      "name": "PeriodChanged",
      "type": "event"
    },
    {
      "inputs": [],
      "name": "MINIMUM_LIQUIDITY_THRESHOLD",
      "outputs": [
        {
          "internalType": "uint16",
          "name": "",
          "type": "uint16"
        }
      ],
      "stateMutability": "view",
      "type": "function"
    },
    {
      "inputs": [],
      "name": "acceptPendingGovernor",
      "outputs": [],
      "stateMutability": "nonpayable",
      "type": "function"
    },
    {
      "inputs": [
        {
          "internalType": "uint24",
          "name": "_feeTier",
          "type": "uint24"
        }
      ],
      "name": "addFeeTier",
      "outputs": [],
      "stateMutability": "nonpayable",
      "type": "function"
    },
    {
      "inputs": [
        {
          "internalType": "address",
          "name": "_tokenA",
          "type": "address"
        },
        {
          "internalType": "address",
          "name": "_tokenB",
          "type": "address"
        }
      ],
      "name": "addSupportForPairIfNeeded",
      "outputs": [],
      "stateMutability": "nonpayable",
      "type": "function"
    },
    {
      "inputs": [
        {
          "internalType": "address",
          "name": "_tokenA",
          "type": "address"
        },
        {
          "internalType": "address",
          "name": "_tokenB",
          "type": "address"
        }
      ],
      "name": "canSupportPair",
      "outputs": [
        {
          "internalType": "bool",
          "name": "",
          "type": "bool"
        }
      ],
      "stateMutability": "view",
      "type": "function"
    },
    {
      "inputs": [],
      "name": "cardinalityPerMinute",
      "outputs": [
        {
          "internalType": "uint8",
          "name": "",
          "type": "uint8"
        }
      ],
      "stateMutability": "view",
      "type": "function"
    },
    {
      "inputs": [],
      "name": "factory",
      "outputs": [
        {
          "internalType": "contract IUniswapV3Factory",
          "name": "",
          "type": "address"
        }
      ],
      "stateMutability": "view",
      "type": "function"
    },
    {
      "inputs": [],
      "name": "governor",
      "outputs": [
        {
          "internalType": "address",
          "name": "",
          "type": "address"
        }
      ],
      "stateMutability": "view",
      "type": "function"
    },
    {
      "inputs": [
        {
          "internalType": "address",
          "name": "_account",
          "type": "address"
        }
      ],
      "name": "isGovernor",
      "outputs": [
        {
          "internalType": "bool",
          "name": "_isGovernor",
          "type": "bool"
        }
      ],
      "stateMutability": "view",
      "type": "function"
    },
    {
      "inputs": [
        {
          "internalType": "address",
          "name": "_account",
          "type": "address"
        }
      ],
      "name": "isPendingGovernor",
      "outputs": [
        {
          "internalType": "bool",
          "name": "_isPendingGovernor",
          "type": "bool"
        }
      ],
      "stateMutability": "view",
      "type": "function"
    },
    {
      "inputs": [],
      "name": "maximumPeriod",
      "outputs": [
        {
          "internalType": "uint16",
          "name": "",
          "type": "uint16"
        }
      ],
      "stateMutability": "view",
      "type": "function"
    },
    {
      "inputs": [],
      "name": "minimumPeriod",
      "outputs": [
        {
          "internalType": "uint16",
          "name": "",
          "type": "uint16"
        }
      ],
      "stateMutability": "view",
      "type": "function"
    },
    {
      "inputs": [],
      "name": "pendingGovernor",
      "outputs": [
        {
          "internalType": "address",
          "name": "",
          "type": "address"
        }
      ],
      "stateMutability": "view",
      "type": "function"
    },
    {
      "inputs": [],
      "name": "period",
      "outputs": [
        {
          "internalType": "uint16",
          "name": "",
          "type": "uint16"
        }
      ],
      "stateMutability": "view",
      "type": "function"
    },
    {
      "inputs": [
        {
          "internalType": "address",
          "name": "_tokenA",
          "type": "address"
        },
        {
          "internalType": "address",
          "name": "_tokenB",
          "type": "address"
        }
      ],
      "name": "poolsUsedForPair",
      "outputs": [
        {
          "internalType": "address[]",
          "name": "_usedPools",
          "type": "address[]"
        }
      ],
      "stateMutability": "view",
      "type": "function"
    },
    {
      "inputs": [
        {
          "internalType": "address",
          "name": "_tokenIn",
          "type": "address"
        },
        {
          "internalType": "uint128",
          "name": "_amountIn",
          "type": "uint128"
        },
        {
          "internalType": "address",
          "name": "_tokenOut",
          "type": "address"
        }
      ],
      "name": "quote",
      "outputs": [
        {
          "internalType": "uint256",
          "name": "_amountOut",
          "type": "uint256"
        }
      ],
      "stateMutability": "view",
      "type": "function"
    },
    {
      "inputs": [
        {
          "internalType": "address",
          "name": "_tokenA",
          "type": "address"
        },
        {
          "internalType": "address",
          "name": "_tokenB",
          "type": "address"
        }
      ],
      "name": "reconfigureSupportForPair",
      "outputs": [],
      "stateMutability": "nonpayable",
      "type": "function"
    },
    {
      "inputs": [
        {
          "internalType": "uint8",
          "name": "_cardinalityPerMinute",
          "type": "uint8"
        }
      ],
      "name": "setCardinalityPerMinute",
      "outputs": [],
      "stateMutability": "nonpayable",
      "type": "function"
    },
    {
      "inputs": [
        {
          "internalType": "address",
          "name": "__pendingGovernor",
          "type": "address"
        }
      ],
      "name": "setPendingGovernor",
      "outputs": [],
      "stateMutability": "nonpayable",
      "type": "function"
    },
    {
      "inputs": [
        {
          "internalType": "uint16",
          "name": "_period",
          "type": "uint16"
        }
      ],
      "name": "setPeriod",
      "outputs": [],
      "stateMutability": "nonpayable",
      "type": "function"
    },
    {
      "inputs": [],
      "name": "supportedFeeTiers",
      "outputs": [
        {
          "internalType": "uint24[]",
          "name": "_feeTiers",
          "type": "uint24[]"
        }
      ],
      "stateMutability": "view",
      "type": "function"
    }
  ],
  "bytecode": "0x6101406040526101f460e0908152610bb861010052612710610120526200002b906002906003620002c7565b503480156200003957600080fd5b506040516200228c3803806200228c833981810160405260c08110156200005f57600080fd5b508051602082015160408301516060840151608085015160a0909501519394929391929091856001600160a01b038116620000e1576040805162461bcd60e51b815260206004820152601860248201527f476f7665726e61626c653a207a65726f20616464726573730000000000000000604482015290519081900360640190fd5b600080546001600160a01b0319166001600160a01b0392831617905585166200013f576040805162461bcd60e51b815260206004820152600b60248201526a5a65726f4164647265737360a81b604482015290519081900360640190fd5b60008460ff161162000182576040805162461bcd60e51b81526020600482015260076024820152665a65726f43504d60c81b604482015290519081900360640190fd5b60008261ffff161180156200019e57508061ffff168261ffff16105b620001f0576040805162461bcd60e51b815260206004820152601660248201527f496e76616c6964506572696f645468726573686f6c6400000000000000000000604482015290519081900360640190fd5b8061ffff168361ffff16111580156200021157508161ffff168361ffff1610155b62000256576040805162461bcd60e51b815260206004820152601060248201526f506572696f644f75744f6652616e676560801b604482015290519081900360640190fd5b6001600160601b031960609590951b949094166080526001805461ffff909316600160a01b0261ffff60a01b1960ff909516600160b01b0260ff60b01b199094169390931793909316919091179091556001600160f01b031960f091821b811660a05291901b1660c0525062000390565b82805482825590600052602060002090600901600a90048101928215620003675791602002820160005b838211156200033457835183826101000a81548162ffffff021916908361ffff1602179055509260200192600301602081600201049283019260010302620002f1565b8015620003655782816101000a81549062ffffff021916905560030160208160020104928301926001030262000334565b505b506200037592915062000379565b5090565b5b808211156200037557600081556001016200037a565b60805160601c60a05160f01c60c05160f01c611ead620003df600039806107d35280610e425250806107f75280610ebf525080610473528061090d5280610c3252806111445250611ead6000f3fe608060405234801561001057600080fd5b50600436106101375760003560e01c80638dcc50c8116100b8578063df08aed51161007c578063df08aed514610376578063e3056a341461039c578063e43581b8146103a4578063ef78d4fd146103ca578063f235757f146103d2578063fba2a2d2146103f857610137565b80638dcc50c8146102ed578063a513355f146102f5578063bc4389f714610346578063c45a01551461034e578063da601e201461035657610137565b8063457c85eb116100ff578063457c85eb1461022957806362998c391461023157806372c12c871461024f578063734273fd1461027d5780637f55db3a146102bf57610137565b8063065420ae1461013c5780630c340a241461016057806313f6986d1461018457806332c1b8eb1461018c5780634358b89b1461020a575b600080fd5b61015e6004803603602081101561015257600080fd5b503562ffffff16610419565b005b6101686106db565b604080516001600160a01b039092168252519081900360200190f35b61015e6106ea565b6101ba600480360360408110156101a257600080fd5b506001600160a01b0381358116916020013516610738565b60408051602080825283518183015283519192839290830191858101910280838360005b838110156101f65781810151838201526020016101de565b505050509050019250505060405180910390f35b6102126107d1565b6040805161ffff9092168252519081900360200190f35b6102126107f5565b610239610819565b6040805160ff9092168252519081900360200190f35b61015e6004803603604081101561026557600080fd5b506001600160a01b0381358116916020013516610829565b6102ab6004803603604081101561029357600080fd5b506001600160a01b038135811691602001351661087d565b604080519115158252519081900360200190f35b61015e600480360360408110156102d557600080fd5b506001600160a01b0381358116916020013516610a88565b610212610ace565b6103346004803603606081101561030b57600080fd5b506001600160a01b0381358116916001600160801b036020820135169160409091013516610ad3565b60408051918252519081900360200190f35b6101ba610bae565b610168610c30565b61015e6004803603602081101561036c57600080fd5b503560ff16610c54565b6102ab6004803603602081101561038c57600080fd5b50356001600160a01b0316610d40565b610168610d54565b6102ab600480360360208110156103ba57600080fd5b50356001600160a01b0316610d63565b610212610d77565b61015e600480360360208110156103e857600080fd5b50356001600160a01b0316610d88565b61015e6004803603602081101561040e57600080fd5b503561ffff16610dea565b61042233610d63565b61046f576040805162461bcd60e51b815260206004820152601960248201527823b7bb32b93730b136329d1037b7363c9033b7bb32b93737b960391b604482015290519081900360640190fd5b60007f00000000000000000000000000000000000000000000000000000000000000006001600160a01b03166322afcccb836040518263ffffffff1660e01b8152600401808262ffffff16815260200191505060206040518083038186803b1580156104da57600080fd5b505afa1580156104ee573d6000803e3d6000fd5b505050506040513d602081101561050457600080fd5b505160020b1361054c576040805162461bcd60e51b815260206004820152600e60248201526d24b73b30b634b22332b2aa34b2b960911b604482015290519081900360640190fd5b600060028054806020026020016040519081016040528092919081815260200182805480156105c457602002820191906000526020600020906000905b82829054906101000a900462ffffff1662ffffff16815260200190600301906020826002010492830192600103820291508084116105895790505b5050505050905060005b8151811015610649578262ffffff168282815181106105e957fe5b602002602001015162ffffff161415610641576040805162461bcd60e51b8152602060048201526015602482015274119959551a595c905b1c9958591e541c995cd95b9d605a1b604482015290519081900360640190fd5b6001016105ce565b5060028054600181018255600091909152600a8082047f405787fa12a823e0f2b7631cc41b3ba8828b3321ca811111fa75cd3aa3bb5ace01805462ffffff808716600394909506939093026101000a8481029302191691909117905560408051918252517f7df2566cb73ced3e8f322263ff49373328d4946b7a5672113aef3f8e647b710c9181900360200190a15050565b6000546001600160a01b031690565b6106f333610d40565b61072e5760405162461bcd60e51b8152600401808060200182810382526021815260200180611e576021913960400191505060405180910390fd5b610736610f88565b565b60606000806107478585611035565b6001600160a01b03808316600090815260036020908152604080832093851683529281529082902080548351818402810184019094528084529496509294509092908301828280156107c257602002820191906000526020600020905b81546001600160a01b031681526001909101906020018083116107a4575b50505050509250505092915050565b7f000000000000000000000000000000000000000000000000000000000000000081565b7f000000000000000000000000000000000000000000000000000000000000000081565b600154600160b01b900460ff1681565b6000806108368484611035565b6001600160a01b038083166000908152600360209081526040808320938516835292905290812092945090925061086d9190611e08565b6108778282611066565b50505050565b60008060028054806020026020016040519081016040528092919081815260200182805480156108f657602002820191906000526020600020906000905b82829054906101000a900462ffffff1662ffffff16815260200190600301906020826002010492830192600103820291508084116108bb5790505b5050505050905060005b8151811015610a7b5760007f00000000000000000000000000000000000000000000000000000000000000006001600160a01b0316631698ee82878786868151811061094857fe5b60200260200101516040518463ffffffff1660e01b815260040180846001600160a01b03168152602001836001600160a01b031681526020018262ffffff168152602001935050505060206040518083038186803b1580156109a957600080fd5b505afa1580156109bd573d6000803e3d6000fd5b505050506040513d60208110156109d357600080fd5b505190506001600160a01b03811615801590610a615750600161ffff16816001600160a01b0316631a6865026040518163ffffffff1660e01b815260040160206040518083038186803b158015610a2957600080fd5b505afa158015610a3d573d6000803e3d6000fd5b505050506040513d6020811015610a5357600080fd5b50516001600160801b031610155b15610a725760019350505050610a82565b50600101610900565b5060009150505b92915050565b600080610a958484611035565b6001600160a01b038083166000908152600360209081526040808320938516835292905220549193509150610877576108778282611066565b600181565b6000806000610ae28685611035565b6001600160a01b03808316600090815260036020908152604080832093851683529281528282208054845181840281018401909552808552959750939550909391929190830182828015610b5f57602002820191906000526020600020905b81546001600160a01b03168152600190910190602001808311610b41575b505050505090506000610b8682600160149054906101000a900461ffff1661ffff166113bf565b90506000610b93826114ed565b9050610ba181898b8a6115a9565b9998505050505050505050565b60606002805480602002602001604051908101604052809291908181526020018280548015610c2657602002820191906000526020600020906000905b82829054906101000a900462ffffff1662ffffff1681526020019060030190602082600201049283019260010382029150808411610beb5790505b5050505050905090565b7f000000000000000000000000000000000000000000000000000000000000000081565b610c5d33610d63565b610caa576040805162461bcd60e51b815260206004820152601960248201527823b7bb32b93730b136329d1037b7363c9033b7bb32b93737b960391b604482015290519081900360640190fd5b60008160ff1611610cec576040805162461bcd60e51b81526020600482015260076024820152665a65726f43504d60c81b604482015290519081900360640190fd5b6001805460ff8316600160b01b810260ff60b01b199092169190911790915560408051918252517f0dfaaf3cfeb17bc2ce4be3c02afaeaab84c2778f74e4a9eacb553ae4a7ec1b089181900360200190a150565b6001546001600160a01b0390811691161490565b6001546001600160a01b031690565b6000546001600160a01b0390811691161490565b600154600160a01b900461ffff1681565b610d9133610d63565b610dde576040805162461bcd60e51b815260206004820152601960248201527823b7bb32b93730b136329d1037b7363c9033b7bb32b93737b960391b604482015290519081900360640190fd5b610de7816116a0565b50565b610df333610d63565b610e40576040805162461bcd60e51b815260206004820152601960248201527823b7bb32b93730b136329d1037b7363c9033b7bb32b93737b960391b604482015290519081900360640190fd5b7f000000000000000000000000000000000000000000000000000000000000000061ffff168161ffff161115610ebd576040805162461bcd60e51b815260206004820152601860248201527f477265617465725468616e4d6178696d756d506572696f640000000000000000604482015290519081900360640190fd5b7f000000000000000000000000000000000000000000000000000000000000000061ffff168161ffff161015610f32576040805162461bcd60e51b815260206004820152601560248201527413195cdcd51a185b935a5b9a5b5d5b54195c9a5bd9605a1b604482015290519081900360640190fd5b6001805461ffff8316600160a01b810261ffff60a01b199092169190911790915560408051918252517ff822214854e5620527e54c8a9293eb963df052efebe733964f7dea0be73f2c8a9181900360200190a150565b6001546001600160a01b0316610fe5576040805162461bcd60e51b815260206004820152601f60248201527f476f7665726e61626c653a206e6f2070656e64696e6720676f7665726e6f7200604482015290519081900360640190fd5b60018054600080546001600160a01b03199081166001600160a01b0384161782559091169091556040517fdc57ca23c46d823853915ed5a090ca0ee9db5eb6a46f5c58e1c9158de861fd769190a1565b600080826001600160a01b0316846001600160a01b03161061105857828461105b565b83835b909590945092505050565b600154600090603c90600160b01b810460ff16600160a01b90910461ffff90811691909102166001600160a01b03858116600090815260036020908152604080832093881683529281528282206002805485518185028101850190965280865296909504600a019650949193919083018282801561112d57602002820191906000526020600020906000905b82829054906101000a900462ffffff1662ffffff16815260200190600301906020826002010492830192600103820291508084116110f25790505b5050505050905060005b815181101561132c5760007f00000000000000000000000000000000000000000000000000000000000000006001600160a01b0316631698ee82888886868151811061117f57fe5b60200260200101516040518463ffffffff1660e01b815260040180846001600160a01b03168152602001836001600160a01b031681526020018262ffffff168152602001935050505060206040518083038186803b1580156111e057600080fd5b505afa1580156111f4573d6000803e3d6000fd5b505050506040513d602081101561120a57600080fd5b505190506001600160a01b038116158015906112985750600161ffff16816001600160a01b0316631a6865026040518163ffffffff1660e01b815260040160206040518083038186803b15801561126057600080fd5b505afa158015611274573d6000803e3d6000fd5b505050506040513d602081101561128a57600080fd5b50516001600160801b031610155b1561132357835460018101855560008581526020812090910180546001600160a01b0319166001600160a01b038416908117909155604080516332148f6760e01b815261ffff89166004820152905191926332148f679260248084019382900301818387803b15801561130a57600080fd5b505af115801561131e573d6000803e3d6000fd5b505050505b50600101611137565b508154611373576040805162461bcd60e51b815260206004820152601060248201526f14185a5c939bdd14dd5c1c1bdc9d195960821b604482015290519081900360640190fd5b604080516001600160a01b0380881682528616602082015281517f3ab7d717750c4c1a6f7db914185d58220f53ee512fccd7eeab9e9a1e8019822b929181900390910190a15050505050565b6060825167ffffffffffffffff811180156113d957600080fd5b5060405190808252806020026020018201604052801561141357816020015b611400611e26565b8152602001906001900390816113f85790505b5060408051600280825260608201835292935063ffffffff85166001600160a01b030292600092602083019080368337019050509050838160008151811061145757fe5b602002602001019063ffffffff16908163ffffffff168152505060008160018151811061148057fe5b602002602001019063ffffffff16908163ffffffff168152505060005b85518110156114e4576114c58682815181106114b557fe5b602002602001015186858561174f565b8482815181106114d157fe5b602090810291909101015260010161149d565b50505092915050565b6000806000805b84518110156115705784818151811061150957fe5b60200260200101516000015160020b85828151811061152457fe5b6020026020010151602001516001600160801b0316028301925084818151811061154a57fe5b6020026020010151602001516001600160801b03168201915080806001019150506114f4565b5080828161157a57fe5b059250600082128015611595575080828161159157fe5b0715155b156115a257600019909201915b5050919050565b6000806115b586611a26565b90506001600160801b036001600160a01b03821611611624576001600160a01b0380821680029084811690861610611604576115ff600160c01b876001600160801b031683611d58565b61161c565b61161c81876001600160801b0316600160c01b611d58565b925050611697565b60006116436001600160a01b0383168068010000000000000000611d58565b9050836001600160a01b0316856001600160a01b03161061167b57611676600160801b876001600160801b031683611d58565b611693565b61169381876001600160801b0316600160801b611d58565b9250505b50949350505050565b6001600160a01b0381166116fb576040805162461bcd60e51b815260206004820152601860248201527f476f7665726e61626c653a207a65726f20616464726573730000000000000000604482015290519081900360640190fd5b600180546001600160a01b0383166001600160a01b0319909116811790915560408051918252517f56bddfa0cee9697cebddf9acd7f23dc6583663b05e007b877056d05017994def9181900360200190a150565b611757611e26565b60405163883bdbfd60e01b815260206004820181815284516024840152845160009384936001600160a01b038b169363883bdbfd938993919283926044019181860191028083838b5b838110156117b85781810151838201526020016117a0565b505050509050019250505060006040518083038186803b1580156117db57600080fd5b505afa1580156117ef573d6000803e3d6000fd5b505050506040513d6000823e601f3d908101601f19168201604090815281101561181857600080fd5b810190808051604051939291908464010000000082111561183857600080fd5b90830190602082018581111561184d57600080fd5b825186602082028301116401000000008211171561186a57600080fd5b82525081516020918201928201910280838360005b8381101561189757818101518382015260200161187f565b50505050905001604052602001805160405193929190846401000000008211156118c057600080fd5b9083019060208201858111156118d557600080fd5b82518660208202830111640100000000821117156118f257600080fd5b82525081516020918201928201910280838360005b8381101561191f578181015183820152602001611907565b505050509050016040525050509150915060008260008151811061193f57fe5b60200260200101518360018151811061195457fe5b602002602001015103905060008260008151811061196e57fe5b60200260200101518360018151811061198357fe5b60200260200101510390508763ffffffff168260060b816119a057fe5b05600290810b900b85526000600683900b1280156119d257508763ffffffff168260060b816119cb57fe5b0760060b15155b156119e757845160001901600290810b900b85525b640100000000600160c01b03602082901b166001600160c01b03881681611a0a57fe5b046001600160801b031660208601525092979650505050505050565b60008060008360020b12611a3d578260020b611a45565b8260020b6000035b9050620d89e8811115611a83576040805162461bcd60e51b81526020600482015260016024820152601560fa1b604482015290519081900360640190fd5b600060018216611a9757600160801b611aa9565b6ffffcb933bd6fad37aa2d162d1a5940015b70ffffffffffffffffffffffffffffffffff1690506002821615611add576ffff97272373d413259a46990580e213a0260801c5b6004821615611afc576ffff2e50f5f656932ef12357cf3c7fdcc0260801c5b6008821615611b1b576fffe5caca7e10e4e61c3624eaa0941cd00260801c5b6010821615611b3a576fffcb9843d60f6159c9db58835c9266440260801c5b6020821615611b59576fff973b41fa98c081472e6896dfb254c00260801c5b6040821615611b78576fff2ea16466c96a3843ec78b326b528610260801c5b6080821615611b97576ffe5dee046a99a2a811c461f1969c30530260801c5b610100821615611bb7576ffcbe86c7900a88aedcffc83b479aa3a40260801c5b610200821615611bd7576ff987a7253ac413176f2b074cf7815e540260801c5b610400821615611bf7576ff3392b0822b70005940c7a398e4b70f30260801c5b610800821615611c17576fe7159475a2c29b7443b29c7fa6e889d90260801c5b611000821615611c37576fd097f3bdfd2022b8845ad8f792aa58250260801c5b612000821615611c57576fa9f746462d870fdf8a65dc1f90e061e50260801c5b614000821615611c77576f70d869a156d2a1b890bb3df62baf32f70260801c5b618000821615611c97576f31be135f97d08fd981231505542fcfa60260801c5b62010000821615611cb8576f09aa508b5b7a84e1c677de54f3e99bc90260801c5b62020000821615611cd8576e5d6af8dedb81196699c329225ee6040260801c5b62040000821615611cf7576d2216e584f5fa1ea926041bedfe980260801c5b62080000821615611d14576b048a170391f7dc42444e8fa20260801c5b60008460020b1315611d2f578060001981611d2b57fe5b0490505b640100000000810615611d43576001611d46565b60005b60ff16602082901c0192505050919050565b6000808060001985870986860292508281109083900303905080611d8e5760008411611d8357600080fd5b508290049050611e01565b808411611d9a57600080fd5b6000848688096000868103871696879004966002600389028118808a02820302808a02820302808a02820302808a02820302808a02820302808a02909103029181900381900460010186841190950394909402919094039290920491909117919091029150505b9392505050565b5080546000825590600052602060002090810190610de79190611e3d565b604080518082019091526000808252602082015290565b5b80821115611e525760008155600101611e3e565b509056fe476f7665726e61626c653a206f6e6c792070656e64696e6720676f7665726e6f72a26469706673582212202d1ad9c0b40d4432f3255ce57ca5ebf3f564b0919bac49babf7276e9be924b4b64736f6c63430007060033",
  "linkReferences": {},
  "deployedLinkReferences": {}
}